{
  "_format": "hh-sol-artifact-1",
  "contractName": "CoreGovernance",
  "sourceName": "contracts/core/CoreGovernance.sol",
  "abi": [
    {
      "inputs": [],
      "stateMutability": "nonpayable",
      "type": "constructor"
    },
    {
      "inputs": [],
      "name": "EnforcedPause",
      "type": "error"
    },
    {
      "inputs": [],
      "name": "ExpectedPause",
      "type": "error"
    },
    {
      "inputs": [
        {
          "internalType": "address",
          "name": "owner",
          "type": "address"
        }
      ],
      "name": "OwnableInvalidOwner",
      "type": "error"
    },
    {
      "inputs": [
        {
          "internalType": "address",
          "name": "account",
          "type": "address"
        }
      ],
      "name": "OwnableUnauthorizedAccount",
      "type": "error"
    },
    {
      "anonymous": false,
      "inputs": [
        {
          "indexed": true,
          "internalType": "address",
          "name": "previousOwner",
          "type": "address"
        },
        {
          "indexed": true,
          "internalType": "address",
          "name": "newOwner",
          "type": "address"
        }
      ],
      "name": "OwnershipTransferred",
      "type": "event"
    },
    {
      "anonymous": false,
      "inputs": [
        {
          "indexed": false,
          "internalType": "address",
          "name": "account",
          "type": "address"
        }
      ],
      "name": "Paused",
      "type": "event"
    },
    {
      "anonymous": false,
      "inputs": [
        {
          "indexed": true,
          "internalType": "uint256",
          "name": "proposalId",
          "type": "uint256"
        }
      ],
      "name": "ProposalCanceled",
      "type": "event"
    },
    {
      "anonymous": false,
      "inputs": [
        {
          "indexed": true,
          "internalType": "uint256",
          "name": "proposalId",
          "type": "uint256"
        },
        {
          "indexed": true,
          "internalType": "address",
          "name": "proposer",
          "type": "address"
        },
        {
          "indexed": false,
          "internalType": "string",
          "name": "title",
          "type": "string"
        }
      ],
      "name": "ProposalCreated",
      "type": "event"
    },
    {
      "anonymous": false,
      "inputs": [
        {
          "indexed": true,
          "internalType": "uint256",
          "name": "proposalId",
          "type": "uint256"
        }
      ],
      "name": "ProposalExecuted",
      "type": "event"
    },
    {
      "anonymous": false,
      "inputs": [
        {
          "indexed": false,
          "internalType": "address",
          "name": "account",
          "type": "address"
        }
      ],
      "name": "Unpaused",
      "type": "event"
    },
    {
      "anonymous": false,
      "inputs": [
        {
          "indexed": true,
          "internalType": "uint256",
          "name": "proposalId",
          "type": "uint256"
        },
        {
          "indexed": true,
          "internalType": "address",
          "name": "voter",
          "type": "address"
        },
        {
          "indexed": false,
          "internalType": "bool",
          "name": "support",
          "type": "bool"
        },
        {
          "indexed": false,
          "internalType": "uint256",
          "name": "votingPower",
          "type": "uint256"
        }
      ],
      "name": "Voted",
      "type": "event"
    },
    {
      "anonymous": false,
      "inputs": [
        {
          "indexed": true,
          "internalType": "address",
          "name": "user",
          "type": "address"
        },
        {
          "indexed": false,
          "internalType": "uint256",
          "name": "newPower",
          "type": "uint256"
        }
      ],
      "name": "VotingPowerUpdated",
      "type": "event"
    },
    {
      "inputs": [],
      "name": "MAX_PROPOSAL_DURATION",
      "outputs": [
        {
          "internalType": "uint256",
          "name": "",
          "type": "uint256"
        }
      ],
      "stateMutability": "view",
      "type": "function"
    },
    {
      "inputs": [],
      "name": "MIN_PROPOSAL_DURATION",
      "outputs": [
        {
          "internalType": "uint256",
          "name": "",
          "type": "uint256"
        }
      ],
      "stateMutability": "view",
      "type": "function"
    },
    {
      "inputs": [],
      "name": "MIN_QUORUM",
      "outputs": [
        {
          "internalType": "uint256",
          "name": "",
          "type": "uint256"
        }
      ],
      "stateMutability": "view",
      "type": "function"
    },
    {
      "inputs": [],
      "name": "MIN_VOTING_POWER",
      "outputs": [
        {
          "internalType": "uint256",
          "name": "",
          "type": "uint256"
        }
      ],
      "stateMutability": "view",
      "type": "function"
    },
    {
      "inputs": [
        {
          "internalType": "address[]",
          "name": "users",
          "type": "address[]"
        },
        {
          "internalType": "uint256[]",
          "name": "powers",
          "type": "uint256[]"
        }
      ],
      "name": "batchUpdateVotingPower",
      "outputs": [],
      "stateMutability": "nonpayable",
      "type": "function"
    },
    {
      "inputs": [
        {
          "internalType": "uint256",
          "name": "proposalId",
          "type": "uint256"
        }
      ],
      "name": "cancelProposal",
      "outputs": [],
      "stateMutability": "nonpayable",
      "type": "function"
    },
    {
      "inputs": [
        {
          "internalType": "string",
          "name": "title",
          "type": "string"
        },
        {
          "internalType": "string",
          "name": "description",
          "type": "string"
        },
        {
          "internalType": "uint256",
          "name": "duration",
          "type": "uint256"
        }
      ],
      "name": "createProposal",
      "outputs": [
        {
          "internalType": "uint256",
          "name": "proposalId",
          "type": "uint256"
        }
      ],
      "stateMutability": "nonpayable",
      "type": "function"
    },
    {
      "inputs": [
        {
          "internalType": "uint256",
          "name": "proposalId",
          "type": "uint256"
        }
      ],
      "name": "executeProposal",
      "outputs": [],
      "stateMutability": "nonpayable",
      "type": "function"
    },
    {
      "inputs": [],
      "name": "getActiveProposals",
      "outputs": [
        {
          "internalType": "uint256[]",
          "name": "",
          "type": "uint256[]"
        }
      ],
      "stateMutability": "view",
      "type": "function"
    },
    {
      "inputs": [],
      "name": "getProposalCount",
      "outputs": [
        {
          "internalType": "uint256",
          "name": "",
          "type": "uint256"
        }
      ],
      "stateMutability": "view",
      "type": "function"
    },
    {
      "inputs": [
        {
          "internalType": "uint256",
          "name": "proposalId",
          "type": "uint256"
        }
      ],
      "name": "getProposalInfo",
      "outputs": [
        {
          "internalType": "address",
          "name": "proposer",
          "type": "address"
        },
        {
          "internalType": "string",
          "name": "title",
          "type": "string"
        },
        {
          "internalType": "string",
          "name": "description",
          "type": "string"
        },
        {
          "internalType": "uint256",
          "name": "forVotes",
          "type": "uint256"
        },
        {
          "internalType": "uint256",
          "name": "againstVotes",
          "type": "uint256"
        },
        {
          "internalType": "uint256",
          "name": "startTime",
          "type": "uint256"
        },
        {
          "internalType": "uint256",
          "name": "endTime",
          "type": "uint256"
        },
        {
          "internalType": "bool",
          "name": "executed",
          "type": "bool"
        },
        {
          "internalType": "bool",
          "name": "canceled",
          "type": "bool"
        },
        {
          "internalType": "uint256",
          "name": "quorum",
          "type": "uint256"
        },
        {
          "internalType": "uint256",
          "name": "minVotingPower",
          "type": "uint256"
        }
      ],
      "stateMutability": "view",
      "type": "function"
    },
    {
      "inputs": [
        {
          "internalType": "uint256",
          "name": "proposalId",
          "type": "uint256"
        }
      ],
      "name": "getProposalStatus",
      "outputs": [
        {
          "internalType": "bool",
          "name": "isActive",
          "type": "bool"
        },
        {
          "internalType": "bool",
          "name": "isPassed",
          "type": "bool"
        },
        {
          "internalType": "bool",
          "name": "isExecuted",
          "type": "bool"
        },
        {
          "internalType": "bool",
          "name": "isCanceled",
          "type": "bool"
        },
        {
          "internalType": "uint256",
          "name": "timeRemaining",
          "type": "uint256"
        }
      ],
      "stateMutability": "view",
      "type": "function"
    },
    {
      "inputs": [
        {
          "internalType": "uint256",
          "name": "proposalId",
          "type": "uint256"
        },
        {
          "internalType": "address",
          "name": "user",
          "type": "address"
        }
      ],
      "name": "getUserVote",
      "outputs": [
        {
          "internalType": "bool",
          "name": "support",
          "type": "bool"
        },
        {
          "internalType": "uint256",
          "name": "votingPower",
          "type": "uint256"
        },
        {
          "internalType": "uint256",
          "name": "timestamp",
          "type": "uint256"
        },
        {
          "internalType": "string",
          "name": "reason",
          "type": "string"
        }
      ],
      "stateMutability": "view",
      "type": "function"
    },
    {
      "inputs": [
        {
          "internalType": "address",
          "name": "",
          "type": "address"
        }
      ],
      "name": "lastVoteTime",
      "outputs": [
        {
          "internalType": "uint256",
          "name": "",
          "type": "uint256"
        }
      ],
      "stateMutability": "view",
      "type": "function"
    },
    {
      "inputs": [],
      "name": "owner",
      "outputs": [
        {
          "internalType": "address",
          "name": "",
          "type": "address"
        }
      ],
      "stateMutability": "view",
      "type": "function"
    },
    {
      "inputs": [],
      "name": "pause",
      "outputs": [],
      "stateMutability": "nonpayable",
      "type": "function"
    },
    {
      "inputs": [],
      "name": "paused",
      "outputs": [
        {
          "internalType": "bool",
          "name": "",
          "type": "bool"
        }
      ],
      "stateMutability": "view",
      "type": "function"
    },
    {
      "inputs": [
        {
          "internalType": "uint256",
          "name": "",
          "type": "uint256"
        }
      ],
      "name": "proposals",
      "outputs": [
        {
          "internalType": "uint256",
          "name": "id",
          "type": "uint256"
        },
        {
          "internalType": "address",
          "name": "proposer",
          "type": "address"
        },
        {
          "internalType": "string",
          "name": "title",
          "type": "string"
        },
        {
          "internalType": "string",
          "name": "description",
          "type": "string"
        },
        {
          "internalType": "uint256",
          "name": "forVotes",
          "type": "uint256"
        },
        {
          "internalType": "uint256",
          "name": "againstVotes",
          "type": "uint256"
        },
        {
          "internalType": "uint256",
          "name": "startTime",
          "type": "uint256"
        },
        {
          "internalType": "uint256",
          "name": "endTime",
          "type": "uint256"
        },
        {
          "internalType": "bool",
          "name": "executed",
          "type": "bool"
        },
        {
          "internalType": "bool",
          "name": "canceled",
          "type": "bool"
        },
        {
          "internalType": "uint256",
          "name": "quorum",
          "type": "uint256"
        },
        {
          "internalType": "uint256",
          "name": "minVotingPower",
          "type": "uint256"
        }
      ],
      "stateMutability": "view",
      "type": "function"
    },
    {
      "inputs": [],
      "name": "renounceOwnership",
      "outputs": [],
      "stateMutability": "nonpayable",
      "type": "function"
    },
    {
      "inputs": [
        {
          "internalType": "address",
          "name": "newOwner",
          "type": "address"
        }
      ],
      "name": "transferOwnership",
      "outputs": [],
      "stateMutability": "nonpayable",
      "type": "function"
    },
    {
      "inputs": [],
      "name": "unpause",
      "outputs": [],
      "stateMutability": "nonpayable",
      "type": "function"
    },
    {
      "inputs": [
        {
          "internalType": "address",
          "name": "user",
          "type": "address"
        },
        {
          "internalType": "uint256",
          "name": "newPower",
          "type": "uint256"
        }
      ],
      "name": "updateVotingPower",
      "outputs": [],
      "stateMutability": "nonpayable",
      "type": "function"
    },
    {
      "inputs": [
        {
          "internalType": "address",
          "name": "",
          "type": "address"
        }
      ],
      "name": "userVotingPower",
      "outputs": [
        {
          "internalType": "uint256",
          "name": "",
          "type": "uint256"
        }
      ],
      "stateMutability": "view",
      "type": "function"
    },
    {
      "inputs": [
        {
          "internalType": "uint256",
          "name": "proposalId",
          "type": "uint256"
        },
        {
          "internalType": "bool",
          "name": "support",
          "type": "bool"
        },
        {
          "internalType": "string",
          "name": "reason",
          "type": "string"
        }
      ],
      "name": "vote",
      "outputs": [],
      "stateMutability": "nonpayable",
      "type": "function"
    },
    {
      "inputs": [
        {
          "internalType": "uint256",
          "name": "",
          "type": "uint256"
        },
        {
          "internalType": "address",
          "name": "",
          "type": "address"
        }
      ],
      "name": "votes",
      "outputs": [
        {
          "internalType": "bool",
          "name": "support",
          "type": "bool"
        },
        {
          "internalType": "uint256",
          "name": "votingPower",
          "type": "uint256"
        },
        {
          "internalType": "uint256",
          "name": "timestamp",
          "type": "uint256"
        },
        {
          "internalType": "string",
          "name": "reason",
          "type": "string"
        }
      ],
      "stateMutability": "view",
      "type": "function"
    }
  ],
  "bytecode": "0x6080806040523461007f5733156100695760008054336001600160a01b03198216811783556040519290916001600160a01b0316907f8be0079c531659141344cd1fd0a4f28419497f9722a3daafe3b4186f6b6457e09080a36001600555611b1290816100858239f35b631e4fbdf760e01b815260006004820152602490fd5b600080fdfe608080604052600436101561001357600080fd5b60003560e01c908162ae25241461172c57508063013cf08b1461164557806303c7881a146107555780630ce0ebf41461109c5780630d61b51914610f6757806336b1b6a414610f2d5780633f4ba83a14610ebb578063401853b714610d865780635584c4f914610ba35780635c975abb14610b7d5780635f3ad70914610b60578063715018a614610b075780637c05026f146109d3578063805a8142146109b75780638456cb59146109405780638da5cb5b14610917578063944ee22d146108f9578063bc903cb814610821578063bd96821614610803578063c08cc02d146107c2578063d23254b414610755578063d3c0715b1461036d578063e0a8f6f51461022f578063eadc29c7146101c45763f2fde38b1461013157600080fd5b346101bf5760203660031901126101bf5761014a611762565b610152611980565b6001600160a01b039081169081156101a657600054826bffffffffffffffffffffffff60a01b821617600055167f8be0079c531659141344cd1fd0a4f28419497f9722a3daafe3b4186f6b6457e0600080a3005b604051631e4fbdf760e01b815260006004820152602490fd5b600080fd5b346101bf5760403660031901126101bf576101dd611762565b7f36ac285914fb5fd49dd16e36cab1e696eda836080e3a61ff587c8671cbbdcab960206024359261020c611980565b6001600160a01b03166000818152600383526040908190208590555193845292a2005b346101bf576020806003193601126101bf5760043590816000526001815260018060a01b0360016040600020015416330361032957816000526001815261027c60406000205415156119c8565b81600052600181526040600020600881019160078354926102a060ff851615611a14565b6102b060ff8560081c1615611a60565b01544210156102ec575061ff0019166101001790557f789cf55be980739dad1d0699b93b58e806b51c9d96619bfa8fe0a28abaa7b30c600080a2005b6064906040519062461bcd60e51b825260048201526016602482015275141c9bdc1bdcd85b08185b1c9958591e48195b99195960521b6044820152fd5b6064906040519062461bcd60e51b82526004820152601b60248201527f4f6e6c792070726f706f7365722063616e2063616c6c207468697300000000006044820152fd5b346101bf5760603660031901126101bf576024803580151591600435918381036101bf5767ffffffffffffffff906044358281116101bf576103b39036906004016118f8565b90846000526001916020938385526103d160406000205415156119c8565b8660005283855260406000206006810154421061071a5742600782015411156106e55760ff600861041492015461040a82821615611a14565b60081c1615611a60565b3360005260038552604060002054156106af578660005260028552604060002033600052855260026040600020015461067b57336000526003855260406000205495604051608081018181108482111761066657906003916040528a81528781018981526040820190428252606083019687528b60005260028a526040600020336000528a526104b8604060002093511515849060ff801983541691151516179055565b5188830155516002820155019251908151928311610652575081906104dd845461178e565b601f81116105ff575b508690601f831160011461059c57600092610591575b5050600019600383901b1c191690841b1790555b1561057157836000528152600460406000200161052e8382546119bb565b90555b3360005260048152426040600020556040519384528301527f7c2de587c00d75474a0c6c6fa96fd3b45dc974cd4e8a75f712bb84c950dce1b560403393a3005b836000528152600560406000200161058a8382546119bb565b9055610531565b0151905089806104fc565b90869350601f1983169185600052886000209260005b8a8282106105e957505084116105d0575b505050811b019055610510565b015160001960f88460031b161c191690558980806105c3565b8385015186558a979095019493840193016105b2565b9091508360005286600020601f840160051c810191888510610648575b84939291601f89920160051c01915b8281106106395750506104e6565b6000815585945088910161062b565b909150819061061c565b634e487b7160e01b60009081526041600452fd5b82634e487b7160e01b60005260416004526000fd5b60405162461bcd60e51b815260048101869052600d818801526c105b1c9958591e481d9bdd1959609a1b6044820152606490fd5b60405162461bcd60e51b815260048101869052600f818801526e2737903b37ba34b733903837bbb2b960891b6044820152606490fd5b60405162461bcd60e51b815260048101879052600e818901526d141c9bdc1bdcd85b08195b99195960921b6044820152606490fd5b60405162461bcd60e51b81526004810187905260148189015273141c9bdc1bdcd85b081b9bdd081cdd185c9d195960621b6044820152606490fd5b346101bf5760403660031901126101bf5761076e611778565b600435600052600260205260406000209060018060a01b0316600052602052604060002060ff8154166107be6001830154926107b16003600283015492016117ea565b90604051948594856118d0565b0390f35b346101bf5760003660031901126101bf5760055460001981019081116107ed57602090604051908152f35b634e487b7160e01b600052601160045260246000fd5b346101bf5760003660031901126101bf57602060405162278d008152f35b346101bf5760203660031901126101bf576004356000526001602052604060002060018060a01b03600182015416600482015482600581015460ff600683015460078401546008850154916009860154946108be610892600361088b6002600a8c01549b016117ea565b9c016117ea565b6108b06040519c8d9c8d5260208d61016091829101528d0190611890565b908b820360408d0152611890565b9760608a0152608089015260a088015260c0870152818116151560e087015260081c1615156101008501526101208401526101408301520390f35b346101bf5760003660031901126101bf576020604051620151808152f35b346101bf5760003660031901126101bf576000546040516001600160a01b039091168152602090f35b346101bf5760003660031901126101bf57610959611980565b60005460ff8160a01c166109a55760ff60a01b1916600160a01b176000556040513381527f62e78cea01bee320cd4e420270b5ea74000d11b0c9f74754ebdbfc544b05a25890602090a1005b60405163d93c066560e01b8152600490fd5b346101bf5760003660031901126101bf57602060405160648152f35b346101bf5760403660031901126101bf5767ffffffffffffffff6004358181116101bf57610a0590369060040161194f565b90916024359081116101bf57610a1f90369060040161194f565b610a27611980565b808303610ac95760005b838110610a3a57005b80610a49610ac4928486611aa0565b6001600160a01b03907f36ac285914fb5fd49dd16e36cab1e696eda836080e3a61ff587c8671cbbdcab9903582610a89610a84868b8d611aa0565b611ab0565b1660005260209060038252604060002055610aa8610a84858a8c611aa0565b92610ab485888a611aa0565b35936040519485521692a26119ac565b610a31565b60405162461bcd60e51b8152602060048201526016602482015275082e4e4c2f240d8cadccee8d0e640dad2e6dac2e8c6d60531b6044820152606490fd5b346101bf5760003660031901126101bf57610b20611980565b600080546001600160a01b0319811682556001600160a01b03167f8be0079c531659141344cd1fd0a4f28419497f9722a3daafe3b4186f6b6457e08280a3005b346101bf5760003660031901126101bf5760206040516103e88152f35b346101bf5760003660031901126101bf57602060ff60005460a01c166040519015158152f35b346101bf5760003660031901126101bf576005805460001981019060009082116107ed5760015b82811115610d015750610bf5610bdf82611ac4565b91610bed60405193846117c8565b808352611ac4565b6020938285019391601f190136853760009060015b83811115610c5557868587604051928392818401908285525180915260408401929160005b828110610c3e57505050500390f35b835185528695509381019392810192600101610c2f565b8060005260018752604060002042600682015411159081610cf2575b81610ce2575b81610cce575b50610c91575b610c8c906119ac565b610c0a565b918451811015610cb857610cb0818489610c8c94861b890101526119ac565b929050610c83565b634e487b7160e01b600052603260045260246000fd5b60ff9150600880910154901c161588610c7d565b600881015460ff16159150610c77565b90504260078201541190610c71565b806000526001602052604060002042600682015411159081610d77575b81610d67575b81610d53575b50610d3e575b610d39906119ac565b610bca565b90610d4b610d39916119ac565b919050610d30565b60ff9150600880910154901c161585610d2a565b600881015460ff16159150610d24565b90504260078201541190610d1e565b346101bf5760203660031901126101bf5760043560005260016020526040600020600681015442101580610eae575b80610e9f575b80610e8d575b6000916007810154908142101580610e7e575b80610e6c575b610e36575b600091428111610e21575b5060a093600860ff920154906040519415158552151560208501528181161515604085015260081c16151560608301526080820152f35b9091504281039081116107ed579060a0610dea565b925060048301546005840154610e4c81836119bb565b600986015411159182610e62575b505092610ddf565b1190508480610e5a565b5060ff600882015460081c1615610dda565b5060ff60088201541615610dd4565b5060ff600882015460081c1615610dc1565b5060ff60088201541615610dbb565b5042600782015411610db5565b346101bf5760003660031901126101bf57610ed4611980565b60005460ff8160a01c1615610f1b5760ff60a01b19166000556040513381527f5db9ee0a495bf2e6ff9c91a7834c1ba4fdd244a5e8aa4e537bd38aeae4b073aa90602090a1005b604051638dfc202b60e01b8152600490fd5b346101bf5760203660031901126101bf576001600160a01b03610f4e611762565b1660005260036020526020604060002054604051908152f35b346101bf5760203660031901126101bf57600435806000526001602052610f9460406000205415156119c8565b806000526001602052604060002060078101544210611062576008810190815490610fc260ff831615611a14565b610fd260ff8360081c1615611a60565b60048101546005820154916009610fe984846119bb565b910154116110285711610ff857005b60ff191660011790557f712ae1383f79ac853f8d882153778e0260ef8f03b504e2866e0593e04d2b291f600080a2005b60405162461bcd60e51b8152602060048201526012602482015271145d5bdc9d5b481b9bdd081c995858da195960721b6044820152606490fd5b60405162461bcd60e51b8152602060048201526012602482015271141c9bdc1bdcd85b081b9bdd08195b99195960721b6044820152606490fd5b346101bf5760603660031901126101bf5760043567ffffffffffffffff81116101bf576110cd9036906004016118f8565b60243567ffffffffffffffff81116101bf576110ed9036906004016118f8565b90604490813591815115611609578351156115c55762015180831061158c5762278d0083116115545733600052600360205260646040600020541061151057506111466005549261113d846119ac565b600555426119bb565b60405193610180850185811067ffffffffffffffff82111761142f57604052838552336020860152826040860152606085015260006080850152600060a08501524260c085015260e0840152600061010084015260006101208401526103e861014084015260646101608401528160005260016020526040600020835181556001810160018060a01b036020860151166bffffffffffffffffffffffff60a01b825416179055604084015180519067ffffffffffffffff821161142f578190611212600285015461178e565b601f81116114bd575b50602090601f831160011461145057600092611445575b50508160011b916000199060031b1c19161760028201555b606084015193845167ffffffffffffffff811161142f5761126e600384015461178e565b95601f87116113e8575b602096508690601f8311600114611374579180600a949261016094600092611369575b50508160011b916000199060031b1c19161760038501555b6080810151600485015560a0810151600585015560c0810151600685015560e08101516007850155600884016112fc6101008301511515829060ff801983541691151516179055565b610120820151151561ff0082549160081b169061ff00191617905561014081015160098501550151910155817f7585f467599d0f008985f231af99293be388626ac16ca59505c2f8f88969cd636040518581528061135e339588830190611890565b0390a3604051908152f35b01519050898061129b565b9060038501600052876000209160005b601f19851681106113d1575092600a94926001926101609583601f198116106113b8575b505050811b0160038501556112b3565b015160001960f88460031b161c191690558980806113a8565b919289600181928685015181550194019201611384565b600384016000526020600020601f830160051c810160208410611428575b601f890160051c8201811061141c575050611278565b60008155600101611406565b5080611406565b634e487b7160e01b600052604160045260246000fd5b015190508680611232565b600285016000908152602081209350601f198516905b8181106114a5575090846001959493921061148c575b505050811b01600282015561124a565b015160001960f88460031b161c1916905586808061147c565b92936020600181928786015181550195019301611466565b909150600284016000526020600020601f840160051c810160208510611509575b90849392915b601f830160051c820181106114fa57505061121b565b600081558594506001016114e4565b50806114de565b6064907f496e73756666696369656e7420766f74696e6720706f776572000000000000006040519162461bcd60e51b83526020600484015260196024840152820152fd5b606490704475726174696f6e20746f6f206c6f6e6760781b6040519162461bcd60e51b83526020600484015260116024840152820152fd5b60649071111d5c985d1a5bdb881d1bdbc81cda1bdc9d60721b6040519162461bcd60e51b83526020600484015260126024840152820152fd5b6064907f4465736372697074696f6e2063616e6e6f7420626520656d70747900000000006040519162461bcd60e51b835260206004840152601b6024840152820152fd5b606490745469746c652063616e6e6f7420626520656d70747960581b6040519162461bcd60e51b83526020600484015260156024840152820152fd5b346101bf5760203660031901126101bf5760043560009081526001602081815260409092208054918101546001600160a01b0316611685600283016117ea565b9160ff611694600383016117ea565b9360048301549460058401546006850154906116f06007870154936116e2600889015496600a60098b01549a01549a6040519e8f9e8f908152015260408d61018091829101528d0190611890565b908b820360608d0152611890565b9760808a015260a089015260c088015260e0870152818116151561010087015260081c1615156101208501526101408401526101608301520390f35b346101bf5760203660031901126101bf576020906001600160a01b03611750611762565b16600052600482526040600020548152f35b600435906001600160a01b03821682036101bf57565b602435906001600160a01b03821682036101bf57565b90600182811c921680156117be575b60208310146117a857565b634e487b7160e01b600052602260045260246000fd5b91607f169161179d565b90601f8019910116810190811067ffffffffffffffff82111761142f57604052565b90604051918260008254926117fe8461178e565b90818452600194858116908160001461186d575060011461182a575b5050611828925003836117c8565b565b9093915060005260209081600020936000915b8183106118555750506118289350820101388061181a565b8554888401850152948501948794509183019161183d565b91505061182894506020925060ff191682840152151560051b820101388061181a565b919082519283825260005b8481106118bc575050826000602080949584010152601f8019910116010190565b60208183018101518483018201520161189b565b90926080926118f5959415158352602083015260408201528160608201520190611890565b90565b81601f820112156101bf5780359067ffffffffffffffff821161142f576040519261192d601f8401601f1916602001856117c8565b828452602083830101116101bf57816000926020809301838601378301015290565b9181601f840112156101bf5782359167ffffffffffffffff83116101bf576020808501948460051b0101116101bf57565b6000546001600160a01b0316330361199457565b60405163118cdaa760e01b8152336004820152602490fd5b60001981146107ed5760010190565b919082018092116107ed57565b156119cf57565b60405162461bcd60e51b815260206004820152601760248201527f50726f706f73616c20646f6573206e6f742065786973740000000000000000006044820152606490fd5b15611a1b57565b60405162461bcd60e51b815260206004820152601960248201527f50726f706f73616c20616c7265616479206578656375746564000000000000006044820152606490fd5b15611a6757565b60405162461bcd60e51b8152602060048201526011602482015270141c9bdc1bdcd85b0818d85b98d95b1959607a1b6044820152606490fd5b9190811015610cb85760051b0190565b356001600160a01b03811681036101bf5790565b67ffffffffffffffff811161142f5760051b6020019056fea2646970667358221220d9854ae7ecf87ca01b28d8342ba0590bf28f49c066f3c1feb0dc3fcd637b866764736f6c63430008140033",
  "linkReferences": {},
  "deployedLinkReferences": {}
}