{
  "_format": "hh-sol-artifact-1",
  "contractName": "CoreYieldTokenOperations",
  "sourceName": "contracts/core/CoreYieldTokenOperations.sol",
  "abi": [
    {
      "inputs": [],
      "stateMutability": "nonpayable",
      "type": "constructor"
    },
    {
      "inputs": [
        {
          "internalType": "address",
          "name": "owner",
          "type": "address"
        }
      ],
      "name": "OwnableInvalidOwner",
      "type": "error"
    },
    {
      "inputs": [
        {
          "internalType": "address",
          "name": "account",
          "type": "address"
        }
      ],
      "name": "OwnableUnauthorizedAccount",
      "type": "error"
    },
    {
      "inputs": [
        {
          "internalType": "address",
          "name": "token",
          "type": "address"
        }
      ],
      "name": "SafeERC20FailedOperation",
      "type": "error"
    },
    {
      "anonymous": false,
      "inputs": [
        {
          "indexed": true,
          "internalType": "address",
          "name": "previousOwner",
          "type": "address"
        },
        {
          "indexed": true,
          "internalType": "address",
          "name": "newOwner",
          "type": "address"
        }
      ],
      "name": "OwnershipTransferred",
      "type": "event"
    },
    {
      "anonymous": false,
      "inputs": [
        {
          "indexed": true,
          "internalType": "address",
          "name": "user",
          "type": "address"
        },
        {
          "indexed": true,
          "internalType": "address",
          "name": "syToken",
          "type": "address"
        },
        {
          "indexed": false,
          "internalType": "uint256",
          "name": "syAmount",
          "type": "uint256"
        }
      ],
      "name": "TokensMerged",
      "type": "event"
    },
    {
      "anonymous": false,
      "inputs": [
        {
          "indexed": true,
          "internalType": "address",
          "name": "user",
          "type": "address"
        },
        {
          "indexed": true,
          "internalType": "address",
          "name": "syToken",
          "type": "address"
        },
        {
          "indexed": false,
          "internalType": "uint256",
          "name": "ptAmount",
          "type": "uint256"
        },
        {
          "indexed": false,
          "internalType": "uint256",
          "name": "ytAmount",
          "type": "uint256"
        }
      ],
      "name": "TokensSplit",
      "type": "event"
    },
    {
      "anonymous": false,
      "inputs": [
        {
          "indexed": true,
          "internalType": "address",
          "name": "user",
          "type": "address"
        },
        {
          "indexed": true,
          "internalType": "address",
          "name": "syToken",
          "type": "address"
        },
        {
          "indexed": false,
          "internalType": "uint256",
          "name": "amount",
          "type": "uint256"
        }
      ],
      "name": "YieldDistributed",
      "type": "event"
    },
    {
      "inputs": [
        {
          "internalType": "address",
          "name": "_syToken",
          "type": "address"
        },
        {
          "internalType": "address",
          "name": "_user",
          "type": "address"
        },
        {
          "internalType": "uint256",
          "name": "_amount",
          "type": "uint256"
        }
      ],
      "name": "distributeYield",
      "outputs": [],
      "stateMutability": "nonpayable",
      "type": "function"
    },
    {
      "inputs": [],
      "name": "marketFactory",
      "outputs": [
        {
          "internalType": "address",
          "name": "",
          "type": "address"
        }
      ],
      "stateMutability": "view",
      "type": "function"
    },
    {
      "inputs": [
        {
          "internalType": "address",
          "name": "_syToken",
          "type": "address"
        },
        {
          "internalType": "uint256",
          "name": "_ptAmount",
          "type": "uint256"
        },
        {
          "internalType": "uint256",
          "name": "_ytAmount",
          "type": "uint256"
        }
      ],
      "name": "mergePTYT",
      "outputs": [
        {
          "internalType": "uint256",
          "name": "syAmount",
          "type": "uint256"
        }
      ],
      "stateMutability": "nonpayable",
      "type": "function"
    },
    {
      "inputs": [],
      "name": "owner",
      "outputs": [
        {
          "internalType": "address",
          "name": "",
          "type": "address"
        }
      ],
      "stateMutability": "view",
      "type": "function"
    },
    {
      "inputs": [],
      "name": "renounceOwnership",
      "outputs": [],
      "stateMutability": "nonpayable",
      "type": "function"
    },
    {
      "inputs": [
        {
          "internalType": "address",
          "name": "_marketFactory",
          "type": "address"
        }
      ],
      "name": "setMarketFactory",
      "outputs": [],
      "stateMutability": "nonpayable",
      "type": "function"
    },
    {
      "inputs": [
        {
          "internalType": "address",
          "name": "_syToken",
          "type": "address"
        },
        {
          "internalType": "uint256",
          "name": "_syAmount",
          "type": "uint256"
        }
      ],
      "name": "splitSY",
      "outputs": [
        {
          "internalType": "uint256",
          "name": "ptAmount",
          "type": "uint256"
        },
        {
          "internalType": "uint256",
          "name": "ytAmount",
          "type": "uint256"
        }
      ],
      "stateMutability": "nonpayable",
      "type": "function"
    },
    {
      "inputs": [
        {
          "internalType": "address",
          "name": "newOwner",
          "type": "address"
        }
      ],
      "name": "transferOwnership",
      "outputs": [],
      "stateMutability": "nonpayable",
      "type": "function"
    }
  ],
  "bytecode": "0x6080806040523461007a5733156100645760008054336001600160a01b03198216811783556040519290916001600160a01b0316907f8be0079c531659141344cd1fd0a4f28419497f9722a3daafe3b4186f6b6457e09080a3610c6690816100808239f35b631e4fbdf760e01b815260006004820152602490fd5b600080fdfe6080604081815260048036101561001557600080fd5b600092833560e01c90816306ae7095146109be5750806320315f99146106735780634dcc434a146105ef5780636e3ae77414610405578063715018a6146103ab578063716361801461013a5780638da5cb5b1461010e5763f2fde38b1461007b57600080fd5b3461010a57602036600319011261010a576100946109e3565b9061009d6109f9565b6001600160a01b039182169283156100f4575050600054826bffffffffffffffffffffffff60a01b821617600055167f8be0079c531659141344cd1fd0a4f28419497f9722a3daafe3b4186f6b6457e0600080a380f35b51631e4fbdf760e01b8152908101849052602490fd5b8280fd5b505034610136578160031936011261013657905490516001600160a01b039091168152602090f35b5080fd5b5082346103215782600319360112610321576101546109e3565b916024359160018060a01b03918260015416926101b98380895196602099858b8a019163d4dfadbf60e01b835216988960248201526024815261019681610a4f565b51915afa6101ab6101a5610a8d565b91610acd565b878082518301019101610b2d565b6101c860a08201511515610bb3565b6101d760808201514210610bf3565b87516323b872dd60e01b815233848201908152306020820152604081018890528890829081906060010381888a5af1801561036d57610377575b50843b1561032e578751631bfff0ad60e31b81528381018790528481602481838a5af1801561036d57908591610359575b5050818782015116803b1561034b5788516340c10f1960e01b80825233828701908152602081018a90529095949392879183919082908490829060400103925af1801561034f578a92918791610332575b505001511691823b1561032e578751908152339181019182526020820186905291839183919082908490829060400103925af180156103245761030d575b5050835182815282848201527f51a9efdc4a6e8e85e387b86c53fe91523abfb82325ba91e027d9935ef0179bcf853392a3825191818352820152f35b6103178291610a25565b61032157806102d1565b80fd5b86513d84823e3d90fd5b8380fd5b61033e91929350610a25565b61034b578890858b610293565b8480fd5b8a513d88823e3d90fd5b61036290610a25565b61032e578389610242565b89513d87823e3d90fd5b8781813d83116103a4575b61038c8183610a6b565b8101031261034b5761039d90610b20565b5088610211565b503d610382565b83346103215780600319360112610321576103c46109f9565b600080546001600160a01b0319811682556001600160a01b03167f8be0079c531659141344cd1fd0a4f28419497f9722a3daafe3b4186f6b6457e08280a380f35b50903461010a57606036600319011261010a576104206109e3565b6001600160a01b0392602480358581169491908590036105ea5760443592866001541696610472898086519a8b99856020809c019163d4dfadbf60e01b8352169c8d8982015288815261019681610a4f565b61048160a08201511515610bb3565b81858201511633036105af5760600189828251168a3b156101365786516395ccea6760e01b81526001600160a01b0391909116858201908152602081018990528290829081900360400181838f5af180156105a55761058d575b505051845163a9059cbb60e01b8189019081523386830190815260208101899052939092169288928c92909161051e90829060400103601f198101835282610a6b565b519082855af1156105835788513d61057a5750803b155b61056857505050907f62f6db630d0f368769015f2386526893a6af9401da723c9904b3aa8800d55c72929151908152a380f35b8351635274afe760e01b815291820152fd5b60011415610535565b83513d8a823e3d90fd5b61059690610a25565b6105a15789386104db565b8980fd5b87513d84823e3d90fd5b845162461bcd60e51b81528084018890526016818601527513db9b1e481655081d1bdad95b8818d85b8818d85b1b60521b6044820152606490fd5b600080fd5b50903461010a57602036600319011261010a5761060a6109e3565b6106126109f9565b600154926001600160a01b039283851661064257505016906bffffffffffffffffffffffff60a01b161760015580f35b906020606492519162461bcd60e51b8352820152600b60248201526a105b1c9958591e481cd95d60aa1b6044820152fd5b50903461010a57606036600319011261010a5761068e6109e3565b6024938435936044359560018060a01b0380976106ef858084600154168a519960209d8e8c019163d4dfadbf60e01b8352169a8b898201528881526106d281610a4f565b51915afa6106e16101a5610a8d565b8a8082518301019101610b2d565b6106fe60a08201511515610bb3565b61070d60808201514210610bf3565b81890361096457898101805189516323b872dd60e01b80825233828a01908152306020820152604081018e9052909593949193928e91859189169082908d90829060600103925af1801561095a578d92918c91610917575b0180518c51968752338a880190815230602082015260408101939093529095935083919087169082908b9082906060015b03925af180156108cc57908492916108da575b505116803b156108d6579085808594938b968b5180948193631bfff0ad60e31b9a8b84528c8401525af180156108cc576108b9575b50511691823b1561034b579184929183928851948593849283528b888401525af180156108af5790839161089b575b5050823b156101365783516340c10f1960e01b8152339181019182526020820186905290829082908190604001038183875af180156108915761087d575b505081518381527fa72d10c6e0d424400ba4ea95e425874cfee37002e6f3a229cbfce178bdf1e183853392a351908152f35b6108878291610a25565b610321578061084b565b84513d84823e3d90fd5b6108a490610a25565b61013657813861080d565b85513d85823e3d90fd5b6108c590969196610a25565b94386107de565b89513d89823e3d90fd5b8580fd5b9091508a81813d8311610910575b6108f28183610a6b565b8101031261090c57906109058492610b20565b50386107a9565b8680fd5b503d6108e8565b92905083819492943d8311610953575b6109318183610a6b565b8101031261094f57918a8d9261094961079695610b20565b50610765565b8880fd5b503d610927565b8b513d8b823e3d90fd5b875162461bcd60e51b81528086018b9052602f818601527f505420616e6420595420616d6f756e7473206d75737420626520657175616c2060448201526e666f7220313a313a31206d6572676560881b6064820152608490fd5b8490346101365781600319360112610136576001546001600160a01b03168152602090f35b600435906001600160a01b03821682036105ea57565b6000546001600160a01b03163303610a0d57565b60405163118cdaa760e01b8152336004820152602490fd5b67ffffffffffffffff8111610a3957604052565b634e487b7160e01b600052604160045260246000fd5b6060810190811067ffffffffffffffff821117610a3957604052565b90601f8019910116810190811067ffffffffffffffff821117610a3957604052565b3d15610ac8573d9067ffffffffffffffff8211610a395760405191610abc601f8201601f191660200184610a6b565b82523d6000602084013e565b606090565b15610ad457565b60405162461bcd60e51b815260206004820152601060248201526f13585c9ad95d081b9bdd08199bdd5b9960821b6044820152606490fd5b51906001600160a01b03821682036105ea57565b519081151582036105ea57565b908160c09103126105ea576040519060c0820182811067ffffffffffffffff821117610a3957610bab9160a091604052610b6681610b0c565b8452610b7460208201610b0c565b6020850152610b8560408201610b0c565b6040850152610b9660608201610b0c565b60608501526080810151608085015201610b20565b60a082015290565b15610bba57565b60405162461bcd60e51b81526020600482015260116024820152704d61726b6574206e6f742061637469766560781b6044820152606490fd5b15610bfa57565b60405162461bcd60e51b815260206004820152600e60248201526d13585c9ad95d081b585d1d5c995960921b6044820152606490fdfea264697066735822122005312acded32cdf398415eb7bc625df7472f1a41d6173570a8f02cdd4d7fb77364736f6c63430008140033",
  "linkReferences": {},
  "deployedLinkReferences": {}
}