{
  "_format": "hh-sol-artifact-1",
  "contractName": "CoreSwapAMM",
  "sourceName": "contracts/core/AMM/CoreSwapAMM.sol",
  "abi": [
    {
      "inputs": [],
      "stateMutability": "nonpayable",
      "type": "constructor"
    },
    {
      "inputs": [],
      "name": "EnforcedPause",
      "type": "error"
    },
    {
      "inputs": [],
      "name": "ExpectedPause",
      "type": "error"
    },
    {
      "inputs": [
        {
          "internalType": "address",
          "name": "owner",
          "type": "address"
        }
      ],
      "name": "OwnableInvalidOwner",
      "type": "error"
    },
    {
      "inputs": [
        {
          "internalType": "address",
          "name": "account",
          "type": "address"
        }
      ],
      "name": "OwnableUnauthorizedAccount",
      "type": "error"
    },
    {
      "inputs": [],
      "name": "ReentrancyGuardReentrantCall",
      "type": "error"
    },
    {
      "inputs": [
        {
          "internalType": "address",
          "name": "token",
          "type": "address"
        }
      ],
      "name": "SafeERC20FailedOperation",
      "type": "error"
    },
    {
      "anonymous": false,
      "inputs": [
        {
          "indexed": true,
          "internalType": "address",
          "name": "user",
          "type": "address"
        },
        {
          "indexed": true,
          "internalType": "bytes32",
          "name": "poolKey",
          "type": "bytes32"
        },
        {
          "indexed": false,
          "internalType": "uint256",
          "name": "amount0",
          "type": "uint256"
        },
        {
          "indexed": false,
          "internalType": "uint256",
          "name": "amount1",
          "type": "uint256"
        },
        {
          "indexed": false,
          "internalType": "uint256",
          "name": "liquidity",
          "type": "uint256"
        }
      ],
      "name": "LiquidityAdded",
      "type": "event"
    },
    {
      "anonymous": false,
      "inputs": [
        {
          "indexed": true,
          "internalType": "address",
          "name": "user",
          "type": "address"
        },
        {
          "indexed": true,
          "internalType": "bytes32",
          "name": "poolKey",
          "type": "bytes32"
        },
        {
          "indexed": false,
          "internalType": "uint256",
          "name": "amount0",
          "type": "uint256"
        },
        {
          "indexed": false,
          "internalType": "uint256",
          "name": "amount1",
          "type": "uint256"
        },
        {
          "indexed": false,
          "internalType": "uint256",
          "name": "liquidity",
          "type": "uint256"
        }
      ],
      "name": "LiquidityRemoved",
      "type": "event"
    },
    {
      "anonymous": false,
      "inputs": [
        {
          "indexed": true,
          "internalType": "address",
          "name": "previousOwner",
          "type": "address"
        },
        {
          "indexed": true,
          "internalType": "address",
          "name": "newOwner",
          "type": "address"
        }
      ],
      "name": "OwnershipTransferred",
      "type": "event"
    },
    {
      "anonymous": false,
      "inputs": [
        {
          "indexed": false,
          "internalType": "address",
          "name": "account",
          "type": "address"
        }
      ],
      "name": "Paused",
      "type": "event"
    },
    {
      "anonymous": false,
      "inputs": [
        {
          "indexed": true,
          "internalType": "address",
          "name": "token0",
          "type": "address"
        },
        {
          "indexed": true,
          "internalType": "address",
          "name": "token1",
          "type": "address"
        },
        {
          "indexed": true,
          "internalType": "bytes32",
          "name": "poolKey",
          "type": "bytes32"
        }
      ],
      "name": "PoolCreated",
      "type": "event"
    },
    {
      "anonymous": false,
      "inputs": [
        {
          "indexed": true,
          "internalType": "address",
          "name": "user",
          "type": "address"
        },
        {
          "indexed": true,
          "internalType": "address",
          "name": "tokenIn",
          "type": "address"
        },
        {
          "indexed": true,
          "internalType": "address",
          "name": "tokenOut",
          "type": "address"
        },
        {
          "indexed": false,
          "internalType": "uint256",
          "name": "amountIn",
          "type": "uint256"
        },
        {
          "indexed": false,
          "internalType": "uint256",
          "name": "amountOut",
          "type": "uint256"
        }
      ],
      "name": "SwapExecuted",
      "type": "event"
    },
    {
      "anonymous": false,
      "inputs": [
        {
          "indexed": false,
          "internalType": "address",
          "name": "account",
          "type": "address"
        }
      ],
      "name": "Unpaused",
      "type": "event"
    },
    {
      "inputs": [],
      "name": "MAX_FEE",
      "outputs": [
        {
          "internalType": "uint256",
          "name": "",
          "type": "uint256"
        }
      ],
      "stateMutability": "view",
      "type": "function"
    },
    {
      "inputs": [],
      "name": "MINIMUM_LIQUIDITY",
      "outputs": [
        {
          "internalType": "uint256",
          "name": "",
          "type": "uint256"
        }
      ],
      "stateMutability": "view",
      "type": "function"
    },
    {
      "inputs": [
        {
          "internalType": "address",
          "name": "token0",
          "type": "address"
        },
        {
          "internalType": "address",
          "name": "token1",
          "type": "address"
        },
        {
          "internalType": "uint256",
          "name": "amount0Desired",
          "type": "uint256"
        },
        {
          "internalType": "uint256",
          "name": "amount1Desired",
          "type": "uint256"
        },
        {
          "internalType": "uint256",
          "name": "amount0Min",
          "type": "uint256"
        },
        {
          "internalType": "uint256",
          "name": "amount1Min",
          "type": "uint256"
        }
      ],
      "name": "addLiquidity",
      "outputs": [
        {
          "internalType": "uint256",
          "name": "liquidity",
          "type": "uint256"
        }
      ],
      "stateMutability": "nonpayable",
      "type": "function"
    },
    {
      "inputs": [
        {
          "internalType": "address",
          "name": "token",
          "type": "address"
        }
      ],
      "name": "addSupportedToken",
      "outputs": [],
      "stateMutability": "nonpayable",
      "type": "function"
    },
    {
      "inputs": [
        {
          "internalType": "address[]",
          "name": "tokens",
          "type": "address[]"
        },
        {
          "internalType": "uint256[]",
          "name": "amounts",
          "type": "uint256[]"
        },
        {
          "internalType": "uint256",
          "name": "slippageTolerance",
          "type": "uint256"
        }
      ],
      "name": "batchSwap",
      "outputs": [
        {
          "internalType": "uint256[]",
          "name": "amountsOut",
          "type": "uint256[]"
        }
      ],
      "stateMutability": "nonpayable",
      "type": "function"
    },
    {
      "inputs": [
        {
          "internalType": "uint256",
          "name": "amountIn",
          "type": "uint256"
        },
        {
          "internalType": "address",
          "name": "tokenIn",
          "type": "address"
        },
        {
          "internalType": "address",
          "name": "tokenOut",
          "type": "address"
        }
      ],
      "name": "calculatePriceImpact",
      "outputs": [
        {
          "internalType": "uint256",
          "name": "",
          "type": "uint256"
        }
      ],
      "stateMutability": "view",
      "type": "function"
    },
    {
      "inputs": [
        {
          "internalType": "address",
          "name": "token0",
          "type": "address"
        },
        {
          "internalType": "address",
          "name": "token1",
          "type": "address"
        }
      ],
      "name": "createPool",
      "outputs": [
        {
          "internalType": "bytes32",
          "name": "poolKey",
          "type": "bytes32"
        }
      ],
      "stateMutability": "nonpayable",
      "type": "function"
    },
    {
      "inputs": [],
      "name": "defaultFee",
      "outputs": [
        {
          "internalType": "uint256",
          "name": "",
          "type": "uint256"
        }
      ],
      "stateMutability": "view",
      "type": "function"
    },
    {
      "inputs": [
        {
          "internalType": "uint256",
          "name": "amountOut",
          "type": "uint256"
        },
        {
          "internalType": "address[]",
          "name": "path",
          "type": "address[]"
        }
      ],
      "name": "getAmountsIn",
      "outputs": [
        {
          "internalType": "uint256[]",
          "name": "amounts",
          "type": "uint256[]"
        }
      ],
      "stateMutability": "view",
      "type": "function"
    },
    {
      "inputs": [
        {
          "internalType": "uint256",
          "name": "amountIn",
          "type": "uint256"
        },
        {
          "internalType": "address[]",
          "name": "path",
          "type": "address[]"
        }
      ],
      "name": "getAmountsOut",
      "outputs": [
        {
          "internalType": "uint256[]",
          "name": "amounts",
          "type": "uint256[]"
        }
      ],
      "stateMutability": "view",
      "type": "function"
    },
    {
      "inputs": [
        {
          "internalType": "address",
          "name": "token0",
          "type": "address"
        },
        {
          "internalType": "address",
          "name": "token1",
          "type": "address"
        }
      ],
      "name": "getPoolInfo",
      "outputs": [
        {
          "internalType": "uint256",
          "name": "reserve0",
          "type": "uint256"
        },
        {
          "internalType": "uint256",
          "name": "reserve1",
          "type": "uint256"
        },
        {
          "internalType": "uint256",
          "name": "totalSupply",
          "type": "uint256"
        },
        {
          "internalType": "uint256",
          "name": "fee",
          "type": "uint256"
        },
        {
          "internalType": "uint256",
          "name": "lastUpdateTime",
          "type": "uint256"
        }
      ],
      "stateMutability": "view",
      "type": "function"
    },
    {
      "inputs": [
        {
          "internalType": "address",
          "name": "tokenIn",
          "type": "address"
        },
        {
          "internalType": "address",
          "name": "tokenOut",
          "type": "address"
        },
        {
          "internalType": "uint256",
          "name": "amountIn",
          "type": "uint256"
        },
        {
          "internalType": "uint256",
          "name": "slippageTolerance",
          "type": "uint256"
        }
      ],
      "name": "getSlippageProtection",
      "outputs": [
        {
          "internalType": "uint256",
          "name": "minAmountOut",
          "type": "uint256"
        }
      ],
      "stateMutability": "view",
      "type": "function"
    },
    {
      "inputs": [],
      "name": "getSwapAnalytics",
      "outputs": [
        {
          "internalType": "uint256",
          "name": "totalVolume24h",
          "type": "uint256"
        },
        {
          "internalType": "uint256",
          "name": "totalSwaps",
          "type": "uint256"
        },
        {
          "internalType": "uint256",
          "name": "averageSlippage",
          "type": "uint256"
        },
        {
          "internalType": "uint256",
          "name": "totalFees",
          "type": "uint256"
        }
      ],
      "stateMutability": "view",
      "type": "function"
    },
    {
      "inputs": [
        {
          "internalType": "address",
          "name": "user",
          "type": "address"
        }
      ],
      "name": "getSwapHistory",
      "outputs": [
        {
          "components": [
            {
              "internalType": "address",
              "name": "user",
              "type": "address"
            },
            {
              "internalType": "address",
              "name": "tokenIn",
              "type": "address"
            },
            {
              "internalType": "address",
              "name": "tokenOut",
              "type": "address"
            },
            {
              "internalType": "uint256",
              "name": "amountIn",
              "type": "uint256"
            },
            {
              "internalType": "uint256",
              "name": "amountOut",
              "type": "uint256"
            },
            {
              "internalType": "uint256",
              "name": "timestamp",
              "type": "uint256"
            },
            {
              "internalType": "uint256",
              "name": "slippage",
              "type": "uint256"
            },
            {
              "internalType": "uint256",
              "name": "priceImpact",
              "type": "uint256"
            }
          ],
          "internalType": "struct CoreSwapAMM.SwapHistory[]",
          "name": "",
          "type": "tuple[]"
        }
      ],
      "stateMutability": "view",
      "type": "function"
    },
    {
      "inputs": [
        {
          "internalType": "address",
          "name": "token",
          "type": "address"
        }
      ],
      "name": "getTokenPrice",
      "outputs": [
        {
          "internalType": "uint256",
          "name": "price",
          "type": "uint256"
        }
      ],
      "stateMutability": "view",
      "type": "function"
    },
    {
      "inputs": [],
      "name": "owner",
      "outputs": [
        {
          "internalType": "address",
          "name": "",
          "type": "address"
        }
      ],
      "stateMutability": "view",
      "type": "function"
    },
    {
      "inputs": [],
      "name": "pause",
      "outputs": [],
      "stateMutability": "nonpayable",
      "type": "function"
    },
    {
      "inputs": [],
      "name": "paused",
      "outputs": [
        {
          "internalType": "bool",
          "name": "",
          "type": "bool"
        }
      ],
      "stateMutability": "view",
      "type": "function"
    },
    {
      "inputs": [
        {
          "internalType": "address",
          "name": "",
          "type": "address"
        },
        {
          "internalType": "address",
          "name": "",
          "type": "address"
        }
      ],
      "name": "poolKeys",
      "outputs": [
        {
          "internalType": "bytes32",
          "name": "",
          "type": "bytes32"
        }
      ],
      "stateMutability": "view",
      "type": "function"
    },
    {
      "inputs": [
        {
          "internalType": "bytes32",
          "name": "",
          "type": "bytes32"
        }
      ],
      "name": "pools",
      "outputs": [
        {
          "internalType": "address",
          "name": "token0",
          "type": "address"
        },
        {
          "internalType": "address",
          "name": "token1",
          "type": "address"
        },
        {
          "internalType": "uint256",
          "name": "reserve0",
          "type": "uint256"
        },
        {
          "internalType": "uint256",
          "name": "reserve1",
          "type": "uint256"
        },
        {
          "internalType": "uint256",
          "name": "totalSupply",
          "type": "uint256"
        },
        {
          "internalType": "uint256",
          "name": "fee",
          "type": "uint256"
        },
        {
          "internalType": "uint256",
          "name": "lastUpdateTime",
          "type": "uint256"
        }
      ],
      "stateMutability": "view",
      "type": "function"
    },
    {
      "inputs": [
        {
          "internalType": "address",
          "name": "token0",
          "type": "address"
        },
        {
          "internalType": "address",
          "name": "token1",
          "type": "address"
        },
        {
          "internalType": "uint256",
          "name": "liquidity",
          "type": "uint256"
        },
        {
          "internalType": "uint256",
          "name": "amount0Min",
          "type": "uint256"
        },
        {
          "internalType": "uint256",
          "name": "amount1Min",
          "type": "uint256"
        }
      ],
      "name": "removeLiquidity",
      "outputs": [
        {
          "internalType": "uint256",
          "name": "amount0",
          "type": "uint256"
        },
        {
          "internalType": "uint256",
          "name": "amount1",
          "type": "uint256"
        }
      ],
      "stateMutability": "nonpayable",
      "type": "function"
    },
    {
      "inputs": [
        {
          "internalType": "address",
          "name": "token",
          "type": "address"
        }
      ],
      "name": "removeSupportedToken",
      "outputs": [],
      "stateMutability": "nonpayable",
      "type": "function"
    },
    {
      "inputs": [],
      "name": "renounceOwnership",
      "outputs": [],
      "stateMutability": "nonpayable",
      "type": "function"
    },
    {
      "inputs": [
        {
          "internalType": "uint256",
          "name": "newFee",
          "type": "uint256"
        }
      ],
      "name": "setDefaultFee",
      "outputs": [],
      "stateMutability": "nonpayable",
      "type": "function"
    },
    {
      "inputs": [
        {
          "internalType": "address",
          "name": "token0",
          "type": "address"
        },
        {
          "internalType": "address",
          "name": "token1",
          "type": "address"
        },
        {
          "internalType": "uint256",
          "name": "newFee",
          "type": "uint256"
        }
      ],
      "name": "setPoolFee",
      "outputs": [],
      "stateMutability": "nonpayable",
      "type": "function"
    },
    {
      "inputs": [
        {
          "internalType": "address",
          "name": "",
          "type": "address"
        }
      ],
      "name": "supportedTokens",
      "outputs": [
        {
          "internalType": "bool",
          "name": "",
          "type": "bool"
        }
      ],
      "stateMutability": "view",
      "type": "function"
    },
    {
      "inputs": [
        {
          "internalType": "uint256",
          "name": "amountIn",
          "type": "uint256"
        },
        {
          "internalType": "uint256",
          "name": "amountOutMin",
          "type": "uint256"
        },
        {
          "internalType": "address[]",
          "name": "path",
          "type": "address[]"
        },
        {
          "internalType": "address",
          "name": "to",
          "type": "address"
        },
        {
          "internalType": "uint256",
          "name": "deadline",
          "type": "uint256"
        }
      ],
      "name": "swapExactTokensForTokens",
      "outputs": [
        {
          "internalType": "uint256[]",
          "name": "amounts",
          "type": "uint256[]"
        }
      ],
      "stateMutability": "nonpayable",
      "type": "function"
    },
    {
      "inputs": [
        {
          "internalType": "address",
          "name": "newOwner",
          "type": "address"
        }
      ],
      "name": "transferOwnership",
      "outputs": [],
      "stateMutability": "nonpayable",
      "type": "function"
    },
    {
      "inputs": [],
      "name": "unpause",
      "outputs": [],
      "stateMutability": "nonpayable",
      "type": "function"
    },
    {
      "inputs": [
        {
          "internalType": "address",
          "name": "",
          "type": "address"
        }
      ],
      "name": "userSwapCount",
      "outputs": [
        {
          "internalType": "uint256",
          "name": "",
          "type": "uint256"
        }
      ],
      "stateMutability": "view",
      "type": "function"
    },
    {
      "inputs": [
        {
          "internalType": "address",
          "name": "",
          "type": "address"
        },
        {
          "internalType": "uint256",
          "name": "",
          "type": "uint256"
        }
      ],
      "name": "userSwapHistory",
      "outputs": [
        {
          "internalType": "address",
          "name": "user",
          "type": "address"
        },
        {
          "internalType": "address",
          "name": "tokenIn",
          "type": "address"
        },
        {
          "internalType": "address",
          "name": "tokenOut",
          "type": "address"
        },
        {
          "internalType": "uint256",
          "name": "amountIn",
          "type": "uint256"
        },
        {
          "internalType": "uint256",
          "name": "amountOut",
          "type": "uint256"
        },
        {
          "internalType": "uint256",
          "name": "timestamp",
          "type": "uint256"
        },
        {
          "internalType": "uint256",
          "name": "slippage",
          "type": "uint256"
        },
        {
          "internalType": "uint256",
          "name": "priceImpact",
          "type": "uint256"
        }
      ],
      "stateMutability": "view",
      "type": "function"
    }
  ],
  "bytecode": "0x6080806040523461009c57600090600182553315610088575060018054336001600160a01b0319821681179092556040805193909290916001600160a01b03167f8be0079c531659141344cd1fd0a4f28419497f9722a3daafe3b4186f6b6457e08380a3601e600555808052600360205220805460ff1916600117905561224f90816100a28239f35b602491631e4fbdf760e01b82526004820152fd5b600080fdfe6080604052600436101561001257600080fd5b60003560e01c80630345536e14611a2a5780631f00ca741461181d578063255038cb1461140b578063312750ac146112a55780633351733f1461106957806337ae40bf14610fe857806338ed173914610d345780633f4ba83a14610cc2578063486e51f414610c29578063543aa9fe14610bef57806355bbf4df14610b9c5780635a6c72d014610b7e5780635c975abb14610b5857806368c4ac2614610b195780636b9bab0b14610ae85780636d69fcaf14610aa357806370d08fdd14610a52578063715018a6146109f557806376319190146109b35780638456cb59146109515780638da5cb5b14610928578063b0a8ac9b14610882578063b5217bb41461080a578063ba9a7a56146107ed578063bc063e1a146107d0578063c93a6c84146107a1578063d02641a01461077c578063d06ca61f14610669578063e2dc85dc146104d3578063e3433615146101ff5763f2fde38b1461017157600080fd5b346101fa5760203660031901126101fa5761018a611af9565b610192611bcb565b6001600160a01b039081169081156101e157600154826001600160601b0360a01b821617600155167f8be0079c531659141344cd1fd0a4f28419497f9722a3daafe3b4186f6b6457e0600080a3005b604051631e4fbdf760e01b815260006004820152602490fd5b600080fd5b346101fa5760403660031901126101fa57610218611af9565b610220611ae3565b90610229611bcb565b6001600160a01b03818116919083811683811461049b578084101561046857836000526020946003865260ff6040600020541680610455575b156104105760405193868501916001600160601b0319809260601b16835260601b166034850152602884526060840167ffffffffffffffff91858210838311176103c457816040528551902094856000526002885284604060002054166103da575050600554926040519160e0830190838210908211176103c45785946006928992604052888552828501868152604086016000815260608701916000835260808801936000855260a08901958652600260c08a01974289528c60005252806040600020995116906001600160601b0360a01b91828b5416178a5560018a019251169082541617905551600287015551600386015551600485015551600584015551910155836000526004855260406000208160005285528160406000205560048552604060002084600052855281604060002055604051937fec5dc6309c83a50f60f4a1fae9422b2c406da78c579b9b12b92d033db37c7194600080a48152f35b634e487b7160e01b600052604160045260246000fd5b9072506f6f6c20616c72656164792065786973747360681b60a46064938a62461bcd60e51b855285820152601360848201520152fd5b60405162461bcd60e51b815260048101879052601d60248201527f426f746820746f6b656e73206d75737420626520737570706f727465640000006044820152606490fd5b508160005260ff60406000205416610262565b60405162461bcd60e51b815260206004820152600b60248201526a2a37b5b2b71037b93232b960a91b6044820152606490fd5b60405162461bcd60e51b815260206004820152601060248201526f4964656e746963616c20746f6b656e7360801b6044820152606490fd5b346101fa5760a03660031901126101fa5760406104ee611af9565b6105cb6104f9611ae3565b610501611e22565b610509611e01565b6105ff6105d560018060a01b0392838616600052600460205286600020848216600052602052866000205493610540851515611c36565b8460005260026020526105f78860002097828116838a54161480610658575b61056890611c73565b60028901549061057a82604435611cae565b996105e361058d6004830154809d611cc1565b9b8c98899560038501546105ac846105a783604435611cae565b611cc1565b9e8f9c8d936064358210158061064c575b6105c690611cfb565b611ce1565b6002870155611ce1565b600384015560443590611ce1565b600482015560064291015583339116611f65565b339116611f65565b835183815260208101839052604435604082015233907fdcd2a7a2ca607e210edca7c07bebf4592a7fc452d24305ca55ecdff503421fb090606090a3600160005582519182526020820152f35b506084358510156105bd565b50600189015483168484161461055f565b346101fa5761067736611b40565b916106856002841015611fb5565b61068e83612008565b906106988261203a565b5260005b60001984018481116107545781101561076a576001600160a01b0390816106cc6106c783888861206a565b61207a565b16600052602060048152604060002060018301918284116107545761074f946106f96106c7858b8b61206a565b166000525261070e6040600020541515611c36565b61074961074161071e8487612047565b5161072d6106c7868b8b61206a565b61073b6106c7868c8c61206a565b916120cb565b509185612047565b5261205b565b61069c565b634e487b7160e01b600052601160045260246000fd5b604051806107788482611b74565b0390f35b346101fa5760203660031901126101fa57610795611af9565b50602060405160008152f35b346101fa5760203660031901126101fa576004356107bd611bcb565b6107cb6101f48211156121de565b600555005b346101fa5760003660031901126101fa5760206040516101f48152f35b346101fa5760003660031901126101fa5760206040516103e88152f35b346101fa5760203660031901126101fa57600435600052600260205260e0604060002060018060a01b0390818154169160018201541690600281015460038201546004830154916006600585015494015494604051968752602087015260408601526060850152608084015260a083015260c0820152f35b346101fa5760403660031901126101fa5761089b611af9565b6024359060018060a01b038091166000526006602052604060002080548310156101fa57610100926108cc91611baf565b50908082541691816001820154169160028201541660038201546004830154906005840154926007600686015495015495604051978852602088015260408701526060860152608085015260a084015260c083015260e0820152f35b346101fa5760003660031901126101fa576001546040516001600160a01b039091168152602090f35b346101fa5760003660031901126101fa5761096a611bcb565b610972611e01565b6001805460ff60a01b1916600160a01b1790556040513381527f62e78cea01bee320cd4e420270b5ea74000d11b0c9f74754ebdbfc544b05a25890602090a1005b346101fa5760203660031901126101fa576109cc611af9565b6109d4611bcb565b6001600160a01b03166000908152600360205260409020805460ff19169055005b346101fa5760003660031901126101fa57610a0e611bcb565b600180546001600160a01b031981169091556000906001600160a01b03167f8be0079c531659141344cd1fd0a4f28419497f9722a3daafe3b4186f6b6457e08280a3005b346101fa5760403660031901126101fa57610a6b611af9565b610a73611ae3565b9060018060a01b038091166000526004602052604060002091166000526020526020604060002054604051908152f35b346101fa5760203660031901126101fa57610abc611af9565b610ac4611bcb565b6001600160a01b03166000908152600360205260409020805460ff19166001179055005b346101fa5760003660031901126101fa57608060405160008152600060208201526000604082015260006060820152f35b346101fa5760203660031901126101fa576001600160a01b03610b3a611af9565b166000526003602052602060ff604060002054166040519015158152f35b346101fa5760003660031901126101fa57602060ff60015460a01c166040519015158152f35b346101fa5760003660031901126101fa576020600554604051908152f35b346101fa5760803660031901126101fa57610bc9610bb8611af9565b610bc0611ae3565b906044356120cb565b5061271060643581039181831161075457602092610be691611cae565b04604051908152f35b346101fa5760203660031901126101fa576001600160a01b03610c10611af9565b1660005260076020526020604060002054604051908152f35b346101fa5760403660031901126101fa57610c42611af9565b610c4a611ae3565b9060018060a01b03809116600052600460205260406000209116600052602052604060002054610c7b811515611c36565b600052600260205260a06040600020600281015490600381015490600481015460066005830154920154926040519485526020850152604084015260608301526080820152f35b346101fa5760003660031901126101fa57610cdb611bcb565b60015460ff8160a01c1615610d225760ff60a01b19166001556040513381527f5db9ee0a495bf2e6ff9c91a7834c1ba4fdd244a5e8aa4e537bd38aeae4b073aa90602090a1005b604051638dfc202b60e01b8152600490fd5b346101fa5760a03660031901126101fa5760443567ffffffffffffffff81116101fa57610d65903690600401611b0f565b6064356001600160a01b0380821682036101fa57610d81611e22565b610d89611e01565b4260843510610fb957610d9f6002841015611fb5565b610da883612008565b93600435610db58661203a565b5260005b600019850185811161075457811015610f3d5782610ddb6106c783888661206a565b1660005260206004815260406000209060018301918284116107545785808887828c888f8b90849985610e0f85878a61206a565b610e189061207a565b166000528b526040600020541515610e2f90611c36565b610e398282612047565b51610e4583868961206a565b610e4e9061207a565b610e5985878a61206a565b610e629061207a565b90610e6c926120cb565b50978896838689610e7d8887612047565b52610e879261206a565b610e909061207a565b1691610e9b91612047565b513033610ea793611d3e565b610eb1918c61206a565b610eba9061207a565b1691610ec592611f65565b610ed0868b8961206a565b610ed99061207a565b94610ee5908b8961206a565b610eee9061207a565b90610ef9878d612047565b519460405195865285015216921690339060407f764f0dc063c06f32d89a3f3af80c0db4be8a090901f589a478b447e0a51f09f191a4610f389061205b565b610db9565b858051600019810190811161075457610f596024359183612047565b5110610f745761077890600160005560405191829182611b74565b60405162461bcd60e51b815260206004820152601a60248201527f496e73756666696369656e74206f757470757420616d6f756e740000000000006044820152606490fd5b60405162461bcd60e51b8152602060048201526007602482015266115e1c1a5c995960ca1b6044820152606490fd5b346101fa5760603660031901126101fa57611001611af9565b611009611ae3565b60443591611015611bcb565b60018060a01b03809116600052600460205260406000209116600052602052604060002054611045811515611c36565b6110536101f48311156121de565b6000526002602052600560406000200155600080f35b346101fa5760c03660031901126101fa57611082611af9565b61108a611ae3565b60443590606435611099611e22565b6110a1611e01565b60018060a01b038094169182600052600460205284604060002091169081600052602052604060002054926110d7841515611c36565b8360005260026020526110fe6040600020968383828a5416149182611295575b5050611c73565b60048601805480611221575061111c6111178588611cae565b611e45565b6103e719810181811161075457969491555b85156111dc57602096611181827fdfdd9dbcc558b79525f53ba7faeaa725e94f45e8795c3152c0e8353bb73025b795611178888b97608435821015806111d0575b61117890611cfb565b30903390611d3e565b60028101611190868254611cee565b9055600381016111a1838254611cee565b905542600691909101556040805194855260208501919091528301523391606090a36001600055604051908152f35b5060a43585101561116f565b60405162461bcd60e51b815260206004820152601d60248201527f496e73756666696369656e74206c6971756964697479206d696e7465640000006044820152606490fd5b8094968180935061123191611cae565b966002890154978861124291611cc1565b9561124c91611cae565b946003890154958661125d91611cc1565b908180821091180218966112719088611cae565b9061127b91611cc1565b936112869087611cae565b9061129091611cc1565b61112e565b60018a01541614905083896110f7565b346101fa576020806003193601126101fa576001600160a01b0390816112c9611af9565b1660005260069081815260406000209081546112e481611ff0565b936112f26040519586611c14565b81855260009384528284208386019491855b84841061139857505050505060405192818401908285525180915260408401929160005b8281106113355785850386f35b835180518816865280830151881686840152604080820151891690870152606080820151908701526080808201519087015260a0808201519087015260c0808201519087015260e090810151908601526101009094019392810192600101611328565b60088660019260409a989a516113ad81611bf7565b8c87541681528c8588015416838201528c60028801541660408201526003870154606082015260048701546080820152600587015460a08201528587015460c0820152600787015460e0820152815201930193019291969496611304565b346101fa5760603660031901126101fa5767ffffffffffffffff6004358181116101fa5761143d903690600401611b0f565b90916024359081116101fa57611457903690600401611b0f565b9190611461611e22565b611469611e01565b600282101580611809575b156117d4576103e86044351161179b5761148d82612008565b9215611785573561149d8361203a565b5260005b600019820182811161075457811015611772576001600160a01b036114ca6106c783858861206a565b1660005260046020526040600020600182018211610754576001600160a01b036114fb6106c760018501868961206a565b166000526020526115126040600020541515611c36565b61153f61151f8285612047565b5161152e6106c784868961206a565b61073b6106c760018601878a61206a565b91908061154f6001840187612047565b5261157f6001600160a01b036115696106c785888b61206a565b166115748488612047565b519030903390611d3e565b6115a381336001600160a01b0361159d6106c7600188018a8d61206a565b16611f65565b6115b16106c783868961206a565b926115c36106c760018501878a61206a565b6115cd8488612047565b5190604051956115dc87611bf7565b33875260018060a01b0316602087015260018060a01b0316604086015260608501528160808501524260a085015260443560c085015260e084015233600052600660205260406000208054600160401b8110156103c45761164291600182018155611baf565b61175c5760e06117579460018060a01b038151166001600160601b0360a01b90818554161784556001840160018060a01b0360208401511682825416179055600284019060018060a01b0360408401511690825416179055606081015160038401556080810151600484015560a0810151600584015560c0810151600684015501516007809201553360005260205260406000206116e0815461205b565b90556116f06106c783868961206a565b906117026106c760018501878a61206a565b61170c8488612047565b516040805191825260208201939093526001600160a01b03918216939091169133917f764f0dc063c06f32d89a3f3af80c0db4be8a090901f589a478b447e0a51f09f19190a461205b565b6114a1565b634e487b7160e01b600052600060045260246000fd5b6001600055604051806107788582611b74565b634e487b7160e01b600052603260045260246000fd5b60405162461bcd60e51b81526020600482015260116024820152700a6d8d2e0e0c2ceca40e8dede40d0d2ced607b1b6044820152606490fd5b60405162461bcd60e51b815260206004820152600d60248201526c125b9d985b1a59081a5b9c1d5d609a1b6044820152606490fd5b506000198201828111610754578314611474565b346101fa5761182b36611b40565b600261183981831015611fb5565b61184282612008565b92835194600019958681019081116107545761185e9086612047565b5284830183811161075457805b61187d57604051806107788782611b74565b858101818111610754576001600160a01b038061189e6106c784898861206a565b16600052602090600482526040600020816118bd6106c7878b8a61206a565b1660005282526118d36040600020541515611c36565b6118dd8489612047565b51906118ed6106c7858a8961206a565b816118fc6106c7888c8b61206a565b9116908160005260048552826040600020911660005284526040600020546000528784526040600020918254161480600014611a1f5787820154905b15611a15576003820154935b81151580611a0c575b6119569061208e565b848410156119cf57508261196991611cae565b9161271093848402938085048614901517156107545760059161198b91611ce1565b9101548303928311610754576119aa926119a491611cae565b90611cc1565b9060018201809211610754576119c09087612047565b5280156107545785018061186b565b6064906040519062461bcd60e51b825260048201526016602482015275496e73756666696369656e74206c697175696469747960501b6044820152fd5b5084151561194d565b8782015493611944565b600382015490611938565b346101fa5760603660031901126101fa57600435611a46611ae3565b6001600160a01b039060443582811691908290036101fa57821690816000526004602052604060002090600052602052604060002054611a87811515611c36565b600052600260205260406000209182541614600014611ad95760020154905b611ab182151561208e565b6127109081810291818304149015171561075457602091611ad191611cc1565b604051908152f35b6003015490611aa6565b602435906001600160a01b03821682036101fa57565b600435906001600160a01b03821682036101fa57565b9181601f840112156101fa5782359167ffffffffffffffff83116101fa576020808501948460051b0101116101fa57565b9060406003198301126101fa57600435916024359067ffffffffffffffff82116101fa57611b7091600401611b0f565b9091565b6020908160408183019282815285518094520193019160005b828110611b9b575050505090565b835185529381019392810192600101611b8d565b80548210156117855760005260206000209060031b0190600090565b6001546001600160a01b03163303611bdf57565b60405163118cdaa760e01b8152336004820152602490fd5b610100810190811067ffffffffffffffff8211176103c457604052565b90601f8019910116810190811067ffffffffffffffff8211176103c457604052565b15611c3d57565b60405162461bcd60e51b815260206004820152600e60248201526d141bdbdb081b9bdd08199bdd5b9960921b6044820152606490fd5b15611c7a57565b60405162461bcd60e51b815260206004820152600c60248201526b125b9d985b1a59081c1bdbdb60a21b6044820152606490fd5b8181029291811591840414171561075457565b8115611ccb570490565b634e487b7160e01b600052601260045260246000fd5b9190820391821161075457565b9190820180921161075457565b15611d0257565b60405162461bcd60e51b8152602060048201526014602482015273496e73756666696369656e7420616d6f756e747360601b6044820152606490fd5b6040516323b872dd60e01b60208201526001600160a01b03928316602482015292909116604483015260648083019390935291815260a081019181831067ffffffffffffffff8411176103c457611d9792604052611d99565b565b906000602091828151910182855af115611df5576000513d611dec57506001600160a01b0381163b155b611dca5750565b604051635274afe760e01b81526001600160a01b039091166004820152602490fd5b60011415611dc3565b6040513d6000823e3d90fd5b60ff60015460a01c16611e1057565b60405163d93c066560e01b8152600490fd5b600260005414611e33576002600055565b604051633ee5aeb560e01b8152600490fd5b600180821115611f6157611f02908083600160801b811015611f4f575b80600160401b6004921015611f42575b640100000000811015611f35575b62010000811015611f28575b610100811015611f1c575b6010811015611f10575b1015611f09575b600302811c611eb78185611cc1565b01811c611ec48185611cc1565b01811c611ed18185611cc1565b01811c611ede8185611cc1565b01811c611eeb8185611cc1565b01811c611ef88185611cc1565b01901c8092611cc1565b8111900390565b811b611ea8565b811c9160021b91611ea1565b60081c91811b91611e97565b60101c9160081b91611e8c565b60201c9160101b91611e80565b60401c9160201b91611e72565b50600160401b9050608084901c611e62565b5090565b60405163a9059cbb60e01b60208201526001600160a01b039092166024830152604480830193909352918152608081019167ffffffffffffffff8311828410176103c457611d9792604052611d99565b15611fbc57565b60405162461bcd60e51b815260206004820152600c60248201526b092dcecc2d8d2c840e0c2e8d60a31b6044820152606490fd5b67ffffffffffffffff81116103c45760051b60200190565b9061201282611ff0565b61201f6040519182611c14565b8281528092612030601f1991611ff0565b0190602036910137565b8051156117855760200190565b80518210156117855760209160051b010190565b60001981146107545760010190565b91908110156117855760051b0190565b356001600160a01b03811681036101fa5790565b1561209557565b60405162461bcd60e51b815260206004820152600e60248201526d456d70747920726573657276657360901b6044820152606490fd5b92919060018060a01b03809116600092818452600460205282604085209116845260205260408320548352600260205260408320918254161491826000146121d3576002820154925b156121c8576003820154915b60058415918215806121bf575b6121369061208e565b0154926127109384038481116121ab5761215361215a9189611cae565b9182611cae565b9184860290868204861417156121ab5761217892916119a491611cee565b9482810292818404149015171561219757509061219491611cc1565b90565b634e487b7160e01b81526011600452602490fd5b634e487b7160e01b84526011600452602484fd5b5084151561212d565b600282015491612120565b600382015492612114565b156121e557565b60405162461bcd60e51b815260206004820152600c60248201526b08ccaca40e8dede40d0d2ced60a31b6044820152606490fdfea26469706673582212202698ad076c3c15ee9c655cb27d21a058777f69cbb51d8511a6f7031d0232f96464736f6c63430008140033",
  "linkReferences": {},
  "deployedLinkReferences": {}
}