{
  "_format": "hh-sol-artifact-1",
  "contractName": "CoreYieldAMM",
  "sourceName": "contracts/core/AMM/CoreYieldAMM.sol",
  "abi": [
    {
      "inputs": [
        {
          "internalType": "address",
          "name": "_coreYieldFactory",
          "type": "address"
        },
        {
          "internalType": "address",
          "name": "_feeRecipient",
          "type": "address"
        }
      ],
      "stateMutability": "nonpayable",
      "type": "constructor"
    },
    {
      "inputs": [
        {
          "internalType": "address",
          "name": "owner",
          "type": "address"
        }
      ],
      "name": "OwnableInvalidOwner",
      "type": "error"
    },
    {
      "inputs": [
        {
          "internalType": "address",
          "name": "account",
          "type": "address"
        }
      ],
      "name": "OwnableUnauthorizedAccount",
      "type": "error"
    },
    {
      "inputs": [],
      "name": "ReentrancyGuardReentrantCall",
      "type": "error"
    },
    {
      "inputs": [
        {
          "internalType": "address",
          "name": "token",
          "type": "address"
        }
      ],
      "name": "SafeERC20FailedOperation",
      "type": "error"
    },
    {
      "anonymous": false,
      "inputs": [
        {
          "indexed": true,
          "internalType": "address",
          "name": "syToken",
          "type": "address"
        },
        {
          "indexed": false,
          "internalType": "uint256",
          "name": "ptFees",
          "type": "uint256"
        },
        {
          "indexed": false,
          "internalType": "uint256",
          "name": "ytFees",
          "type": "uint256"
        }
      ],
      "name": "FeesCollected",
      "type": "event"
    },
    {
      "anonymous": false,
      "inputs": [
        {
          "indexed": true,
          "internalType": "address",
          "name": "user",
          "type": "address"
        },
        {
          "indexed": true,
          "internalType": "address",
          "name": "syToken",
          "type": "address"
        },
        {
          "indexed": false,
          "internalType": "uint256",
          "name": "ptAmount",
          "type": "uint256"
        },
        {
          "indexed": false,
          "internalType": "uint256",
          "name": "ytAmount",
          "type": "uint256"
        },
        {
          "indexed": false,
          "internalType": "uint256",
          "name": "liquidity",
          "type": "uint256"
        }
      ],
      "name": "LiquidityAdded",
      "type": "event"
    },
    {
      "anonymous": false,
      "inputs": [
        {
          "indexed": true,
          "internalType": "address",
          "name": "user",
          "type": "address"
        },
        {
          "indexed": true,
          "internalType": "address",
          "name": "syToken",
          "type": "address"
        },
        {
          "indexed": false,
          "internalType": "uint256",
          "name": "ptAmount",
          "type": "uint256"
        },
        {
          "indexed": false,
          "internalType": "uint256",
          "name": "ytAmount",
          "type": "uint256"
        },
        {
          "indexed": false,
          "internalType": "uint256",
          "name": "liquidity",
          "type": "uint256"
        }
      ],
      "name": "LiquidityRemoved",
      "type": "event"
    },
    {
      "anonymous": false,
      "inputs": [
        {
          "indexed": true,
          "internalType": "address",
          "name": "previousOwner",
          "type": "address"
        },
        {
          "indexed": true,
          "internalType": "address",
          "name": "newOwner",
          "type": "address"
        }
      ],
      "name": "OwnershipTransferred",
      "type": "event"
    },
    {
      "anonymous": false,
      "inputs": [
        {
          "indexed": true,
          "internalType": "address",
          "name": "syToken",
          "type": "address"
        },
        {
          "indexed": true,
          "internalType": "address",
          "name": "ptToken",
          "type": "address"
        },
        {
          "indexed": true,
          "internalType": "address",
          "name": "ytToken",
          "type": "address"
        }
      ],
      "name": "PoolCreated",
      "type": "event"
    },
    {
      "anonymous": false,
      "inputs": [
        {
          "indexed": true,
          "internalType": "address",
          "name": "user",
          "type": "address"
        },
        {
          "indexed": true,
          "internalType": "address",
          "name": "syToken",
          "type": "address"
        },
        {
          "indexed": false,
          "internalType": "bool",
          "name": "ptToYt",
          "type": "bool"
        },
        {
          "indexed": false,
          "internalType": "uint256",
          "name": "amountIn",
          "type": "uint256"
        },
        {
          "indexed": false,
          "internalType": "uint256",
          "name": "amountOut",
          "type": "uint256"
        },
        {
          "indexed": false,
          "internalType": "uint256",
          "name": "fee",
          "type": "uint256"
        }
      ],
      "name": "SwapExecuted",
      "type": "event"
    },
    {
      "inputs": [],
      "name": "FEE_DENOMINATOR",
      "outputs": [
        {
          "internalType": "uint256",
          "name": "",
          "type": "uint256"
        }
      ],
      "stateMutability": "view",
      "type": "function"
    },
    {
      "inputs": [
        {
          "internalType": "address",
          "name": "syToken",
          "type": "address"
        },
        {
          "internalType": "uint256",
          "name": "ptAmount",
          "type": "uint256"
        },
        {
          "internalType": "uint256",
          "name": "ytAmount",
          "type": "uint256"
        },
        {
          "internalType": "uint256",
          "name": "minLiquidity",
          "type": "uint256"
        }
      ],
      "name": "addLiquidity",
      "outputs": [
        {
          "internalType": "uint256",
          "name": "liquidity",
          "type": "uint256"
        }
      ],
      "stateMutability": "nonpayable",
      "type": "function"
    },
    {
      "inputs": [],
      "name": "coreYieldFactory",
      "outputs": [
        {
          "internalType": "contract ICoreYieldFactory",
          "name": "",
          "type": "address"
        }
      ],
      "stateMutability": "view",
      "type": "function"
    },
    {
      "inputs": [
        {
          "internalType": "address",
          "name": "syToken",
          "type": "address"
        },
        {
          "internalType": "uint256",
          "name": "initialPTAmount",
          "type": "uint256"
        },
        {
          "internalType": "uint256",
          "name": "initialYTAmount",
          "type": "uint256"
        }
      ],
      "name": "createPool",
      "outputs": [],
      "stateMutability": "nonpayable",
      "type": "function"
    },
    {
      "inputs": [],
      "name": "feeRecipient",
      "outputs": [
        {
          "internalType": "address",
          "name": "",
          "type": "address"
        }
      ],
      "stateMutability": "view",
      "type": "function"
    },
    {
      "inputs": [
        {
          "internalType": "address",
          "name": "syToken",
          "type": "address"
        }
      ],
      "name": "getPoolReserves",
      "outputs": [
        {
          "internalType": "uint256",
          "name": "ptReserves",
          "type": "uint256"
        },
        {
          "internalType": "uint256",
          "name": "ytReserves",
          "type": "uint256"
        }
      ],
      "stateMutability": "view",
      "type": "function"
    },
    {
      "inputs": [
        {
          "internalType": "address",
          "name": "syToken",
          "type": "address"
        },
        {
          "internalType": "bool",
          "name": "ptToYt",
          "type": "bool"
        },
        {
          "internalType": "uint256",
          "name": "amountIn",
          "type": "uint256"
        }
      ],
      "name": "getSwapQuote",
      "outputs": [
        {
          "internalType": "uint256",
          "name": "amountOut",
          "type": "uint256"
        },
        {
          "internalType": "uint256",
          "name": "fee",
          "type": "uint256"
        }
      ],
      "stateMutability": "view",
      "type": "function"
    },
    {
      "inputs": [],
      "name": "owner",
      "outputs": [
        {
          "internalType": "address",
          "name": "",
          "type": "address"
        }
      ],
      "stateMutability": "view",
      "type": "function"
    },
    {
      "inputs": [
        {
          "internalType": "address",
          "name": "",
          "type": "address"
        }
      ],
      "name": "pools",
      "outputs": [
        {
          "internalType": "address",
          "name": "syToken",
          "type": "address"
        },
        {
          "internalType": "address",
          "name": "ptToken",
          "type": "address"
        },
        {
          "internalType": "address",
          "name": "ytToken",
          "type": "address"
        },
        {
          "internalType": "uint256",
          "name": "ptReserves",
          "type": "uint256"
        },
        {
          "internalType": "uint256",
          "name": "ytReserves",
          "type": "uint256"
        },
        {
          "internalType": "uint256",
          "name": "totalLiquidity",
          "type": "uint256"
        },
        {
          "internalType": "uint256",
          "name": "lastUpdate",
          "type": "uint256"
        },
        {
          "internalType": "bool",
          "name": "active",
          "type": "bool"
        }
      ],
      "stateMutability": "view",
      "type": "function"
    },
    {
      "inputs": [],
      "name": "protocolFee",
      "outputs": [
        {
          "internalType": "uint256",
          "name": "",
          "type": "uint256"
        }
      ],
      "stateMutability": "view",
      "type": "function"
    },
    {
      "inputs": [
        {
          "internalType": "address",
          "name": "syToken",
          "type": "address"
        },
        {
          "internalType": "uint256",
          "name": "liquidity",
          "type": "uint256"
        },
        {
          "internalType": "uint256",
          "name": "minPTAmount",
          "type": "uint256"
        },
        {
          "internalType": "uint256",
          "name": "minYTAmount",
          "type": "uint256"
        }
      ],
      "name": "removeLiquidity",
      "outputs": [
        {
          "internalType": "uint256",
          "name": "ptAmount",
          "type": "uint256"
        },
        {
          "internalType": "uint256",
          "name": "ytAmount",
          "type": "uint256"
        }
      ],
      "stateMutability": "nonpayable",
      "type": "function"
    },
    {
      "inputs": [],
      "name": "renounceOwnership",
      "outputs": [],
      "stateMutability": "nonpayable",
      "type": "function"
    },
    {
      "inputs": [
        {
          "internalType": "address",
          "name": "",
          "type": "address"
        }
      ],
      "name": "supportedSYTokens",
      "outputs": [
        {
          "internalType": "bool",
          "name": "",
          "type": "bool"
        }
      ],
      "stateMutability": "view",
      "type": "function"
    },
    {
      "inputs": [],
      "name": "swapFee",
      "outputs": [
        {
          "internalType": "uint256",
          "name": "",
          "type": "uint256"
        }
      ],
      "stateMutability": "view",
      "type": "function"
    },
    {
      "inputs": [
        {
          "internalType": "address",
          "name": "syToken",
          "type": "address"
        },
        {
          "internalType": "uint256",
          "name": "ptAmountIn",
          "type": "uint256"
        },
        {
          "internalType": "uint256",
          "name": "minYTAmountOut",
          "type": "uint256"
        }
      ],
      "name": "swapPTForYT",
      "outputs": [
        {
          "internalType": "uint256",
          "name": "ytAmountOut",
          "type": "uint256"
        }
      ],
      "stateMutability": "nonpayable",
      "type": "function"
    },
    {
      "inputs": [
        {
          "internalType": "address",
          "name": "syToken",
          "type": "address"
        },
        {
          "internalType": "uint256",
          "name": "ytAmountIn",
          "type": "uint256"
        },
        {
          "internalType": "uint256",
          "name": "minPTAmountOut",
          "type": "uint256"
        }
      ],
      "name": "swapYTForPT",
      "outputs": [
        {
          "internalType": "uint256",
          "name": "ptAmountOut",
          "type": "uint256"
        }
      ],
      "stateMutability": "nonpayable",
      "type": "function"
    },
    {
      "inputs": [
        {
          "internalType": "address",
          "name": "newOwner",
          "type": "address"
        }
      ],
      "name": "transferOwnership",
      "outputs": [],
      "stateMutability": "nonpayable",
      "type": "function"
    },
    {
      "inputs": [
        {
          "internalType": "address",
          "name": "newRecipient",
          "type": "address"
        }
      ],
      "name": "updateFeeRecipient",
      "outputs": [],
      "stateMutability": "nonpayable",
      "type": "function"
    },
    {
      "inputs": [
        {
          "internalType": "uint256",
          "name": "newFee",
          "type": "uint256"
        }
      ],
      "name": "updateProtocolFee",
      "outputs": [],
      "stateMutability": "nonpayable",
      "type": "function"
    },
    {
      "inputs": [
        {
          "internalType": "uint256",
          "name": "newFee",
          "type": "uint256"
        }
      ],
      "name": "updateSwapFee",
      "outputs": [],
      "stateMutability": "nonpayable",
      "type": "function"
    },
    {
      "inputs": [
        {
          "internalType": "address",
          "name": "",
          "type": "address"
        },
        {
          "internalType": "address",
          "name": "",
          "type": "address"
        }
      ],
      "name": "userPositions",
      "outputs": [
        {
          "internalType": "uint256",
          "name": "liquidity",
          "type": "uint256"
        },
        {
          "internalType": "uint256",
          "name": "ptAmount",
          "type": "uint256"
        },
        {
          "internalType": "uint256",
          "name": "ytAmount",
          "type": "uint256"
        },
        {
          "internalType": "uint256",
          "name": "lastClaim",
          "type": "uint256"
        }
      ],
      "stateMutability": "view",
      "type": "function"
    }
  ],
  "bytecode": "0x60a034610192576200171c90601f38839003908101601f19168201906001600160401b03821183831017610197578083916040958694855283398101031261019257610056602061004f836101ad565b92016101ad565b331561017a5760008054336001600160a01b03198083168217845586519590946001600160a01b03949093859391908416907f8be0079c531659141344cd1fd0a4f28419497f9722a3daafe3b4186f6b6457e09080a360018055601e600555600a600655169384156101385750169182156100f45760805260075416176007555161155a9081620001c282396080518181816103b7015261072b0152f35b835162461bcd60e51b815260206004820152601560248201527f496e76616c69642066656520726563697069656e7400000000000000000000006044820152606490fd5b62461bcd60e51b815260206004820152601760248201527f496e76616c696420666163746f727920616464726573730000000000000000006044820152606490fd5b8251631e4fbdf760e01b815260006004820152602490fd5b600080fd5b634e487b7160e01b600052604160045260246000fd5b51906001600160a01b03821682036101925756fe6080806040526004908136101561001557600080fd5b60003560e01c9081631993a67f14611039575080631ece366a14610e215780634256dd7814610df45780634690484014610dcb5780634bee939514610d8457806354cf2aeb14610d66578063715018a614610d0d5780637338cd5814610c045780638da5cb5b14610bdb57806393ca2f8a146109e05780639785a7df146109695780639a7cabe5146107ee578063a4063dbc1461075a578063a599899114610715578063b039ddf614610340578063b0e21e8a14610322578063bf16f65a146102f4578063d73792a9146102d7578063f160d36914610256578063f2fde38b146101cc5763f82b90b21461010857600080fd5b346101c75760603660031901126101c757610121611074565b6024359182151583036101c75760409261019f6101a5926044359460018060a01b031660005260026020528560002061016060ff600783015416611396565b83156101bd576003810154935b156101b25701545b61019961019261271061018a60055489611160565b048097611449565b9182611160565b92611419565b90611256565b9082519182526020820152f35b600391500154610175565b818101549361016d565b600080fd5b50346101c75760203660031901126101c7576101e6611074565b6101ee6110e2565b6001600160a01b0390811691821561023e5750600054826001600160601b0360a01b821617600055167f8be0079c531659141344cd1fd0a4f28419497f9722a3daafe3b4186f6b6457e0600080a3005b602490600060405191631e4fbdf760e01b8352820152fd5b50346101c75760203660031901126101c757610270611074565b6102786110e2565b6001600160a01b03169081156102a157506001600160601b0360a01b6007541617600755600080f35b60649060206040519162461bcd60e51b8352820152600f60248201526e496e76616c6964206164647265737360881b6044820152fd5b346101c75760003660031901126101c75760206040516127108152f35b50346101c75760203660031901126101c7573561030f6110e2565b61031d6101f48211156114e9565b600555005b346101c75760003660031901126101c7576020600654604051908152f35b50346101c75761034f366110b8565b92919061035a6110e2565b6001600160a01b039182169384156106de57846000526020916002835260ff600760406000200154166106a4578015158061069b575b6103999061110e565b60405163d4dfadbf60e01b81528581018790529461014080876024817f00000000000000000000000000000000000000000000000000000000000000008a165afa96871561068f57600097610592575b505085511561055a57604086019360608686511697019686885116906104176104128787611160565b611276565b9060405192610100840184811067ffffffffffffffff8211176105455761051897948b8e95819c9b999561050d99956007956040528885528685019182526040850190815260608501908a825260808601928d845260a0870194855260c087019542875260e088019b60018d5260005260028a52806040600020985116916001600160601b0360a01b92838a54161789558160018a01915116838254161790556002880192511690825416179055516003850155518684015551600583015551600682015501925115159260ff199360ff8583541691161790555260016040600020918254161790558585511630903390611189565b303385885116611189565b5116915116917f9c5d829b9b23efc461f9aeef91979ec04bb903feb3bee4f26d22114abfc7335b600080a4005b604187634e487b7160e01b6000525260246000fd5b60405162461bcd60e51b815290810184905260116024820152704d61726b6574206e6f742061637469766560781b6044820152606490fd5b90809297503d8311610688575b601f8101601f191682019267ffffffffffffffff918285118486101761067357838291810103126101c75783019081118382101761065e57604052805180151581036101c75782526105f285820161114c565b858301526106026040820161114c565b60408301526106136060820161114c565b60608301526080810151608083015260a081015160a083015260c081015160c083015260e081015160e0830152610100808201519083015261012080910151908201529438806103e9565b604188634e487b7160e01b6000525260246000fd5b60418a634e487b7160e01b6000525260246000fd5b503d61059f565b6040513d6000823e3d90fd5b50811515610390565b60405162461bcd60e51b81528086018490526013602482015272506f6f6c20616c72656164792065786973747360681b6044820152606490fd5b60405162461bcd60e51b8152602081860152601060248201526f24b73b30b634b21029ac903a37b5b2b760811b6044820152606490fd5b346101c75760003660031901126101c7576040517f00000000000000000000000000000000000000000000000000000000000000006001600160a01b03168152602090f35b50346101c75760203660031901126101c757610100906001600160a01b0380610781611074565b166000526002602052604060002081815416928260018301541692600283015416906003830154908301549060058401549260ff600760068701549601541695604051978852602088015260408701526060860152608085015260a084015260c0830152151560e0820152f35b50346101c7576107fd366110b8565b9190610807611426565b6108128115156114a6565b60018060a01b038092169182600052600260205260406000209461083c60ff600788015416611396565b60038601908154918188019283549261087b6108676127106108606005548b611160565b0489611449565b61019f6108748783611160565b9185611419565b98891061092557506108d99488946108b386866108d2966108ac60209f998d986108a78a9287106113d4565b611419565b9055611449565b9055426006850155600281600186015416940154169230903390611189565b3390611456565b60055460405191600183528583015283604083015260608201527f3d8ca4d8375ff3bd64424b0eb39b910e95f146c20d29a7bf0be53acea62b083560803392a360018055604051908152f35b60649060206040519162461bcd60e51b8352820152601a60248201527f496e73756666696369656e74206f757470757420616d6f756e740000000000006044820152fd5b346101c75760403660031901126101c757610982611074565b6001600160a01b0360243581811692908390036101c757166000526003602052604060002090600052602052608060406000208054906001810154906003600282015491015491604051938452602084015260408301526060820152f35b50346101c7576109ef3661108a565b916109fb949394611426565b60018060a01b03809516908160005260209260028452604060002090610a2760ff600784015416611396565b83600052600385526040600020336000528552604060002090610a4d84835410156113d4565b6003830180549185610a5f8482611160565b926005870194610a7186548096611256565b9c8d9c818a0195610a8d88610a8889548099611160565b611256565b9e10610b9e578d10610b6157508860409e956002958f8f809b97610b0e9d9b976108ac6108ac94610abd99611449565b9055426006850155610ad0878254611449565b815560018101610ae18c8254611449565b905501610aef848254611449565b9055610b02893383600186015416611456565b60023392015416611456565b7fbc7d19d505c7ec4db83f3b51f19fb98c4c8a99922e7839d1ee608dfbee29501b865180610b503394888a846040919493926060820195825260208201520152565b0390a3600180558351928352820152f35b60405162461bcd60e51b81529081018c90526016602482015275125b9cdd59999a58da595b9d08165508185b5bdd5b9d60521b6044820152606490fd5b60405162461bcd60e51b81528083018e90526016602482015275125b9cdd59999a58da595b9d08141508185b5bdd5b9d60521b6044820152606490fd5b346101c75760003660031901126101c7576000546040516001600160a01b039091168152602090f35b50346101c757610c13366110b8565b9190610c1d611426565b610c288115156114a6565b60018060a01b0380921691826000526002602052604060002094610c5260ff600788015416611396565b808601908154916003880192835492610c766108676127106108606005548b611160565b9889106109255750610cc1948894610ca286866108d2966108ac60209f998d986108a78a9287106113d4565b9055426006850155600181600286015416940154169230903390611189565b60055460405191600083528583015283604083015260608201527f3d8ca4d8375ff3bd64424b0eb39b910e95f146c20d29a7bf0be53acea62b083560803392a360018055604051908152f35b346101c75760003660031901126101c757610d266110e2565b600080546001600160a01b0319811682556001600160a01b03167f8be0079c531659141344cd1fd0a4f28419497f9722a3daafe3b4186f6b6457e08280a3005b346101c75760003660031901126101c7576020600554604051908152f35b50346101c75760203660031901126101c7576040906001600160a01b03610da9611074565b1660005260026020528160002090600382015491015482519182526020820152f35b346101c75760003660031901126101c7576007546040516001600160a01b039091168152602090f35b50346101c75760203660031901126101c75735610e0f6110e2565b610e1c60648211156114e9565b600655005b50346101c757610e303661108a565b9290809291610e3d611426565b60018060a01b0381166000526002602052604060002090610e6460ff600784015416611396565b83151580611030575b610e769061110e565b838360038401549389810154946005820154998a15600014610fbd57610e9c8486611160565b610ea590611276565b9a60209c610ef37f4a1a2a6176e9646d9e3157f7c2ab3c499f18337c0b0828cfb28e0a61de4a11f79a8e9a610ee9610f8c9a610efc986108a78f995b8a10156113d4565b6003890155611419565b90850155611419565b600582015542600682015560018060a01b03841660005260038a526040600020336000528a526040600020610f32868254611419565b815560018101610f43898254611419565b905560028101610f54848254611419565b9055600342910155610f768760018060a01b0360018401541630903390611189565b60020154309033906001600160a01b0316611189565b604080519485526020850195909552938301526001600160a01b03909216913391606090a360018055604051908152f35b81610fc88c87611160565b90610fd291611256565b87610fdd8d87611160565b90610fe791611256565b9081808210911802189a60209c610ef37f4a1a2a6176e9646d9e3157f7c2ab3c499f18337c0b0828cfb28e0a61de4a11f79a8e9a610ee9610f8c9a610efc986108a78f99610ee1565b50821515610e6d565b9050346101c75760203660031901126101c7576020916001600160a01b0361105f611074565b16600052825260ff6040600020541615158152f35b600435906001600160a01b03821682036101c757565b60809060031901126101c7576004356001600160a01b03811681036101c75790602435906044359060643590565b60609060031901126101c7576004356001600160a01b03811681036101c757906024359060443590565b6000546001600160a01b031633036110f657565b60405163118cdaa760e01b8152336004820152602490fd5b1561111557565b60405162461bcd60e51b815260206004820152600f60248201526e496e76616c696420616d6f756e747360881b6044820152606490fd5b51906001600160a01b03821682036101c757565b8181029291811591840414171561117357565b634e487b7160e01b600052601160045260246000fd5b6040516323b872dd60e01b60208201526001600160a01b03928316602482015292909116604483015260648083019390935291815260a081019181831067ffffffffffffffff8411176111e4576111e2926040526111fa565b565b634e487b7160e01b600052604160045260246000fd5b906000602091828151910182855af11561068f576000513d61124d57506001600160a01b0381163b155b61122b5750565b604051635274afe760e01b81526001600160a01b039091166004820152602490fd5b60011415611224565b8115611260570490565b634e487b7160e01b600052601260045260246000fd5b60018082111561139257611333908083600160801b811015611380575b80600160401b6004921015611373575b640100000000811015611366575b62010000811015611359575b61010081101561134d575b6010811015611341575b101561133a575b600302811c6112e88185611256565b01811c6112f58185611256565b01811c6113028185611256565b01811c61130f8185611256565b01811c61131c8185611256565b01811c6113298185611256565b01901c8092611256565b8111900390565b811b6112d9565b811c9160021b916112d2565b60081c91811b916112c8565b60101c9160081b916112bd565b60201c9160101b916112b1565b60401c9160201b916112a3565b50600160401b9050608084901c611293565b5090565b1561139d57565b60405162461bcd60e51b815260206004820152600f60248201526e506f6f6c206e6f742061637469766560881b6044820152606490fd5b156113db57565b60405162461bcd60e51b8152602060048201526016602482015275496e73756666696369656e74206c697175696469747960501b6044820152606490fd5b9190820180921161117357565b600260015414611437576002600155565b604051633ee5aeb560e01b8152600490fd5b9190820391821161117357565b60405163a9059cbb60e01b60208201526001600160a01b039092166024830152604480830193909352918152608081019167ffffffffffffffff8311828410176111e4576111e2926040526111fa565b156114ad57565b60405162461bcd60e51b8152602060048201526014602482015273125b9d985b1a59081a5b9c1d5d08185b5bdd5b9d60621b6044820152606490fd5b156114f057565b60405162461bcd60e51b815260206004820152600c60248201526b08ccaca40e8dede40d0d2ced60a31b6044820152606490fdfea2646970667358221220165163706989daa0f2f6781d00ccd55d2f03e686924f2587f1c2cc05c09dc81564736f6c63430008140033",
  "linkReferences": {},
  "deployedLinkReferences": {}
}