{
  "_format": "hh-sol-artifact-1",
  "contractName": "CoreYieldAnalytics",
  "sourceName": "contracts/core/CoreYieldAnalytics.sol",
  "abi": [
    {
      "inputs": [],
      "stateMutability": "nonpayable",
      "type": "constructor"
    },
    {
      "inputs": [
        {
          "internalType": "address",
          "name": "owner",
          "type": "address"
        }
      ],
      "name": "OwnableInvalidOwner",
      "type": "error"
    },
    {
      "inputs": [
        {
          "internalType": "address",
          "name": "account",
          "type": "address"
        }
      ],
      "name": "OwnableUnauthorizedAccount",
      "type": "error"
    },
    {
      "anonymous": false,
      "inputs": [
        {
          "indexed": true,
          "internalType": "address",
          "name": "market",
          "type": "address"
        },
        {
          "indexed": false,
          "internalType": "uint256",
          "name": "currentAPY",
          "type": "uint256"
        },
        {
          "indexed": false,
          "internalType": "uint256",
          "name": "impliedAPY",
          "type": "uint256"
        },
        {
          "indexed": false,
          "internalType": "enum CoreYieldAnalytics.MarketMode",
          "name": "marketMode",
          "type": "uint8"
        }
      ],
      "name": "AnalyticsUpdated",
      "type": "event"
    },
    {
      "anonymous": false,
      "inputs": [
        {
          "indexed": true,
          "internalType": "address",
          "name": "previousOwner",
          "type": "address"
        },
        {
          "indexed": true,
          "internalType": "address",
          "name": "newOwner",
          "type": "address"
        }
      ],
      "name": "OwnershipTransferred",
      "type": "event"
    },
    {
      "anonymous": false,
      "inputs": [
        {
          "indexed": true,
          "internalType": "address",
          "name": "market",
          "type": "address"
        },
        {
          "indexed": false,
          "internalType": "bool",
          "name": "buyPT",
          "type": "bool"
        },
        {
          "indexed": false,
          "internalType": "bool",
          "name": "buyYT",
          "type": "bool"
        },
        {
          "indexed": false,
          "internalType": "uint256",
          "name": "confidence",
          "type": "uint256"
        },
        {
          "indexed": false,
          "internalType": "string",
          "name": "reasoning",
          "type": "string"
        }
      ],
      "name": "TradingSignal",
      "type": "event"
    },
    {
      "inputs": [],
      "name": "BASIS_POINTS",
      "outputs": [
        {
          "internalType": "uint256",
          "name": "",
          "type": "uint256"
        }
      ],
      "stateMutability": "view",
      "type": "function"
    },
    {
      "inputs": [],
      "name": "MAX_HISTORICAL_ENTRIES",
      "outputs": [
        {
          "internalType": "uint256",
          "name": "",
          "type": "uint256"
        }
      ],
      "stateMutability": "view",
      "type": "function"
    },
    {
      "inputs": [],
      "name": "MIN_CONFIDENCE",
      "outputs": [
        {
          "internalType": "uint256",
          "name": "",
          "type": "uint256"
        }
      ],
      "stateMutability": "view",
      "type": "function"
    },
    {
      "inputs": [],
      "name": "UPDATE_INTERVAL",
      "outputs": [
        {
          "internalType": "uint256",
          "name": "",
          "type": "uint256"
        }
      ],
      "stateMutability": "view",
      "type": "function"
    },
    {
      "inputs": [
        {
          "internalType": "address",
          "name": "_syToken",
          "type": "address"
        },
        {
          "internalType": "uint256",
          "name": "_limit",
          "type": "uint256"
        }
      ],
      "name": "getHistoricalData",
      "outputs": [
        {
          "components": [
            {
              "internalType": "uint256",
              "name": "timestamp",
              "type": "uint256"
            },
            {
              "internalType": "uint256",
              "name": "apy",
              "type": "uint256"
            },
            {
              "internalType": "uint256",
              "name": "ptPrice",
              "type": "uint256"
            },
            {
              "internalType": "uint256",
              "name": "ytPrice",
              "type": "uint256"
            },
            {
              "internalType": "uint256",
              "name": "volume",
              "type": "uint256"
            }
          ],
          "internalType": "struct CoreYieldAnalytics.HistoricalData[]",
          "name": "",
          "type": "tuple[]"
        }
      ],
      "stateMutability": "view",
      "type": "function"
    },
    {
      "inputs": [
        {
          "internalType": "address",
          "name": "_syToken",
          "type": "address"
        }
      ],
      "name": "getMarketAnalytics",
      "outputs": [
        {
          "components": [
            {
              "internalType": "uint256",
              "name": "currentAPY",
              "type": "uint256"
            },
            {
              "internalType": "uint256",
              "name": "impliedAPY",
              "type": "uint256"
            },
            {
              "internalType": "uint256",
              "name": "fixedAPY",
              "type": "uint256"
            },
            {
              "internalType": "uint256",
              "name": "longYieldAPY",
              "type": "uint256"
            },
            {
              "internalType": "uint256",
              "name": "historicalAPY",
              "type": "uint256"
            },
            {
              "internalType": "uint256",
              "name": "volatility",
              "type": "uint256"
            },
            {
              "internalType": "uint256",
              "name": "lastUpdateTime",
              "type": "uint256"
            },
            {
              "internalType": "enum CoreYieldAnalytics.MarketMode",
              "name": "marketMode",
              "type": "uint8"
            }
          ],
          "internalType": "struct CoreYieldAnalytics.YieldAnalytics",
          "name": "",
          "type": "tuple"
        }
      ],
      "stateMutability": "view",
      "type": "function"
    },
    {
      "inputs": [
        {
          "internalType": "address",
          "name": "_syToken",
          "type": "address"
        }
      ],
      "name": "getMarketMode",
      "outputs": [
        {
          "internalType": "enum CoreYieldAnalytics.MarketMode",
          "name": "",
          "type": "uint8"
        }
      ],
      "stateMutability": "view",
      "type": "function"
    },
    {
      "inputs": [
        {
          "internalType": "address",
          "name": "_syToken",
          "type": "address"
        }
      ],
      "name": "getTradingSignals",
      "outputs": [
        {
          "components": [
            {
              "internalType": "bool",
              "name": "buyPT",
              "type": "bool"
            },
            {
              "internalType": "bool",
              "name": "buyYT",
              "type": "bool"
            },
            {
              "internalType": "bool",
              "name": "sellPT",
              "type": "bool"
            },
            {
              "internalType": "bool",
              "name": "sellYT",
              "type": "bool"
            },
            {
              "internalType": "uint256",
              "name": "confidence",
              "type": "uint256"
            },
            {
              "internalType": "string",
              "name": "reasoning",
              "type": "string"
            }
          ],
          "internalType": "struct CoreYieldAnalytics.TradingSignals",
          "name": "",
          "type": "tuple"
        }
      ],
      "stateMutability": "view",
      "type": "function"
    },
    {
      "inputs": [
        {
          "internalType": "address",
          "name": "",
          "type": "address"
        },
        {
          "internalType": "uint256",
          "name": "",
          "type": "uint256"
        }
      ],
      "name": "historicalData",
      "outputs": [
        {
          "internalType": "uint256",
          "name": "timestamp",
          "type": "uint256"
        },
        {
          "internalType": "uint256",
          "name": "apy",
          "type": "uint256"
        },
        {
          "internalType": "uint256",
          "name": "ptPrice",
          "type": "uint256"
        },
        {
          "internalType": "uint256",
          "name": "ytPrice",
          "type": "uint256"
        },
        {
          "internalType": "uint256",
          "name": "volume",
          "type": "uint256"
        }
      ],
      "stateMutability": "view",
      "type": "function"
    },
    {
      "inputs": [
        {
          "internalType": "address",
          "name": "",
          "type": "address"
        }
      ],
      "name": "lastAnalyticsUpdate",
      "outputs": [
        {
          "internalType": "uint256",
          "name": "",
          "type": "uint256"
        }
      ],
      "stateMutability": "view",
      "type": "function"
    },
    {
      "inputs": [
        {
          "internalType": "address",
          "name": "",
          "type": "address"
        }
      ],
      "name": "marketAnalytics",
      "outputs": [
        {
          "internalType": "uint256",
          "name": "currentAPY",
          "type": "uint256"
        },
        {
          "internalType": "uint256",
          "name": "impliedAPY",
          "type": "uint256"
        },
        {
          "internalType": "uint256",
          "name": "fixedAPY",
          "type": "uint256"
        },
        {
          "internalType": "uint256",
          "name": "longYieldAPY",
          "type": "uint256"
        },
        {
          "internalType": "uint256",
          "name": "historicalAPY",
          "type": "uint256"
        },
        {
          "internalType": "uint256",
          "name": "volatility",
          "type": "uint256"
        },
        {
          "internalType": "uint256",
          "name": "lastUpdateTime",
          "type": "uint256"
        },
        {
          "internalType": "enum CoreYieldAnalytics.MarketMode",
          "name": "marketMode",
          "type": "uint8"
        }
      ],
      "stateMutability": "view",
      "type": "function"
    },
    {
      "inputs": [],
      "name": "marketFactory",
      "outputs": [
        {
          "internalType": "address",
          "name": "",
          "type": "address"
        }
      ],
      "stateMutability": "view",
      "type": "function"
    },
    {
      "inputs": [],
      "name": "owner",
      "outputs": [
        {
          "internalType": "address",
          "name": "",
          "type": "address"
        }
      ],
      "stateMutability": "view",
      "type": "function"
    },
    {
      "inputs": [],
      "name": "renounceOwnership",
      "outputs": [],
      "stateMutability": "nonpayable",
      "type": "function"
    },
    {
      "inputs": [
        {
          "internalType": "address",
          "name": "_marketFactory",
          "type": "address"
        },
        {
          "internalType": "address",
          "name": "_tokenOperations",
          "type": "address"
        }
      ],
      "name": "setContracts",
      "outputs": [],
      "stateMutability": "nonpayable",
      "type": "function"
    },
    {
      "inputs": [],
      "name": "tokenOperations",
      "outputs": [
        {
          "internalType": "address",
          "name": "",
          "type": "address"
        }
      ],
      "stateMutability": "view",
      "type": "function"
    },
    {
      "inputs": [
        {
          "internalType": "address",
          "name": "newOwner",
          "type": "address"
        }
      ],
      "name": "transferOwnership",
      "outputs": [],
      "stateMutability": "nonpayable",
      "type": "function"
    },
    {
      "inputs": [
        {
          "internalType": "address",
          "name": "_syToken",
          "type": "address"
        }
      ],
      "name": "updateAnalytics",
      "outputs": [],
      "stateMutability": "nonpayable",
      "type": "function"
    }
  ],
  "bytecode": "0x6080806040523461007a5733156100645760008054336001600160a01b03198216811783556040519290916001600160a01b0316907f8be0079c531659141344cd1fd0a4f28419497f9722a3daafe3b4186f6b6457e09080a361187e90816100808239f35b631e4fbdf760e01b815260006004820152602490fd5b600080fdfe608080604052600436101561001357600080fd5b60003560e01c90816306ae709514610fed5750806334084d1214610fd057806341f9375714610fb4578063715018a614610f5b5780637e58174d14610d5f57806389ac414714610d425780638be2c98d14610d195780638da5cb5b14610cf0578063ae521c19146108dc578063b935b9561461084c578063c326389614610812578063d130f0b5146107cd578063d8952a491461076d578063da4b81d9146106ed578063e1f1c4a7146106d0578063eda196b014610290578063f2fde38b146102025763fa56165e146100e557600080fd5b346101fd5760203660031901126101fd576100fe611011565b600060e060405161010e816110d7565b8281528260208201528260408201528260608201528260808201528260a08201528260c0820152015260018060a01b0316600052600360205261010060406000206101fb6040519161015f836110d7565b80548352600181015490602084019182526002810154604085019081526003820154606086019081526004830154906080870191825260058401549260a0880193845260ff600760068701549660c08b01978852015416956101c560e08a019788611132565b604051985189525160208901525160408801525160608701525160808601525160a08501525160c08401525160e0830190611027565bf35b600080fd5b346101fd5760203660031901126101fd5761021b611011565b610223611066565b6001600160a01b0390811690811561027757600054826bffffffffffffffffffffffff60a01b821617600055167f8be0079c531659141344cd1fd0a4f28419497f9722a3daafe3b4186f6b6457e0600080a3005b604051631e4fbdf760e01b815260006004820152602490fd5b346101fd5760203660031901126101fd576102a9611011565b6001546001600160a01b0390811615610697578082166000526005602052604060002054610e10810180911161055a57421061065d5760a06102ea836111ba565b015115610624576102fa82611333565b90610304836113a2565b9261030e816113c5565b6103178261142c565b906103228686611471565b9161032c846114bc565b90610336856116aa565b9060405191610344836110d7565b888352600760208401938b8552604081019287845260608201968588526080830191825260a0830190815260c083019142835260e08401956103868c88611132565b8d8d166000526003988960205260406000209551865551600186015551986002998a8601555188850155516004840155516005830155516006820155019051600481101561060e5760ff801983541691161790558686166000526005602052426040600020556004602052604060002093604051906104048261109f565b42825260208201928a845260408301918252606083019081526080830191600083528754680100000000000000008110156105f85780600161044992018a5589611034565b9590956105445760049451865551600186015551868501555184840155519101556103e88354116104ba575b867f470eecde34c389f5517d01a77547e40e20e309e8095684cfdc9944bb1d69c6ad606088886104b5898e60405197885260208801526040870190611027565b1692a2005b9390949196959260005b8854600019810190811161055a57811015610570576001810180821161055a576104ee908a611034565b50906104fa818b611034565b6105445782610511938203610516575b5050611176565b6104c4565b6004818192548455600181015460018501558b8101548c8501558a8101548b85015501549101558a8061050a565b634e487b7160e01b600052600060045260246000fd5b634e487b7160e01b600052601160045260246000fd5b5090929691939495825480156105e2576000190161058e8185611034565b9490946105445760006004868260609b817f470eecde34c389f5517d01a77547e40e20e309e8095684cfdc9944bb1d69c6ad9e816104b59c5581600186015584015582015501555596958193949550610475565b634e487b7160e01b600052603160045260246000fd5b634e487b7160e01b600052604160045260246000fd5b634e487b7160e01b600052602160045260246000fd5b60405162461bcd60e51b81526020600482015260116024820152704d61726b6574206e6f742061637469766560781b6044820152606490fd5b60405162461bcd60e51b8152602060048201526012602482015271546f6f20736f6f6e20746f2075706461746560701b6044820152606490fd5b60405162461bcd60e51b815260206004820152601160248201527010dbdb9d1c9858dd1cc81b9bdd081cd95d607a1b6044820152606490fd5b346101fd5760003660031901126101fd5760206040516127108152f35b346101fd5760403660031901126101fd57610706611011565b6001600160a01b03166000908152600460205260409020805460243591908210156101fd5760a09161073791611034565b50805490600181015490600281015460046003830154920154926040519485526020850152604084015260608301526080820152f35b346101fd5760403660031901126101fd57610786611011565b6024356001600160a01b0381811692918390036101fd576107a5611066565b6bffffffffffffffffffffffff60a01b91168160015416176001556002541617600255600080f35b346101fd5760203660031901126101fd576001600160a01b036107ee611011565b166000526003602052602060ff600760406000200154166101fb6040518092611027565b346101fd5760203660031901126101fd576001600160a01b03610833611011565b1660005260056020526020604060002054604051908152f35b346101fd5760203660031901126101fd576001600160a01b0361086d611011565b16600052600360205261010060406000206101fb8154916001810154906002810154600382015460048301549060058401549260ff600760068701549601541695604051988952602089015260408801526060870152608086015260a085015260c084015260e0830190611027565b346101fd576020806003193601126101fd576108f6611011565b606060a0604051610906816110bb565b600081526000858201526000604082015260008382015260006080820152015260018060a01b03166000526003815260406000209060405190610948826110d7565b8254825260019283810154828401908152600282015494604085019586526003830154926060860193845260048101546080870152600581015460a087015260ff600760068301549260c08901938452015416906109aa60e088019283611132565b5115610cab5760009660009460009060405188810181811067ffffffffffffffff8211176105f85760405260008152928451600481101561060e57610b06575050505050610a00929394955094519051906117c6565b604051610a0c816110f4565b603481527f505420697320756e64657276616c756564202d20676f6f642074696d6520746f8482015273081b1bd8dac81a5b88199a5e1959081e5a595b1960621b6040820152915b60405194610a61866110bb565b15158552838501901515815260408501600081526060860191600083526080870193845260a0870194855260405196868852511515868801525115156040870152511515606086015251151560808501525160a0840152519060c0808401528151918260e085015260005b838110610af15750505081610100916000838284010152601f80199101168101030190f35b81810183015185820161010001528201610acc565b8498999792939451600481101561060e578603610b81575050505050610b3292935092519051906117c6565b604051610b3e816110f4565b602b81527f595420697320756e64657276616c756564202d20676f6f642074696d6520746f848201526a081b1bdb99c81e5a595b1960aa1b604082015291610a54565b9195509195929651600481101561060e57600214610ba3575b50505050610a54565b979492959397518251606e810290808204606e149015171561055a57606490041015610c2657505050505091603c604051610bdd816110f4565b602c81527f5054206f666665727320736c696768746c7920626574746572207468616e2063848201526b1d5c9c995b9d081e5a595b1960a21b6040820152915b85808080610b9a565b96929491939651905160788102908082046078149015171561055a576064900410610c52575b50610c1d565b925050506046604051610c64816110f4565b602e81527f5954206f6666657273207369676e69666963616e746c79206265747465722079848201526d1a595b19081c1bdd195b9d1a585b60921b60408201529185610c4c565b60405162461bcd60e51b815260048101869052601760248201527f416e616c7974696373206e6f7420617661696c61626c650000000000000000006044820152606490fd5b346101fd5760003660031901126101fd576000546040516001600160a01b039091168152602090f35b346101fd5760003660031901126101fd576002546040516001600160a01b039091168152602090f35b346101fd5760003660031901126101fd576020604051610e108152f35b346101fd5760403660031901126101fd57610d78611011565b60249081359060018060a01b0316600052602090600482526040600020908154610da18161115e565b92610daf6040519485611110565b8184526000908152848120858086015b848410610f0f575050505050815190818082109118021890610de08261115e565b93610dee6040519586611110565b828552601f19610dfd8461115e565b018460005b828110610ed65750505060005b838110610e7b57604080518681528751818801819052888801928201908860005b828110610e3d5784840385f35b85518051855280830151858401526040808201519086015260608082015190860152608090810151908501529481019460a090930192600101610e30565b82516000198101908111610ec15790610ea0610e9a82610ebc94611185565b85611192565b51610eab8289611192565b52610eb68188611192565b50611176565b610e0f565b82634e487b7160e01b60005260116004526000fd5b604051610ee28161109f565b6000815260008382015260006040820152600060608201526000608082015282828a010152018590610e02565b600191600591604051610f218161109f565b8554815284860154838201526002860154604082015260038601546060820152600486015460808201528152019201920191908690610dbf565b346101fd5760003660031901126101fd57610f74611066565b600080546001600160a01b0319811682556001600160a01b03167f8be0079c531659141344cd1fd0a4f28419497f9722a3daafe3b4186f6b6457e08280a3005b346101fd5760003660031901126101fd576020604051601e8152f35b346101fd5760003660031901126101fd5760206040516103e88152f35b346101fd5760003660031901126101fd576001546001600160a01b03168152602090f35b600435906001600160a01b03821682036101fd57565b90600482101561060e5752565b8054821015611050576000526005602060002091020190600090565b634e487b7160e01b600052603260045260246000fd5b6000546001600160a01b0316330361107a57565b60405163118cdaa760e01b8152336004820152602490fd5b9190820180921161055a57565b60a0810190811067ffffffffffffffff8211176105f857604052565b60c0810190811067ffffffffffffffff8211176105f857604052565b610100810190811067ffffffffffffffff8211176105f857604052565b6060810190811067ffffffffffffffff8211176105f857604052565b90601f8019910116810190811067ffffffffffffffff8211176105f857604052565b600482101561060e5752565b8115611148570490565b634e487b7160e01b600052601260045260246000fd5b67ffffffffffffffff81116105f85760051b60200190565b600019811461055a5760010190565b9190820391821161055a57565b80518210156110505760209160051b010190565b51906001600160a01b03821682036101fd57565b6040908151916111c9836110bb565b60008080938186528160a060209782898201528287820152826060820152826080820152015260018060a01b03908160015416918551908882019263d4dfadbf60e01b845216602482015260248152611221816110f4565b51915afa903d1561132b573d9167ffffffffffffffff831161131757815192611253601f8201601f1916870185611110565b83523d848685013e5b156112e15760c0828051810103126112dd57908160c092519461127e866110bb565b6112898184016111a6565b86526112968284016111a6565b908601526112a6606083016111a6565b908501526112b6608082016111a6565b606085015260a0810151608085015201519081151582036112da575060a082015290565b80fd5b8280fd5b5162461bcd60e51b815260048101849052601060248201526f13585c9ad95d081b9bdd08199bdd5b9960821b6044820152606490fd5b634e487b7160e01b84526041600452602484fd5b60609161125c565b604051636999ac9360e01b815290602090829060049082906001600160a01b03165afa90811561139657600091611368575090565b906020823d821161138e575b8161138160209383611110565b810103126112da57505190565b3d9150611374565b6040513d6000823e3d90fd5b6113ab90611333565b605f810290808204605f149015171561055a576064900490565b60806113d0826111ba565b015160009042811115611425576113e991504290611185565b905b811561141e576113fa90611333565b6103e88083029283040361055a57600a6301e1338061141b93040490611092565b90565b5050600090565b50906113eb565b61143e61143882611333565b916113a2565b8181101561141e576114509082611185565b9060968202918083046096149015171561055a57606461141b920490611092565b606e8102811590828104606e1482171561055a576064900483111561149857505050600090565b605a8202918204605a14171561055a576064900411156114b757600190565b600290565b6001600160a01b031660009081526004602081815260408084208054919391906114e58261115e565b946114f281519687611110565b8286529086528386208691858088015b85851061166157505050505050600283511061165b578391849360019182805b611543575b50508415925061153e9150505761141b925061113e565b505090565b825181101561165657816115578285611192565b510151151580611621575b611576575b61157090611176565b83611522565b9594816115838885611192565b51015160001988019088821161160e576115709282858b8d6115e495836115ad6115ea998d611192565b510151101590506115f257906115d5816115cb6115de95948c611192565b510151928a611192565b51015190611185565b90611092565b96611176565b969050611567565b506116006115de9289611192565b510151866115d58d8a611192565b634e487b7160e01b8a526011875260248afd5b50600019810181811161164357611639839185611192565b5101511515611562565b634e487b7160e01b895260118652602489fd5b611527565b50505090565b60019160059184516116728161109f565b865481528487015483820152600287015486820152600387015460608201528987015460808201528152019301930192918690611502565b6001600160a01b0316600090815260046020818152604080842080549195936116d28361115e565b966116df81519889611110565b838852848801928752848720918588945b86861061177d57505050505050508351156117775782908392845b8651811015611763578261171f8289611192565b510151611735575b61173090611176565b61170b565b939261175b611755611730928561174c898c611192565b51015190611092565b94611176565b949050611727565b50945050811561153e5761141b925061113e565b50915090565b600191600591855161178e8161109f565b8754815284880154838201526002880154878201526003880154606082015285880154608082015281520194019401939286906116f0565b90811561141e57818181111561183957906117e091611185565b905b60648202918083046064149015171561055a576117fe9161113e565b6014811161183357600f811161182d57600a81116118275760051061182257603290565b603c90565b50604690565b50605090565b50605a90565b61184291611185565b906117e256fea2646970667358221220a848cdfb2f1144387c4e263249ab6f7fd742bda321d8a32fec6fd273f95d72f764736f6c63430008140033",
  "linkReferences": {},
  "deployedLinkReferences": {}
}