{
  "_format": "hh-sol-artifact-1",
  "contractName": "CorePrincipalToken",
  "sourceName": "contracts/tokens/CorePrincipalToken.sol",
  "abi": [
    {
      "inputs": [
        {
          "internalType": "string",
          "name": "name",
          "type": "string"
        },
        {
          "internalType": "string",
          "name": "symbol",
          "type": "string"
        },
        {
          "internalType": "address",
          "name": "_syToken",
          "type": "address"
        },
        {
          "internalType": "uint256",
          "name": "_maturity",
          "type": "uint256"
        }
      ],
      "stateMutability": "nonpayable",
      "type": "constructor"
    },
    {
      "inputs": [],
      "name": "ECDSAInvalidSignature",
      "type": "error"
    },
    {
      "inputs": [
        {
          "internalType": "uint256",
          "name": "length",
          "type": "uint256"
        }
      ],
      "name": "ECDSAInvalidSignatureLength",
      "type": "error"
    },
    {
      "inputs": [
        {
          "internalType": "bytes32",
          "name": "s",
          "type": "bytes32"
        }
      ],
      "name": "ECDSAInvalidSignatureS",
      "type": "error"
    },
    {
      "inputs": [
        {
          "internalType": "address",
          "name": "spender",
          "type": "address"
        },
        {
          "internalType": "uint256",
          "name": "allowance",
          "type": "uint256"
        },
        {
          "internalType": "uint256",
          "name": "needed",
          "type": "uint256"
        }
      ],
      "name": "ERC20InsufficientAllowance",
      "type": "error"
    },
    {
      "inputs": [
        {
          "internalType": "address",
          "name": "sender",
          "type": "address"
        },
        {
          "internalType": "uint256",
          "name": "balance",
          "type": "uint256"
        },
        {
          "internalType": "uint256",
          "name": "needed",
          "type": "uint256"
        }
      ],
      "name": "ERC20InsufficientBalance",
      "type": "error"
    },
    {
      "inputs": [
        {
          "internalType": "address",
          "name": "approver",
          "type": "address"
        }
      ],
      "name": "ERC20InvalidApprover",
      "type": "error"
    },
    {
      "inputs": [
        {
          "internalType": "address",
          "name": "receiver",
          "type": "address"
        }
      ],
      "name": "ERC20InvalidReceiver",
      "type": "error"
    },
    {
      "inputs": [
        {
          "internalType": "address",
          "name": "sender",
          "type": "address"
        }
      ],
      "name": "ERC20InvalidSender",
      "type": "error"
    },
    {
      "inputs": [
        {
          "internalType": "address",
          "name": "spender",
          "type": "address"
        }
      ],
      "name": "ERC20InvalidSpender",
      "type": "error"
    },
    {
      "inputs": [
        {
          "internalType": "uint256",
          "name": "deadline",
          "type": "uint256"
        }
      ],
      "name": "ERC2612ExpiredSignature",
      "type": "error"
    },
    {
      "inputs": [
        {
          "internalType": "address",
          "name": "signer",
          "type": "address"
        },
        {
          "internalType": "address",
          "name": "owner",
          "type": "address"
        }
      ],
      "name": "ERC2612InvalidSigner",
      "type": "error"
    },
    {
      "inputs": [],
      "name": "EnforcedPause",
      "type": "error"
    },
    {
      "inputs": [],
      "name": "ExpectedPause",
      "type": "error"
    },
    {
      "inputs": [
        {
          "internalType": "address",
          "name": "account",
          "type": "address"
        },
        {
          "internalType": "uint256",
          "name": "currentNonce",
          "type": "uint256"
        }
      ],
      "name": "InvalidAccountNonce",
      "type": "error"
    },
    {
      "inputs": [],
      "name": "InvalidShortString",
      "type": "error"
    },
    {
      "inputs": [
        {
          "internalType": "string",
          "name": "str",
          "type": "string"
        }
      ],
      "name": "StringTooLong",
      "type": "error"
    },
    {
      "anonymous": false,
      "inputs": [
        {
          "indexed": true,
          "internalType": "address",
          "name": "owner",
          "type": "address"
        },
        {
          "indexed": true,
          "internalType": "address",
          "name": "spender",
          "type": "address"
        },
        {
          "indexed": false,
          "internalType": "uint256",
          "name": "value",
          "type": "uint256"
        }
      ],
      "name": "Approval",
      "type": "event"
    },
    {
      "anonymous": false,
      "inputs": [],
      "name": "EIP712DomainChanged",
      "type": "event"
    },
    {
      "anonymous": false,
      "inputs": [
        {
          "indexed": true,
          "internalType": "address",
          "name": "user",
          "type": "address"
        },
        {
          "indexed": false,
          "internalType": "uint256",
          "name": "amount",
          "type": "uint256"
        },
        {
          "indexed": false,
          "internalType": "uint256",
          "name": "penalty",
          "type": "uint256"
        }
      ],
      "name": "EarlyRedemption",
      "type": "event"
    },
    {
      "anonymous": false,
      "inputs": [
        {
          "indexed": false,
          "internalType": "address",
          "name": "account",
          "type": "address"
        }
      ],
      "name": "Paused",
      "type": "event"
    },
    {
      "anonymous": false,
      "inputs": [
        {
          "indexed": true,
          "internalType": "address",
          "name": "from",
          "type": "address"
        },
        {
          "indexed": false,
          "internalType": "uint256",
          "name": "amount",
          "type": "uint256"
        },
        {
          "indexed": false,
          "internalType": "uint256",
          "name": "timestamp",
          "type": "uint256"
        }
      ],
      "name": "TokensBurned",
      "type": "event"
    },
    {
      "anonymous": false,
      "inputs": [
        {
          "indexed": true,
          "internalType": "address",
          "name": "to",
          "type": "address"
        },
        {
          "indexed": false,
          "internalType": "uint256",
          "name": "amount",
          "type": "uint256"
        },
        {
          "indexed": false,
          "internalType": "uint256",
          "name": "timestamp",
          "type": "uint256"
        }
      ],
      "name": "TokensMinted",
      "type": "event"
    },
    {
      "anonymous": false,
      "inputs": [
        {
          "indexed": true,
          "internalType": "address",
          "name": "from",
          "type": "address"
        },
        {
          "indexed": true,
          "internalType": "address",
          "name": "to",
          "type": "address"
        },
        {
          "indexed": false,
          "internalType": "uint256",
          "name": "value",
          "type": "uint256"
        }
      ],
      "name": "Transfer",
      "type": "event"
    },
    {
      "anonymous": false,
      "inputs": [
        {
          "indexed": false,
          "internalType": "address",
          "name": "account",
          "type": "address"
        }
      ],
      "name": "Unpaused",
      "type": "event"
    },
    {
      "inputs": [],
      "name": "DOMAIN_SEPARATOR",
      "outputs": [
        {
          "internalType": "bytes32",
          "name": "",
          "type": "bytes32"
        }
      ],
      "stateMutability": "view",
      "type": "function"
    },
    {
      "inputs": [
        {
          "internalType": "address",
          "name": "owner",
          "type": "address"
        },
        {
          "internalType": "address",
          "name": "spender",
          "type": "address"
        }
      ],
      "name": "allowance",
      "outputs": [
        {
          "internalType": "uint256",
          "name": "",
          "type": "uint256"
        }
      ],
      "stateMutability": "view",
      "type": "function"
    },
    {
      "inputs": [
        {
          "internalType": "address",
          "name": "spender",
          "type": "address"
        },
        {
          "internalType": "uint256",
          "name": "value",
          "type": "uint256"
        }
      ],
      "name": "approve",
      "outputs": [
        {
          "internalType": "bool",
          "name": "",
          "type": "bool"
        }
      ],
      "stateMutability": "nonpayable",
      "type": "function"
    },
    {
      "inputs": [
        {
          "internalType": "address",
          "name": "account",
          "type": "address"
        }
      ],
      "name": "balanceOf",
      "outputs": [
        {
          "internalType": "uint256",
          "name": "",
          "type": "uint256"
        }
      ],
      "stateMutability": "view",
      "type": "function"
    },
    {
      "inputs": [
        {
          "internalType": "address",
          "name": "from",
          "type": "address"
        },
        {
          "internalType": "uint256",
          "name": "amount",
          "type": "uint256"
        }
      ],
      "name": "burn",
      "outputs": [],
      "stateMutability": "nonpayable",
      "type": "function"
    },
    {
      "inputs": [],
      "name": "decimals",
      "outputs": [
        {
          "internalType": "uint8",
          "name": "",
          "type": "uint8"
        }
      ],
      "stateMutability": "view",
      "type": "function"
    },
    {
      "inputs": [],
      "name": "earlyRedemptionEnabled",
      "outputs": [
        {
          "internalType": "bool",
          "name": "",
          "type": "bool"
        }
      ],
      "stateMutability": "view",
      "type": "function"
    },
    {
      "inputs": [],
      "name": "earlyRedemptionPenalty",
      "outputs": [
        {
          "internalType": "uint256",
          "name": "",
          "type": "uint256"
        }
      ],
      "stateMutability": "view",
      "type": "function"
    },
    {
      "inputs": [],
      "name": "eip712Domain",
      "outputs": [
        {
          "internalType": "bytes1",
          "name": "fields",
          "type": "bytes1"
        },
        {
          "internalType": "string",
          "name": "name",
          "type": "string"
        },
        {
          "internalType": "string",
          "name": "version",
          "type": "string"
        },
        {
          "internalType": "uint256",
          "name": "chainId",
          "type": "uint256"
        },
        {
          "internalType": "address",
          "name": "verifyingContract",
          "type": "address"
        },
        {
          "internalType": "bytes32",
          "name": "salt",
          "type": "bytes32"
        },
        {
          "internalType": "uint256[]",
          "name": "extensions",
          "type": "uint256[]"
        }
      ],
      "stateMutability": "view",
      "type": "function"
    },
    {
      "inputs": [],
      "name": "factory",
      "outputs": [
        {
          "internalType": "address",
          "name": "",
          "type": "address"
        }
      ],
      "stateMutability": "view",
      "type": "function"
    },
    {
      "inputs": [],
      "name": "getImpliedAPY",
      "outputs": [
        {
          "internalType": "uint256",
          "name": "",
          "type": "uint256"
        }
      ],
      "stateMutability": "view",
      "type": "function"
    },
    {
      "inputs": [],
      "name": "getMaturity",
      "outputs": [
        {
          "internalType": "uint256",
          "name": "",
          "type": "uint256"
        }
      ],
      "stateMutability": "view",
      "type": "function"
    },
    {
      "inputs": [],
      "name": "getSYToken",
      "outputs": [
        {
          "internalType": "address",
          "name": "",
          "type": "address"
        }
      ],
      "stateMutability": "view",
      "type": "function"
    },
    {
      "inputs": [],
      "name": "getTokenInfo",
      "outputs": [
        {
          "internalType": "string",
          "name": "tokenName",
          "type": "string"
        },
        {
          "internalType": "string",
          "name": "tokenSymbol",
          "type": "string"
        },
        {
          "internalType": "address",
          "name": "tokenSY",
          "type": "address"
        },
        {
          "internalType": "uint256",
          "name": "tokenMaturity",
          "type": "uint256"
        },
        {
          "internalType": "bool",
          "name": "expired",
          "type": "bool"
        },
        {
          "internalType": "uint256",
          "name": "timeLeft",
          "type": "uint256"
        },
        {
          "internalType": "uint256",
          "name": "currentImpliedAPY",
          "type": "uint256"
        },
        {
          "internalType": "uint256",
          "name": "totalSupply_",
          "type": "uint256"
        },
        {
          "internalType": "uint256",
          "name": "totalRedeemed_",
          "type": "uint256"
        }
      ],
      "stateMutability": "view",
      "type": "function"
    },
    {
      "inputs": [
        {
          "internalType": "address",
          "name": "user",
          "type": "address"
        }
      ],
      "name": "getUserInfo",
      "outputs": [
        {
          "internalType": "uint256",
          "name": "balance",
          "type": "uint256"
        },
        {
          "internalType": "uint256",
          "name": "mintTime",
          "type": "uint256"
        },
        {
          "internalType": "uint256",
          "name": "holdingDuration",
          "type": "uint256"
        },
        {
          "internalType": "uint256",
          "name": "redemptionHistory_",
          "type": "uint256"
        },
        {
          "internalType": "uint256",
          "name": "potentialValue",
          "type": "uint256"
        },
        {
          "internalType": "bool",
          "name": "canRedeemEarly",
          "type": "bool"
        }
      ],
      "stateMutability": "view",
      "type": "function"
    },
    {
      "inputs": [],
      "name": "impliedAPY",
      "outputs": [
        {
          "internalType": "uint256",
          "name": "",
          "type": "uint256"
        }
      ],
      "stateMutability": "view",
      "type": "function"
    },
    {
      "inputs": [],
      "name": "isExpired",
      "outputs": [
        {
          "internalType": "bool",
          "name": "",
          "type": "bool"
        }
      ],
      "stateMutability": "view",
      "type": "function"
    },
    {
      "inputs": [],
      "name": "maturity",
      "outputs": [
        {
          "internalType": "uint256",
          "name": "",
          "type": "uint256"
        }
      ],
      "stateMutability": "view",
      "type": "function"
    },
    {
      "inputs": [
        {
          "internalType": "address",
          "name": "to",
          "type": "address"
        },
        {
          "internalType": "uint256",
          "name": "amount",
          "type": "uint256"
        }
      ],
      "name": "mint",
      "outputs": [],
      "stateMutability": "nonpayable",
      "type": "function"
    },
    {
      "inputs": [
        {
          "internalType": "address",
          "name": "",
          "type": "address"
        }
      ],
      "name": "mintTimestamp",
      "outputs": [
        {
          "internalType": "uint256",
          "name": "",
          "type": "uint256"
        }
      ],
      "stateMutability": "view",
      "type": "function"
    },
    {
      "inputs": [],
      "name": "name",
      "outputs": [
        {
          "internalType": "string",
          "name": "",
          "type": "string"
        }
      ],
      "stateMutability": "view",
      "type": "function"
    },
    {
      "inputs": [
        {
          "internalType": "address",
          "name": "owner",
          "type": "address"
        }
      ],
      "name": "nonces",
      "outputs": [
        {
          "internalType": "uint256",
          "name": "",
          "type": "uint256"
        }
      ],
      "stateMutability": "view",
      "type": "function"
    },
    {
      "inputs": [],
      "name": "pause",
      "outputs": [],
      "stateMutability": "nonpayable",
      "type": "function"
    },
    {
      "inputs": [],
      "name": "paused",
      "outputs": [
        {
          "internalType": "bool",
          "name": "",
          "type": "bool"
        }
      ],
      "stateMutability": "view",
      "type": "function"
    },
    {
      "inputs": [
        {
          "internalType": "address",
          "name": "owner",
          "type": "address"
        },
        {
          "internalType": "address",
          "name": "spender",
          "type": "address"
        },
        {
          "internalType": "uint256",
          "name": "value",
          "type": "uint256"
        },
        {
          "internalType": "uint256",
          "name": "deadline",
          "type": "uint256"
        },
        {
          "internalType": "uint8",
          "name": "v",
          "type": "uint8"
        },
        {
          "internalType": "bytes32",
          "name": "r",
          "type": "bytes32"
        },
        {
          "internalType": "bytes32",
          "name": "s",
          "type": "bytes32"
        }
      ],
      "name": "permit",
      "outputs": [],
      "stateMutability": "nonpayable",
      "type": "function"
    },
    {
      "inputs": [
        {
          "internalType": "address",
          "name": "",
          "type": "address"
        }
      ],
      "name": "redemptionHistory",
      "outputs": [
        {
          "internalType": "uint256",
          "name": "",
          "type": "uint256"
        }
      ],
      "stateMutability": "view",
      "type": "function"
    },
    {
      "inputs": [],
      "name": "syToken",
      "outputs": [
        {
          "internalType": "address",
          "name": "",
          "type": "address"
        }
      ],
      "stateMutability": "view",
      "type": "function"
    },
    {
      "inputs": [],
      "name": "symbol",
      "outputs": [
        {
          "internalType": "string",
          "name": "",
          "type": "string"
        }
      ],
      "stateMutability": "view",
      "type": "function"
    },
    {
      "inputs": [],
      "name": "timeToMaturity",
      "outputs": [
        {
          "internalType": "uint256",
          "name": "",
          "type": "uint256"
        }
      ],
      "stateMutability": "view",
      "type": "function"
    },
    {
      "inputs": [],
      "name": "totalRedeemed",
      "outputs": [
        {
          "internalType": "uint256",
          "name": "",
          "type": "uint256"
        }
      ],
      "stateMutability": "view",
      "type": "function"
    },
    {
      "inputs": [],
      "name": "totalSupply",
      "outputs": [
        {
          "internalType": "uint256",
          "name": "",
          "type": "uint256"
        }
      ],
      "stateMutability": "view",
      "type": "function"
    },
    {
      "inputs": [
        {
          "internalType": "address",
          "name": "to",
          "type": "address"
        },
        {
          "internalType": "uint256",
          "name": "value",
          "type": "uint256"
        }
      ],
      "name": "transfer",
      "outputs": [
        {
          "internalType": "bool",
          "name": "",
          "type": "bool"
        }
      ],
      "stateMutability": "nonpayable",
      "type": "function"
    },
    {
      "inputs": [
        {
          "internalType": "address",
          "name": "from",
          "type": "address"
        },
        {
          "internalType": "address",
          "name": "to",
          "type": "address"
        },
        {
          "internalType": "uint256",
          "name": "value",
          "type": "uint256"
        }
      ],
      "name": "transferFrom",
      "outputs": [
        {
          "internalType": "bool",
          "name": "",
          "type": "bool"
        }
      ],
      "stateMutability": "nonpayable",
      "type": "function"
    },
    {
      "inputs": [],
      "name": "unpause",
      "outputs": [],
      "stateMutability": "nonpayable",
      "type": "function"
    }
  ],
  "bytecode": "0x6101c06040526101f4600c553480156200001857600080fd5b5060405162002066380380620020668339810160408190526200003b9162000376565b6040805180820190915260018152603160f81b6020820152849081908186600362000067838262000498565b50600462000076828262000498565b5062000088915083905060056200022d565b61012052620000998160066200022d565b61014052815160208084019190912060e052815190820120610100524660a0526200012760e05161010051604080517f8b73c3c69bb8fe3d512ecc4cf759cc79239f7b179b0ffacaa9a75d522b39400f60208201529081019290925260608201524660808201523060a082015260009060c00160405160208183030381529060405280519060200120905090565b60805250503060c052506001600160a01b038216620001805760405162461bcd60e51b815260206004820152601060248201526f24b73b30b634b21029ac903a37b5b2b760811b60448201526064015b60405180910390fd5b428111620001c45760405162461bcd60e51b815260206004820152601060248201526f496e76616c6964206d6174757269747960801b604482015260640162000177565b6001600160a01b03821661016052610180819052336101a0526000620001eb428362000564565b905060008111620001fe5760006200021e565b6200020d620151808262000586565b6200021e9064496cebb80062000586565b600a5550620006039350505050565b60006020835110156200024d57620002458362000266565b905062000260565b816200025a848262000498565b5060ff90505b92915050565b600080829050601f8151111562000294578260405163305a27a960e01b8152600401620001779190620005a9565b8051620002a182620005de565b179392505050565b634e487b7160e01b600052604160045260246000fd5b60005b83811015620002dc578181015183820152602001620002c2565b50506000910152565b600082601f830112620002f757600080fd5b81516001600160401b0380821115620003145762000314620002a9565b604051601f8301601f19908116603f011681019082821181831017156200033f576200033f620002a9565b816040528381528660208588010111156200035957600080fd5b6200036c846020830160208901620002bf565b9695505050505050565b600080600080608085870312156200038d57600080fd5b84516001600160401b0380821115620003a557600080fd5b620003b388838901620002e5565b95506020870151915080821115620003ca57600080fd5b50620003d987828801620002e5565b604087015190945090506001600160a01b0381168114620003f957600080fd5b6060959095015193969295505050565b600181811c908216806200041e57607f821691505b6020821081036200043f57634e487b7160e01b600052602260045260246000fd5b50919050565b601f8211156200049357600081815260208120601f850160051c810160208610156200046e5750805b601f850160051c820191505b818110156200048f578281556001016200047a565b5050505b505050565b81516001600160401b03811115620004b457620004b4620002a9565b620004cc81620004c5845462000409565b8462000445565b602080601f831160018114620005045760008415620004eb5750858301515b600019600386901b1c1916600185901b1785556200048f565b600085815260208120601f198616915b82811015620005355788860151825594840194600190910190840162000514565b5085821015620005545787850151600019600388901b60f8161c191681555b5050505050600190811b01905550565b818103818111156200026057634e487b7160e01b600052601160045260246000fd5b600082620005a457634e487b7160e01b600052601260045260246000fd5b500490565b6020815260008251806020840152620005ca816040850160208701620002bf565b601f01601f19169190910160400192915050565b805160208083015191908110156200043f5760001960209190910360031b1b16919050565b60805160a05160c05160e05161010051610120516101405161016051610180516101a05161197e620006e8600039600081816104bc0152818161073701528181610792015281816108f20152610997015260008181610270015281816102e60152818161052c0152818161063a0152818161066d015281816106d70152818161070801528181610abf01528181610ae20152610b110152600081816102aa0152818161037c0152610a9c015260006110340152600061100701526000610ec201526000610e9a01526000610df501526000610e1f01526000610e49015261197e6000f3fe608060405234801561001057600080fd5b50600436106102065760003560e01c80635c975abb1161011a5780639dc29fac116100ad578063d505accf1161007c578063d505accf146104de578063dd62ed3e146104f1578063e16695b51461052a578063e98f6ff914610550578063f35dad401461055d57600080fd5b80639dc29fac14610474578063a9059cbb14610487578063abb1dc441461049a578063c45a0155146104b757600080fd5b80638456cb59116100e95780638456cb591461042957806384b0196e1461043157806395d89b411461044c57806397d538031461045457600080fd5b80635c975abb146103a05780636386c1c7146103ab57806370a08231146103ed5780637ecebe001461041657600080fd5b8063313ce5671161019d5780633cb3c4fd1161016c5780633cb3c4fd1461034c5780633f4ba83a1461035457806340c10f191461035e5780634eee6c7314610371578063578bc89e1461037a57600080fd5b8063313ce5671461030d57806335743ef91461031c5780633644e5151461032457806338ae78761461032c57600080fd5b8063204f83f9116101d9578063204f83f91461026b57806323b872dd14610292578063287b448d146102a55780632f13b60c146102e457600080fd5b806306fdde031461020b578063095ea7b3146102295780630ba359761461024c57806318160ddd14610263575b600080fd5b610213610566565b60405161022091906115ed565b60405180910390f35b61023c610237366004611623565b6105f8565b6040519015158152602001610220565b610255600c5481565b604051908152602001610220565b600254610255565b6102557f000000000000000000000000000000000000000000000000000000000000000081565b61023c6102a036600461164d565b610612565b6102cc7f000000000000000000000000000000000000000000000000000000000000000081565b6040516001600160a01b039091168152602001610220565b7f000000000000000000000000000000000000000000000000000000000000000042101561023c565b60405160128152602001610220565b610255610636565b6102556106c4565b61025561033a366004611689565b600d6020526000908152604090205481565b6102556106d3565b61035c61072c565b005b61035c61036c366004611623565b610787565b610255600a5481565b7f00000000000000000000000000000000000000000000000000000000000000006102cc565b60085460ff1661023c565b6103be6103b9366004611689565b61083b565b6040805196875260208701959095529385019290925260608401526080830152151560a082015260c001610220565b6102556103fb366004611689565b6001600160a01b031660009081526020819052604090205490565b610255610424366004611689565b6108c9565b61035c6108e7565b610439610937565b60405161022097969594939291906116a4565b61021361097d565b610255610462366004611689565b600e6020526000908152604090205481565b61035c610482366004611623565b61098c565b61023c610495366004611623565b610a6a565b6104a2610a78565b6040516102209998979695949392919061173a565b6102cc7f000000000000000000000000000000000000000000000000000000000000000081565b61035c6104ec3660046117a4565b610bbe565b6102556104ff366004611817565b6001600160a01b03918216600090815260016020908152604080832093909416825291909152205490565b7f0000000000000000000000000000000000000000000000000000000000000000610255565b600b5461023c9060ff1681565b61025560095481565b6060600380546105759061184a565b80601f01602080910402602001604051908101604052809291908181526020018280546105a19061184a565b80156105ee5780601f106105c3576101008083540402835291602001916105ee565b820191906000526020600020905b8154815290600101906020018083116105d157829003601f168201915b5050505050905090565b600033610606818585610cf8565b60019150505b92915050565b600033610620858285610d0a565b61062b858585610d89565b506001949350505050565b60007f000000000000000000000000000000000000000000000000000000000000000042106106655750600090565b6000610691427f000000000000000000000000000000000000000000000000000000000000000061189a565b9050600081116106a25760006106be565b6106af62015180826118ad565b6106be9064496cebb8006118ad565b91505090565b60006106ce610de8565b905090565b60007f000000000000000000000000000000000000000000000000000000000000000042106107025750600090565b6106ce427f000000000000000000000000000000000000000000000000000000000000000061189a565b336001600160a01b037f0000000000000000000000000000000000000000000000000000000000000000161461077d5760405162461bcd60e51b8152600401610774906118cf565b60405180910390fd5b610785610f13565b565b336001600160a01b037f000000000000000000000000000000000000000000000000000000000000000016146107cf5760405162461bcd60e51b8152600401610774906118cf565b6107d7610f65565b6107e18282610f89565b6001600160a01b0382166000818152600e602090815260409182902042908190558251858152918201527f2e8ac5177a616f2aec08c3048f5021e4e9743ece034e8d83ba5caf76688bb47591015b60405180910390a25050565b600080600080600080610863876001600160a01b031660009081526020819052604090205490565b6001600160a01b0388166000908152600e6020526040902054909650945061088b854261189a565b6001600160a01b0388166000908152600d6020526040902054600b54919550935086925060ff1680156108be5750600086115b905091939550919395565b6001600160a01b03811660009081526007602052604081205461060c565b336001600160a01b037f0000000000000000000000000000000000000000000000000000000000000000161461092f5760405162461bcd60e51b8152600401610774906118cf565b610785610fc3565b60006060806000806000606061094b611000565b61095361102d565b60408051600080825260208201909252600f60f81b9b939a50919850469750309650945092509050565b6060600480546105759061184a565b336001600160a01b037f000000000000000000000000000000000000000000000000000000000000000016146109d45760405162461bcd60e51b8152600401610774906118cf565b6109dc610f65565b6109e6828261105a565b80600960008282546109f89190611906565b90915550506001600160a01b0382166000908152600d602052604081208054839290610a25908490611906565b9091555050604080518281524260208201526001600160a01b038416917fccbea4088a3b7ae9ca2d15fab9a9742a4075b4d7247768a1eecea917565aba00910161082f565b600033610606818585610d89565b6060806000806000806000806000610a8e610566565b9850610a9861097d565b97507f000000000000000000000000000000000000000000000000000000000000000096507f000000000000000000000000000000000000000000000000000000000000000095507f0000000000000000000000000000000000000000000000000000000000000000421015945084610b3a57610b35427f000000000000000000000000000000000000000000000000000000000000000061189a565b610b3d565b60005b9350306001600160a01b03166335743ef96040518163ffffffff1660e01b8152600401602060405180830381865afa158015610b7d573d6000803e3d6000fd5b505050506040513d601f19601f82011682018060405250810190610ba19190611919565b9250610bac60025490565b91506009549050909192939495969798565b83421115610be25760405163313c898160e11b815260048101859052602401610774565b60007f6e71edae12b1b97f4d1f60370fef10105fa2faae0126114a169c64845d6126c9888888610c2f8c6001600160a01b0316600090815260076020526040902080546001810190915590565b6040805160208101969096526001600160a01b0394851690860152929091166060840152608083015260a082015260c0810186905260e0016040516020818303038152906040528051906020012090506000610c8a82611090565b90506000610c9a828787876110bd565b9050896001600160a01b0316816001600160a01b031614610ce1576040516325c0072360e11b81526001600160a01b0380831660048301528b166024820152604401610774565b610cec8a8a8a610cf8565b50505050505050505050565b610d0583838360016110eb565b505050565b6001600160a01b03838116600090815260016020908152604080832093861683529290522054600019811015610d835781811015610d7457604051637dc7a0d960e11b81526001600160a01b03841660048201526024810182905260448101839052606401610774565b610d83848484840360006110eb565b50505050565b6001600160a01b038316610db357604051634b637e8f60e11b815260006004820152602401610774565b6001600160a01b038216610ddd5760405163ec442f0560e01b815260006004820152602401610774565b610d058383836111c0565b6000306001600160a01b037f000000000000000000000000000000000000000000000000000000000000000016148015610e4157507f000000000000000000000000000000000000000000000000000000000000000046145b15610e6b57507f000000000000000000000000000000000000000000000000000000000000000090565b6106ce604080517f8b73c3c69bb8fe3d512ecc4cf759cc79239f7b179b0ffacaa9a75d522b39400f60208201527f0000000000000000000000000000000000000000000000000000000000000000918101919091527f000000000000000000000000000000000000000000000000000000000000000060608201524660808201523060a082015260009060c00160405160208183030381529060405280519060200120905090565b610f1b6112ea565b6008805460ff191690557f5db9ee0a495bf2e6ff9c91a7834c1ba4fdd244a5e8aa4e537bd38aeae4b073aa335b6040516001600160a01b03909116815260200160405180910390a1565b60085460ff16156107855760405163d93c066560e01b815260040160405180910390fd5b6001600160a01b038216610fb35760405163ec442f0560e01b815260006004820152602401610774565b610fbf600083836111c0565b5050565b610fcb610f65565b6008805460ff191660011790557f62e78cea01bee320cd4e420270b5ea74000d11b0c9f74754ebdbfc544b05a258610f483390565b60606106ce7f0000000000000000000000000000000000000000000000000000000000000000600561130d565b60606106ce7f0000000000000000000000000000000000000000000000000000000000000000600661130d565b6001600160a01b03821661108457604051634b637e8f60e11b815260006004820152602401610774565b610fbf826000836111c0565b600061060c61109d610de8565b8360405161190160f01b8152600281019290925260228201526042902090565b6000806000806110cf888888886113b8565b9250925092506110df8282611487565b50909695505050505050565b6001600160a01b0384166111155760405163e602df0560e01b815260006004820152602401610774565b6001600160a01b03831661113f57604051634a1406b160e11b815260006004820152602401610774565b6001600160a01b0380851660009081526001602090815260408083209387168352929052208290558015610d8357826001600160a01b0316846001600160a01b03167f8c5be1e5ebec7d5bd14f71427d1e84f3dd0314c0f7b2291e5b200ac8c7c3b925846040516111b291815260200190565b60405180910390a350505050565b6001600160a01b0383166111eb5780600260008282546111e09190611906565b9091555061125d9050565b6001600160a01b0383166000908152602081905260409020548181101561123e5760405163391434e360e21b81526001600160a01b03851660048201526024810182905260448101839052606401610774565b6001600160a01b03841660009081526020819052604090209082900390555b6001600160a01b03821661127957600280548290039055611298565b6001600160a01b03821660009081526020819052604090208054820190555b816001600160a01b0316836001600160a01b03167fddf252ad1be2c89b69c2b068fc378daa952ba7f163c4a11628f55a4df523b3ef836040516112dd91815260200190565b60405180910390a3505050565b60085460ff1661078557604051638dfc202b60e01b815260040160405180910390fd5b606060ff83146113275761132083611540565b905061060c565b8180546113339061184a565b80601f016020809104026020016040519081016040528092919081815260200182805461135f9061184a565b80156113ac5780601f10611381576101008083540402835291602001916113ac565b820191906000526020600020905b81548152906001019060200180831161138f57829003601f168201915b5050505050905061060c565b600080807f7fffffffffffffffffffffffffffffff5d576e7357a4501ddfe92f46681b20a08411156113f3575060009150600390508261147d565b604080516000808252602082018084528a905260ff891692820192909252606081018790526080810186905260019060a0016020604051602081039080840390855afa158015611447573d6000803e3d6000fd5b5050604051601f1901519150506001600160a01b0381166114735750600092506001915082905061147d565b9250600091508190505b9450945094915050565b600082600381111561149b5761149b611932565b036114a4575050565b60018260038111156114b8576114b8611932565b036114d65760405163f645eedf60e01b815260040160405180910390fd5b60028260038111156114ea576114ea611932565b0361150b5760405163fce698f760e01b815260048101829052602401610774565b600382600381111561151f5761151f611932565b03610fbf576040516335e2f38360e21b815260048101829052602401610774565b6060600061154d8361157f565b604080516020808252818301909252919250600091906020820181803683375050509182525060208101929092525090565b600060ff8216601f81111561060c57604051632cd44ac360e21b815260040160405180910390fd5b6000815180845260005b818110156115cd576020818501810151868301820152016115b1565b506000602082860101526020601f19601f83011685010191505092915050565b60208152600061160060208301846115a7565b9392505050565b80356001600160a01b038116811461161e57600080fd5b919050565b6000806040838503121561163657600080fd5b61163f83611607565b946020939093013593505050565b60008060006060848603121561166257600080fd5b61166b84611607565b925061167960208501611607565b9150604084013590509250925092565b60006020828403121561169b57600080fd5b61160082611607565b60ff60f81b881681526000602060e0818401526116c460e084018a6115a7565b83810360408501526116d6818a6115a7565b606085018990526001600160a01b038816608086015260a0850187905284810360c0860152855180825283870192509083019060005b818110156117285783518352928401929184019160010161170c565b50909c9b505050505050505050505050565b600061012080835261174e8184018d6115a7565b90508281036020840152611762818c6115a7565b6001600160a01b039a909a16604084015250506060810196909652931515608086015260a085019290925260c084015260e08301526101009091015292915050565b600080600080600080600060e0888a0312156117bf57600080fd5b6117c888611607565b96506117d660208901611607565b95506040880135945060608801359350608088013560ff811681146117fa57600080fd5b9699959850939692959460a0840135945060c09093013592915050565b6000806040838503121561182a57600080fd5b61183383611607565b915061184160208401611607565b90509250929050565b600181811c9082168061185e57607f821691505b60208210810361187e57634e487b7160e01b600052602260045260246000fd5b50919050565b634e487b7160e01b600052601160045260246000fd5b8181038181111561060c5761060c611884565b6000826118ca57634e487b7160e01b600052601260045260246000fd5b500490565b6020808252601a908201527f4f6e6c7920666163746f72792063616e206d696e742f6275726e000000000000604082015260600190565b8082018082111561060c5761060c611884565b60006020828403121561192b57600080fd5b5051919050565b634e487b7160e01b600052602160045260246000fdfea264697066735822122052064644f60a0024d8e741ab05dbc31ae643a04ee14166f9aa95c2fc1c7128e264736f6c63430008140033",
  "linkReferences": {},
  "deployedLinkReferences": {}
}