{
  "_format": "hh-sol-artifact-1",
  "contractName": "CoreStaking",
  "sourceName": "contracts/core/CoreStaking.sol",
  "abi": [
    {
      "inputs": [
        {
          "internalType": "address",
          "name": "_coreToken",
          "type": "address"
        },
        {
          "internalType": "address",
          "name": "_stCoreToken",
          "type": "address"
        }
      ],
      "stateMutability": "nonpayable",
      "type": "constructor"
    },
    {
      "inputs": [],
      "name": "EnforcedPause",
      "type": "error"
    },
    {
      "inputs": [],
      "name": "ExpectedPause",
      "type": "error"
    },
    {
      "inputs": [
        {
          "internalType": "address",
          "name": "owner",
          "type": "address"
        }
      ],
      "name": "OwnableInvalidOwner",
      "type": "error"
    },
    {
      "inputs": [
        {
          "internalType": "address",
          "name": "account",
          "type": "address"
        }
      ],
      "name": "OwnableUnauthorizedAccount",
      "type": "error"
    },
    {
      "inputs": [],
      "name": "ReentrancyGuardReentrantCall",
      "type": "error"
    },
    {
      "inputs": [
        {
          "internalType": "address",
          "name": "token",
          "type": "address"
        }
      ],
      "name": "SafeERC20FailedOperation",
      "type": "error"
    },
    {
      "anonymous": false,
      "inputs": [
        {
          "indexed": true,
          "internalType": "address",
          "name": "previousOwner",
          "type": "address"
        },
        {
          "indexed": true,
          "internalType": "address",
          "name": "newOwner",
          "type": "address"
        }
      ],
      "name": "OwnershipTransferred",
      "type": "event"
    },
    {
      "anonymous": false,
      "inputs": [
        {
          "indexed": false,
          "internalType": "address",
          "name": "account",
          "type": "address"
        }
      ],
      "name": "Paused",
      "type": "event"
    },
    {
      "anonymous": false,
      "inputs": [
        {
          "indexed": true,
          "internalType": "address",
          "name": "user",
          "type": "address"
        },
        {
          "indexed": false,
          "internalType": "uint256",
          "name": "amount",
          "type": "uint256"
        },
        {
          "indexed": false,
          "internalType": "uint256",
          "name": "timestamp",
          "type": "uint256"
        }
      ],
      "name": "RewardsClaimed",
      "type": "event"
    },
    {
      "anonymous": false,
      "inputs": [
        {
          "indexed": true,
          "internalType": "address",
          "name": "user",
          "type": "address"
        },
        {
          "indexed": false,
          "internalType": "uint256",
          "name": "amount",
          "type": "uint256"
        },
        {
          "indexed": false,
          "internalType": "uint256",
          "name": "timestamp",
          "type": "uint256"
        }
      ],
      "name": "Staked",
      "type": "event"
    },
    {
      "anonymous": false,
      "inputs": [
        {
          "indexed": false,
          "internalType": "address",
          "name": "account",
          "type": "address"
        }
      ],
      "name": "Unpaused",
      "type": "event"
    },
    {
      "anonymous": false,
      "inputs": [
        {
          "indexed": true,
          "internalType": "address",
          "name": "user",
          "type": "address"
        },
        {
          "indexed": false,
          "internalType": "uint256",
          "name": "amount",
          "type": "uint256"
        },
        {
          "indexed": false,
          "internalType": "uint256",
          "name": "timestamp",
          "type": "uint256"
        }
      ],
      "name": "Unstaked",
      "type": "event"
    },
    {
      "inputs": [],
      "name": "REWARD_RATE",
      "outputs": [
        {
          "internalType": "uint256",
          "name": "",
          "type": "uint256"
        }
      ],
      "stateMutability": "view",
      "type": "function"
    },
    {
      "inputs": [],
      "name": "SECONDS_PER_YEAR",
      "outputs": [
        {
          "internalType": "uint256",
          "name": "",
          "type": "uint256"
        }
      ],
      "stateMutability": "view",
      "type": "function"
    },
    {
      "inputs": [],
      "name": "claimRewards",
      "outputs": [],
      "stateMutability": "nonpayable",
      "type": "function"
    },
    {
      "inputs": [],
      "name": "coreToken",
      "outputs": [
        {
          "internalType": "contract IERC20",
          "name": "",
          "type": "address"
        }
      ],
      "stateMutability": "view",
      "type": "function"
    },
    {
      "inputs": [
        {
          "internalType": "address",
          "name": "user",
          "type": "address"
        }
      ],
      "name": "earned",
      "outputs": [
        {
          "internalType": "uint256",
          "name": "",
          "type": "uint256"
        }
      ],
      "stateMutability": "view",
      "type": "function"
    },
    {
      "inputs": [],
      "name": "getStakingAPY",
      "outputs": [
        {
          "internalType": "uint256",
          "name": "",
          "type": "uint256"
        }
      ],
      "stateMutability": "pure",
      "type": "function"
    },
    {
      "inputs": [
        {
          "internalType": "address",
          "name": "user",
          "type": "address"
        }
      ],
      "name": "getStakingHistory",
      "outputs": [
        {
          "internalType": "uint256[]",
          "name": "amounts",
          "type": "uint256[]"
        },
        {
          "internalType": "uint256[]",
          "name": "timestamps",
          "type": "uint256[]"
        },
        {
          "internalType": "uint256[]",
          "name": "rewards",
          "type": "uint256[]"
        }
      ],
      "stateMutability": "view",
      "type": "function"
    },
    {
      "inputs": [],
      "name": "getStakingLeaderboard",
      "outputs": [
        {
          "internalType": "address[]",
          "name": "topStakers",
          "type": "address[]"
        },
        {
          "internalType": "uint256[]",
          "name": "amounts",
          "type": "uint256[]"
        }
      ],
      "stateMutability": "view",
      "type": "function"
    },
    {
      "inputs": [],
      "name": "getStakingStats",
      "outputs": [
        {
          "internalType": "uint256",
          "name": "_totalStaked",
          "type": "uint256"
        },
        {
          "internalType": "uint256",
          "name": "_totalRewards",
          "type": "uint256"
        },
        {
          "internalType": "uint256",
          "name": "_currentAPY",
          "type": "uint256"
        },
        {
          "internalType": "uint256",
          "name": "_totalUsers",
          "type": "uint256"
        }
      ],
      "stateMutability": "view",
      "type": "function"
    },
    {
      "inputs": [
        {
          "internalType": "address",
          "name": "user",
          "type": "address"
        }
      ],
      "name": "getUserStakingInfo",
      "outputs": [
        {
          "internalType": "uint256",
          "name": "stakedAmount",
          "type": "uint256"
        },
        {
          "internalType": "uint256",
          "name": "rewards",
          "type": "uint256"
        },
        {
          "internalType": "uint256",
          "name": "lastStakeTime",
          "type": "uint256"
        },
        {
          "internalType": "uint256",
          "name": "lockPeriod",
          "type": "uint256"
        },
        {
          "internalType": "uint256",
          "name": "earnedRewards",
          "type": "uint256"
        }
      ],
      "stateMutability": "view",
      "type": "function"
    },
    {
      "inputs": [
        {
          "internalType": "address",
          "name": "",
          "type": "address"
        }
      ],
      "name": "hasStaked",
      "outputs": [
        {
          "internalType": "bool",
          "name": "",
          "type": "bool"
        }
      ],
      "stateMutability": "view",
      "type": "function"
    },
    {
      "inputs": [],
      "name": "lastUpdateTime",
      "outputs": [
        {
          "internalType": "uint256",
          "name": "",
          "type": "uint256"
        }
      ],
      "stateMutability": "view",
      "type": "function"
    },
    {
      "inputs": [],
      "name": "owner",
      "outputs": [
        {
          "internalType": "address",
          "name": "",
          "type": "address"
        }
      ],
      "stateMutability": "view",
      "type": "function"
    },
    {
      "inputs": [],
      "name": "pause",
      "outputs": [],
      "stateMutability": "nonpayable",
      "type": "function"
    },
    {
      "inputs": [],
      "name": "paused",
      "outputs": [
        {
          "internalType": "bool",
          "name": "",
          "type": "bool"
        }
      ],
      "stateMutability": "view",
      "type": "function"
    },
    {
      "inputs": [],
      "name": "renounceOwnership",
      "outputs": [],
      "stateMutability": "nonpayable",
      "type": "function"
    },
    {
      "inputs": [],
      "name": "rewardPerToken",
      "outputs": [
        {
          "internalType": "uint256",
          "name": "",
          "type": "uint256"
        }
      ],
      "stateMutability": "view",
      "type": "function"
    },
    {
      "inputs": [],
      "name": "rewardPerTokenStored",
      "outputs": [
        {
          "internalType": "uint256",
          "name": "",
          "type": "uint256"
        }
      ],
      "stateMutability": "view",
      "type": "function"
    },
    {
      "inputs": [
        {
          "internalType": "uint256",
          "name": "newPeriod",
          "type": "uint256"
        }
      ],
      "name": "setLockPeriod",
      "outputs": [],
      "stateMutability": "nonpayable",
      "type": "function"
    },
    {
      "inputs": [
        {
          "internalType": "uint256",
          "name": "newRate",
          "type": "uint256"
        }
      ],
      "name": "setRewardRate",
      "outputs": [],
      "stateMutability": "nonpayable",
      "type": "function"
    },
    {
      "inputs": [],
      "name": "stCoreToken",
      "outputs": [
        {
          "internalType": "contract IERC20",
          "name": "",
          "type": "address"
        }
      ],
      "stateMutability": "view",
      "type": "function"
    },
    {
      "inputs": [
        {
          "internalType": "uint256",
          "name": "amount",
          "type": "uint256"
        }
      ],
      "name": "stake",
      "outputs": [],
      "stateMutability": "nonpayable",
      "type": "function"
    },
    {
      "inputs": [
        {
          "internalType": "address",
          "name": "user",
          "type": "address"
        },
        {
          "internalType": "uint256",
          "name": "amount",
          "type": "uint256"
        }
      ],
      "name": "stakeForUser",
      "outputs": [],
      "stateMutability": "nonpayable",
      "type": "function"
    },
    {
      "inputs": [],
      "name": "totalRewards",
      "outputs": [
        {
          "internalType": "uint256",
          "name": "",
          "type": "uint256"
        }
      ],
      "stateMutability": "view",
      "type": "function"
    },
    {
      "inputs": [],
      "name": "totalStaked",
      "outputs": [
        {
          "internalType": "uint256",
          "name": "",
          "type": "uint256"
        }
      ],
      "stateMutability": "view",
      "type": "function"
    },
    {
      "inputs": [],
      "name": "totalUsers",
      "outputs": [
        {
          "internalType": "uint256",
          "name": "",
          "type": "uint256"
        }
      ],
      "stateMutability": "view",
      "type": "function"
    },
    {
      "inputs": [
        {
          "internalType": "address",
          "name": "newOwner",
          "type": "address"
        }
      ],
      "name": "transferOwnership",
      "outputs": [],
      "stateMutability": "nonpayable",
      "type": "function"
    },
    {
      "inputs": [],
      "name": "unpause",
      "outputs": [],
      "stateMutability": "nonpayable",
      "type": "function"
    },
    {
      "inputs": [
        {
          "internalType": "uint256",
          "name": "amount",
          "type": "uint256"
        }
      ],
      "name": "unstake",
      "outputs": [],
      "stateMutability": "nonpayable",
      "type": "function"
    },
    {
      "inputs": [
        {
          "internalType": "address",
          "name": "",
          "type": "address"
        }
      ],
      "name": "userStakingInfo",
      "outputs": [
        {
          "internalType": "uint256",
          "name": "stakedAmount",
          "type": "uint256"
        },
        {
          "internalType": "uint256",
          "name": "rewardPerTokenPaid",
          "type": "uint256"
        },
        {
          "internalType": "uint256",
          "name": "rewards",
          "type": "uint256"
        },
        {
          "internalType": "uint256",
          "name": "lastStakeTime",
          "type": "uint256"
        },
        {
          "internalType": "uint256",
          "name": "lockPeriod",
          "type": "uint256"
        }
      ],
      "stateMutability": "view",
      "type": "function"
    }
  ],
  "bytecode": "0x60c0346101ab5761158190601f38839003908101601f19168201906001600160401b038211838310176101b057808391604095869485528339810103126101ab57610055602061004e836101c6565b92016101c6565b90600160005533156101935760018054336001600160a01b0319821681179092558451936001600160a01b03939092849283167f8be0079c531659141344cd1fd0a4f28419497f9722a3daafe3b4186f6b6457e0600080a31692831561015c5750169081156101185760805260a05242600455516113a690816101db82396080518181816102580152818161067d01528181610daf0152610f49015260a051818181610298015281816104e0015281816106da01528181610c630152610d840152f35b825162461bcd60e51b815260206004820152601460248201527f496e76616c6964207374434f524520746f6b656e0000000000000000000000006044820152606490fd5b62461bcd60e51b815260206004820152601260248201527124b73b30b634b21021a7a922903a37b5b2b760711b6044820152606490fd5b8251631e4fbdf760e01b815260006004820152602490fd5b600080fd5b634e487b7160e01b600052604160045260246000fd5b51906001600160a01b03821682036101ab5756fe6040608081526004908136101561001557600080fd5b6000803560e01c80628cc26214610f785780630c2b72e914610f345780630e15561a14610f155780632c6d060014610e945780632e17de7814610cfb578063372500ab14610bd55780633f4ba83a14610b65578063507e5df314610b495780635997bb3714610b2c5780635c975abb14610b05578063715018a614610aa8578063779972da14610a435780637d9ef0bf146109c35780638093360814610921578063817b1cd2146109025780638456cb59146108a15780638da5cb5b146108785780639e447fc61461081b578063a694fc3a14610623578063bff1f9e114610604578063c1dd6084146105cd578063c8f33c91146105af578063c93c8f3414610571578063cd3daf9d1461054d578063df136d651461052e578063e6a69ab81461050f578063f291ed92146104cb578063f2fde38b14610437578063fd79c6a2146101e25763fe70078b1461016957600080fd5b346101df5760203660031901126101df576101db9082906001600160a01b03610190610f9e565b1681526006602052209182549260018101549460028201549060038301549201549251958695869192608093969594919660a084019784526020840152604083015260608201520152565b0390f35b80fd5b5090346104335780600319360112610433576101fc610f9e565b90602435610208611215565b6102106111f4565b610218611245565b6005554285556001600160a01b03838116938461040c575b61023b831515611019565b835180926370a0823160e01b8252308983015281602460209586937f0000000000000000000000000000000000000000000000000000000000000000165afa9081156104025790849188916103cd575b501061037c57826102bc917f00000000000000000000000000000000000000000000000000000000000000006110f8565b838552600681528285206102d18382546110d5565b815542600382015562093a80420190814211610369578701556102f6826002546110d5565b60025560075460018101809111610356577f1449c6dd7851abc30abf37f57715f492010519147cc2652fbc38202c18a6ee909495965060075584865260088152828620600160ff1982541617905582519182524290820152a26001815580f35b634e487b7160e01b865260118752602486fd5b634e487b7160e01b875260118852602487fd5b835162461bcd60e51b8152808801839052602560248201527f496e73756666696369656e7420434f52452062616c616e636520696e20636f6e6044820152641d1c9858dd60da1b6064820152608490fd5b809250848092503d83116103fb575b6103e681836110b3565b810103126103f7578390513861028b565b8680fd5b503d6103dc565b85513d89823e3d90fd5b610415816112e3565b85875260066020528487209060028201556001600554910155610230565b5080fd5b5091346104c75760203660031901126104c757610452610f9e565b9061045b610fed565b6001600160a01b039182169283156104b1575050600154826bffffffffffffffffffffffff60a01b821617600155167f8be0079c531659141344cd1fd0a4f28419497f9722a3daafe3b4186f6b6457e08380a380f35b51631e4fbdf760e01b8152908101849052602490fd5b8280fd5b509034610433578160031936011261043357517f00000000000000000000000000000000000000000000000000000000000000006001600160a01b03168152602090f35b509034610433578160031936011261043357602090516301e133808152f35b5090346104335781600319360112610433576020906005549051908152f35b50903461043357816003193601126104335760209061056a611245565b9051908152f35b5090346104335760203660031901126104335760209160ff9082906001600160a01b0361059c610f9e565b1681526008855220541690519015158152f35b5091346104c757826003193601126104c75760209250549051908152f35b5090346104335781600319360112610433576080906002549060086003549160075492815194855260208501528301526060820152f35b5090346104335781600319360112610433576020906007549051908152f35b50903461043357602090816003193601126104c757833591610643611215565b61064b6111f4565b610653611245565b600555428555336107f5575b61066a831515611019565b81516370a0823160e01b815233868201527f00000000000000000000000000000000000000000000000000000000000000009082816024816001600160a01b0386165afa9081156107eb5790859187916107b6575b501061077357836106d3913090339061114a565b6106fe83337f00000000000000000000000000000000000000000000000000000000000000006110f8565b338452600681528184206107138482546110d5565b815542600382015562093a8042019081421161035657957f1449c6dd7851abc30abf37f57715f492010519147cc2652fbc38202c18a6ee90949596015561075c846002546110d5565b600255815193845242908401523392a26001815580f35b825162461bcd60e51b8152808701839052601960248201527f496e73756666696369656e7420434f52452062616c616e6365000000000000006044820152606490fd5b809250848092503d83116107e4575b6107cf81836110b3565b810103126107e057849051386106bf565b8580fd5b503d6107c5565b84513d88823e3d90fd5b6107fe336112e3565b33855260068252828520906002820155600160055491015561065f565b509190346104c75760203660031901126104c757610837610fed565b6107d0823511610845578280f35b906020606492519162461bcd60e51b8352820152600d60248201526c0a4c2e8ca40e8dede40d0d2ced609b1b6044820152fd5b50903461043357816003193601126104335760015490516001600160a01b039091168152602090f35b50903461043357816003193601126104335760207f62e78cea01bee320cd4e420270b5ea74000d11b0c9f74754ebdbfc544b05a258916108df610fed565b6108e76111f4565b6001805460ff60a01b1916600160a01b17905551338152a180f35b5090346104335781600319360112610433576020906002549051908152f35b509034610433576020366003190112610433578060806101db92610943610f9e565b6001600160a01b0381168652600660205294208251946109999061096687611065565b825496878152600184015460208201526002840154988987830152600385015494856060840152015494859101526112e3565b9251958695869192608093969594919660a084019784526020840152604083015260608201520152565b50903461043357602036600319011261043357906101db610a28926109e6610f9e565b508051926109f384611097565b808452610a368251610a0481611097565b828152835192610a1384611097565b83528351968796606088526060880190610fb9565b908682036020880152610fb9565b9184830390850152610fb9565b509190346104c75760203660031901126104c757610a5f610fed565b62278d00823511610a6e578280f35b906020606492519162461bcd60e51b835282015260146024820152734c6f636b20706572696f6420746f6f206c6f6e6760601b6044820152fd5b50346101df57806003193601126101df57610ac1610fed565b600180546001600160a01b0319811690915581906001600160a01b03167f8be0079c531659141344cd1fd0a4f28419497f9722a3daafe3b4186f6b6457e08280a380f35b50903461043357816003193601126104335760209060ff60015460a01c1690519015158152f35b509034610433578160031936011261043357602090516103528152f35b5090346104335781600319360112610433576020905160088152f35b5091346104c757826003193601126104c757610b7f610fed565b6001549060ff8260a01c1615610bc7575060ff60a01b1916600155513381527f5db9ee0a495bf2e6ff9c91a7834c1ba4fdd244a5e8aa4e537bd38aeae4b073aa90602090a180f35b8251638dfc202b60e01b8152fd5b509190346104c757826003193601126104c757610bf0611215565b610bf8611245565b60055542825533610cd4575b338352600660205260028184200154918215610c9c57507fdacbdde355ba930696a362ea6738feb9f8bd52dfb3d81947558fd3217e23e3259033845260066020528360028282200155610c59836003546110d5565b600355610c8783337f00000000000000000000000000000000000000000000000000000000000000006110f8565b80519283524260208401523392a26001815580f35b6020606492519162461bcd60e51b835282015260136024820152724e6f207265776172647320746f20636c61696d60681b6044820152fd5b610cdd336112e3565b33845260066020528184209060028201556001600554910155610c04565b509190346104c757602080600319360112610e9057823592610d1b611215565b610d23611245565b60055542815533610e6a575b610d3a841515611019565b338552600682528285209084825410610e2757808201544210610dec5750907f7fc4727e062e336010f2c282598ef5f14facb3de68cf8195c2f23e1454b2b74e9291610da88530337f000000000000000000000000000000000000000000000000000000000000000061114a565b610dd385337f00000000000000000000000000000000000000000000000000000000000000006110f8565b610dde858254611238565b905561075c84600254611238565b835162461bcd60e51b81529081018390526015602482015274131bd8dac81c195c9a5bd9081b9bdd08195b991959605a1b6044820152606490fd5b835162461bcd60e51b8152908101839052601a60248201527f496e73756666696369656e74207374616b656420616d6f756e740000000000006044820152606490fd5b610e73336112e3565b338652600683528386209060028201556001600554910155610d2f565b8380fd5b509034610433578160031936011261043357908151610eb281611097565b818152825190610ec182611097565b828252835192848401948452815180955260608401946020809301915b818110610ef8578587038487015285806101db8988610fb9565b82516001600160a01b031687529583019591830191600101610ede565b5090346104335781600319360112610433576020906003549051908152f35b509034610433578160031936011261043357517f00000000000000000000000000000000000000000000000000000000000000006001600160a01b03168152602090f35b5090346104335760203660031901126104335760209061056a610f99610f9e565b6112e3565b600435906001600160a01b0382168203610fb457565b600080fd5b90815180825260208080930193019160005b828110610fd9575050505090565b835185529381019392810192600101610fcb565b6001546001600160a01b0316330361100157565b60405163118cdaa760e01b8152336004820152602490fd5b1561102057565b60405162461bcd60e51b815260206004820152601d60248201527f416d6f756e74206d7573742062652067726561746572207468616e20300000006044820152606490fd5b60a0810190811067ffffffffffffffff82111761108157604052565b634e487b7160e01b600052604160045260246000fd5b6020810190811067ffffffffffffffff82111761108157604052565b90601f8019910116810190811067ffffffffffffffff82111761108157604052565b919082018092116110e257565b634e487b7160e01b600052601160045260246000fd5b60405163a9059cbb60e01b60208201526001600160a01b039092166024830152604480830193909352918152608081019167ffffffffffffffff831182841017611081576111489260405261118c565b565b6040516323b872dd60e01b60208201526001600160a01b0392831660248201529290911660448301526064808301939093529181526111489161118c82611065565b906000602091828151910182855af1156111e8576000513d6111df57506001600160a01b0381163b155b6111bd5750565b604051635274afe760e01b81526001600160a01b039091166004820152602490fd5b600114156111b6565b6040513d6000823e3d90fd5b60ff60015460a01c1661120357565b60405163d93c066560e01b8152600490fd5b600260005414611226576002600055565b604051633ee5aeb560e01b8152600490fd5b919082039182116110e257565b60025480156112dc57670de0b6b3a764000080910480156112d45761126c60045442611238565b610352908181029181830414811517156110e257682e141ea081ca080000029281840414901517156110e2576301e13380808202918204036110e25780156112be576112bb91046005546110d5565b90565b634e487b7160e01b600052601260045260246000fd5b505060055490565b5060055490565b60018060a01b03166000526006602052604060002060405161130481611065565b61134a825491828152600184015490602081019182526080600460028701549660408401978852600381015460608501520154910152611342611245565b905190611238565b908181029181830414901517156110e257670de0b6b3a76400006112bb925191046110d556fea2646970667358221220052b638f6dbfc55f1e7a8fbbbb5329331108757e9b20c2743ef0a0f5429341b464736f6c63430008140033",
  "linkReferences": {},
  "deployedLinkReferences": {}
}