{
  "_format": "hh-sol-artifact-1",
  "contractName": "CoreYieldFactory",
  "sourceName": "contracts/core/CoreYieldFactory.sol",
  "abi": [
    {
      "inputs": [
        {
          "internalType": "address",
          "name": "_feeRecipient",
          "type": "address"
        }
      ],
      "stateMutability": "nonpayable",
      "type": "constructor"
    },
    {
      "inputs": [
        {
          "internalType": "address",
          "name": "owner",
          "type": "address"
        }
      ],
      "name": "OwnableInvalidOwner",
      "type": "error"
    },
    {
      "inputs": [
        {
          "internalType": "address",
          "name": "account",
          "type": "address"
        }
      ],
      "name": "OwnableUnauthorizedAccount",
      "type": "error"
    },
    {
      "inputs": [],
      "name": "ReentrancyGuardReentrantCall",
      "type": "error"
    },
    {
      "anonymous": false,
      "inputs": [
        {
          "indexed": true,
          "internalType": "bytes32",
          "name": "marketId",
          "type": "bytes32"
        },
        {
          "indexed": true,
          "internalType": "address",
          "name": "syToken",
          "type": "address"
        },
        {
          "indexed": true,
          "internalType": "address",
          "name": "creator",
          "type": "address"
        },
        {
          "indexed": false,
          "internalType": "address",
          "name": "ptToken",
          "type": "address"
        },
        {
          "indexed": false,
          "internalType": "address",
          "name": "ytToken",
          "type": "address"
        },
        {
          "indexed": false,
          "internalType": "uint256",
          "name": "maturity",
          "type": "uint256"
        }
      ],
      "name": "MarketCreated",
      "type": "event"
    },
    {
      "anonymous": false,
      "inputs": [
        {
          "indexed": true,
          "internalType": "address",
          "name": "previousOwner",
          "type": "address"
        },
        {
          "indexed": true,
          "internalType": "address",
          "name": "newOwner",
          "type": "address"
        }
      ],
      "name": "OwnershipTransferred",
      "type": "event"
    },
    {
      "anonymous": false,
      "inputs": [
        {
          "indexed": true,
          "internalType": "bytes32",
          "name": "marketId",
          "type": "bytes32"
        },
        {
          "indexed": true,
          "internalType": "address",
          "name": "user",
          "type": "address"
        },
        {
          "indexed": false,
          "internalType": "uint256",
          "name": "amount",
          "type": "uint256"
        },
        {
          "indexed": false,
          "internalType": "bool",
          "name": "isMatured",
          "type": "bool"
        }
      ],
      "name": "TokensRedeemed",
      "type": "event"
    },
    {
      "anonymous": false,
      "inputs": [
        {
          "indexed": true,
          "internalType": "bytes32",
          "name": "marketId",
          "type": "bytes32"
        },
        {
          "indexed": true,
          "internalType": "address",
          "name": "user",
          "type": "address"
        },
        {
          "indexed": false,
          "internalType": "uint256",
          "name": "syAmount",
          "type": "uint256"
        },
        {
          "indexed": false,
          "internalType": "uint256",
          "name": "ptAmount",
          "type": "uint256"
        },
        {
          "indexed": false,
          "internalType": "uint256",
          "name": "ytAmount",
          "type": "uint256"
        }
      ],
      "name": "TokensSplit",
      "type": "event"
    },
    {
      "anonymous": false,
      "inputs": [
        {
          "indexed": true,
          "internalType": "bytes32",
          "name": "marketId",
          "type": "bytes32"
        },
        {
          "indexed": true,
          "internalType": "address",
          "name": "user",
          "type": "address"
        },
        {
          "indexed": false,
          "internalType": "uint256",
          "name": "yieldAmount",
          "type": "uint256"
        }
      ],
      "name": "YieldClaimed",
      "type": "event"
    },
    {
      "inputs": [],
      "name": "MAX_MATURITY",
      "outputs": [
        {
          "internalType": "uint256",
          "name": "",
          "type": "uint256"
        }
      ],
      "stateMutability": "view",
      "type": "function"
    },
    {
      "inputs": [],
      "name": "MIN_MATURITY",
      "outputs": [
        {
          "internalType": "uint256",
          "name": "",
          "type": "uint256"
        }
      ],
      "stateMutability": "view",
      "type": "function"
    },
    {
      "inputs": [
        {
          "internalType": "uint256",
          "name": "",
          "type": "uint256"
        }
      ],
      "name": "allMarkets",
      "outputs": [
        {
          "internalType": "bytes32",
          "name": "",
          "type": "bytes32"
        }
      ],
      "stateMutability": "view",
      "type": "function"
    },
    {
      "inputs": [
        {
          "internalType": "bytes32",
          "name": "marketId",
          "type": "bytes32"
        }
      ],
      "name": "claimYield",
      "outputs": [],
      "stateMutability": "nonpayable",
      "type": "function"
    },
    {
      "inputs": [
        {
          "internalType": "address",
          "name": "syToken",
          "type": "address"
        },
        {
          "internalType": "uint256",
          "name": "maturityDuration",
          "type": "uint256"
        },
        {
          "internalType": "string",
          "name": "ptName",
          "type": "string"
        },
        {
          "internalType": "string",
          "name": "ptSymbol",
          "type": "string"
        },
        {
          "internalType": "string",
          "name": "ytName",
          "type": "string"
        },
        {
          "internalType": "string",
          "name": "ytSymbol",
          "type": "string"
        }
      ],
      "name": "createMarket",
      "outputs": [
        {
          "internalType": "bytes32",
          "name": "marketId",
          "type": "bytes32"
        }
      ],
      "stateMutability": "nonpayable",
      "type": "function"
    },
    {
      "inputs": [
        {
          "internalType": "address",
          "name": "syToken",
          "type": "address"
        },
        {
          "internalType": "uint256",
          "name": "durationInDays",
          "type": "uint256"
        }
      ],
      "name": "createTestMarket",
      "outputs": [
        {
          "internalType": "bytes32",
          "name": "",
          "type": "bytes32"
        }
      ],
      "stateMutability": "nonpayable",
      "type": "function"
    },
    {
      "inputs": [
        {
          "internalType": "bytes32",
          "name": "marketId",
          "type": "bytes32"
        }
      ],
      "name": "emergencyPause",
      "outputs": [],
      "stateMutability": "nonpayable",
      "type": "function"
    },
    {
      "inputs": [],
      "name": "feeRecipient",
      "outputs": [
        {
          "internalType": "address",
          "name": "",
          "type": "address"
        }
      ],
      "stateMutability": "view",
      "type": "function"
    },
    {
      "inputs": [],
      "name": "getAllMarkets",
      "outputs": [
        {
          "internalType": "bytes32[]",
          "name": "",
          "type": "bytes32[]"
        }
      ],
      "stateMutability": "view",
      "type": "function"
    },
    {
      "inputs": [
        {
          "internalType": "bytes32",
          "name": "marketId",
          "type": "bytes32"
        },
        {
          "internalType": "address",
          "name": "user",
          "type": "address"
        }
      ],
      "name": "getClaimableYield",
      "outputs": [
        {
          "internalType": "uint256",
          "name": "",
          "type": "uint256"
        }
      ],
      "stateMutability": "view",
      "type": "function"
    },
    {
      "inputs": [
        {
          "internalType": "bytes32",
          "name": "marketId",
          "type": "bytes32"
        }
      ],
      "name": "getMarket",
      "outputs": [
        {
          "components": [
            {
              "internalType": "address",
              "name": "syToken",
              "type": "address"
            },
            {
              "internalType": "address",
              "name": "ptToken",
              "type": "address"
            },
            {
              "internalType": "address",
              "name": "ytToken",
              "type": "address"
            },
            {
              "internalType": "uint256",
              "name": "maturity",
              "type": "uint256"
            },
            {
              "internalType": "uint256",
              "name": "totalSYDeposited",
              "type": "uint256"
            },
            {
              "internalType": "bool",
              "name": "active",
              "type": "bool"
            },
            {
              "internalType": "uint256",
              "name": "createdAt",
              "type": "uint256"
            }
          ],
          "internalType": "struct ICoreYieldFactory.Market",
          "name": "",
          "type": "tuple"
        }
      ],
      "stateMutability": "view",
      "type": "function"
    },
    {
      "inputs": [
        {
          "internalType": "bytes32",
          "name": "marketId",
          "type": "bytes32"
        }
      ],
      "name": "getMarketAnalytics",
      "outputs": [
        {
          "internalType": "uint256",
          "name": "totalDeposited",
          "type": "uint256"
        },
        {
          "internalType": "uint256",
          "name": "daysToMaturity",
          "type": "uint256"
        },
        {
          "internalType": "bool",
          "name": "isActive",
          "type": "bool"
        },
        {
          "internalType": "bool",
          "name": "isExpired",
          "type": "bool"
        }
      ],
      "stateMutability": "view",
      "type": "function"
    },
    {
      "inputs": [],
      "name": "getMarketCount",
      "outputs": [
        {
          "internalType": "uint256",
          "name": "",
          "type": "uint256"
        }
      ],
      "stateMutability": "view",
      "type": "function"
    },
    {
      "inputs": [],
      "name": "getProtocolStats",
      "outputs": [
        {
          "internalType": "uint256",
          "name": "totalMarkets",
          "type": "uint256"
        },
        {
          "internalType": "uint256",
          "name": "activeMarkets",
          "type": "uint256"
        },
        {
          "internalType": "uint256",
          "name": "totalValueLocked",
          "type": "uint256"
        }
      ],
      "stateMutability": "view",
      "type": "function"
    },
    {
      "inputs": [
        {
          "internalType": "address",
          "name": "user",
          "type": "address"
        }
      ],
      "name": "getUserAnalytics",
      "outputs": [
        {
          "internalType": "uint256",
          "name": "totalMarkets",
          "type": "uint256"
        },
        {
          "internalType": "uint256",
          "name": "activePTBalance",
          "type": "uint256"
        },
        {
          "internalType": "uint256",
          "name": "activeYTBalance",
          "type": "uint256"
        },
        {
          "internalType": "uint256",
          "name": "totalSYInvested",
          "type": "uint256"
        },
        {
          "internalType": "uint256",
          "name": "lastActivityTime",
          "type": "uint256"
        }
      ],
      "stateMutability": "view",
      "type": "function"
    },
    {
      "inputs": [
        {
          "internalType": "address",
          "name": "user",
          "type": "address"
        }
      ],
      "name": "getUserMarkets",
      "outputs": [
        {
          "internalType": "bytes32[]",
          "name": "",
          "type": "bytes32[]"
        }
      ],
      "stateMutability": "view",
      "type": "function"
    },
    {
      "inputs": [
        {
          "internalType": "bytes32",
          "name": "marketId",
          "type": "bytes32"
        },
        {
          "internalType": "address",
          "name": "user",
          "type": "address"
        }
      ],
      "name": "getUserPosition",
      "outputs": [
        {
          "components": [
            {
              "internalType": "uint256",
              "name": "syAmount",
              "type": "uint256"
            },
            {
              "internalType": "uint256",
              "name": "ptAmount",
              "type": "uint256"
            },
            {
              "internalType": "uint256",
              "name": "ytAmount",
              "type": "uint256"
            },
            {
              "internalType": "uint256",
              "name": "lastInteraction",
              "type": "uint256"
            }
          ],
          "internalType": "struct CoreYieldFactory.UserPosition",
          "name": "",
          "type": "tuple"
        }
      ],
      "stateMutability": "view",
      "type": "function"
    },
    {
      "inputs": [
        {
          "internalType": "bytes32",
          "name": "marketId",
          "type": "bytes32"
        }
      ],
      "name": "isMarketActive",
      "outputs": [
        {
          "internalType": "bool",
          "name": "",
          "type": "bool"
        }
      ],
      "stateMutability": "view",
      "type": "function"
    },
    {
      "inputs": [
        {
          "internalType": "bytes32",
          "name": "",
          "type": "bytes32"
        }
      ],
      "name": "markets",
      "outputs": [
        {
          "internalType": "address",
          "name": "syToken",
          "type": "address"
        },
        {
          "internalType": "address",
          "name": "ptToken",
          "type": "address"
        },
        {
          "internalType": "address",
          "name": "ytToken",
          "type": "address"
        },
        {
          "internalType": "uint256",
          "name": "maturity",
          "type": "uint256"
        },
        {
          "internalType": "uint256",
          "name": "totalSYDeposited",
          "type": "uint256"
        },
        {
          "internalType": "bool",
          "name": "active",
          "type": "bool"
        },
        {
          "internalType": "uint256",
          "name": "createdAt",
          "type": "uint256"
        }
      ],
      "stateMutability": "view",
      "type": "function"
    },
    {
      "inputs": [],
      "name": "owner",
      "outputs": [
        {
          "internalType": "address",
          "name": "",
          "type": "address"
        }
      ],
      "stateMutability": "view",
      "type": "function"
    },
    {
      "inputs": [],
      "name": "protocolFeeRate",
      "outputs": [
        {
          "internalType": "uint256",
          "name": "",
          "type": "uint256"
        }
      ],
      "stateMutability": "view",
      "type": "function"
    },
    {
      "inputs": [
        {
          "internalType": "bytes32",
          "name": "marketId",
          "type": "bytes32"
        }
      ],
      "name": "reactivateMarket",
      "outputs": [],
      "stateMutability": "nonpayable",
      "type": "function"
    },
    {
      "inputs": [
        {
          "internalType": "bytes32",
          "name": "marketId",
          "type": "bytes32"
        },
        {
          "internalType": "uint256",
          "name": "amount",
          "type": "uint256"
        }
      ],
      "name": "redeemTokens",
      "outputs": [],
      "stateMutability": "nonpayable",
      "type": "function"
    },
    {
      "inputs": [],
      "name": "renounceOwnership",
      "outputs": [],
      "stateMutability": "nonpayable",
      "type": "function"
    },
    {
      "inputs": [
        {
          "internalType": "address",
          "name": "newFeeRecipient",
          "type": "address"
        }
      ],
      "name": "setFeeRecipient",
      "outputs": [],
      "stateMutability": "nonpayable",
      "type": "function"
    },
    {
      "inputs": [
        {
          "internalType": "uint256",
          "name": "newFeeRate",
          "type": "uint256"
        }
      ],
      "name": "setProtocolFeeRate",
      "outputs": [],
      "stateMutability": "nonpayable",
      "type": "function"
    },
    {
      "inputs": [
        {
          "internalType": "bytes32",
          "name": "marketId",
          "type": "bytes32"
        },
        {
          "internalType": "uint256",
          "name": "syAmount",
          "type": "uint256"
        }
      ],
      "name": "splitTokens",
      "outputs": [],
      "stateMutability": "nonpayable",
      "type": "function"
    },
    {
      "inputs": [
        {
          "internalType": "address",
          "name": "newOwner",
          "type": "address"
        }
      ],
      "name": "transferOwnership",
      "outputs": [],
      "stateMutability": "nonpayable",
      "type": "function"
    },
    {
      "inputs": [
        {
          "internalType": "address",
          "name": "",
          "type": "address"
        },
        {
          "internalType": "uint256",
          "name": "",
          "type": "uint256"
        }
      ],
      "name": "userMarkets",
      "outputs": [
        {
          "internalType": "bytes32",
          "name": "",
          "type": "bytes32"
        }
      ],
      "stateMutability": "view",
      "type": "function"
    },
    {
      "inputs": [
        {
          "internalType": "bytes32",
          "name": "",
          "type": "bytes32"
        },
        {
          "internalType": "address",
          "name": "",
          "type": "address"
        }
      ],
      "name": "userPositions",
      "outputs": [
        {
          "internalType": "uint256",
          "name": "syAmount",
          "type": "uint256"
        },
        {
          "internalType": "uint256",
          "name": "ptAmount",
          "type": "uint256"
        },
        {
          "internalType": "uint256",
          "name": "ytAmount",
          "type": "uint256"
        },
        {
          "internalType": "uint256",
          "name": "lastInteraction",
          "type": "uint256"
        }
      ],
      "stateMutability": "view",
      "type": "function"
    }
  ],
  "bytecode": "0x608060405260326006553480156200001657600080fd5b50604051620042133803806200421383398101604081905262000039916200013f565b33806200006157604051631e4fbdf760e01b8152600060048201526024015b60405180910390fd5b6200006c81620000ef565b50600180556001600160a01b038116620000c95760405162461bcd60e51b815260206004820152601560248201527f496e76616c69642066656520726563697069656e740000000000000000000000604482015260640162000058565b600780546001600160a01b0319166001600160a01b039290921691909117905562000171565b600080546001600160a01b038381166001600160a01b0319831681178455604051919092169283917f8be0079c531659141344cd1fd0a4f28419497f9722a3daafe3b4186f6b6457e09190a35050565b6000602082840312156200015257600080fd5b81516001600160a01b03811681146200016a57600080fd5b9392505050565b61409280620001816000396000f3fe60806040523480156200001157600080fd5b5060043610620002015760003560e01c8063b0772d0b1162000119578063dc227a3a11620000af578063f2fde38b116200007a578063f2fde38b14620006d2578063f4463db514620006e9578063f8e9348f1462000711578063fd69f3c2146200072857600080fd5b8063dc227a3a1462000601578063df76b8f91462000618578063e5b415a31462000658578063e74b981b14620006bb57600080fd5b8063c3acbf0b11620000f0578063c3acbf0b146200049a578063c3c95c7b14620004b1578063da4473d814620005d3578063db0f871d14620005ea57600080fd5b8063b0772d0b146200041f578063b13aa2d61462000438578063b1e6bb49146200044f57600080fd5b806368fd6a9c116200019b578063775189b81162000166578063775189b8146200039f5780638598bcc414620003b65780638da5cb5b14620003f65780639eb43512146200040857600080fd5b806368fd6a9c14620002ae578063715018a614620002c55780637564912b14620002cf578063771aceef146200037957600080fd5b80634690484011620001dc57806346904840146200025457806352d84d1e1462000281578063553123ab146200029857806358f8588014620002a457600080fd5b80631fee090a14620002065780632ca6a1b81462000230578063300b4c81146200023b575b600080fd5b6200021d62000217366004620023fe565b62000731565b6040519081526020015b60405180910390f35b6200021d6201518081565b620002526200024c3660046200242b565b620008ac565b005b60075462000268906001600160a01b031681565b6040516001600160a01b03909116815260200162000227565b6200021d620002923660046200244e565b62000e9a565b6200021d6301e1338081565b6200021d60065481565b62000252620002bf3660046200244e565b62000ebc565b6200025262000f18565b62000330620002e03660046200244e565b600260208190526000918252604090912080546001820154928201546003830154600484015460058501546006909501546001600160a01b039485169685169594909316939192909160ff169087565b604080516001600160a01b0398891681529688166020880152949096169385019390935260608401919091526080830152151560a082015260c081019190915260e00162000227565b6200038362000f30565b6040805193845260208401929092529082015260600162000227565b6200021d620003b036600462002468565b62000fdb565b620003cd620003c736600462002497565b62001086565b604080519586526020860194909452928401919091526060830152608082015260a00162000227565b6000546001600160a01b031662000268565b6200021d6200041936600462002560565b62001259565b6200042962001718565b60405162000227919062002635565b62000252620004493660046200244e565b62001772565b620004666200046036600462002468565b620017c4565b6040516200022791908151815260208083015190820152604080830151908201526060918201519181019190915260800190565b62000252620004ab3660046200244e565b62001845565b62000572620004c23660046200244e565b6040805160e081018252600080825260208201819052918101829052606081018290526080810182905260a0810182905260c081019190915250600090815260026020818152604092839020835160e08101855281546001600160a01b039081168252600183015481169382019390935292810154909116928201929092526003820154606082015260048201546080820152600582015460ff16151560a082015260069091015460c082015290565b6040805182516001600160a01b039081168252602080850151821690830152838301511691810191909152606080830151908201526080808301519082015260a08083015115159082015260c0918201519181019190915260e00162000227565b62000429620005e436600462002497565b620018f7565b6200021d620005fb366004620023fe565b62001965565b62000252620006123660046200244e565b62001997565b6200062f620006293660046200244e565b62001b62565b604080519485526020850193909352901515918301919091521515606082015260800162000227565b6200069a6200066936600462002468565b6003602081815260009384526040808520909152918352912080546001820154600283015492909301549092919084565b60408051948552602085019390935291830152606082015260800162000227565b62000252620006cc36600462002497565b62001c03565b62000252620006e336600462002497565b62001c79565b62000700620006fa3660046200244e565b62001cba565b604051901515815260200162000227565b62000252620007223660046200242b565b62001ce7565b6005546200021d565b60006001821015801562000747575061016d8211155b6200078c5760405162461bcd60e51b815260206004820152601060248201526f24b73b30b634b210323ab930ba34b7b760811b60448201526064015b60405180910390fd5b600062000799836200215c565b905030639eb4351285620007b1866201518062002691565b84604051602001620007c49190620026d1565b60405160208183030381529060405285604051602001620007e6919062002709565b6040516020818303038152906040528660405160200162000808919062002735565b604051602081830303815290604052876040516020016200082a919062002755565b6040516020818303038152906040526040518763ffffffff1660e01b81526004016200085c96959493929190620027a2565b6020604051808303816000875af11580156200087c573d6000803e3d6000fd5b505050506040513d601f19601f82011682018060405250810190620008a2919062002818565b9150505b92915050565b620008b66200227d565b6000828152600260205260409020600581015460ff16620008eb5760405162461bcd60e51b8152600401620007839062002832565b600082116200092e5760405162461bcd60e51b815260206004820152600e60248201526d125b9d985b1a5908185b5bdd5b9d60921b604482015260640162000783565b80546001820154600283015460038401546001600160a01b03938416939283169290911690421080159062000a74576040516370a0823160e01b815233600482015286906001600160a01b038516906370a0823190602401602060405180830381865afa158015620009a4573d6000803e3d6000fd5b505050506040513d601f19601f82011682018060405250810190620009ca919062002818565b101562000a0c5760405162461bcd60e51b815260206004820152600f60248201526e125b9cdd59999a58da595b9d081415608a1b604482015260640162000783565b604051632770a7eb60e21b8152336004820152602481018790526001600160a01b03841690639dc29fac90604401600060405180830381600087803b15801562000a5557600080fd5b505af115801562000a6a573d6000803e3d6000fd5b5050505062000c97565b6040516370a0823160e01b815233600482015286906001600160a01b038516906370a0823190602401602060405180830381865afa15801562000abb573d6000803e3d6000fd5b505050506040513d601f19601f8201168201806040525081019062000ae1919062002818565b101562000b235760405162461bcd60e51b815260206004820152600f60248201526e125b9cdd59999a58da595b9d081415608a1b604482015260640162000783565b6040516370a0823160e01b815233600482015286906001600160a01b038416906370a0823190602401602060405180830381865afa15801562000b6a573d6000803e3d6000fd5b505050506040513d601f19601f8201168201806040525081019062000b90919062002818565b101562000bd25760405162461bcd60e51b815260206004820152600f60248201526e125b9cdd59999a58da595b9d081655608a1b604482015260640162000783565b604051632770a7eb60e21b8152336004820152602481018790526001600160a01b03841690639dc29fac90604401600060405180830381600087803b15801562000c1b57600080fd5b505af115801562000c30573d6000803e3d6000fd5b5050604051632770a7eb60e21b8152336004820152602481018990526001600160a01b0385169250639dc29fac9150604401600060405180830381600087803b15801562000c7d57600080fd5b505af115801562000c92573d6000803e3d6000fd5b505050505b60405163a9059cbb60e01b8152336004820152602481018790526001600160a01b0385169063a9059cbb906044016020604051808303816000875af115801562000ce5573d6000803e3d6000fd5b505050506040513d601f19601f8201168201806040525081019062000d0b91906200285d565b62000d4e5760405162461bcd60e51b815260206004820152601260248201527114d6481d1c985b9cd9995c8819985a5b195960721b604482015260640162000783565b8585600401541162000d6257600062000d74565b85856004015462000d74919062002881565b6004860155600087815260036020908152604080832033845290915290208054871062000da357600062000db2565b805462000db290889062002881565b81558162000e16578681600101541162000dce57600062000de0565b86816001015462000de0919062002881565b60018201556002810154871062000df957600062000e0b565b86816002015462000e0b919062002881565b600282015562000e42565b8681600101541162000e2a57600062000e3c565b86816001015462000e3c919062002881565b60018201555b42600382015560408051888152831515602082015233918a917f4b8158004137d43860d351291deabf84c838225bf6fd745b63a99e434c4bfbe7910160405180910390a350505050505062000e9660018055565b5050565b6005818154811062000eab57600080fd5b600091825260209091200154905081565b62000ec6620022a8565b6000818152600260205260409020546001600160a01b031662000efd5760405162461bcd60e51b8152600401620007839062002897565b6000908152600260205260409020600501805460ff19169055565b62000f22620022a8565b62000f2e6000620022d7565b565b600554600080805b60055481101562000fd5576000600260006005848154811062000f5f5762000f5f620028c6565b600091825260208083209091015483528201929092526040019020600581015490915060ff16801562000f955750806003015442105b1562000fab578362000fa781620028dc565b9450505b600481015462000fbc9084620028f8565b925050808062000fcc90620028dc565b91505062000f38565b50909192565b6000828152600260205260408120600581015460ff1662001001576000915050620008a6565b6002810154604051630c602bfb60e21b81526001600160a01b03858116600483015290911690633180afec90602401602060405180830381865afa9250505080156200106c575060408051601f3d908101601f19168201909252620010699181019062002818565b60015b6200107c576000915050620008a6565b9150620008a69050565b6001600160a01b0381166000908152600460209081526040808320805482518185028101850190935280835284938493849384938493830182828015620010ed57602002820191906000526020600020905b815481526020019060010190808311620010d8575b505050505090508051955060005b81518110156200124e57600060036000848481518110620011205762001120620028c6565b6020026020010151815260200190815260200160002060008a6001600160a01b03166001600160a01b031681526020019081526020016000206040518060800160405290816000820154815260200160018201548152602001600282015481526020016003820154815250509050600060026000858581518110620011a957620011a9620028c6565b6020026020010151815260200190815260200160002090508060050160009054906101000a900460ff168015620011e35750806003015442105b1562001211576020820151620011fa9089620028f8565b97508160400151876200120e9190620028f8565b96505b81516200121f9087620028f8565b955084826060015111156200123657816060015194505b505080806200124590620028dc565b915050620010fb565b505091939590929450565b60006001600160a01b038716620012a65760405162461bcd60e51b815260206004820152601060248201526f24b73b30b634b21029ac903a37b5b2b760811b604482015260640162000783565b620151808610158015620012be57506301e133808611155b620012ff5760405162461bcd60e51b815260206004820152601060248201526f496e76616c6964206d6174757269747960801b604482015260640162000783565b6000855111801562001312575060008351115b620013565760405162461bcd60e51b8152602060048201526013602482015272496e76616c696420746f6b656e206e616d657360681b604482015260640162000783565b6000620013648742620028f8565b6040516bffffffffffffffffffffffff1960608b811b821660208401526034830184905242605484015233901b16607482015290915060880160408051601f198184030181529181528151602092830120600081815260029093529120549092506001600160a01b0316156200140d5760405162461bcd60e51b815260206004820152600d60248201526c4d61726b65742065786973747360981b604482015260640162000783565b6000826040516020016200142e91815261141560f21b602082015260220190565b60405160208183030381529060405280519060200120905060006200145788888c868662002327565b90506000846040516020016200147a91815261165560f21b602082015260220190565b6040516020818303038152906040528051906020012090506000620014a388888e8886620023b0565b90506001600160a01b038316620014f45760405162461bcd60e51b815260206004820152601460248201527314150819195c1b1bde5b595b9d0819985a5b195960621b604482015260640162000783565b6001600160a01b038116620015435760405162461bcd60e51b815260206004820152601460248201527316550819195c1b1bde5b595b9d0819985a5b195960621b604482015260640162000783565b6040518060e001604052808d6001600160a01b03168152602001846001600160a01b03168152602001826001600160a01b0316815260200186815260200160008152602001600115158152602001428152506002600088815260200190815260200160002060008201518160000160006101000a8154816001600160a01b0302191690836001600160a01b0316021790555060208201518160010160006101000a8154816001600160a01b0302191690836001600160a01b0316021790555060408201518160020160006101000a8154816001600160a01b0302191690836001600160a01b03160217905550606082015181600301556080820151816004015560a08201518160050160006101000a81548160ff02191690831515021790555060c082015181600601559050506005869080600181540180825580915050600190039060005260206000200160009091909190915055336001600160a01b03168c6001600160a01b0316877ff0bebdf868f103b3e8f3e407f036ce5efac32c9018fd050677b029f3702b111786858a60405162001701939291906001600160a01b039384168152919092166020820152604081019190915260600190565b60405180910390a450505050509695505050505050565b606060058054806020026020016040519081016040528092919081815260200182805480156200176857602002820191906000526020600020905b81548152602001906001019080831162001753575b5050505050905090565b6200177c620022a8565b6103e8811115620017bf5760405162461bcd60e51b815260206004820152600c60248201526b08ccaca40e8dede40d0d2ced60a31b604482015260640162000783565b600655565b620017f06040518060800160405280600081526020016000815260200160008152602001600081525090565b5060009182526003602081815260408085206001600160a01b03949094168552928152928290208251608081018452815481526001820154948101949094526002810154928401929092520154606082015290565b6200184f620022a8565b6000818152600260205260409020546001600160a01b0316620018865760405162461bcd60e51b8152600401620007839062002897565b6000818152600260205260409020600301544210620018d95760405162461bcd60e51b815260206004820152600e60248201526d13585c9ad95d08195e1c1a5c995960921b604482015260640162000783565b6000908152600260205260409020600501805460ff19166001179055565b6001600160a01b0381166000908152600460209081526040918290208054835181840281018401909452808452606093928301828280156200195957602002820191906000526020600020905b81548152602001906001019080831162001944575b50505050509050919050565b600460205281600052604060002081815481106200198257600080fd5b90600052602060002001600091509150505481565b620019a16200227d565b6000818152600260205260409020600581015460ff16620019d65760405162461bcd60e51b8152600401620007839062002832565b60028101546040516370a0823160e01b81523360048201526001600160a01b039091169060009082906370a0823190602401602060405180830381865afa15801562001a26573d6000803e3d6000fd5b505050506040513d601f19601f8201168201806040525081019062001a4c919062002818565b1162001a8a5760405162461bcd60e51b815260206004820152600c60248201526b4e6f20595420746f6b656e7360a01b604482015260640162000783565b6000816001600160a01b031663406cf2296040518163ffffffff1660e01b81526004016020604051808303816000875af115801562001acd573d6000803e3d6000fd5b505050506040513d601f19601f8201168201806040525081019062001af3919062002818565b9050801562001b52576000848152600360208181526040808420338086529083529381902042930192909255905183815286917fba55efb6d89ce0a33a48243cd390e5ad582d35f92ed2240752047471ef739fd4910160405180910390a35b50505062001b5f60018055565b50565b60008181526002602052604081208054829182918291906001600160a01b031662001ba15760405162461bcd60e51b8152600401620007839062002897565b80600401549450806003015442101591508162001be0576201518042826003015462001bce919062002881565b62001bda919062002924565b62001be3565b60005b600582015490945060ff16801562001bf9575081155b9250509193509193565b62001c0d620022a8565b6001600160a01b03811662001c575760405162461bcd60e51b815260206004820152600f60248201526e496e76616c6964206164647265737360881b604482015260640162000783565b600780546001600160a01b0319166001600160a01b0392909216919091179055565b62001c83620022a8565b6001600160a01b03811662001caf57604051631e4fbdf760e01b81526000600482015260240162000783565b62001b5f81620022d7565b6000818152600260205260408120600581015460ff16801562001ce05750806003015442105b9392505050565b62001cf16200227d565b6000828152600260205260409020600581015460ff1662001d265760405162461bcd60e51b8152600401620007839062002832565b8060030154421062001d6c5760405162461bcd60e51b815260206004820152600e60248201526d13585c9ad95d08195e1c1a5c995960921b604482015260640162000783565b6000821162001daf5760405162461bcd60e51b815260206004820152600e60248201526d125b9d985b1a5908185b5bdd5b9d60921b604482015260640162000783565b8054600182015460028301546006546001600160a01b039384169392831692909116906000906127109062001de5908862002691565b62001df1919062002924565b9050600062001e01828862002881565b6040516323b872dd60e01b8152336004820152306024820152604481018990529091506001600160a01b038616906323b872dd906064016020604051808303816000875af115801562001e58573d6000803e3d6000fd5b505050506040513d601f19601f8201168201806040525081019062001e7e91906200285d565b62001ec15760405162461bcd60e51b815260206004820152601260248201527114d6481d1c985b9cd9995c8819985a5b195960721b604482015260640162000783565b811562001f865760075460405163a9059cbb60e01b81526001600160a01b039182166004820152602481018490529086169063a9059cbb906044016020604051808303816000875af115801562001f1c573d6000803e3d6000fd5b505050506040513d601f19601f8201168201806040525081019062001f4291906200285d565b62001f865760405162461bcd60e51b8152602060048201526013602482015272119959481d1c985b9cd9995c8819985a5b1959606a1b604482015260640162000783565b6040516340c10f1960e01b8152336004820152602481018290526001600160a01b038516906340c10f1990604401600060405180830381600087803b15801562001fcf57600080fd5b505af115801562001fe4573d6000803e3d6000fd5b50506040516340c10f1960e01b8152336004820152602481018490526001600160a01b03861692506340c10f199150604401600060405180830381600087803b1580156200203157600080fd5b505af115801562002046573d6000803e3d6000fd5b5050505080866004016000828254620020609190620028f8565b90915550506000888152600360209081526040808320338452909152812080549091839183919062002094908490620028f8565b9250508190555081816001016000828254620020b19190620028f8565b9250508190555081816002016000828254620020ce9190620028f8565b909155505042600382015580548290036200210657336000908152600460209081526040822080546001810182559083529120018990555b604080518381526020810184905290810183905233908a907fb94de73867374c9451886a63923d625914c691bed7ebd800d30652c2a7e6f0069060600160405180910390a35050505050505062000e9660018055565b606081600003620021845750506040805180820190915260018152600360fc1b602082015290565b8160005b8115620021b457806200219b81620028dc565b9150620021ac9050600a8362002924565b915062002188565b60008167ffffffffffffffff811115620021d257620021d2620024b5565b6040519080825280601f01601f191660200182016040528015620021fd576020820181803683370190505b5090505b841562002275576200221560018362002881565b915062002224600a866200293b565b62002231906030620028f8565b60f81b818381518110620022495762002249620028c6565b60200101906001600160f81b031916908160001a9053506200226d600a8662002924565b945062002201565b949350505050565b600260015403620022a157604051633ee5aeb560e01b815260040160405180910390fd5b6002600155565b6000546001600160a01b0316331462000f2e5760405163118cdaa760e01b815233600482015260240162000783565b600080546001600160a01b038381166001600160a01b0319831681178455604051919092169283917f8be0079c531659141344cd1fd0a4f28419497f9722a3daafe3b4186f6b6457e09190a35050565b600080604051806020016200233c90620023c5565b601f1982820381018352601f9091011660408190526200236790899089908990899060200162002952565b60408051601f198184030181529082905262002387929160200162002998565b60405160208183030381529060405290506000838251602084016000f598975050505050505050565b600080604051806020016200233c90620023d3565b610a3580620029cc83390190565b610c5c806200340183390190565b80356001600160a01b0381168114620023f957600080fd5b919050565b600080604083850312156200241257600080fd5b6200241d83620023e1565b946020939093013593505050565b600080604083850312156200243f57600080fd5b50508035926020909101359150565b6000602082840312156200246157600080fd5b5035919050565b600080604083850312156200247c57600080fd5b823591506200248e60208401620023e1565b90509250929050565b600060208284031215620024aa57600080fd5b62001ce082620023e1565b634e487b7160e01b600052604160045260246000fd5b600082601f830112620024dd57600080fd5b813567ffffffffffffffff80821115620024fb57620024fb620024b5565b604051601f8301601f19908116603f01168101908282118183101715620025265762002526620024b5565b816040528381528660208588010111156200254057600080fd5b836020870160208301376000602085830101528094505050505092915050565b60008060008060008060c087890312156200257a57600080fd5b6200258587620023e1565b955060208701359450604087013567ffffffffffffffff80821115620025aa57600080fd5b620025b88a838b01620024cb565b95506060890135915080821115620025cf57600080fd5b620025dd8a838b01620024cb565b94506080890135915080821115620025f457600080fd5b620026028a838b01620024cb565b935060a08901359150808211156200261957600080fd5b506200262889828a01620024cb565b9150509295509295509295565b6020808252825182820181905260009190848201906040850190845b818110156200266f5783518352928401929184019160010162002651565b50909695505050505050565b634e487b7160e01b600052601160045260246000fd5b8082028115828204841417620008a657620008a66200267b565b60005b83811015620026c8578181015183820152602001620026ae565b50506000910152565b6250542d60e81b815260008251620026f1816003850160208701620026ab565b601160fa1b6003939091019283015250600401919050565b61141560f21b81526000825162002728816002850160208701620026ab565b9190910160020192915050565b6259542d60e81b815260008251620026f1816003850160208701620026ab565b61165560f21b81526000825162002728816002850160208701620026ab565b600081518084526200278e816020860160208601620026ab565b601f01601f19169290920160200192915050565b60018060a01b038716815285602082015260c060408201526000620027cb60c083018762002774565b8281036060840152620027df818762002774565b90508281036080840152620027f5818662002774565b905082810360a08401526200280b818562002774565b9998505050505050505050565b6000602082840312156200282b57600080fd5b5051919050565b6020808252601190820152704d61726b6574206e6f742061637469766560781b604082015260600190565b6000602082840312156200287057600080fd5b8151801515811462001ce057600080fd5b81810381811115620008a657620008a66200267b565b60208082526015908201527413585c9ad95d08191bd95cc81b9bdd08195e1a5cdd605a1b604082015260600190565b634e487b7160e01b600052603260045260246000fd5b600060018201620028f157620028f16200267b565b5060010190565b80820180821115620008a657620008a66200267b565b634e487b7160e01b600052601260045260246000fd5b6000826200293657620029366200290e565b500490565b6000826200294d576200294d6200290e565b500690565b60808152600062002967608083018762002774565b82810360208401526200297b818762002774565b6001600160a01b0395909516604084015250506060015292915050565b60008351620029ac818460208801620026ab565b835190830190620029c2818360208801620026ab565b0194935050505056fe60806040523480156200001157600080fd5b5060405162000a3538038062000a3583398101604081905262000034916200014c565b60006200004285826200026e565b5060016200005184826200026e565b50600280546001600160a01b039093166001600160a01b03199384161790556003556004805490911633179055506200033a9050565b634e487b7160e01b600052604160045260246000fd5b600082601f830112620000af57600080fd5b81516001600160401b0380821115620000cc57620000cc62000087565b604051601f8301601f19908116603f01168101908282118183101715620000f757620000f762000087565b816040528381526020925086838588010111156200011457600080fd5b600091505b8382101562000138578582018301518183018401529082019062000119565b600093810190920192909252949350505050565b600080600080608085870312156200016357600080fd5b84516001600160401b03808211156200017b57600080fd5b62000189888389016200009d565b95506020870151915080821115620001a057600080fd5b50620001af878288016200009d565b604087015190945090506001600160a01b0381168114620001cf57600080fd5b6060959095015193969295505050565b600181811c90821680620001f457607f821691505b6020821081036200021557634e487b7160e01b600052602260045260246000fd5b50919050565b601f8211156200026957600081815260208120601f850160051c81016020861015620002445750805b601f850160051c820191505b81811015620002655782815560010162000250565b5050505b505050565b81516001600160401b038111156200028a576200028a62000087565b620002a2816200029b8454620001df565b846200021b565b602080601f831160018114620002da5760008415620002c15750858301515b600019600386901b1c1916600185901b17855562000265565b600085815260208120601f198616915b828110156200030b57888601518255948401946001909101908401620002ea565b50858210156200032a5787850151600019600388901b60f8161c191681555b5050505050600190811b01905550565b6106eb806200034a6000396000f3fe608060405234801561001057600080fd5b50600436106100cf5760003560e01c80632f13b60c1161008c57806395d89b411161006657806395d89b41146101b75780639dc29fac146101bf578063a9059cbb146101d2578063c45a0155146101e557600080fd5b80632f13b60c1461016e57806340c10f191461017957806370a082311461018e57600080fd5b806306fdde03146100d4578063095ea7b3146100f257806318160ddd14610115578063204f83f91461012757806323b872dd14610130578063287b448d14610143575b600080fd5b6100dc6101f8565b6040516100e9919061051f565b60405180910390f35b610105610100366004610589565b610286565b60405190151581526020016100e9565b6006545b6040519081526020016100e9565b61011960035481565b61010561013e3660046105b3565b61028f565b600254610156906001600160a01b031681565b6040516001600160a01b0390911681526020016100e9565b600354421015610105565b61018c610187366004610589565b610334565b005b61011961019c3660046105ef565b6001600160a01b031660009081526005602052604090205490565b6100dc6103c7565b61018c6101cd366004610589565b6103d4565b6101056101e0366004610589565b610496565b600454610156906001600160a01b031681565b6000805461020590610611565b80601f016020809104026020016040519081016040528092919081815260200182805461023190610611565b801561027e5780601f106102535761010080835404028352916020019161027e565b820191906000526020600020905b81548152906001019060200180831161026157829003601f168201915b505050505081565b60015b92915050565b6001600160a01b0383166000908152600560205260408120548211156102d05760405162461bcd60e51b81526004016102c79061064b565b60405180910390fd5b6001600160a01b038416600090815260056020526040812080548492906102f890849061068f565b90915550506001600160a01b038316600090815260056020526040812080548492906103259084906106a2565b90915550600195945050505050565b6004546001600160a01b0316331461037d5760405162461bcd60e51b815260206004820152600c60248201526b4f6e6c7920666163746f727960a01b60448201526064016102c7565b6001600160a01b038216600090815260056020526040812080548392906103a59084906106a2565b9250508190555080600660008282546103be91906106a2565b90915550505050565b6001805461020590610611565b6004546001600160a01b0316331461041d5760405162461bcd60e51b815260206004820152600c60248201526b4f6e6c7920666163746f727960a01b60448201526064016102c7565b6001600160a01b0382166000908152600560205260409020548111156104555760405162461bcd60e51b81526004016102c79061064b565b6001600160a01b0382166000908152600560205260408120805483929061047d90849061068f565b9250508190555080600660008282546103be919061068f565b336000908152600560205260408120548211156104c55760405162461bcd60e51b81526004016102c79061064b565b33600090815260056020526040812080548492906104e490849061068f565b90915550506001600160a01b038316600090815260056020526040812080548492906105119084906106a2565b909155506001949350505050565b600060208083528351808285015260005b8181101561054c57858101830151858201604001528201610530565b506000604082860101526040601f19601f8301168501019250505092915050565b80356001600160a01b038116811461058457600080fd5b919050565b6000806040838503121561059c57600080fd5b6105a58361056d565b946020939093013593505050565b6000806000606084860312156105c857600080fd5b6105d18461056d565b92506105df6020850161056d565b9150604084013590509250925092565b60006020828403121561060157600080fd5b61060a8261056d565b9392505050565b600181811c9082168061062557607f821691505b60208210810361064557634e487b7160e01b600052602260045260246000fd5b50919050565b602080825260149082015273496e73756666696369656e742062616c616e636560601b604082015260600190565b634e487b7160e01b600052601160045260246000fd5b8181038181111561028957610289610679565b808201808211156102895761028961067956fea26469706673582212207301149d3be21c14449bea5f69f06e23f07e578af8d5f53a6ccc8d18d76ed2d364736f6c6343000814003360806040523480156200001157600080fd5b5060405162000c5c38038062000c5c83398101604081905262000034916200014c565b60006200004285826200026e565b5060016200005184826200026e565b50600280546001600160a01b039093166001600160a01b03199384161790556003556004805490911633179055506200033a9050565b634e487b7160e01b600052604160045260246000fd5b600082601f830112620000af57600080fd5b81516001600160401b0380821115620000cc57620000cc62000087565b604051601f8301601f19908116603f01168101908282118183101715620000f757620000f762000087565b816040528381526020925086838588010111156200011457600080fd5b600091505b8382101562000138578582018301518183018401529082019062000119565b600093810190920192909252949350505050565b600080600080608085870312156200016357600080fd5b84516001600160401b03808211156200017b57600080fd5b62000189888389016200009d565b95506020870151915080821115620001a057600080fd5b50620001af878288016200009d565b604087015190945090506001600160a01b0381168114620001cf57600080fd5b6060959095015193969295505050565b600181811c90821680620001f457607f821691505b6020821081036200021557634e487b7160e01b600052602260045260246000fd5b50919050565b601f8211156200026957600081815260208120601f850160051c81016020861015620002445750805b601f850160051c820191505b81811015620002655782815560010162000250565b5050505b505050565b81516001600160401b038111156200028a576200028a62000087565b620002a2816200029b8454620001df565b846200021b565b602080601f831160018114620002da5760008415620002c15750858301515b600019600386901b1c1916600185901b17855562000265565b600085815260208120601f198616915b828110156200030b57888601518255948401946001909101908401620002ea565b50858210156200032a5787850151600019600388901b60f8161c191681555b5050505050600190811b01905550565b610912806200034a6000396000f3fe608060405234801561001057600080fd5b50600436106101005760003560e01c806340c10f1911610097578063a9059cbb11610066578063a9059cbb14610213578063b77cf9c614610226578063c45a015514610246578063ef5d9ae81461025957600080fd5b806340c10f19146101ba57806370a08231146101cf57806395d89b41146101f85780639dc29fac1461020057600080fd5b806323b872dd116100d357806323b872dd14610161578063287b448d146101745780633180afec1461019f578063406cf229146101b257600080fd5b806306fdde0314610105578063095ea7b31461012357806318160ddd14610146578063204f83f914610158575b600080fd5b61010d610279565b60405161011a9190610700565b60405180910390f35b610136610131366004610765565b610307565b604051901515815260200161011a565b6008545b60405190815260200161011a565b61014a60035481565b61013661016f36600461078f565b610310565b600254610187906001600160a01b031681565b6040516001600160a01b03909116815260200161011a565b61014a6101ad3660046107cb565b6103b5565b61014a61044b565b6101cd6101c8366004610765565b6104f3565b005b61014a6101dd3660046107cb565b6001600160a01b031660009081526005602052604090205490565b61010d61059f565b6101cd61020e366004610765565b6105ac565b610136610221366004610765565b610677565b61014a6102343660046107cb565b60066020526000908152604090205481565b600454610187906001600160a01b031681565b61014a6102673660046107cb565b60076020526000908152604090205481565b60008054610286906107e6565b80601f01602080910402602001604051908101604052809291908181526020018280546102b2906107e6565b80156102ff5780601f106102d4576101008083540402835291602001916102ff565b820191906000526020600020905b8154815290600101906020018083116102e257829003601f168201915b505050505081565b60015b92915050565b6001600160a01b0383166000908152600560205260408120548211156103515760405162461bcd60e51b815260040161034890610820565b60405180910390fd5b6001600160a01b03841660009081526005602052604081208054849290610379908490610864565b90915550506001600160a01b038316600090815260056020526040812080548492906103a6908490610877565b90915550600195945050505050565b6001600160a01b03811660009081526005602052604081205481036103dc57506000919050565b6001600160a01b0382166000908152600660205260408120546103ff9042610864565b6001600160a01b03841660009081526005602052604090205490915064496cebb8009082906104309061035261088a565b61043a919061088a565b61044491906108a1565b9392505050565b604051630c602bfb60e21b815233600482015260009081903090633180afec90602401602060405180830381865afa15801561048b573d6000803e3d6000fd5b505050506040513d601f19601f820116820180604052508101906104af91906108c3565b905080156104ee5733600090815260076020526040812080548392906104d6908490610877565b90915550503360009081526006602052604090204290555b919050565b6004546001600160a01b0316331461053c5760405162461bcd60e51b815260206004820152600c60248201526b4f6e6c7920666163746f727960a01b6044820152606401610348565b6001600160a01b03821660009081526005602052604081208054839290610564908490610877565b92505081905550806008600082825461057d9190610877565b9091555050506001600160a01b03166000908152600660205260409020429055565b60018054610286906107e6565b6004546001600160a01b031633146105f55760405162461bcd60e51b815260206004820152600c60248201526b4f6e6c7920666163746f727960a01b6044820152606401610348565b6001600160a01b03821660009081526005602052604090205481111561062d5760405162461bcd60e51b815260040161034890610820565b6001600160a01b03821660009081526005602052604081208054839290610655908490610864565b92505081905550806008600082825461066e9190610864565b90915550505050565b336000908152600560205260408120548211156106a65760405162461bcd60e51b815260040161034890610820565b33600090815260056020526040812080548492906106c5908490610864565b90915550506001600160a01b038316600090815260056020526040812080548492906106f2908490610877565b909155506001949350505050565b600060208083528351808285015260005b8181101561072d57858101830151858201604001528201610711565b506000604082860101526040601f19601f8301168501019250505092915050565b80356001600160a01b03811681146104ee57600080fd5b6000806040838503121561077857600080fd5b6107818361074e565b946020939093013593505050565b6000806000606084860312156107a457600080fd5b6107ad8461074e565b92506107bb6020850161074e565b9150604084013590509250925092565b6000602082840312156107dd57600080fd5b6104448261074e565b600181811c908216806107fa57607f821691505b60208210810361081a57634e487b7160e01b600052602260045260246000fd5b50919050565b602080825260149082015273496e73756666696369656e742062616c616e636560601b604082015260600190565b634e487b7160e01b600052601160045260246000fd5b8181038181111561030a5761030a61084e565b8082018082111561030a5761030a61084e565b808202811582820484141761030a5761030a61084e565b6000826108be57634e487b7160e01b600052601260045260246000fd5b500490565b6000602082840312156108d557600080fd5b505191905056fea26469706673582212200a5d6db5e2531c8c270e320658367735dc755fcb28bd1aa186964e6ce046eb8564736f6c63430008140033a26469706673582212201a63c6b465924c65ebb9c25ba9d6f0bfe4e426a0e767f021cf9ae3ca8380d0d964736f6c63430008140033",
  "linkReferences": {},
  "deployedLinkReferences": {}
}