{
  "_format": "hh-sol-artifact-1",
  "contractName": "CoreYieldAMM",
  "sourceName": "contracts/core/AMM/CoreYieldAMM.sol",
  "abi": [
    {
      "inputs": [],
      "stateMutability": "nonpayable",
      "type": "constructor"
    },
    {
      "inputs": [
        {
          "internalType": "address",
          "name": "owner",
          "type": "address"
        }
      ],
      "name": "OwnableInvalidOwner",
      "type": "error"
    },
    {
      "inputs": [
        {
          "internalType": "address",
          "name": "account",
          "type": "address"
        }
      ],
      "name": "OwnableUnauthorizedAccount",
      "type": "error"
    },
    {
      "inputs": [],
      "name": "ReentrancyGuardReentrantCall",
      "type": "error"
    },
    {
      "inputs": [
        {
          "internalType": "address",
          "name": "token",
          "type": "address"
        }
      ],
      "name": "SafeERC20FailedOperation",
      "type": "error"
    },
    {
      "anonymous": false,
      "inputs": [
        {
          "indexed": true,
          "internalType": "bytes32",
          "name": "poolKey",
          "type": "bytes32"
        },
        {
          "indexed": true,
          "internalType": "address",
          "name": "provider",
          "type": "address"
        },
        {
          "indexed": false,
          "internalType": "uint256",
          "name": "amount0",
          "type": "uint256"
        },
        {
          "indexed": false,
          "internalType": "uint256",
          "name": "amount1",
          "type": "uint256"
        },
        {
          "indexed": false,
          "internalType": "uint256",
          "name": "liquidity",
          "type": "uint256"
        }
      ],
      "name": "LiquidityAdded",
      "type": "event"
    },
    {
      "anonymous": false,
      "inputs": [
        {
          "indexed": true,
          "internalType": "bytes32",
          "name": "poolKey",
          "type": "bytes32"
        },
        {
          "indexed": true,
          "internalType": "address",
          "name": "provider",
          "type": "address"
        },
        {
          "indexed": false,
          "internalType": "uint256",
          "name": "amount0",
          "type": "uint256"
        },
        {
          "indexed": false,
          "internalType": "uint256",
          "name": "amount1",
          "type": "uint256"
        },
        {
          "indexed": false,
          "internalType": "uint256",
          "name": "liquidity",
          "type": "uint256"
        }
      ],
      "name": "LiquidityRemoved",
      "type": "event"
    },
    {
      "anonymous": false,
      "inputs": [
        {
          "indexed": true,
          "internalType": "address",
          "name": "previousOwner",
          "type": "address"
        },
        {
          "indexed": true,
          "internalType": "address",
          "name": "newOwner",
          "type": "address"
        }
      ],
      "name": "OwnershipTransferred",
      "type": "event"
    },
    {
      "anonymous": false,
      "inputs": [
        {
          "indexed": true,
          "internalType": "bytes32",
          "name": "poolKey",
          "type": "bytes32"
        },
        {
          "indexed": true,
          "internalType": "address",
          "name": "token0",
          "type": "address"
        },
        {
          "indexed": true,
          "internalType": "address",
          "name": "token1",
          "type": "address"
        },
        {
          "indexed": false,
          "internalType": "bool",
          "name": "isYieldPool",
          "type": "bool"
        }
      ],
      "name": "PoolCreated",
      "type": "event"
    },
    {
      "anonymous": false,
      "inputs": [
        {
          "indexed": true,
          "internalType": "bytes32",
          "name": "poolKey",
          "type": "bytes32"
        },
        {
          "indexed": true,
          "internalType": "address",
          "name": "sender",
          "type": "address"
        },
        {
          "indexed": true,
          "internalType": "address",
          "name": "recipient",
          "type": "address"
        },
        {
          "indexed": false,
          "internalType": "uint256",
          "name": "amount0In",
          "type": "uint256"
        },
        {
          "indexed": false,
          "internalType": "uint256",
          "name": "amount1In",
          "type": "uint256"
        },
        {
          "indexed": false,
          "internalType": "uint256",
          "name": "amount0Out",
          "type": "uint256"
        },
        {
          "indexed": false,
          "internalType": "uint256",
          "name": "amount1Out",
          "type": "uint256"
        },
        {
          "indexed": false,
          "internalType": "uint256",
          "name": "fee",
          "type": "uint256"
        },
        {
          "indexed": false,
          "internalType": "uint256",
          "name": "yieldAdjustment",
          "type": "uint256"
        }
      ],
      "name": "Swap",
      "type": "event"
    },
    {
      "anonymous": false,
      "inputs": [
        {
          "indexed": true,
          "internalType": "address",
          "name": "token",
          "type": "address"
        },
        {
          "indexed": false,
          "internalType": "uint256",
          "name": "newAPY",
          "type": "uint256"
        },
        {
          "indexed": false,
          "internalType": "uint256",
          "name": "volatility",
          "type": "uint256"
        },
        {
          "indexed": false,
          "internalType": "uint256",
          "name": "marketEfficiency",
          "type": "uint256"
        }
      ],
      "name": "YieldUpdated",
      "type": "event"
    },
    {
      "inputs": [],
      "name": "BASIS_POINTS",
      "outputs": [
        {
          "internalType": "uint256",
          "name": "",
          "type": "uint256"
        }
      ],
      "stateMutability": "view",
      "type": "function"
    },
    {
      "inputs": [],
      "name": "MAX_FEE",
      "outputs": [
        {
          "internalType": "uint256",
          "name": "",
          "type": "uint256"
        }
      ],
      "stateMutability": "view",
      "type": "function"
    },
    {
      "inputs": [],
      "name": "MIN_LIQUIDITY",
      "outputs": [
        {
          "internalType": "uint256",
          "name": "",
          "type": "uint256"
        }
      ],
      "stateMutability": "view",
      "type": "function"
    },
    {
      "inputs": [],
      "name": "VOLATILITY_WINDOW",
      "outputs": [
        {
          "internalType": "uint256",
          "name": "",
          "type": "uint256"
        }
      ],
      "stateMutability": "view",
      "type": "function"
    },
    {
      "inputs": [],
      "name": "YIELD_UPDATE_INTERVAL",
      "outputs": [
        {
          "internalType": "uint256",
          "name": "",
          "type": "uint256"
        }
      ],
      "stateMutability": "view",
      "type": "function"
    },
    {
      "inputs": [
        {
          "internalType": "address",
          "name": "_token0",
          "type": "address"
        },
        {
          "internalType": "address",
          "name": "_token1",
          "type": "address"
        },
        {
          "internalType": "uint256",
          "name": "_amount0",
          "type": "uint256"
        },
        {
          "internalType": "uint256",
          "name": "_amount1",
          "type": "uint256"
        },
        {
          "internalType": "uint256",
          "name": "_minLiquidity",
          "type": "uint256"
        }
      ],
      "name": "addLiquidity",
      "outputs": [
        {
          "internalType": "uint256",
          "name": "liquidity",
          "type": "uint256"
        }
      ],
      "stateMutability": "nonpayable",
      "type": "function"
    },
    {
      "inputs": [],
      "name": "analytics",
      "outputs": [
        {
          "internalType": "contract CoreYieldAnalytics",
          "name": "",
          "type": "address"
        }
      ],
      "stateMutability": "view",
      "type": "function"
    },
    {
      "inputs": [
        {
          "internalType": "address",
          "name": "_token0",
          "type": "address"
        },
        {
          "internalType": "address",
          "name": "_token1",
          "type": "address"
        },
        {
          "internalType": "bool",
          "name": "_isYieldPool",
          "type": "bool"
        }
      ],
      "name": "createPool",
      "outputs": [
        {
          "internalType": "bytes32",
          "name": "poolKey",
          "type": "bytes32"
        }
      ],
      "stateMutability": "nonpayable",
      "type": "function"
    },
    {
      "inputs": [
        {
          "internalType": "address",
          "name": "_token",
          "type": "address"
        },
        {
          "internalType": "uint256",
          "name": "_amount",
          "type": "uint256"
        }
      ],
      "name": "emergencyWithdraw",
      "outputs": [],
      "stateMutability": "nonpayable",
      "type": "function"
    },
    {
      "inputs": [
        {
          "internalType": "bytes32",
          "name": "_poolKey",
          "type": "bytes32"
        }
      ],
      "name": "getPool",
      "outputs": [
        {
          "components": [
            {
              "internalType": "address",
              "name": "token0",
              "type": "address"
            },
            {
              "internalType": "address",
              "name": "token1",
              "type": "address"
            },
            {
              "internalType": "uint256",
              "name": "reserve0",
              "type": "uint256"
            },
            {
              "internalType": "uint256",
              "name": "reserve1",
              "type": "uint256"
            },
            {
              "internalType": "uint256",
              "name": "totalSupply",
              "type": "uint256"
            },
            {
              "internalType": "bool",
              "name": "isYieldPool",
              "type": "bool"
            },
            {
              "internalType": "bool",
              "name": "isActive",
              "type": "bool"
            },
            {
              "internalType": "uint256",
              "name": "lastUpdateTime",
              "type": "uint256"
            },
            {
              "internalType": "uint256",
              "name": "cumulativeYield0",
              "type": "uint256"
            },
            {
              "internalType": "uint256",
              "name": "cumulativeYield1",
              "type": "uint256"
            },
            {
              "internalType": "uint256",
              "name": "fee0",
              "type": "uint256"
            },
            {
              "internalType": "uint256",
              "name": "fee1",
              "type": "uint256"
            },
            {
              "internalType": "uint256",
              "name": "tradingFee",
              "type": "uint256"
            },
            {
              "internalType": "uint256",
              "name": "yieldMultiplier",
              "type": "uint256"
            },
            {
              "internalType": "uint256",
              "name": "volatilityIndex",
              "type": "uint256"
            },
            {
              "internalType": "uint256",
              "name": "lastPriceUpdate",
              "type": "uint256"
            }
          ],
          "internalType": "struct CoreYieldAMM.Pool",
          "name": "",
          "type": "tuple"
        }
      ],
      "stateMutability": "view",
      "type": "function"
    },
    {
      "inputs": [
        {
          "internalType": "address",
          "name": "_token0",
          "type": "address"
        },
        {
          "internalType": "address",
          "name": "_token1",
          "type": "address"
        }
      ],
      "name": "getPoolKey",
      "outputs": [
        {
          "internalType": "bytes32",
          "name": "",
          "type": "bytes32"
        }
      ],
      "stateMutability": "view",
      "type": "function"
    },
    {
      "inputs": [
        {
          "internalType": "bytes32",
          "name": "_poolKey",
          "type": "bytes32"
        }
      ],
      "name": "getPoolVolume",
      "outputs": [
        {
          "internalType": "uint256",
          "name": "",
          "type": "uint256"
        }
      ],
      "stateMutability": "view",
      "type": "function"
    },
    {
      "inputs": [
        {
          "internalType": "address",
          "name": "_tokenIn",
          "type": "address"
        },
        {
          "internalType": "address",
          "name": "_tokenOut",
          "type": "address"
        },
        {
          "internalType": "uint256",
          "name": "_amountIn",
          "type": "uint256"
        }
      ],
      "name": "getQuote",
      "outputs": [
        {
          "components": [
            {
              "internalType": "uint256",
              "name": "inputAmount",
              "type": "uint256"
            },
            {
              "internalType": "uint256",
              "name": "outputAmount",
              "type": "uint256"
            },
            {
              "internalType": "uint256",
              "name": "fee",
              "type": "uint256"
            },
            {
              "internalType": "uint256",
              "name": "slippage",
              "type": "uint256"
            },
            {
              "internalType": "uint256",
              "name": "yieldAdjustment",
              "type": "uint256"
            },
            {
              "internalType": "uint256",
              "name": "priceImpact",
              "type": "uint256"
            },
            {
              "internalType": "bool",
              "name": "isYieldOptimized",
              "type": "bool"
            }
          ],
          "internalType": "struct CoreYieldAMM.TradeInfo",
          "name": "",
          "type": "tuple"
        }
      ],
      "stateMutability": "view",
      "type": "function"
    },
    {
      "inputs": [
        {
          "internalType": "address",
          "name": "_token",
          "type": "address"
        }
      ],
      "name": "getYieldInfo",
      "outputs": [
        {
          "components": [
            {
              "internalType": "uint256",
              "name": "currentAPY",
              "type": "uint256"
            },
            {
              "internalType": "uint256",
              "name": "historicalAPY",
              "type": "uint256"
            },
            {
              "internalType": "uint256",
              "name": "yieldAccrued",
              "type": "uint256"
            },
            {
              "internalType": "uint256",
              "name": "lastUpdateTime",
              "type": "uint256"
            },
            {
              "internalType": "bool",
              "name": "isStable",
              "type": "bool"
            },
            {
              "internalType": "uint256",
              "name": "yieldVolatility",
              "type": "uint256"
            },
            {
              "internalType": "uint256",
              "name": "marketEfficiency",
              "type": "uint256"
            }
          ],
          "internalType": "struct CoreYieldAMM.YieldInfo",
          "name": "",
          "type": "tuple"
        }
      ],
      "stateMutability": "view",
      "type": "function"
    },
    {
      "inputs": [
        {
          "internalType": "bytes32",
          "name": "",
          "type": "bytes32"
        }
      ],
      "name": "lastVolumeUpdate",
      "outputs": [
        {
          "internalType": "uint256",
          "name": "",
          "type": "uint256"
        }
      ],
      "stateMutability": "view",
      "type": "function"
    },
    {
      "inputs": [],
      "name": "owner",
      "outputs": [
        {
          "internalType": "address",
          "name": "",
          "type": "address"
        }
      ],
      "stateMutability": "view",
      "type": "function"
    },
    {
      "inputs": [
        {
          "internalType": "address",
          "name": "",
          "type": "address"
        },
        {
          "internalType": "address",
          "name": "",
          "type": "address"
        }
      ],
      "name": "poolKeys",
      "outputs": [
        {
          "internalType": "bytes32",
          "name": "",
          "type": "bytes32"
        }
      ],
      "stateMutability": "view",
      "type": "function"
    },
    {
      "inputs": [
        {
          "internalType": "bytes32",
          "name": "",
          "type": "bytes32"
        }
      ],
      "name": "poolVolumes",
      "outputs": [
        {
          "internalType": "uint256",
          "name": "",
          "type": "uint256"
        }
      ],
      "stateMutability": "view",
      "type": "function"
    },
    {
      "inputs": [
        {
          "internalType": "bytes32",
          "name": "",
          "type": "bytes32"
        }
      ],
      "name": "pools",
      "outputs": [
        {
          "internalType": "address",
          "name": "token0",
          "type": "address"
        },
        {
          "internalType": "address",
          "name": "token1",
          "type": "address"
        },
        {
          "internalType": "uint256",
          "name": "reserve0",
          "type": "uint256"
        },
        {
          "internalType": "uint256",
          "name": "reserve1",
          "type": "uint256"
        },
        {
          "internalType": "uint256",
          "name": "totalSupply",
          "type": "uint256"
        },
        {
          "internalType": "bool",
          "name": "isYieldPool",
          "type": "bool"
        },
        {
          "internalType": "bool",
          "name": "isActive",
          "type": "bool"
        },
        {
          "internalType": "uint256",
          "name": "lastUpdateTime",
          "type": "uint256"
        },
        {
          "internalType": "uint256",
          "name": "cumulativeYield0",
          "type": "uint256"
        },
        {
          "internalType": "uint256",
          "name": "cumulativeYield1",
          "type": "uint256"
        },
        {
          "internalType": "uint256",
          "name": "fee0",
          "type": "uint256"
        },
        {
          "internalType": "uint256",
          "name": "fee1",
          "type": "uint256"
        },
        {
          "internalType": "uint256",
          "name": "tradingFee",
          "type": "uint256"
        },
        {
          "internalType": "uint256",
          "name": "yieldMultiplier",
          "type": "uint256"
        },
        {
          "internalType": "uint256",
          "name": "volatilityIndex",
          "type": "uint256"
        },
        {
          "internalType": "uint256",
          "name": "lastPriceUpdate",
          "type": "uint256"
        }
      ],
      "stateMutability": "view",
      "type": "function"
    },
    {
      "inputs": [
        {
          "internalType": "address",
          "name": "_token0",
          "type": "address"
        },
        {
          "internalType": "address",
          "name": "_token1",
          "type": "address"
        },
        {
          "internalType": "uint256",
          "name": "_liquidity",
          "type": "uint256"
        }
      ],
      "name": "removeLiquidity",
      "outputs": [
        {
          "internalType": "uint256",
          "name": "amount0",
          "type": "uint256"
        },
        {
          "internalType": "uint256",
          "name": "amount1",
          "type": "uint256"
        }
      ],
      "stateMutability": "nonpayable",
      "type": "function"
    },
    {
      "inputs": [],
      "name": "renounceOwnership",
      "outputs": [],
      "stateMutability": "nonpayable",
      "type": "function"
    },
    {
      "inputs": [
        {
          "internalType": "address",
          "name": "_analytics",
          "type": "address"
        }
      ],
      "name": "setAnalytics",
      "outputs": [],
      "stateMutability": "nonpayable",
      "type": "function"
    },
    {
      "inputs": [
        {
          "internalType": "bytes32",
          "name": "_poolKey",
          "type": "bytes32"
        },
        {
          "internalType": "bool",
          "name": "_active",
          "type": "bool"
        }
      ],
      "name": "setPoolActive",
      "outputs": [],
      "stateMutability": "nonpayable",
      "type": "function"
    },
    {
      "inputs": [
        {
          "internalType": "bytes32",
          "name": "_poolKey",
          "type": "bytes32"
        },
        {
          "internalType": "uint256",
          "name": "_fee",
          "type": "uint256"
        }
      ],
      "name": "setTradingFee",
      "outputs": [],
      "stateMutability": "nonpayable",
      "type": "function"
    },
    {
      "inputs": [
        {
          "internalType": "bytes32",
          "name": "_poolKey",
          "type": "bytes32"
        },
        {
          "internalType": "uint256",
          "name": "_multiplier",
          "type": "uint256"
        }
      ],
      "name": "setYieldMultiplier",
      "outputs": [],
      "stateMutability": "nonpayable",
      "type": "function"
    },
    {
      "inputs": [
        {
          "internalType": "address",
          "name": "_tokenIn",
          "type": "address"
        },
        {
          "internalType": "address",
          "name": "_tokenOut",
          "type": "address"
        },
        {
          "internalType": "uint256",
          "name": "_amountIn",
          "type": "uint256"
        },
        {
          "internalType": "uint256",
          "name": "_minAmountOut",
          "type": "uint256"
        },
        {
          "internalType": "address",
          "name": "_recipient",
          "type": "address"
        }
      ],
      "name": "swap",
      "outputs": [
        {
          "internalType": "uint256",
          "name": "amountOut",
          "type": "uint256"
        }
      ],
      "stateMutability": "nonpayable",
      "type": "function"
    },
    {
      "inputs": [
        {
          "internalType": "address",
          "name": "newOwner",
          "type": "address"
        }
      ],
      "name": "transferOwnership",
      "outputs": [],
      "stateMutability": "nonpayable",
      "type": "function"
    },
    {
      "inputs": [
        {
          "internalType": "address",
          "name": "",
          "type": "address"
        }
      ],
      "name": "yieldInfo",
      "outputs": [
        {
          "internalType": "uint256",
          "name": "currentAPY",
          "type": "uint256"
        },
        {
          "internalType": "uint256",
          "name": "historicalAPY",
          "type": "uint256"
        },
        {
          "internalType": "uint256",
          "name": "yieldAccrued",
          "type": "uint256"
        },
        {
          "internalType": "uint256",
          "name": "lastUpdateTime",
          "type": "uint256"
        },
        {
          "internalType": "bool",
          "name": "isStable",
          "type": "bool"
        },
        {
          "internalType": "uint256",
          "name": "yieldVolatility",
          "type": "uint256"
        },
        {
          "internalType": "uint256",
          "name": "marketEfficiency",
          "type": "uint256"
        }
      ],
      "stateMutability": "view",
      "type": "function"
    }
  ],
  "bytecode": "0x6080806040523461007e5733156100685760008054336001600160a01b03198216811783556040519290916001600160a01b0316907f8be0079c531659141344cd1fd0a4f28419497f9722a3daafe3b4186f6b6457e09080a360018055611e4f90816100848239f35b631e4fbdf760e01b815260006004820152602490fd5b600080fdfe608080604052600436101561001357600080fd5b60003560e01c908163052b1cd2146115dd575080630c5f54dc146115155780630de38dd914610b795780631616669b1461149557806321b77d63146114785780632b7a71dd1461109957806336bf95a0146110ea57806370d08fdd14611099578063715018a61461104057806374c350eb14610ffd57806380d5ac8a14610fd45780638da5cb5b14610fab57806391c98a2a14610d3b57806395ccea6714610d03578063a3377d3e14610cad578063b5217bb414610bc2578063bc063e1a14610ba5578063c0339df414610b79578063c4941d1714610af5578063c515ee23146109ad578063d5bcb9b5146106d3578063d752fab2146104c4578063e1f1c4a7146104a7578063eb197bee1461048a578063eede29af1461045e578063f2fde38b146103d5578063f6c00927146101c25763fcfe359e1461015357600080fd5b346101bd5761016136611625565b9061016a611670565b6101f48211610189576000526002602052600b60406000200155600080f35b60405162461bcd60e51b815260206004820152600c60248201526b08ccaca40e8dede40d0d2ced60a31b6044820152606490fd5b600080fd5b346101bd5760203660031901126101bd5760006101e06040516101e4816116b8565b8281528260208201528260408201528260608201528260808201528260a08201528260c08201528260e08201528261010082015282610120820152826101408201528261016082015282610180820152826101a0820152826101c08201520152600435600052600260205261020060406000206101e0604051610266816116b8565b600e60018060a01b038454169384835260018060a01b03600182015416602084015260028101546040840152600381015460608401526004810154608084015260ff6005820154818116151560a086015260081c16151560c0840152600681015460e0840152600781015461010084015260088101546101208401526009810154610140840152600a810154610160840152600b810154610180840152600c8101546101a0840152600d8101546101c084015201548282015260405192835260018060a01b03602082015116602084015260408101516040840152606081015160608401526080810151608084015260a0810151151560a084015260c0810151151560c084015260e081015160e08401526101008101516101008401526101208101516101208401526101408101516101408401526101608101516101608401526101808101516101808401526101a08101516101a08401526101c08101516101c084015201516101e0820152f35b346101bd5760203660031901126101bd576103ee6115f9565b6103f6611670565b6001600160a01b0390811690811561044557600054826001600160601b0360a01b821617600055167f8be0079c531659141344cd1fd0a4f28419497f9722a3daafe3b4186f6b6457e0600080a3005b604051631e4fbdf760e01b815260006004820152602490fd5b346101bd5760203660031901126101bd5760043560005260066020526020604060002054604051908152f35b346101bd5760003660031901126101bd576020604051610e108152f35b346101bd5760003660031901126101bd5760206040516127108152f35b346101bd576104d23661163b565b90916104dc6118b9565b60018060a01b0381169182600052600360205260406000209160018060a01b0385169283600052602052604060002054926105188415156116e9565b83600052600260205260406000209461053a60ff600588015460081c16611726565b831561069a5710156106945793915b600284015493600381015461055e8685611764565b9461056e60048401548097611777565b966105828761057d8589611764565b611777565b968815158061068b575b15610646576040996105f1956105c5898c946105bb8d809a6105b1896105e19b611797565b6002880155611797565b6003850155611797565b60048201554260069091015533906001600160a01b03166119fc565b33906001600160a01b03166119fc565b7f1644e236c5520c62ce0dee793b42f87f940781d55b02c890fbbcdfff1ee5e25185518061063333958789846040919493926060820195825260208201520152565b0390a36001805582519182526020820152f35b60405162461bcd60e51b815260206004820152601d60248201527f496e73756666696369656e74206c6971756964697479206275726e65640000006044820152606490fd5b5087151561058c565b91610549565b60405162461bcd60e51b8152602060048201526011602482015270496e76616c6964206c697175696469747960781b6044820152606490fd5b346101bd5760a03660031901126101bd576106ec6115f9565b6106f461160f565b6001600160a01b039060843580831690036101bd576107116118b9565b818316600052600360205260406000208282166000526020526040600020549061073c8215156116e9565b81600052600260205260406000209261075e60ff600586015460081c16611726565b61076b6044351515611a4c565b81811685821610156109a4578482945b600281015491600382015497610795838a86604435611ac1565b976064358910610969576107ab84604435611b36565b936107b68185611bab565b9586610942575b60ff916005918c60209e6107ea828e8e6107e08d604435903090843391166117f6565b60843591166119fc565b8c8c16898d16101561091c5761080661081093604435906117e9565b6002850155611797565b60038201555b42600682015542600e8201558a600052818d52604060002061083b60443582546117e9565b90558a60005260068d524260406000205501541661090c575b5050848416818516101561090457604435945b80851682861610156108fb576000915b81861681871610156108f25785806000935b16911610156108ea5787915b6040519687528987015260408601526060850152608084015260a083015260843516917f34a87fb9cf4c4141ee60de3a7a17dd46639d74eaa291d4f359d8e1dabc686ba760c03393a460018055604051908152f35b600091610895565b85808a93610889565b60443591610877565b600094610867565b61091591611d76565b8880610854565b9061092a9061093893611797565b6002840155604435906117e9565b6003820155610816565b99889181610951898b94611764565b612710900461095f916117e9565b9b915091506107bd565b60405162461bcd60e51b8152602060048201526013602482015272125b9cdd59999a58da595b9d081bdd5d1c1d5d606a1b6044820152606490fd5b8194809461077b565b346101bd5760e06109bd3661163b565b91906109c7611a89565b5060018060a01b038083166000526003602052604060002091166000526020526040600020546109f88115156116e9565b60005260026020526040600020600581015491610a1a60ff8460081c16611726565b6002820154600383015491610a45610a348585858a611ac1565b94610a3f8189611b36565b92611bab565b9283610acd575b610a5a610a61918489611cd3565b9287611d4e565b9360ff60c0604051610a728161169c565b8981526020810193845260408101948552606081019586526080810196875260a08101978852019616151586526040519687525160208701525160408601525160608501525160808401525160a083015251151560c0820152f35b93610a5a610aec82612710610ae588610a6196611764565b04906117e9565b95915050610a4c565b346101bd57610b0336611625565b90610b0c611670565b61032082101580610b6d575b15610b33576000526002602052600c60406000200155600080f35b60405162461bcd60e51b815260206004820152601260248201527124b73b30b634b21036bab63a34b83634b2b960711b6044820152606490fd5b506107d0821115610b18565b346101bd5760203660031901126101bd5760043560005260056020526020604060002054604051908152f35b346101bd5760003660031901126101bd5760206040516101f48152f35b346101bd5760203660031901126101bd5760043560005260026020526040600020600160a01b60019003808254169060018301541691600281015460038201546004830154600584015460068501546007860154600887015491600988015493600a89015495600b8a015497600c8b015499600d8c01549b600e01549c6040519e8f91825260208201526040015260608d015260808c015260ff8116151560a08c015260081c60ff16151560c08b015260e08a01526101008901526101208801526101408701526101608601526101808501526101a08401526101c08301526101e082015261020090f35b346101bd5760403660031901126101bd5760243580151581036101bd57610d0190610cd6611670565b600435600052600260205260056040600020019061ff00825491151560081b169061ff001916179055565b005b346101bd5760403660031901126101bd57610d01610d1f6115f9565b610d27611670565b6024359033906001600160a01b03166119fc565b346101bd5760a03660031901126101bd57610d546115f9565b610d5c61160f565b90610d656118b9565b60018060a01b039081811660005260036020526040600020828416600052602052604060002054610d978115156116e9565b806000526002602052604060002093610db960ff600587015460081c16611726565b80841683851610938415610f9e5760443595606435955b15610f975784835b600283015494600384015494861580610f8f575b15610f0957610e03610dfe8b8d611764565b6118dc565b94856103e719810111610ef3578b998b966103e719019b8c9889600485016103e8905560209f7f9c8e2178a53b464e8c6d21c6d0d1f5189e5d2f6f6a79237ba611cf996a6e6b329c610e8a60ff99600599610e7c610e9999610e6d610e8f985b60843511156117a4565b604435903090843391166117f6565b6064359130913391166117f6565b6117e9565b60028501556117e9565b600382015560048101610ead8882546117e9565b9055426006820155015416610ee3575b50506040805195865260208601919091528401523392606090a360018055604051908152f35b610eec91611d76565b8780610ebd565b634e487b7160e01b600052601160045260246000fd5b848b9960048c979d99989d01548d89610f22838d611764565b90610f2c91611777565b91610f37908a611764565b90610f4191611777565b9081808210911802189b60209d610e8f7f9c8e2178a53b464e8c6d21c6d0d1f5189e5d2f6f6a79237ba611cf996a6e6b329b8f9b610e8a60ff996005998f610e9999610e6d610e7c92610e63565b508515610dec565b8285610dd8565b6064359560443595610dd0565b346101bd5760003660031901126101bd576000546040516001600160a01b039091168152602090f35b346101bd5760003660031901126101bd576007546040516001600160a01b039091168152602090f35b346101bd5760203660031901126101bd576110166115f9565b61101e611670565b600780546001600160a01b0319166001600160a01b0392909216919091179055005b346101bd5760003660031901126101bd57611059611670565b600080546001600160a01b0319811682556001600160a01b03167f8be0079c531659141344cd1fd0a4f28419497f9722a3daafe3b4186f6b6457e08280a3005b346101bd5760403660031901126101bd576110b26115f9565b6110ba61160f565b9060018060a01b038091166000526003602052604060002091166000526020526020604060002054604051908152f35b346101bd5760603660031901126101bd576111036115f9565b61110b61160f565b60443590811515928383036101bd57611122611670565b6001600160a01b038281169082168082146114405780151580611437575b156114035710156113fd575b60405193602085019360018060a01b038316926001600160601b0319809160601b16865260018060a01b0385169460601b16603487015260288652606086019486861067ffffffffffffffff8711176113e75785604052865190209485600052600260205260018060a01b03604060002054166113b85750602080965085927f491930b55f80de62603307ee9b6dae333f3c3aa4757c0873eacc4a29c540cdbf926000146113b0576104b05b61ffff60405191611208836116b8565b87835288858401526000604084015260006060840152600060808401528360a0840152600160c08401524260e08401526000610100840152600061012084015260006101408401526000610160840152601e610180840152166101a08201526103e86101c0820152426101e08201528460005260028352600e6101e060406000209260018060a01b038151166001600160601b0360a01b9081865416178555600185019060018060a01b038884015116908254161790556040810151600285015560608101516003850155608081015160048501556113156005850160a0830151151560ff8019835416911617815560c0830151151561ff00825491151560081b169061ff001916179055565b60e08101516006850155610100810151600785015561012081015160088501556101408101516009850155610160810151600a850155610180810151600b8501556101a0810151600c8501556101c0810151600d8501550151910155846000526003825260406000208660005282528360406000205560038252604060002085600052825283604060002055604051908152a4604051908152f35b6103e86111f8565b6064906a506f6f6c2065786973747360a81b60a48962461bcd60e51b8452602085820152600b60848201520152fd5b634e487b7160e01b600052604160045260246000fd5b9061114c565b60405162461bcd60e51b815260206004820152600c60248201526b5a65726f206164647265737360a01b6044820152606490fd5b50811515611140565b60405162461bcd60e51b815260206004820152601060248201526f4964656e746963616c20746f6b656e7360801b6044820152606490fd5b346101bd5760003660031901126101bd5760206040516103e88152f35b346101bd5760203660031901126101bd576001600160a01b036114b66115f9565b16600052600460205260e060406000208054906001810154906002810154600382015460ff6004840154169160066005850154940154946040519687526020870152604086015260608501521515608084015260a083015260c0820152f35b346101bd5760203660031901126101bd5761152e6115f9565b611536611a89565b5060018060a01b0316600052600460205260e0604060002060405161155a8161169c565b8154918282526001810154602083019081526002820154604084019081526003830154906060850191825260ff6004850154169260808601931515845260c0600660058701549660a089019788520154960195865260405196875251602087015251604086015251606085015251151560808401525160a08301525160c0820152f35b346101bd5760003660031901126101bd57806201518060209252f35b600435906001600160a01b03821682036101bd57565b602435906001600160a01b03821682036101bd57565b60409060031901126101bd576004359060243590565b60609060031901126101bd576001600160a01b039060043582811681036101bd579160243590811681036101bd579060443590565b6000546001600160a01b0316330361168457565b60405163118cdaa760e01b8152336004820152602490fd5b60e0810190811067ffffffffffffffff8211176113e757604052565b610200810190811067ffffffffffffffff8211176113e757604052565b67ffffffffffffffff81116113e757604052565b156116f057565b60405162461bcd60e51b815260206004820152600e60248201526d141bdbdb081b9bdd08199bdd5b9960921b6044820152606490fd5b1561172d57565b60405162461bcd60e51b815260206004820152600f60248201526e506f6f6c206e6f742061637469766560881b6044820152606490fd5b81810292918115918404141715610ef357565b8115611781570490565b634e487b7160e01b600052601260045260246000fd5b91908203918211610ef357565b156117ab57565b60405162461bcd60e51b8152602060048201526016602482015275496e73756666696369656e74206c697175696469747960501b6044820152606490fd5b91908201809211610ef357565b6040516323b872dd60e01b60208201526001600160a01b03928316602482015292909116604483015260648083019390935291815260a081019181831067ffffffffffffffff8411176113e75761184f92604052611851565b565b906000602091828151910182855af1156118ad576000513d6118a457506001600160a01b0381163b155b6118825750565b604051635274afe760e01b81526001600160a01b039091166004820152602490fd5b6001141561187b565b6040513d6000823e3d90fd5b6002600154146118ca576002600155565b604051633ee5aeb560e01b8152600490fd5b6001808211156119f857611999908083600160801b8110156119e6575b80600160401b60049210156119d9575b6401000000008110156119cc575b620100008110156119bf575b6101008110156119b3575b60108110156119a7575b10156119a0575b600302811c61194e8185611777565b01811c61195b8185611777565b01811c6119688185611777565b01811c6119758185611777565b01811c6119828185611777565b01811c61198f8185611777565b01901c8092611777565b8111900390565b811b61193f565b811c9160021b91611938565b60081c91811b9161192e565b60101c9160081b91611923565b60201c9160101b91611917565b60401c9160201b91611909565b50600160401b9050608084901c6118f9565b5090565b60405163a9059cbb60e01b60208201526001600160a01b039092166024830152604480830193909352918152608081019167ffffffffffffffff8311828410176113e75761184f92604052611851565b15611a5357565b60405162461bcd60e51b815260206004820152600e60248201526d125b9d985b1a5908185b5bdd5b9d60921b6044820152606490fd5b60405190611a968261169c565b8160c06000918281528260208201528260408201528260608201528260808201528260a08201520152565b9192611ace831515611a4c565b600b821591821580611b2d575b611ae4906117a4565b01549261271093840390848211610ef357611b0991611b0291611764565b9485611764565b92808302928304141715610ef357611b2a92611b24916117e9565b90611777565b90565b50851515611adb565b906103e8600d600b830154920154046105dc8111600014611b795750607881029080820460781490151715610ef357612710916064611b759204611764565b0490565b6101f411611b8f575b61271091611b7591611764565b605081029080820460501490151715610ef35760649004611b82565b60ff60058301541615611ccc576007546001600160a01b039081169182611be8575b505050600c01546103e7198101908111610ef357600a900490565b60405163d130f0b560e01b81529116600482015290602090829060249082905afa8091600091611c61575b5090611c21575b8080611bcd565b6004811015611c4b5780611c3657505060c890565b600114611c4457600c611c1a565b5061012c90565b634e487b7160e01b600052602160045260246000fd5b60203d8111611cc5575b601f8101601f1916820167ffffffffffffffff811183821017611cb157602091839160405281010312611cad5751906004821015611caa575038611c13565b80fd5b5080fd5b634e487b7160e01b84526041600452602484fd5b503d611c6b565b5050600090565b81158015611d46575b611d3e576127109283810290808204851490151715610ef357611b24611d0c92611d068584611777565b946117e9565b808211611d1b57505050600090565b611d259082611797565b828102928184041490151715610ef357611b2a91611777565b505050600090565b508215611cdc565b908015611ccc5761271090818302918383041483151715610ef357611b2a92611b24916117e9565b6007546000926001600160a01b0392909183168015611e1257803b15611dfb5784809160246040518094819389630eda196b60e41b988985521660048401525af1611dff575b508260075416803b15611dfb5784929183602492604051968795869485521660048401525af1611dea575050565b611df482916116d5565b611caa5750565b8480fd5b611e0b909491946116d5565b9238611dbc565b505050505056fea2646970667358221220912220373145992c54249b062d23c0076f8ae2403b76da35de676defc08f437964736f6c63430008140033",
  "linkReferences": {},
  "deployedLinkReferences": {}
}