{
  "_format": "hh-sol-artifact-1",
  "contractName": "CoreYieldMarketFactory",
  "sourceName": "contracts/core/CoreYieldMarketFactory.sol",
  "abi": [
    {
      "inputs": [],
      "stateMutability": "nonpayable",
      "type": "constructor"
    },
    {
      "inputs": [
        {
          "internalType": "address",
          "name": "owner",
          "type": "address"
        }
      ],
      "name": "OwnableInvalidOwner",
      "type": "error"
    },
    {
      "inputs": [
        {
          "internalType": "address",
          "name": "account",
          "type": "address"
        }
      ],
      "name": "OwnableUnauthorizedAccount",
      "type": "error"
    },
    {
      "anonymous": false,
      "inputs": [
        {
          "indexed": true,
          "internalType": "address",
          "name": "syToken",
          "type": "address"
        },
        {
          "indexed": true,
          "internalType": "address",
          "name": "underlying",
          "type": "address"
        },
        {
          "indexed": false,
          "internalType": "address",
          "name": "syTokenAddr",
          "type": "address"
        },
        {
          "indexed": false,
          "internalType": "address",
          "name": "ptToken",
          "type": "address"
        },
        {
          "indexed": false,
          "internalType": "address",
          "name": "ytToken",
          "type": "address"
        },
        {
          "indexed": false,
          "internalType": "uint256",
          "name": "maturity",
          "type": "uint256"
        }
      ],
      "name": "MarketCreated",
      "type": "event"
    },
    {
      "anonymous": false,
      "inputs": [
        {
          "indexed": true,
          "internalType": "address",
          "name": "previousOwner",
          "type": "address"
        },
        {
          "indexed": true,
          "internalType": "address",
          "name": "newOwner",
          "type": "address"
        }
      ],
      "name": "OwnershipTransferred",
      "type": "event"
    },
    {
      "inputs": [
        {
          "internalType": "uint256",
          "name": "",
          "type": "uint256"
        }
      ],
      "name": "allMarkets",
      "outputs": [
        {
          "internalType": "address",
          "name": "",
          "type": "address"
        }
      ],
      "stateMutability": "view",
      "type": "function"
    },
    {
      "inputs": [
        {
          "internalType": "address",
          "name": "_underlying",
          "type": "address"
        },
        {
          "internalType": "string",
          "name": "_name",
          "type": "string"
        },
        {
          "internalType": "string",
          "name": "_symbol",
          "type": "string"
        },
        {
          "internalType": "uint256",
          "name": "_maturity",
          "type": "uint256"
        },
        {
          "internalType": "uint256",
          "name": "_initialExchangeRate",
          "type": "uint256"
        }
      ],
      "name": "createMarket",
      "outputs": [
        {
          "internalType": "address",
          "name": "syToken",
          "type": "address"
        },
        {
          "internalType": "address",
          "name": "ptToken",
          "type": "address"
        },
        {
          "internalType": "address",
          "name": "ytToken",
          "type": "address"
        }
      ],
      "stateMutability": "nonpayable",
      "type": "function"
    },
    {
      "inputs": [],
      "name": "getAllMarkets",
      "outputs": [
        {
          "internalType": "address[]",
          "name": "",
          "type": "address[]"
        }
      ],
      "stateMutability": "view",
      "type": "function"
    },
    {
      "inputs": [
        {
          "internalType": "address",
          "name": "_syToken",
          "type": "address"
        }
      ],
      "name": "getMarket",
      "outputs": [
        {
          "components": [
            {
              "internalType": "address",
              "name": "syToken",
              "type": "address"
            },
            {
              "internalType": "address",
              "name": "ptToken",
              "type": "address"
            },
            {
              "internalType": "address",
              "name": "ytToken",
              "type": "address"
            },
            {
              "internalType": "address",
              "name": "underlying",
              "type": "address"
            },
            {
              "internalType": "uint256",
              "name": "maturity",
              "type": "uint256"
            },
            {
              "internalType": "bool",
              "name": "isActive",
              "type": "bool"
            }
          ],
          "internalType": "struct CoreYieldMarketFactory.Market",
          "name": "",
          "type": "tuple"
        }
      ],
      "stateMutability": "view",
      "type": "function"
    },
    {
      "inputs": [
        {
          "internalType": "address",
          "name": "_underlying",
          "type": "address"
        }
      ],
      "name": "getMarketByUnderlying",
      "outputs": [
        {
          "components": [
            {
              "internalType": "address",
              "name": "syToken",
              "type": "address"
            },
            {
              "internalType": "address",
              "name": "ptToken",
              "type": "address"
            },
            {
              "internalType": "address",
              "name": "ytToken",
              "type": "address"
            },
            {
              "internalType": "address",
              "name": "underlying",
              "type": "address"
            },
            {
              "internalType": "uint256",
              "name": "maturity",
              "type": "uint256"
            },
            {
              "internalType": "bool",
              "name": "isActive",
              "type": "bool"
            }
          ],
          "internalType": "struct CoreYieldMarketFactory.Market",
          "name": "",
          "type": "tuple"
        }
      ],
      "stateMutability": "view",
      "type": "function"
    },
    {
      "inputs": [
        {
          "internalType": "address",
          "name": "",
          "type": "address"
        }
      ],
      "name": "markets",
      "outputs": [
        {
          "internalType": "address",
          "name": "syToken",
          "type": "address"
        },
        {
          "internalType": "address",
          "name": "ptToken",
          "type": "address"
        },
        {
          "internalType": "address",
          "name": "ytToken",
          "type": "address"
        },
        {
          "internalType": "address",
          "name": "underlying",
          "type": "address"
        },
        {
          "internalType": "uint256",
          "name": "maturity",
          "type": "uint256"
        },
        {
          "internalType": "bool",
          "name": "isActive",
          "type": "bool"
        }
      ],
      "stateMutability": "view",
      "type": "function"
    },
    {
      "inputs": [],
      "name": "owner",
      "outputs": [
        {
          "internalType": "address",
          "name": "",
          "type": "address"
        }
      ],
      "stateMutability": "view",
      "type": "function"
    },
    {
      "inputs": [],
      "name": "renounceOwnership",
      "outputs": [],
      "stateMutability": "nonpayable",
      "type": "function"
    },
    {
      "inputs": [
        {
          "internalType": "address",
          "name": "_tokenOperations",
          "type": "address"
        }
      ],
      "name": "setTokenOperations",
      "outputs": [],
      "stateMutability": "nonpayable",
      "type": "function"
    },
    {
      "inputs": [],
      "name": "tokenOperations",
      "outputs": [
        {
          "internalType": "address",
          "name": "",
          "type": "address"
        }
      ],
      "stateMutability": "view",
      "type": "function"
    },
    {
      "inputs": [
        {
          "internalType": "address",
          "name": "newOwner",
          "type": "address"
        }
      ],
      "name": "transferOwnership",
      "outputs": [],
      "stateMutability": "nonpayable",
      "type": "function"
    }
  ],
  "bytecode": "0x6080806040523461007a5733156100645760008054336001600160a01b03198216811783556040519290916001600160a01b0316907f8be0079c531659141344cd1fd0a4f28419497f9722a3daafe3b4186f6b6457e09080a3615c1990816100808239f35b631e4fbdf760e01b815260006004820152602490fd5b600080fdfe608060405260043610156200001357600080fd5b6000803560e01c806342d226c914620004a857806352d84d1e146200045f578063715018a614620004015780638be2c98d14620003d65780638da5cb5b14620003ad5780638e8f294b1462000328578063ade5914714620002ef578063b0772d0b1462000221578063bcdcbbf214620001db578063d4dfadbf14620001365763f2fde38b14620000a257600080fd5b34620001335760203660031901126200013357620000bf62000bb1565b620000c962000d2f565b6001600160a01b039081169081156200011a57600054826001600160601b0360a01b821617600055167f8be0079c531659141344cd1fd0a4f28419497f9722a3daafe3b4186f6b6457e0600080a380f35b604051631e4fbdf760e01b815260048101849052602490fd5b80fd5b5034620001335760203660031901126200013357620001d79060ff600560406200015f62000bb1565b936200016a62000da8565b506001600160a01b039485168152600260205220604051936200018d8562000bf8565b808254168552806001830154166020860152806002830154166040860152600382015416606085015260048101546080850152015416151560a08201526040519182918262000ce2565b0390f35b5034620001335760203660031901126200013357620001f962000bb1565b6200020362000d2f565b60018060a01b03166001600160601b0360a01b600154161760015580f35b5034620001335780600319360112620001335760405180916003549081835260208093018092600383527fc2575a0e9e593c00f959f8c92f12db2869c3395a3b0502d05e2516446f71f85b90835b818110620002d157505050846200028891038562000c15565b60405193838594850191818652518092526040850193925b828110620002b057505050500390f35b83516001600160a01b031685528695509381019392810192600101620002a0565b82546001600160a01b0316845292860192600192830192016200026f565b5034620001335760203660031901126200013357620001d76200031b6200031562000bb1565b62000ddc565b6040519182918262000ce2565b503462000133576020366003190112620001335760c0906001600160a01b0390604090826200035662000bb1565b168152600260205220908082541691816001820154169180600283015416906003830154169060ff6005600485015494015416936040519586526020860152604085015260608401526080830152151560a0820152f35b50346200013357806003193601126200013357546040516001600160a01b039091168152602090f35b503462000133578060031936011262000133576001546040516001600160a01b039091168152602090f35b503462000133578060031936011262000133576200041e62000d2f565b600080546001600160a01b0319811682556001600160a01b03167f8be0079c531659141344cd1fd0a4f28419497f9722a3daafe3b4186f6b6457e08280a380f35b503462000133576020366003190112620001335760043590600354821015620001335760206200048f8362000c94565b905460405160039290921b1c6001600160a01b03168152f35b5034620001335760a03660031901126200013357620004c662000bb1565b60243567ffffffffffffffff811162000aae57620004e990369060040162000c38565b9160443567ffffffffffffffff811162000a83576200050d90369060040162000c38565b9242606435111562000b79576001600160a01b0383161562000b3f5760405190611bf2908183019183831067ffffffffffffffff84111762000b1e57620005798493926200058892620024c886396001600160a01b038816845260a06020850181905284019062000d81565b82810360408401528762000d81565b9060643560608201526080608435910152039082f0801562000b325760018060a01b031691604051620282a160ed1b6020820152620005e86023828751620005d78184840160208c0162000d5c565b810103600381018452018262000c15565b60405161141560f21b6020820152620006226022828851620006118184840160208d0162000d5c565b810103600281018452018262000c15565b60405191826115ba81011067ffffffffffffffff6115ba8501111762000b1e578291620006686200067f926115ba62000f0e863960606115ba8601818152019062000d81565b906115ba8401820360206115ba8601015262000d81565b60643560406115ba84010152039083f093841562000aff576040516202caa160ed1b6020820152620006c16023828451620005d7818484016020890162000d5c565b620006fd6022604051809461165560f21b6020830152620006ec815180926020868601910162000d5c565b810103600281018552018362000c15565b60405191611b2a918284019284841067ffffffffffffffff85111762000b0a57916200073f6200074e92869594620040ba873960808552608085019062000d81565b90838203602085015262000d81565b6001600160a01b0385166040830152606435606090920191909152039083f0801562000aff576001600160a01b031691833b15620001335760405163c92251c960e01b81523360048201526001600160a01b03958616602482018190529584166044820152818160648183895af1801562000aff5762000aed575b50600180546001600160a01b03168062000975575b50604051620007ed8162000bf8565b8581526005602082019188835260408101928784526060820160018060a01b03881681526080830191606435835260a08401958787528b89526002602052604089209460018060a01b03905116916001600160601b0360a01b92838754161786558886019060018060a01b0390511683825416179055600285019060018060a01b0390511682825416179055600384019160018060a01b0390511690825416179055516004820155019051151560ff80198354169116179055600354916801000000000000000083101562000961575081620008d491620001d79594930160035562000c94565b81549060031b9086821b9160018060a01b03901b1916179055837ffb33ff95ff10de527f7198af27f5eb13c5a202dd783f21ec07e27a2167ea5566608060405193838552886020860152856040860152606435606086015260018060a01b031693a3604080516001600160a01b039485168152948416602086015292169183019190915281906060820190565b634e487b7160e01b81526041600452602490fd5b843b1562000aae576040519063ab0fbc4760e01b82528660048301526024820152828160448183895af1801562000a875790839162000ad5575b505080546001600160a01b0316853b1562000aae5760405163f2fde38b60e01b9182825260048201528381602481838b5af1801562000ab25790849162000abd575b505081546001600160a01b0316873b1562000a92576040519082825260048201528381602481838c5af1801562000ab25790849162000a96575b505081546001600160a01b0316853b1562000a92576040519182526004820152828160248183895af1801562000a875790839162000a6b575b50620007de565b62000a769062000bcd565b62000a8357813862000a64565b5080fd5b6040513d85823e3d90fd5b8380fd5b62000aa19062000bcd565b62000aae57823862000a2b565b8280fd5b6040513d86823e3d90fd5b62000ac89062000bcd565b62000aae578238620009f1565b62000ae09062000bcd565b62000a83578138620009af565b62000af89062000bcd565b38620007c9565b6040513d84823e3d90fd5b634e487b7160e01b87526041600452602487fd5b634e487b7160e01b85526041600452602485fd5b50604051903d90823e3d90fd5b60405162461bcd60e51b8152602060048201526012602482015271496e76616c696420756e6465726c79696e6760701b6044820152606490fd5b60405162461bcd60e51b815260206004820152601060248201526f496e76616c6964206d6174757269747960801b6044820152606490fd5b600435906001600160a01b038216820362000bc857565b600080fd5b67ffffffffffffffff811162000be257604052565b634e487b7160e01b600052604160045260246000fd5b60c0810190811067ffffffffffffffff82111762000be257604052565b90601f8019910116810190811067ffffffffffffffff82111762000be257604052565b81601f8201121562000bc85780359067ffffffffffffffff821162000be2576040519262000c71601f8401601f19166020018562000c15565b8284526020838301011162000bc857816000926020809301838601378301015290565b60035481101562000ccc5760036000527fc2575a0e9e593c00f959f8c92f12db2869c3395a3b0502d05e2516446f71f85b0190600090565b634e487b7160e01b600052603260045260246000fd5b91909160a08060c0830194600180831b0380825116855280602083015116602086015280604083015116604086015260608201511660608501526080810151608085015201511515910152565b6000546001600160a01b0316330362000d4457565b60405163118cdaa760e01b8152336004820152602490fd5b60005b83811062000d705750506000910152565b818101518382015260200162000d5f565b9060209162000d9c8151809281855285808601910162000d5c565b601f01601f1916010190565b6040519062000db78262000bf8565b8160a06000918281528260208201528260408201528260608201528260808201520152565b62000de662000da8565b50600060038054915b82811062000e33575050505060405162000e098162000bf8565b6000815260006020820152600060408201526000606082015260006080820152600060a082015290565b62000e3e8162000c94565b9060018060a01b039182915490851b1c16600052600260209181835260408186826000200154168289161462000e9b5750505050600019811462000e855760010162000def565b634e487b7160e01b600052601160045260246000fd5b908093975060ff965062000eb3600596939562000c94565b905490841b1c1660005283875282816000209482519862000ed48a62000bf8565b828754168a5282600188015416908a0152850154169087015282015416606085015260048101546080850152015416151560a08201529056fe604060a08152346200040a57620015ba803803806200001e816200040f565b9283398101906060818303126200040a5780516001600160401b0392908381116200040a57816200005191840162000435565b92602091828401518281116200040a5786916200007091860162000435565b9301519380518281116200030a5760038054916001938484811c94168015620003ff575b87851014620003e9578190601f9485811162000393575b5087908583116001146200032c5760009262000320575b505060001982841b1c191690841b1781555b8551918483116200030a5760049687548581811c91168015620002ff575b88821014620002ea578281116200029f575b5086918411600114620002345793839491849260009562000228575b50501b92600019911b1c19161783555b33156200021157600580546001600160a01b0319808216339081179093559591906001600160a01b03167f8be0079c531659141344cd1fd0a4f28419497f9722a3daafe3b4186f6b6457e0600080a3608052845192608084019184831090831117620001fc575090606491855260328352820152601e838201526060339101526032600a556064600b55601e600c553390600d541617600d55516111129081620004a88239608051818181610286015281816103590152818161084e01528181610bb601526110a10152f35b604190634e487b7160e01b6000525260246000fd5b8451631e4fbdf760e01b8152600081850152602490fd5b01519350388062000120565b9190601f198416928860005284886000209460005b8a898383106200028757505050106200026c575b50505050811b01835562000130565b01519060f884600019921b161c19169055388080806200025d565b86860151895590970196948501948893500162000249565b88600052876000208380870160051c8201928a8810620002e0575b0160051c019086905b828110620002d357505062000104565b60008155018690620002c3565b92508192620002ba565b602289634e487b7160e01b6000525260246000fd5b90607f1690620000f2565b634e487b7160e01b600052604160045260246000fd5b015190503880620000c2565b90869350601f1983169185600052896000209260005b8b8282106200037c575050841162000363575b505050811b018155620000d4565b015160001983861b60f8161c1916905538808062000355565b8385015186558a9790950194938401930162000342565b90915083600052876000208580850160051c8201928a8610620003df575b918891869594930160051c01915b828110620003cf575050620000ab565b60008155859450889101620003bf565b92508192620003b1565b634e487b7160e01b600052602260045260246000fd5b93607f169362000094565b600080fd5b6040519190601f01601f191682016001600160401b038111838210176200030a57604052565b919080601f840112156200040a5782516001600160401b0381116200030a576020906200046b601f8201601f191683016200040f565b928184528282870101116200040a5760005b8181106200049357508260009394955001015290565b85810183015184820184015282016200047d56fe608060408181526004918236101561001657600080fd5b600092833560e01c91826306fdde0314610d1f57508163095ea7b314610c755781630cc0143614610c5857816318160ddd14610c395781631b7466b414610c1a5781631e5eb1d014610bd9578163204f83f914610b9e57816323b872dd14610aaa578163277d6892146105e2578163313ce56714610a8e57816340c10f191461099c57816362dab6261461087457816370a0823114610965578163715018a61461090857816379f87e53146108ac5781637abdd2d1146108745781637f2b6a0d146108365781638da5cb5b1461080d57816395ccea671461074157816395d89b411461063e5781639a5826231461061a5781639f477d74146105e2578163a8ebe88714610598578163a9059cbb14610567578163db006a751461033e578163dd62ed3e146102f5578163dfff8568146102cc578163e1f1c4a7146102af578163ecb7e31a1461022f578163f2fde38b1461019b575063f35dad401461017a57600080fd5b346101975781600319360112610197576020906007549051908152f35b5080fd5b90503461022b57602036600319011261022b576101b6610e5d565b906101bf610e8e565b6001600160a01b03918216928315610215575050600554826bffffffffffffffffffffffff60a01b821617600555167f8be0079c531659141344cd1fd0a4f28419497f9722a3daafe3b4186f6b6457e08380a380f35b51631e4fbdf760e01b8152908101849052602490fd5b8280fd5b50503461019757602036600319011261019757608091906001600160a01b03610256610e5d565b168252600860205280808320549260096020522054906102768284611092565b91815193845260208401528201527f00000000000000000000000000000000000000000000000000000000000000004210156060820152f35b505034610197578160031936011261019757602090516127108152f35b839034610197576020366003190112610197576102f2906102eb610e8e565b3533610ff3565b80f35b50503461019757806003193601126101975780602092610313610e5d565b61031b610e78565b6001600160a01b0391821683526001865283832091168252845220549051908152f35b9190503461022b5760209283600319360112610564578235927f0000000000000000000000000000000000000000000000000000000000000000421061052c5783156104e9573382528185528383832054106104a6573382526008855283838320541061046a57600b549081850291858304036104575750612710839104916103c78386611092565b506103d28533610ff3565b338152600886528181206103e7868254611092565b90556103f585600654611092565b600655338152600986522061040b848254610fd0565b905561041983600754610fd0565b6007558151908382528385830152828201527f8a59113ea391ad0fe58cb2b72ed6066d73455e2254e0531b1a6cb25c8ff887a860603392a251908152f35b634e487b7160e01b835260119052602482fd5b825162461bcd60e51b81529081018590526016602482015275125b9cdd59999a58da595b9d081c1c9a5b98da5c185b60521b6044820152606490fd5b825162461bcd60e51b8152908101859052601760248201527f496e73756666696369656e742050542062616c616e63650000000000000000006044820152606490fd5b825162461bcd60e51b8152908101859052601760248201527f416d6f756e74206d75737420626520706f7369746976650000000000000000006044820152606490fd5b825162461bcd60e51b8152908101859052601260248201527113585c9ad95d081b9bdd081b585d1d5c995960721b6044820152606490fd5b80fd5b505034610197578060031936011261019757602090610591610587610e5d565b6024359033610ef2565b5160018152f35b505034610197576020366003190112610197576020916105db906001600160a01b036105c2610e5d565b1681526008845282808220549160098652205490611092565b9051908152f35b5050346101975760203660031901126101975760209181906001600160a01b0361060a610e5d565b1681526009845220549051908152f35b5050346101975781600319360112610197576020906105db60065460075490611092565b838334610197578160031936011261019757805191809380549160019083821c92828516948515610737575b60209586861081146107245785895290811561070057506001146106a8575b6106a4878761069a828c0383610eba565b5191829182610e14565b0390f35b81529295507f8a35acfbc15ff81a39ae7d344fd709f28e8600b4aa8c65c6b64bfe7fe36bd19b5b8284106106ed57505050826106a49461069a92820101948680610689565b80548685018801529286019281016106cf565b60ff19168887015250505050151560051b830101925061069a826106a48680610689565b634e487b7160e01b845260228352602484fd5b93607f169361066a565b9190503461022b578060031936011261022b5761075c610e5d565b90610765610e8e565b60018060a01b0380921691600554168151602081019163a9059cbb60e01b835260248201526024356044820152604481526080810181811067ffffffffffffffff8211176107fa5783525160209186919082865af1156107f15783513d6107e85750813b155b6107d3578380f35b51635274afe760e01b81529182015260249150fd5b600114156107cb565b513d84823e3d90fd5b634e487b7160e01b875260418652602487fd5b50503461019757816003193601126101975760055490516001600160a01b039091168152602090f35b505034610197578160031936011261019757602090517f00000000000000000000000000000000000000000000000000000000000000004210158152f35b5050346101975760203660031901126101975760209181906001600160a01b0361089c610e5d565b1681526008845220549051908152f35b839034610197576080366003190112610197576064356001600160a01b038116919082900361022b576108dd610e8e565b35600a55602435600b55604435600c556bffffffffffffffffffffffff60a01b600d541617600d5580f35b8334610564578060031936011261056457610921610e8e565b600580546001600160a01b0319811690915581906001600160a01b03167f8be0079c531659141344cd1fd0a4f28419497f9722a3daafe3b4186f6b6457e08280a380f35b5050346101975760203660031901126101975760209181906001600160a01b0361098d610e5d565b16815280845220549051908152f35b9190503461022b578060031936011261022b576109b7610e5d565b602435906109c3610e8e565b6001600160a01b0316928315610a7757509081610a037f0cac4523b4c70285817765f118645b9680e74fbb10de7d8ccdc34f757704160893600254610fd0565b6002558385528460205281852081815401905583857fddf252ad1be2c89b69c2b068fc378daa952ba7f163c4a11628f55a4df523b3ef60208551858152a38385526008602052818520610a57828254610fd0565b9055610a6581600654610fd0565b6006558151908152426020820152a280f35b825163ec442f0560e01b8152908101859052602490fd5b5050346101975781600319360112610197576020905160128152f35b9050823461056457606036600319011261056457610ac6610e5d565b610ace610e78565b916044359360018060a01b038316808352600160205286832033845260205286832054916000198310610b0a575b602088610591898989610ef2565b868310610b72578115610b5b573315610b445750825260016020908152868320338452815291869020908590039055829061059187610afc565b8751634a1406b160e11b8152908101849052602490fd5b875163e602df0560e01b8152908101849052602490fd5b8751637dc7a0d960e11b8152339181019182526020820193909352604081018790528291506060010390fd5b505034610197578160031936011261019757602090517f00000000000000000000000000000000000000000000000000000000000000008152f35b505034610197578160031936011261019757608090600a5490600b5490600c549060018060a01b03600d541692815194855260208501528301526060820152f35b5050346101975781600319360112610197576020906006549051908152f35b5050346101975781600319360112610197576020906002549051908152f35b5050346101975781600319360112610197576020906105db61109f565b90503461022b578160031936011261022b57610c8f610e5d565b602435903315610d08576001600160a01b0316918215610cf157508083602095338152600187528181208582528752205582519081527f8c5be1e5ebec7d5bd14f71427d1e84f3dd0314c0f7b2291e5b200ac8c7c3b925843392a35160018152f35b8351634a1406b160e11b8152908101859052602490fd5b835163e602df0560e01b8152808401869052602490fd5b92915034610e105783600319360112610e1057600354600181811c9186908281168015610e06575b6020958686108214610df35750848852908115610dd15750600114610d78575b6106a4868661069a828b0383610eba565b929550600383527fc2575a0e9e593c00f959f8c92f12db2869c3395a3b0502d05e2516446f71f85b5b828410610dbe57505050826106a49461069a928201019438610d67565b8054868501880152928601928101610da1565b60ff191687860152505050151560051b830101925061069a826106a438610d67565b634e487b7160e01b845260229052602483fd5b93607f1693610d47565b8380fd5b6020808252825181830181905290939260005b828110610e4957505060409293506000838284010152601f8019910116010190565b818101860151848201604001528501610e27565b600435906001600160a01b0382168203610e7357565b600080fd5b602435906001600160a01b0382168203610e7357565b6005546001600160a01b03163303610ea257565b60405163118cdaa760e01b8152336004820152602490fd5b90601f8019910116810190811067ffffffffffffffff821117610edc57604052565b634e487b7160e01b600052604160045260246000fd5b916001600160a01b03808416928315610fb75716928315610f9e5760009083825281602052604082205490838210610f6c575091604082827fddf252ad1be2c89b69c2b068fc378daa952ba7f163c4a11628f55a4df523b3ef958760209652828652038282205586815220818154019055604051908152a3565b60405163391434e360e21b81526001600160a01b03919091166004820152602481019190915260448101839052606490fd5b60405163ec442f0560e01b815260006004820152602490fd5b604051634b637e8f60e11b815260006004820152602490fd5b91908201809211610fdd57565b634e487b7160e01b600052601160045260246000fd5b906001600160a01b038216908115610fb757600092828452836020526040842054908282106110605750817fddf252ad1be2c89b69c2b068fc378daa952ba7f163c4a11628f55a4df523b3ef926020928587528684520360408620558060025403600255604051908152a3565b60405163391434e360e21b81526001600160a01b03919091166004820152602481019190915260448101829052606490fd5b91908203918211610fdd57565b7f0000000000000000000000000000000000000000000000000000000000000000804210156110d6576110d3904290611092565b90565b5060009056fea26469706673582212209d5f7226da9d361f3659f175a9e569dc44e87b19ca9880ada3e3ec7112eb218d64736f6c63430008140033604060c0815234620004565762001bf2803803806200001e816200045b565b928339810160a082820312620004565781516001600160a01b03929091908383168303620004565760208181015190926001600160401b039290918381116200045657826200006f91830162000481565b91878201519084821162000456576200008a91830162000481565b9460806060830151920151928051858111620003565760038054916001938484811c941680156200044b575b8a85101462000435578190601f94858111620003df575b508a9085831160011462000378576000926200036c575b505060001982841b1c191690841b1781555b88519187831162000356576004998a548581811c911680156200034b575b8b8210146200033657828111620002eb575b5089918411600114620002805793839491849260009562000274575b50501b92600019911b1c19161786555b33156200025d57600580546001600160a01b03198082163390811790935598167f8be0079c531659141344cd1fd0a4f28419497f9722a3daafe3b4186f6b6457e0600080a360805260a05260065542600b556101f4600c558451926080840191848310908311176200024857509060329185528183528201526064838201526060339101526032600d556032600e556064600f5533906010541617601055516116fe9081620004f4823960805181818161031801528181610446015281816105c101528181610c980152611599015260a05181818161029b0152818161055001528181610e4401528181611546015261168d0152f35b604190634e487b7160e01b6000525260246000fd5b8751631e4fbdf760e01b8152600081880152602490fd5b01519350388062000142565b9190601f198416928b600052848b6000209460005b8d89838310620002d35750505010620002b8575b50505050811b01865562000152565b01519060f884600019921b161c1916905538808080620002a9565b86860151895590970196948501948893500162000295565b8b6000528a6000208380870160051c8201928d88106200032c575b0160051c019086905b8281106200031f57505062000126565b600081550186906200030f565b9250819262000306565b60228c634e487b7160e01b6000525260246000fd5b90607f169062000114565b634e487b7160e01b600052604160045260246000fd5b015190503880620000e4565b60008581528c8120889550929190601f198516908e5b828210620003c75750508411620003ae575b505050811b018155620000f6565b015160001983861b60f8161c19169055388080620003a0565b8385015186558a979095019493840193018e6200038e565b909150836000528a6000208580850160051c8201928d86106200042b575b918891869594930160051c01915b8281106200041b575050620000cd565b600081558594508891016200040b565b92508192620003fd565b634e487b7160e01b600052602260045260246000fd5b93607f1693620000b6565b600080fd5b6040519190601f01601f191682016001600160401b038111838210176200035657604052565b919080601f84011215620004565782516001600160401b0381116200035657602090620004b7601f8201601f191683016200045b565b92818452828287010111620004565760005b818110620004df57508260009394955001015290565b8581018301518482018401528201620004c956fe6040608081526004908136101561001557600080fd5b600091823560e01c8063059d9c75146110e957806306fdde0314610ff5578063095ea7b314610f4c5780630cc0143614610f285780631411dab014610ec757806318160ddd14610ea85780631e5eb1d014610e67578063204f83f914610e2c57806323b872dd14610d39578063313ce56714610d1d5780633ba0b9a9146103f857806340c10f1914610cc75780634220301514610cf457806343785dc914610cc75780636999ac93146108205780636f307dc314610c8357806370a0823114610c4c578063715018a614610bef57806379f87e5314610b985780638afbc1ed146109a95780638da5cb5b1461098057806395ccea671461094357806395d89b411461083f578063962ca49614610820578063a9059cbb146107ef578063c45a0155146107c6578063c4663add1461025c578063c8f33c91146107a7578063c92251c9146106f7578063dd62ed3e146106a9578063de0e9a3e14610532578063dfff856814610511578063e018b0ef146104e8578063e1f1c4a7146104cb578063e2c6743914610417578063e6aa216c146103f8578063ea598cb01461027f578063ee6c3bf21461025c5763f2fde38b146101ce57600080fd5b34610258576020366003190112610258576101e761114b565b906101f0611177565b6001600160a01b03918216928315610242575050600554826001600160601b0360a01b821617600555167f8be0079c531659141344cd1fd0a4f28419497f9722a3daafe3b4186f6b6457e0600080a380f35b51631e4fbdf760e01b8152908101849052602490fd5b8280fd5b50503461027b578160031936011261027b57602090600a549051908152f35b5080fd5b5082346103f55760203660031901126103f557508035916102c17f000000000000000000000000000000000000000000000000000000000000000042106112f0565b6102cc83151561132d565b6127106102db600d5485611379565b046102e6818561138c565b82516323b872dd60e01b6020820152336024820152306044820152606480820196909652948552926001600160a01b037f000000000000000000000000000000000000000000000000000000000000000081169060a0870187811067ffffffffffffffff8211176103e0576020976103609187528361143a565b61036a8633611399565b83610386575b50505050670de0b6b3a764000060065551908152f35b61039691849160105416906113f7565b8251918252828583015282820152630777261760e41b60608201527fdb23cba216bfaed89070d2734596f2ee2a163099cfc4f5ef32036debc979222660803392a283808080610370565b604184634e487b7160e01b6000525260246000fd5b80fd5b50503461027b578160031936011261027b576020906006549051908152f35b5091903461027b578160031936011261027b5780516370a0823160e01b815230938101939093526020836024817f00000000000000000000000000000000000000000000000000000000000000006001600160a01b03165afa9182156104c05791610487575b6020925051908152f35b90506020823d82116104b8575b816104a1602093836111cd565b810103126104b357602091519061047d565b600080fd5b3d9150610494565b9051903d90823e3d90fd5b50503461027b578160031936011261027b57602090516127108152f35b50503461027b578160031936011261027b5760085490516001600160a01b039091168152602090f35b83823461027b57602036600319011261027b5761052f9035336114a2565b80f35b503461025857602036600319011261025857819281359283916105767f000000000000000000000000000000000000000000000000000000000000000042106112f0565b61058183151561132d565b3381528060205220541061066657506020916127106105a2600e5484611379565b046105ad818461138c565b6105b784336114a2565b6001600160a01b037f00000000000000000000000000000000000000000000000000000000000000008116916105ee9033846113f7565b82610609575b505050670de0b6b3a764000060065551908152f35b61061991839160105416906113f7565b81519081528184820152600682820152650756e777261760d41b60608201527fdb23cba216bfaed89070d2734596f2ee2a163099cfc4f5ef32036debc979222660803392a23880806105f4565b606490602084519162461bcd60e51b8352820152601760248201527f496e73756666696369656e742053592062616c616e63650000000000000000006044820152fd5b50503461027b578060031936011261027b576020916106c661114b565b826106cf611161565b6001600160a01b03928316845260018652922091166000908152908352819020549051908152f35b5082903461027b57606036600319011261027b5761071361114b565b61071b611161565b6001600160a01b03604435818116949193908590036104b35761073c611177565b600754918483166107765750908392916001600160601b0360a01b9485911691161760075516816008541617600855600954161760095580f35b606490602089519162461bcd60e51b8352820152600b60248201526a105b1c9958591e481cd95d60aa1b6044820152fd5b50503461027b578160031936011261027b57602090600b549051908152f35b50503461027b578160031936011261027b5760075490516001600160a01b039091168152602090f35b50503461027b578060031936011261027b5760209061081961080f61114b565b60243590336111ef565b5160018152f35b50503461027b578160031936011261027b57602090600c549051908152f35b5091903461027b578160031936011261027b57805191809380549160019083821c92828516948515610939575b60209586861081146109265785895290811561090257506001146108aa575b6108a6878761089c828c03836111cd565b5191829182611102565b0390f35b81529295507f8a35acfbc15ff81a39ae7d344fd709f28e8600b4aa8c65c6b64bfe7fe36bd19b5b8284106108ef57505050826108a69461089c9282010194388061088b565b80548685018801529286019281016108d1565b60ff19168887015250505050151560051b830101925061089c826108a6388061088b565b634e487b7160e01b845260228352602484fd5b93607f169361086c565b50503461027b573660031901126103f55761052f61095f61114b565b610967611177565b600554602435916001600160a01b0391821691166113f7565b50503461027b578160031936011261027b5760055490516001600160a01b039091168152602090f35b509034610258576060366003190112610258576109c461114b565b60075460243593604435936001600160a01b03939290919084163303610b5e57848603610b1c576109f586846114a2565b836008541690813b15610b185782516340c10f1960e01b8082526001600160a01b038616838301908152602081018a905290938a9183919082908490829060400103925af18015610b0e57610af9575b50908791856009541691823b15610af55784519081526001600160a01b0386169181019182526020820188905291839183919082908490829060400103925af18015610aeb57610acd575b5050907f7c9b5aa7156a03ebc0670cad3026b75463ae54aa1bb1817b0bb803b093e0a30a938260609493519680885260208801528601521692a280f35b610ada90949392946111a3565b610ae75790918538610a90565b8580fd5b83513d84823e3d90fd5b8380fd5b610b0690989192986111a3565b969038610a45565b84513d8b823e3d90fd5b8780fd5b6020606492519162461bcd60e51b8352820152601f60248201527f505420616e6420595420616d6f756e7473206d75737420626520657175616c006044820152fd5b6020606492519162461bcd60e51b8352820152601560248201527413db9b1e48199858dd1bdc9e4818d85b8818d85b1b605a1b6044820152fd5b83823461027b57608036600319011261027b576064356001600160a01b038116919082900361025857610bc9611177565b35600d55602435600e55604435600f556001600160601b0360a01b601054161760105580f35b83346103f557806003193601126103f557610c08611177565b600580546001600160a01b0319811690915581906001600160a01b03167f8be0079c531659141344cd1fd0a4f28419497f9722a3daafe3b4186f6b6457e08280a380f35b50503461027b57602036600319011261027b5760209181906001600160a01b03610c7461114b565b16815280845220549051908152f35b50503461027b578160031936011261027b57517f00000000000000000000000000000000000000000000000000000000000000006001600160a01b03168152602090f35b50503461027b573660031901126103f55761052f610ce361114b565b610ceb611177565b60243590611399565b50503461027b578160031936011261027b5760095490516001600160a01b039091168152602090f35b50503461027b578160031936011261027b576020905160128152f35b5082346103f55760603660031901126103f557610d5461114b565b610d5c611161565b916044359360018060a01b038316808352600160205286832033845260205286832054916000198310610d98575b6020886108198989896111ef565b868310610e00578115610de9573315610dd25750825260016020908152868320338452815291869020908590039055829061081987610d8a565b8751634a1406b160e11b8152908101849052602490fd5b875163e602df0560e01b8152908101849052602490fd5b8751637dc7a0d960e11b8152339181019182526020820193909352604081018790528291506060010390fd5b50503461027b578160031936011261027b57602090517f00000000000000000000000000000000000000000000000000000000000000008152f35b50503461027b578160031936011261027b57608090600d5490600e5490600f549060018060a01b036010541692815194855260208501528301526060820152f35b50503461027b578160031936011261027b576020906002549051908152f35b503461025857602036600319011261025857803591610ee4611177565b6107d08311610ef5575050600c5580f35b906020606492519162461bcd60e51b8352820152600d60248201526c0a4c2e8ca40e8dede40d0d2ced609b1b6044820152fd5b50503461027b578160031936011261027b57602090610f4561168b565b9051908152f35b5034610258578160031936011261025857610f6561114b565b602435903315610fde576001600160a01b0316918215610fc757508083602095338152600187528181208582528752205582519081527f8c5be1e5ebec7d5bd14f71427d1e84f3dd0314c0f7b2291e5b200ac8c7c3b925843392a35160018152f35b8351634a1406b160e11b8152908101859052602490fd5b835163e602df0560e01b8152808401869052602490fd5b509034610258578260031936011261025857805191836003549060019082821c9282811680156110df575b60209586861082146110cc57508488529081156110aa5750600114611051575b6108a6868661089c828b03836111cd565b929550600383527fc2575a0e9e593c00f959f8c92f12db2869c3395a3b0502d05e2516446f71f85b5b82841061109757505050826108a69461089c928201019438611040565b805486850188015292860192810161107a565b60ff191687860152505050151560051b830101925061089c826108a638611040565b634e487b7160e01b845260229052602483fd5b93607f1693611020565b83346103f557806003193601126103f55761052f611541565b6020808252825181830181905290939260005b82811061113757505060409293506000838284010152601f8019910116010190565b818101860151848201604001528501611115565b600435906001600160a01b03821682036104b357565b602435906001600160a01b03821682036104b357565b6005546001600160a01b0316330361118b57565b60405163118cdaa760e01b8152336004820152602490fd5b67ffffffffffffffff81116111b757604052565b634e487b7160e01b600052604160045260246000fd5b90601f8019910116810190811067ffffffffffffffff8211176111b757604052565b916001600160a01b038084169283156112b4571692831561129b5760009083825281602052604082205490838210611269575091604082827fddf252ad1be2c89b69c2b068fc378daa952ba7f163c4a11628f55a4df523b3ef958760209652828652038282205586815220818154019055604051908152a3565b60405163391434e360e21b81526001600160a01b03919091166004820152602481019190915260448101839052606490fd5b60405163ec442f0560e01b815260006004820152602490fd5b604051634b637e8f60e11b815260006004820152602490fd5b919082018092116112da57565b634e487b7160e01b600052601160045260246000fd5b156112f757565b60405162461bcd60e51b815260206004820152600e60248201526d13585c9ad95d081b585d1d5c995960921b6044820152606490fd5b1561133457565b60405162461bcd60e51b815260206004820152601760248201527f416d6f756e74206d75737420626520706f7369746976650000000000000000006044820152606490fd5b818102929181159184041417156112da57565b919082039182116112da57565b6001600160a01b031690811561129b577fddf252ad1be2c89b69c2b068fc378daa952ba7f163c4a11628f55a4df523b3ef6020826113db6000946002546112cd565b60025584845283825260408420818154019055604051908152a3565b60405163a9059cbb60e01b60208201526001600160a01b03929092166024830152604480830193909352918152611438916114336064836111cd565b61143a565b565b906000602091828151910182855af115611496576000513d61148d57506001600160a01b0381163b155b61146b5750565b604051635274afe760e01b81526001600160a01b039091166004820152602490fd5b60011415611464565b6040513d6000823e3d90fd5b906001600160a01b0382169081156112b4576000928284528360205260408420549082821061150f5750817fddf252ad1be2c89b69c2b068fc378daa952ba7f163c4a11628f55a4df523b3ef926020928587528684520360408620558060025403600255604051908152a3565b60405163391434e360e21b81526001600160a01b03919091166004820152602481019190915260448101829052606490fd5b61156c7f000000000000000000000000000000000000000000000000000000000000000042106112f0565b611578600b544261138c565b8015611688576040516370a0823160e01b81523060048201526020816024817f00000000000000000000000000000000000000000000000000000000000000006001600160a01b03165afa90811561149657600091611653575b506301e13380916127106115ec6115f293600c5490611379565b04611379565b04806115fb5750565b60607fd3bca34d88bc8c8d0d3304ca482da710a7f673bcd8e764fdae6f4f2b66bb315d91670de0b6b3a76400008060065561163882600a546112cd565b600a5542600b556040519182526020820152426040820152a1565b906020823d8211611680575b8161166c602093836111cd565b810103126103f55750516301e133806115d2565b3d915061165f565b50565b7f0000000000000000000000000000000000000000000000000000000000000000804210156116c2576116bf90429061138c565b90565b5060009056fea264697066735822122040d367396fbf10cbf39899dc0a9e286f973e6f8a0c4b90540902f7f6b0f89e2164736f6c63430008140033604060c08152346200042f5762001b2a803803806200001e8162000434565b92833981016080828203126200042f5781516001600160401b0391908281116200042f5781620000509185016200045a565b9160209182850151908282116200042f576200006e9186016200045a565b848601516001600160a01b039591949186821682036200042f57606001519180518481116200032f5760038054916001938484811c9416801562000424575b898510146200040e578190601f94858111620003b8575b508990858311600114620003515760009262000345575b505060001982841b1c191690841b1781555b8751918683116200032f5760049889548581811c9116801562000324575b8a8210146200030f57828111620002c4575b508891841160011462000259579383949184926000956200024d575b50501b92600019911b1c19161785555b33156200023657600580546001600160a01b03198082163390811790935597167f8be0079c531659141344cd1fd0a4f28419497f9722a3daafe3b4186f6b6457e0600080a360805260a052426009556101f4600a55845192608084019184831090831117620002215750906032918552606483528201526032838201526060339101526064600e556032600f556032601055339060115416176011555161165d9081620004cd82396080518181816108af0152610b09015260a051818181610a2a01528181610e4e0152818161132701526115ef0152f35b604190634e487b7160e01b6000525260246000fd5b8651631e4fbdf760e01b8152600081870152602490fd5b01519350388062000139565b9190601f198416928a600052848a6000209460005b8c89838310620002ac575050501062000291575b50505050811b01855562000149565b01519060f884600019921b161c191690553880808062000282565b8686015189559097019694850194889350016200026e565b8a600052896000208380870160051c8201928c881062000305575b0160051c019086905b828110620002f85750506200011d565b60008155018690620002e8565b92508192620002df565b60228b634e487b7160e01b6000525260246000fd5b90607f16906200010b565b634e487b7160e01b600052604160045260246000fd5b015190503880620000db565b90869350601f19831691856000528b6000209260005b8d828210620003a1575050841162000388575b505050811b018155620000ed565b015160001983861b60f8161c191690553880806200037a565b8385015186558a9790950194938401930162000367565b90915083600052896000208580850160051c8201928c861062000404575b918891869594930160051c01915b828110620003f4575050620000c4565b60008155859450889101620003e4565b92508192620003d6565b634e487b7160e01b600052602260045260246000fd5b93607f1693620000ad565b600080fd5b6040519190601f01601f191682016001600160401b038111838210176200032f57604052565b919080601f840112156200042f5782516001600160401b0381116200032f5760209062000490601f8201601f1916830162000434565b928184528282870101116200042f5760005b818110620004b857508260009394955001015290565b8581018301518482018401528201620004a256fe6080604081815260048036101561001557600080fd5b600092833560e01c90816302b56ba3146110dd5750806306fdde0314610fe9578063084fa74e14610fc7578063095ea7b314610f1e5780630cc0143614610f015780631411dab014610ed157806318160ddd14610eb25780631e5eb1d014610e71578063204f83f914610e3657806323b872dd14610d43578063287b448d14610d1a578063313ce56714610cfe5780633660106e14610cb5578063406cf22914610a1357806340c10f1914610952578063416a1c481461090757806341ed2c12146108de5780636999ac93146105eb5780636f307dc31461089a57806370a0823114610863578063715018a61461080657806379f87e53146107af5780638107368b146107775780638da5cb5b1461074e57806395ccea671461070e57806395d89b411461060a578063962ca496146105eb578063a9059cbb146105ba578063ab0fbc4714610520578063c8f33c9114610501578063ca61dab2146104c9578063d4b5966814610491578063d7f91f31146103d1578063dd62ed3e14610388578063dfff8568146102ca578063e1f1c4a7146102ad578063ec797fc214610280578063ee6c3bf21461025d5763f2fde38b146101d057600080fd5b34610259576020366003190112610259576101e9611142565b906101f2611173565b6001600160a01b03918216928315610243575050600554826001600160601b0360a01b821617600555167f8be0079c531659141344cd1fd0a4f28419497f9722a3daafe3b4186f6b6457e08380a380f35b51631e4fbdf760e01b8152908101849052602490fd5b8280fd5b50503461027c578160031936011261027c576020906008549051908152f35b5080fd5b50503461027c57602036600319011261027c576020906102a66102a1611142565b611589565b9051908152f35b50503461027c578160031936011261027c57602090516127108152f35b5091903461027c57602036600319011261027c578235906102e9611173565b33156103725733835282602052808320549382851061034757508183943385528460205203818420558160025403600255519081527fddf252ad1be2c89b69c2b068fc378daa952ba7f163c4a11628f55a4df523b3ef60203392a380f35b905163391434e360e21b81523391810191825260208201859052604082018390529081906060010390fd5b51634b637e8f60e11b8152808401839052602490fd5b50503461027c578060031936011261027c57806020926103a6611142565b6103ae61115d565b6001600160a01b0391821683526001865283832091168252845220549051908152f35b50823461048e576020908160031936011261048e576103ee611142565b845163763cbfe160e11b81526001600160a01b03909116938101849052938285602481305afa938415610483578294610453575b608095508252600b835280822054600c8452818084205493600d865220549382519586528501528301526060820152f35b93508285813d831161047c575b61046a818361119f565b8101031261027c576080945193610422565b503d610460565b5051903d90823e3d90fd5b80fd5b50503461027c57602036600319011261027c5760209181906001600160a01b036104b9611142565b168152600d845220549051908152f35b50503461027c57602036600319011261027c5760209181906001600160a01b036104f1611142565b168152600b845220549051908152f35b50503461027c578160031936011261027c576020906009549051908152f35b5082903461027c578260031936011261027c5761053b611142565b61054361115d565b9061054c611173565b6006546001600160a01b03939091908483166105895750839495506001600160601b0360a01b948591169116176006551690600754161760075580f35b606490602088519162461bcd60e51b8352820152600b60248201526a105b1c9958591e481cd95d60aa1b6044820152fd5b50503461027c578060031936011261027c576020906105e46105da611142565b60243590336111d7565b5160018152f35b50503461027c578160031936011261027c57602090600a549051908152f35b5091903461027c578160031936011261027c57805191809380549160019083821c92828516948515610704575b60209586861081146106f1578589529081156106cd5750600114610675575b6106718787610667828c038361119f565b51918291826110f9565b0390f35b81529295507f8a35acfbc15ff81a39ae7d344fd709f28e8600b4aa8c65c6b64bfe7fe36bd19b5b8284106106ba57505050826106719461066792820101943880610656565b805486850188015292860192810161069c565b60ff19168887015250505050151560051b8301019250610667826106713880610656565b634e487b7160e01b845260228352602484fd5b93607f1693610637565b50503461027c5736600319011261048e5761074b61072a611142565b610732611173565b600554602435916001600160a01b039182169116611456565b80f35b50503461027c578160031936011261027c5760055490516001600160a01b039091168152602090f35b50503461027c57602036600319011261027c5760209181906001600160a01b0361079f611142565b168152600c845220549051908152f35b83823461027c57608036600319011261027c576064356001600160a01b0381169190829003610259576107e0611173565b35600e55602435600f556044356010556001600160601b0360a01b601154161760115580f35b833461048e578060031936011261048e5761081f611173565b600580546001600160a01b0319811690915581906001600160a01b03167f8be0079c531659141344cd1fd0a4f28419497f9722a3daafe3b4186f6b6457e08280a380f35b50503461027c57602036600319011261027c5760209181906001600160a01b0361088b611142565b16815280845220549051908152f35b50503461027c578160031936011261027c57517f00000000000000000000000000000000000000000000000000000000000000006001600160a01b03168152602090f35b50503461027c578160031936011261027c5760075490516001600160a01b039091168152602090f35b50503461027c578060031936011261027c57610921611142565b906024359161092e611173565b61093c6107d084111561154d565b6001600160a01b03168352600d60205282205580f35b503461025957816003193601126102595761096b611142565b60243590610977611173565b6001600160a01b03169182156109fc5750837fddf252ad1be2c89b69c2b068fc378daa952ba7f163c4a11628f55a4df523b3ef6020836109ba86956002546112b5565b6002558484528382528684208181540190558651908152a38252600c6020528082208054156109e7578280f35b429055600a5490600d60205282205538808280f35b835163ec442f0560e01b8152908101859052602490fd5b509034610259578260031936011261025957610a507f000000000000000000000000000000000000000000000000000000000000000042106112d8565b6006546001600160a01b039390841615610c7f57836007541615610c4357610a7733611322565b338152602093600b855282822054938415610c0c57612710610a9b600e5487611443565b0492610aa78487611315565b91338252600b8852818681205583600754168460065416813b15610c0857839291606484928a519687938492631b8eb9dd60e21b8452878401523360248401528d60448401525af18015610bfe57908694939291610bc9575b505050610b31837f000000000000000000000000000000000000000000000000000000000000000016913383611456565b81610b6f575b505050815190838252848201527f10d8dedfc0745b8c25ba10b06e304138b251c18dcaadf2d71c7f3214719dc4d1823392a251908152f35b610b7d926011541690611456565b8151818152828582015260058382015264636c61696d60d81b60608201527fdb23cba216bfaed89070d2734596f2ee2a163099cfc4f5ef32036debc979222660803392a2388181610b37565b909192935067ffffffffffffffff8311610beb57505084528290388080610b00565b634e487b7160e01b825260419052602490fd5b87513d84823e3d90fd5b8380fd5b835162461bcd60e51b815290810186905260116024820152704e6f207969656c6420746f20636c61696d60781b6044820152606490fd5b815162461bcd60e51b8152602081850152601660248201527513585c9ad95d081b585b9859d95c881b9bdd081cd95d60521b6044820152606490fd5b815162461bcd60e51b8152602081850152601060248201526f14d6481d1bdad95b881b9bdd081cd95d60821b6044820152606490fd5b50503461027c57602036600319011261027c576020916001600160a01b03610cdb611142565b168152600d8352819020548015610cf457905b51908152f35b50600a5490610cee565b50503461027c578160031936011261027c576020905160128152f35b50503461027c578160031936011261027c5760065490516001600160a01b039091168152602090f35b50823461048e57606036600319011261048e57610d5e611142565b610d6661115d565b916044359360018060a01b038316808352600160205286832033845260205286832054916000198310610da2575b6020886105e48989896111d7565b868310610e0a578115610df3573315610ddc575082526001602090815286832033845281529186902090859003905582906105e487610d94565b8751634a1406b160e11b8152908101849052602490fd5b875163e602df0560e01b8152908101849052602490fd5b8751637dc7a0d960e11b8152339181019182526020820193909352604081018790528291506060010390fd5b50503461027c578160031936011261027c57602090517f00000000000000000000000000000000000000000000000000000000000000008152f35b50503461027c578160031936011261027c57608090600e5490600f54906010549060018060a01b036011541692815194855260208501528301526060820152f35b50503461027c578160031936011261027c576020906002549051908152f35b83823461027c57602036600319011261027c5735610eed611173565b610efb6107d082111561154d565b600a5580f35b50503461027c578160031936011261027c576020906102a66115ed565b5034610259578160031936011261025957610f37611142565b602435903315610fb0576001600160a01b0316918215610f9957508083602095338152600187528181208582528752205582519081527f8c5be1e5ebec7d5bd14f71427d1e84f3dd0314c0f7b2291e5b200ac8c7c3b925843392a35160018152f35b8351634a1406b160e11b8152908101859052602490fd5b835163e602df0560e01b8152808401869052602490fd5b833461048e57602036600319011261048e5761074b610fe4611142565b611322565b509034610259578260031936011261025957805191836003549060019082821c9282811680156110d3575b60209586861082146110c0575084885290811561109e5750600114611045575b6106718686610667828b038361119f565b929550600383527fc2575a0e9e593c00f959f8c92f12db2869c3395a3b0502d05e2516446f71f85b5b82841061108b575050508261067194610667928201019438611034565b805486850188015292860192810161106e565b60ff191687860152505050151560051b83010192506106678261067138611034565b634e487b7160e01b845260229052602483fd5b93607f1693611014565b84903461027c578160031936011261027c576020906008548152f35b6020808252825181830181905290939260005b82811061112e57505060409293506000838284010152601f8019910116010190565b81810186015184820160400152850161110c565b600435906001600160a01b038216820361115857565b600080fd5b602435906001600160a01b038216820361115857565b6005546001600160a01b0316330361118757565b60405163118cdaa760e01b8152336004820152602490fd5b90601f8019910116810190811067ffffffffffffffff8211176111c157604052565b634e487b7160e01b600052604160045260246000fd5b916001600160a01b0380841692831561129c57169283156112835760009083825281602052604082205490838210611251575091604082827fddf252ad1be2c89b69c2b068fc378daa952ba7f163c4a11628f55a4df523b3ef958760209652828652038282205586815220818154019055604051908152a3565b60405163391434e360e21b81526001600160a01b03919091166004820152602481019190915260448101839052606490fd5b60405163ec442f0560e01b815260006004820152602490fd5b604051634b637e8f60e11b815260006004820152602490fd5b919082018092116112c257565b634e487b7160e01b600052601160045260246000fd5b156112df57565b60405162461bcd60e51b815260206004820152600e60248201526d13585c9ad95d081b585d1d5c995960921b6044820152606490fd5b919082039182116112c257565b61134d7f000000000000000000000000000000000000000000000000000000000000000042106112d8565b60018060a01b038116906000908282526020828152604091828420541561141057848452600c82526113828385205442611315565b801561140857611391916114f8565b908161139f575b5050505050565b83857faced61c86c507aa3c2be43553434c6ff191ea7cbbd812491a6ae59abc99d29dc9552600b82528381206113d68482546112b5565b90556113e4836008546112b5565b600855858152600c8252834291205582519182524290820152a23880808080611398565b505050505050565b50606491519062461bcd60e51b82526004820152600d60248201526c4e6f2059542062616c616e636560981b6044820152fd5b818102929181159184041417156112c257565b60405163a9059cbb60e01b602082019081526001600160a01b0393841660248301526044808301959095529381529092608082019067ffffffffffffffff8211838310176111c157602092600092604052519082865af1156114ec576000513d6114e357508082163b155b6114c9575050565b604051635274afe760e01b81529116600482015260249150fd5b600114156114c1565b6040513d6000823e3d90fd5b6301e133809161153f9160018060a01b03166000526000602052612710611539604060002054600d6020526040600020548015156000146115435790611443565b04611443565b0490565b50600a5490611443565b1561155457565b60405162461bcd60e51b815260206004820152600d60248201526c0a4c2e8ca40e8dede40d0d2ced609b1b6044820152606490fd5b6001600160a01b038116600081815260208190526040812054909290156115de576115db926115cc604092600c6020526115c68484205442611315565b906114f8565b928152600b60205220546112b5565b90565b5050604090600b602052205490565b7f000000000000000000000000000000000000000000000000000000000000000080421015611621576115db904290611315565b5060009056fea2646970667358221220e9de65fcde930be3e2d88af0498c6a8de38175d59dcb29fe94f5414fa91f3a2564736f6c63430008140033a264697066735822122085ce5e6e2a102e84090e82595d8e5393f4c21b9493dd25e936f7af3a2bdf541064736f6c63430008140033",
  "linkReferences": {},
  "deployedLinkReferences": {}
}