{
  "_format": "hh-sol-artifact-1",
  "contractName": "CoreYieldBridge",
  "sourceName": "contracts/core/CoreYieldBridge.sol",
  "abi": [
    {
      "inputs": [],
      "stateMutability": "nonpayable",
      "type": "constructor"
    },
    {
      "inputs": [],
      "name": "EnforcedPause",
      "type": "error"
    },
    {
      "inputs": [],
      "name": "ExpectedPause",
      "type": "error"
    },
    {
      "inputs": [
        {
          "internalType": "address",
          "name": "owner",
          "type": "address"
        }
      ],
      "name": "OwnableInvalidOwner",
      "type": "error"
    },
    {
      "inputs": [
        {
          "internalType": "address",
          "name": "account",
          "type": "address"
        }
      ],
      "name": "OwnableUnauthorizedAccount",
      "type": "error"
    },
    {
      "inputs": [],
      "name": "ReentrancyGuardReentrantCall",
      "type": "error"
    },
    {
      "inputs": [
        {
          "internalType": "address",
          "name": "token",
          "type": "address"
        }
      ],
      "name": "SafeERC20FailedOperation",
      "type": "error"
    },
    {
      "anonymous": false,
      "inputs": [
        {
          "indexed": false,
          "internalType": "uint256",
          "name": "newFee",
          "type": "uint256"
        }
      ],
      "name": "BridgeFeeUpdated",
      "type": "event"
    },
    {
      "anonymous": false,
      "inputs": [
        {
          "indexed": true,
          "internalType": "uint256",
          "name": "requestId",
          "type": "uint256"
        },
        {
          "indexed": true,
          "internalType": "address",
          "name": "user",
          "type": "address"
        },
        {
          "indexed": false,
          "internalType": "uint256",
          "name": "sourceChainId",
          "type": "uint256"
        },
        {
          "indexed": false,
          "internalType": "uint256",
          "name": "targetChainId",
          "type": "uint256"
        },
        {
          "indexed": false,
          "internalType": "address",
          "name": "token",
          "type": "address"
        },
        {
          "indexed": false,
          "internalType": "uint256",
          "name": "amount",
          "type": "uint256"
        },
        {
          "indexed": false,
          "internalType": "uint256",
          "name": "fee",
          "type": "uint256"
        }
      ],
      "name": "BridgeRequestCreated",
      "type": "event"
    },
    {
      "anonymous": false,
      "inputs": [
        {
          "indexed": true,
          "internalType": "uint256",
          "name": "requestId",
          "type": "uint256"
        },
        {
          "indexed": false,
          "internalType": "enum CoreYieldBridge.BridgeStatus",
          "name": "status",
          "type": "uint8"
        },
        {
          "indexed": false,
          "internalType": "bytes32",
          "name": "transactionHash",
          "type": "bytes32"
        }
      ],
      "name": "BridgeRequestProcessed",
      "type": "event"
    },
    {
      "anonymous": false,
      "inputs": [
        {
          "indexed": true,
          "internalType": "uint256",
          "name": "chainId",
          "type": "uint256"
        },
        {
          "indexed": false,
          "internalType": "uint256",
          "name": "minAmount",
          "type": "uint256"
        },
        {
          "indexed": false,
          "internalType": "uint256",
          "name": "maxAmount",
          "type": "uint256"
        }
      ],
      "name": "ChainAdded",
      "type": "event"
    },
    {
      "anonymous": false,
      "inputs": [
        {
          "indexed": true,
          "internalType": "uint256",
          "name": "chainId",
          "type": "uint256"
        }
      ],
      "name": "ChainRemoved",
      "type": "event"
    },
    {
      "anonymous": false,
      "inputs": [
        {
          "indexed": true,
          "internalType": "address",
          "name": "previousOwner",
          "type": "address"
        },
        {
          "indexed": true,
          "internalType": "address",
          "name": "newOwner",
          "type": "address"
        }
      ],
      "name": "OwnershipTransferred",
      "type": "event"
    },
    {
      "anonymous": false,
      "inputs": [
        {
          "indexed": false,
          "internalType": "address",
          "name": "account",
          "type": "address"
        }
      ],
      "name": "Paused",
      "type": "event"
    },
    {
      "anonymous": false,
      "inputs": [
        {
          "indexed": false,
          "internalType": "address",
          "name": "account",
          "type": "address"
        }
      ],
      "name": "Unpaused",
      "type": "event"
    },
    {
      "inputs": [
        {
          "internalType": "uint256",
          "name": "chainId",
          "type": "uint256"
        },
        {
          "internalType": "uint256",
          "name": "minAmount",
          "type": "uint256"
        },
        {
          "internalType": "uint256",
          "name": "maxAmount",
          "type": "uint256"
        },
        {
          "internalType": "uint256",
          "name": "processingTime",
          "type": "uint256"
        },
        {
          "internalType": "address",
          "name": "bridgeOperator",
          "type": "address"
        }
      ],
      "name": "addSupportedChain",
      "outputs": [],
      "stateMutability": "nonpayable",
      "type": "function"
    },
    {
      "inputs": [],
      "name": "bridgeFee",
      "outputs": [
        {
          "internalType": "uint256",
          "name": "",
          "type": "uint256"
        }
      ],
      "stateMutability": "view",
      "type": "function"
    },
    {
      "inputs": [
        {
          "internalType": "uint256",
          "name": "",
          "type": "uint256"
        }
      ],
      "name": "bridgeRequests",
      "outputs": [
        {
          "internalType": "uint256",
          "name": "requestId",
          "type": "uint256"
        },
        {
          "internalType": "address",
          "name": "user",
          "type": "address"
        },
        {
          "internalType": "uint256",
          "name": "sourceChainId",
          "type": "uint256"
        },
        {
          "internalType": "uint256",
          "name": "targetChainId",
          "type": "uint256"
        },
        {
          "internalType": "address",
          "name": "token",
          "type": "address"
        },
        {
          "internalType": "uint256",
          "name": "amount",
          "type": "uint256"
        },
        {
          "internalType": "uint256",
          "name": "fee",
          "type": "uint256"
        },
        {
          "internalType": "uint256",
          "name": "timestamp",
          "type": "uint256"
        },
        {
          "internalType": "enum CoreYieldBridge.BridgeStatus",
          "name": "status",
          "type": "uint8"
        },
        {
          "internalType": "bytes32",
          "name": "transactionHash",
          "type": "bytes32"
        }
      ],
      "stateMutability": "view",
      "type": "function"
    },
    {
      "inputs": [
        {
          "internalType": "uint256",
          "name": "amount",
          "type": "uint256"
        }
      ],
      "name": "calculateBridgeFee",
      "outputs": [
        {
          "internalType": "uint256",
          "name": "fee",
          "type": "uint256"
        }
      ],
      "stateMutability": "view",
      "type": "function"
    },
    {
      "inputs": [
        {
          "internalType": "uint256",
          "name": "requestId",
          "type": "uint256"
        }
      ],
      "name": "cancelBridgeRequest",
      "outputs": [],
      "stateMutability": "nonpayable",
      "type": "function"
    },
    {
      "inputs": [
        {
          "internalType": "uint256",
          "name": "targetChainId",
          "type": "uint256"
        },
        {
          "internalType": "address",
          "name": "token",
          "type": "address"
        },
        {
          "internalType": "uint256",
          "name": "amount",
          "type": "uint256"
        }
      ],
      "name": "createBridgeRequest",
      "outputs": [
        {
          "internalType": "uint256",
          "name": "requestId",
          "type": "uint256"
        }
      ],
      "stateMutability": "nonpayable",
      "type": "function"
    },
    {
      "inputs": [],
      "name": "emergencyPause",
      "outputs": [],
      "stateMutability": "nonpayable",
      "type": "function"
    },
    {
      "inputs": [],
      "name": "emergencyResume",
      "outputs": [],
      "stateMutability": "nonpayable",
      "type": "function"
    },
    {
      "inputs": [
        {
          "internalType": "address",
          "name": "token",
          "type": "address"
        },
        {
          "internalType": "uint256",
          "name": "amount",
          "type": "uint256"
        }
      ],
      "name": "emergencyWithdraw",
      "outputs": [],
      "stateMutability": "nonpayable",
      "type": "function"
    },
    {
      "inputs": [
        {
          "internalType": "uint256",
          "name": "requestId",
          "type": "uint256"
        }
      ],
      "name": "getBridgeRequest",
      "outputs": [
        {
          "internalType": "address",
          "name": "user",
          "type": "address"
        },
        {
          "internalType": "uint256",
          "name": "sourceChainId",
          "type": "uint256"
        },
        {
          "internalType": "uint256",
          "name": "targetChainId",
          "type": "uint256"
        },
        {
          "internalType": "address",
          "name": "token",
          "type": "address"
        },
        {
          "internalType": "uint256",
          "name": "amount",
          "type": "uint256"
        },
        {
          "internalType": "uint256",
          "name": "fee",
          "type": "uint256"
        },
        {
          "internalType": "uint256",
          "name": "timestamp",
          "type": "uint256"
        },
        {
          "internalType": "enum CoreYieldBridge.BridgeStatus",
          "name": "status",
          "type": "uint8"
        },
        {
          "internalType": "bytes32",
          "name": "transactionHash",
          "type": "bytes32"
        }
      ],
      "stateMutability": "view",
      "type": "function"
    },
    {
      "inputs": [],
      "name": "getBridgeStats",
      "outputs": [
        {
          "internalType": "uint256",
          "name": "totalRequests",
          "type": "uint256"
        },
        {
          "internalType": "uint256",
          "name": "totalValue",
          "type": "uint256"
        },
        {
          "internalType": "uint256",
          "name": "pendingRequests",
          "type": "uint256"
        },
        {
          "internalType": "uint256",
          "name": "completedRequests",
          "type": "uint256"
        }
      ],
      "stateMutability": "view",
      "type": "function"
    },
    {
      "inputs": [
        {
          "internalType": "uint256",
          "name": "chainId",
          "type": "uint256"
        }
      ],
      "name": "getChainInfo",
      "outputs": [
        {
          "internalType": "bool",
          "name": "isSupported",
          "type": "bool"
        },
        {
          "internalType": "uint256",
          "name": "minBridgeAmount",
          "type": "uint256"
        },
        {
          "internalType": "uint256",
          "name": "maxBridgeAmount",
          "type": "uint256"
        },
        {
          "internalType": "uint256",
          "name": "bridgeFee",
          "type": "uint256"
        },
        {
          "internalType": "uint256",
          "name": "processingTime",
          "type": "uint256"
        },
        {
          "internalType": "address",
          "name": "bridgeOperator",
          "type": "address"
        }
      ],
      "stateMutability": "view",
      "type": "function"
    },
    {
      "inputs": [],
      "name": "getSupportedChains",
      "outputs": [
        {
          "internalType": "uint256[]",
          "name": "",
          "type": "uint256[]"
        }
      ],
      "stateMutability": "view",
      "type": "function"
    },
    {
      "inputs": [
        {
          "internalType": "address",
          "name": "user",
          "type": "address"
        }
      ],
      "name": "getUserBridgeRequests",
      "outputs": [
        {
          "internalType": "uint256[]",
          "name": "",
          "type": "uint256[]"
        }
      ],
      "stateMutability": "view",
      "type": "function"
    },
    {
      "inputs": [],
      "name": "owner",
      "outputs": [
        {
          "internalType": "address",
          "name": "",
          "type": "address"
        }
      ],
      "stateMutability": "view",
      "type": "function"
    },
    {
      "inputs": [],
      "name": "paused",
      "outputs": [
        {
          "internalType": "bool",
          "name": "",
          "type": "bool"
        }
      ],
      "stateMutability": "view",
      "type": "function"
    },
    {
      "inputs": [
        {
          "internalType": "uint256",
          "name": "requestId",
          "type": "uint256"
        },
        {
          "internalType": "enum CoreYieldBridge.BridgeStatus",
          "name": "status",
          "type": "uint8"
        },
        {
          "internalType": "bytes32",
          "name": "transactionHash",
          "type": "bytes32"
        }
      ],
      "name": "processBridgeRequest",
      "outputs": [],
      "stateMutability": "nonpayable",
      "type": "function"
    },
    {
      "inputs": [
        {
          "internalType": "bytes32",
          "name": "",
          "type": "bytes32"
        }
      ],
      "name": "processedTransactions",
      "outputs": [
        {
          "internalType": "bool",
          "name": "",
          "type": "bool"
        }
      ],
      "stateMutability": "view",
      "type": "function"
    },
    {
      "inputs": [
        {
          "internalType": "uint256",
          "name": "chainId",
          "type": "uint256"
        }
      ],
      "name": "removeSupportedChain",
      "outputs": [],
      "stateMutability": "nonpayable",
      "type": "function"
    },
    {
      "inputs": [],
      "name": "renounceOwnership",
      "outputs": [],
      "stateMutability": "nonpayable",
      "type": "function"
    },
    {
      "inputs": [],
      "name": "requestCount",
      "outputs": [
        {
          "internalType": "uint256",
          "name": "",
          "type": "uint256"
        }
      ],
      "stateMutability": "view",
      "type": "function"
    },
    {
      "inputs": [
        {
          "internalType": "uint256",
          "name": "",
          "type": "uint256"
        }
      ],
      "name": "supportedChains",
      "outputs": [
        {
          "internalType": "uint256",
          "name": "chainId",
          "type": "uint256"
        },
        {
          "internalType": "bool",
          "name": "isSupported",
          "type": "bool"
        },
        {
          "internalType": "uint256",
          "name": "minBridgeAmount",
          "type": "uint256"
        },
        {
          "internalType": "uint256",
          "name": "maxBridgeAmount",
          "type": "uint256"
        },
        {
          "internalType": "uint256",
          "name": "bridgeFee",
          "type": "uint256"
        },
        {
          "internalType": "uint256",
          "name": "processingTime",
          "type": "uint256"
        },
        {
          "internalType": "address",
          "name": "bridgeOperator",
          "type": "address"
        }
      ],
      "stateMutability": "view",
      "type": "function"
    },
    {
      "inputs": [],
      "name": "totalBridgedValue",
      "outputs": [
        {
          "internalType": "uint256",
          "name": "",
          "type": "uint256"
        }
      ],
      "stateMutability": "view",
      "type": "function"
    },
    {
      "inputs": [
        {
          "internalType": "address",
          "name": "newOwner",
          "type": "address"
        }
      ],
      "name": "transferOwnership",
      "outputs": [],
      "stateMutability": "nonpayable",
      "type": "function"
    },
    {
      "inputs": [
        {
          "internalType": "uint256",
          "name": "newFee",
          "type": "uint256"
        }
      ],
      "name": "updateBridgeFee",
      "outputs": [],
      "stateMutability": "nonpayable",
      "type": "function"
    },
    {
      "inputs": [
        {
          "internalType": "uint256",
          "name": "chainId",
          "type": "uint256"
        },
        {
          "internalType": "uint256",
          "name": "minAmount",
          "type": "uint256"
        },
        {
          "internalType": "uint256",
          "name": "maxAmount",
          "type": "uint256"
        },
        {
          "internalType": "uint256",
          "name": "processingTime",
          "type": "uint256"
        }
      ],
      "name": "updateChainInfo",
      "outputs": [],
      "stateMutability": "nonpayable",
      "type": "function"
    },
    {
      "inputs": [
        {
          "internalType": "address",
          "name": "",
          "type": "address"
        },
        {
          "internalType": "uint256",
          "name": "",
          "type": "uint256"
        }
      ],
      "name": "userBridgeRequests",
      "outputs": [
        {
          "internalType": "uint256",
          "name": "",
          "type": "uint256"
        }
      ],
      "stateMutability": "view",
      "type": "function"
    }
  ],
  "bytecode": "0x608060409080825234610136576000906001825533156101225750600180546001600160a01b031980821633908117909355845190926001600160a01b039283167f8be0079c531659141344cd1fd0a4f28419497f9722a3daafe3b4186f6b6457e08680a36032600855600684905560e081016001600160401b0381118282101761010e579060069186524681526020810160018152868201868152606083016000198152608084019188835260a08501938985528a60c087019a308c5246815260036020522095518655600186019051151560ff80198354169116179055516002850155516003840155516004830155516005820155019251169082541617905551611662908161013c8239f35b634e487b7160e01b85526041600452602485fd5b602491631e4fbdf760e01b82526004820152fd5b600080fdfe6080604081815260048036101561001557600080fd5b60009260e08435811c91826304cb4292146112be575081630620bf141461129e5781630c4844aa146111f95781632165cbb7146111115781632bdf4e6c146110b95781633008afed1461101f57816332703dfd14610c7157816351858e2714610c0f578163548d496f14610b9b5781635a1c036614610b105781635badbe4c14610af05781635c975abb14610ac8578163715018a614610a6b5781637936be5b14610a11578163804ea334146109a357816382b12dd7146109835781638da5cb5b1461095957816393c87f03146108e957816395ccea67146108a85781639f89c8a214610807578163ac2e4936146107da578163ade1af12146107a7578163c4bffe2b146106a2578163d8e09c6714610510578163ee5f66721461035257508063eecfb153146101db5763f2fde38b1461014e57600080fd5b346101d75760203660031901126101d757610167611340565b906101706113e7565b6001600160a01b039182169283156101c1575050600154826001600160601b0360a01b821617600155167f8be0079c531659141344cd1fd0a4f28419497f9722a3daafe3b4186f6b6457e08380a380f35b51631e4fbdf760e01b8152908101849052602490fd5b8280fd5b5082903461034e57602092836003193601126101d75781358084526002855281842060018101549193916001600160a01b03919082163381036103175760088201805460ff81166005811015610304576102359015611573565b6003840154895260038a52610256878a20600560078701549101549061147e565b42106102cb578899936102bc937f4a9aff227baaa45b306023a8708d06bf9db62ce78669b278ac2a469444109e70999a9693886102b39460ff19161790556005820193886102aa865460068601549061147e565b930154166115c2565b546007546115b5565b6007558351928352820152a280f35b865162461bcd60e51b81528087018b90526013602482015272151bdbc819585c9b1e481d1bc818d85b98d95b606a1b6044820152606490fd5b634e487b7160e01b8a526021875260248afd5b845162461bcd60e51b815280850189905260116024820152702737ba103932b8bab2b9ba1037bbb732b960791b6044820152606490fd5b5080fd5b84915083346101d75760a03660031901126101d75783359160243590604435906001600160a01b03608435818116929083900361050c576103916113e7565b4687146104c957821561048657600854865191820182811067ffffffffffffffff821117610473579780999a600693927f5acc0f12d6544a46007aeaf7ea1e9fb6f658da9f7df336bb6c10b3041774c3a89a8a528284528c60208501600181528b8601908b82528c60608801938c85526080890195865260a0890197606435895260c08a019c8d52815260036020522096518755600187019051151560ff801983541691161790555160028601555160038501555190830155516005820155019151166001600160601b0360a01b82541617905582519182526020820152a280f35b634e487b7160e01b8a5260418b5260248afd5b855162461bcd60e51b81526020818b0152601760248201527f496e76616c696420627269646765206f70657261746f720000000000000000006044820152606490fd5b855162461bcd60e51b81526020818b0152601860248201527f43616e6e6f74206164642063757272656e7420636861696e00000000000000006044820152606490fd5b8780fd5b8285853461034e57606036600319011261034e57823590602435600581101561069e576044358385526002602052600383862001548552600360205260018060a01b038060068588200154163303610665578486526002602052838620906008820160ff815416600581101561065257857f4a9aff227baaa45b306023a8708d06bf9db62ce78669b278ac2a469444109e7098999a93926105b46105b99315611573565b6114d2565b836009840155600285146000146105f557505060056105dc9101546007546115b5565b6007555b6105ec835180936113c4565b6020820152a280f35b9091600385148015610649575b61060f575b5050506105e0565b61063e928160056102b393019360018161062f875460068601549061147e565b948401541692015416906115c2565b600755868080610607565b50828514610602565b634e487b7160e01b895260218a52602489fd5b835162461bcd60e51b815260208189015260136024820152722737ba10313934b233b29037b832b930ba37b960691b6044820152606490fd5b8380fd5b8285853461034e578160031936011261034e5781805b6103e8811061076d57506106cb83611614565b926106d88351948561149a565b8084526106e7601f1991611614565b0160209036828601378190825b6103e8811061070e5784518061070a888261135b565b0390f35b8084526003825260ff6001868620015416610732575b61072d9061148b565b6106f4565b91855181101561075a5761075281848461072d9460051b8a01015261148b565b929050610724565b634e487b7160e01b845260328752602484fd5b808252600360205260ff6001848420015416610792575b61078d9061148b565b6106b8565b9261079f61078d9161148b565b939050610784565b505091346107d75760203660031901126107d757506127106107cf6020936008549035611455565b049051908152f35b80fd5b5050346101d75760203660031901126101d7578160209360ff923581526005855220541690519015158152f35b9290503461069e57602036600319011261069e57806108a09161014095843581526002602052209081549460018060a01b03806001850154169560028501549160038601549186015416600586015491600687015493600788015496600960ff60088b0154169901549a81519c8d5260208d01528b015260608a0152608089015260a088015260c08701528501526101008401906113c4565b610120820152f35b5050503461034e573660031901126107d7576108e66108c5611340565b6108cd6113e7565b600154602435916001600160a01b0391821691166115c2565b80f35b5050346101d757826003193601126101d7576109036113e7565b6001549060ff8260a01c161561094b575060ff60a01b1916600155513381527f5db9ee0a495bf2e6ff9c91a7834c1ba4fdd244a5e8aa4e537bd38aeae4b073aa90602090a180f35b8251638dfc202b60e01b8152fd5b5050503461034e578160031936011261034e5760015490516001600160a01b039091168152602090f35b5050503461034e578160031936011261034e576020906008549051908152f35b5050346101d75760203660031901126101d7578160c0938235815260036020522060ff6001820154169260028201549260038301549083015491600584015493600660018060a01b0391015416948151961515875260208701528501526060840152608083015260a0820152f35b5050346101d75760803660031901126101d75735610a2d6113e7565b8083526003602052610a4760ff6001848620015416611413565b82526003602052812060243560028201556044356003820155600560643591015580f35b84346107d757806003193601126107d757610a846113e7565b600180546001600160a01b0319811690915581906001600160a01b03167f8be0079c531659141344cd1fd0a4f28419497f9722a3daafe3b4186f6b6457e08280a380f35b5050503461034e578160031936011261034e5760209060ff60015460a01c1690519015158152f35b5050503461034e578160031936011261034e576020906006549051908152f35b505090346101d75760203660031901126101d757813591610b2f6113e7565b6101f48311610b6a5750816020917f42dfb00d085d601e55327921154ae76c1b24270b026c5a0c51caee18eb4c401f9360085551908152a180f35b6020606492519162461bcd60e51b8352820152600c60248201526b08ccaca40e8dede40d0d2ced60a31b6044820152fd5b939050346107d75760203660031901126107d75782908235815260036020522080549260ff60018301541692600283015460038401549184015492600585015494600660018060a01b0391015416958151978852151560208801528601526060850152608084015260a083015260c0820152f35b5050503461034e578160031936011261034e5760207f62e78cea01bee320cd4e420270b5ea74000d11b0c9f74754ebdbfc544b05a25891610c4e6113e7565b610c56611552565b6001805460ff60a01b1916600160a01b17905551338152a180f35b84915083346101d75760603660031901126101d757602480356001600160a01b03818116959287359287900361069e57604496873591600286541461100f5760028655610cbc611552565b84865260209860038a52610cd860ff60018a8a20015416611413565b8315610fcf578215610f975785875260038a5287872060028101548510610f5f57600301548411610f2857612710610d1260085486611455565b0494610d1e868661147e565b8951926323b872dd60e01b8d8501523385850152309084015260648301526064825260a082019167ffffffffffffffff9281811084821117610f15578a52610d6690856114ea565b610d7160065461148b565b998a60065589519261014084019084821090821117610f155787878f8f8f90968f928f988f9098858b8f979b8e9b829d52878c52808c0197338952838d01944686528d606081019788526080019a8b528d60a081019c8d5260c0019c8d528d019c8d42905261010081019e8f52610120019e8f52825260029052209b518c558360018d01955116946001600160601b0360a01b95868254161790555160028c01555160038b0155890192511690825416179055516005860155516006850155516007840155516005811015610f035790610e50600992600885016114d2565b519101553386528989528686209081549a680100000000000000008c1015610ef257505089610e8891600180999a9b9c018155611396565b81549060031b908a821b91600019901b1916179055610ea98260075461147e565b600755865193468552898501528684015260608301526080820152847f3956abf1f505a4e4458c38ca0fa2a37e5e8aac8bf69c8007e56ccf851f985b6960a03393a35551908152f35b634e487b7160e01b88526041905286fd5b634e487b7160e01b895260218d528389fd5b50634e487b7160e01b895260418d528389fd5b73416d6f756e742061626f7665206d6178696d756d60601b8b9160146064948d8c519562461bcd60e51b8752860152840152820152fd5b5073416d6f756e742062656c6f77206d696e696d756d60601b8b9160146064948d8c519562461bcd60e51b8752860152840152820152fd5b74496e76616c696420746f6b656e206164647265737360581b8b9160156064948d8c519562461bcd60e51b8752860152840152820152fd5b7f416d6f756e74206d7573742062652067726561746572207468616e20300000008b91601d6064948d8c519562461bcd60e51b8752860152840152820152fd5b8651633ee5aeb560e01b81528a90fd5b849391503461069e57602036600319011261069e576110b1908261012095853581526002602052209060018060a01b0393846001840154169560028401549560038501549185015416600585015490600686015492600787015494600960ff60088a0154169801549981519b8c5260208c01528a01526060890152608088015260a087015260c08601528401906113c4565b610100820152f35b505091346107d757816003193601126107d7576110d4611340565b6001600160a01b03168152602092909252808220805460243593908410156107d7575060209261110391611396565b91905490519160031b1c8152f35b505090346101d757826003193601126101d7578283916001600654945b8582111561115357505060809450600754815194855260208501528301526060820152f35b90928387526002602081815260ff60088181888d2001541692600593848110156111e65761119857505050505061118c6111929161148b565b9361148b565b9061112e565b8490898d9a979a5252868b20015416908110156111d357146111be575b6111929061148b565b936111cb6111929161148b565b9490506111b5565b634e487b7160e01b895260218452602489fd5b634e487b7160e01b8d526021885260248dfd5b505090346101d75760203660031901126101d7578135916112186113e7565b46831461125c575081835260036020528220600101805460ff191690557f11a9d1a77f76361ed131c19b1dc5758504c51dbde2e49fc973a0ef9577ad13d58280a280f35b6020606492519162461bcd60e51b8352820152601b60248201527f43616e6e6f742072656d6f76652063757272656e7420636861696e00000000006044820152fd5b5050503461034e578160031936011261034e576020906007549051908152f35b859085853461069e576020908160031936011261133c579093906001600160a01b036112e8611340565b16825284528181209384549081855280850195835280832092905b8282106113255761070a868661131b828b038361149a565b519182918261135b565b835487529586019560019384019390910190611303565b8480fd5b600435906001600160a01b038216820361135657565b600080fd5b6020908160408183019282815285518094520193019160005b828110611382575050505090565b835185529381019392810192600101611374565b80548210156113ae5760005260206000200190600090565b634e487b7160e01b600052603260045260246000fd5b9060058210156113d15752565b634e487b7160e01b600052602160045260246000fd5b6001546001600160a01b031633036113fb57565b60405163118cdaa760e01b8152336004820152602490fd5b1561141a57565b60405162461bcd60e51b815260206004820152601360248201527210da185a5b881b9bdd081cdd5c1c1bdc9d1959606a1b6044820152606490fd5b8181029291811591840414171561146857565b634e487b7160e01b600052601160045260246000fd5b9190820180921161146857565b60001981146114685760010190565b90601f8019910116810190811067ffffffffffffffff8211176114bc57604052565b634e487b7160e01b600052604160045260246000fd5b9060058110156113d15760ff80198354169116179055565b906000602091828151910182855af115611546576000513d61153d57506001600160a01b0381163b155b61151b5750565b604051635274afe760e01b81526001600160a01b039091166004820152602490fd5b60011415611514565b6040513d6000823e3d90fd5b60ff60015460a01c1661156157565b60405163d93c066560e01b8152600490fd5b1561157a57565b60405162461bcd60e51b815260206004820152601360248201527252657175657374206e6f742070656e64696e6760681b6044820152606490fd5b9190820391821161146857565b60405163a9059cbb60e01b60208201526001600160a01b039092166024830152604480830193909352918152608081019167ffffffffffffffff8311828410176114bc57611612926040526114ea565b565b67ffffffffffffffff81116114bc5760051b6020019056fea2646970667358221220dcf00c1c5549a5379fec13a43152fa7841048d985e204846e3351b526a116f9964736f6c63430008140033",
  "linkReferences": {},
  "deployedLinkReferences": {}
}