{
  "_format": "hh-sol-artifact-1",
  "contractName": "CoreYieldStrategy",
  "sourceName": "contracts/core/CoreYieldStrategy.sol",
  "abi": [
    {
      "inputs": [],
      "stateMutability": "nonpayable",
      "type": "constructor"
    },
    {
      "inputs": [],
      "name": "EnforcedPause",
      "type": "error"
    },
    {
      "inputs": [],
      "name": "ExpectedPause",
      "type": "error"
    },
    {
      "inputs": [
        {
          "internalType": "address",
          "name": "owner",
          "type": "address"
        }
      ],
      "name": "OwnableInvalidOwner",
      "type": "error"
    },
    {
      "inputs": [
        {
          "internalType": "address",
          "name": "account",
          "type": "address"
        }
      ],
      "name": "OwnableUnauthorizedAccount",
      "type": "error"
    },
    {
      "inputs": [],
      "name": "ReentrancyGuardReentrantCall",
      "type": "error"
    },
    {
      "anonymous": false,
      "inputs": [
        {
          "indexed": true,
          "internalType": "address",
          "name": "previousOwner",
          "type": "address"
        },
        {
          "indexed": true,
          "internalType": "address",
          "name": "newOwner",
          "type": "address"
        }
      ],
      "name": "OwnershipTransferred",
      "type": "event"
    },
    {
      "anonymous": false,
      "inputs": [
        {
          "indexed": false,
          "internalType": "address",
          "name": "account",
          "type": "address"
        }
      ],
      "name": "Paused",
      "type": "event"
    },
    {
      "anonymous": false,
      "inputs": [
        {
          "indexed": true,
          "internalType": "uint256",
          "name": "strategyId",
          "type": "uint256"
        },
        {
          "indexed": false,
          "internalType": "uint256",
          "name": "finalValue",
          "type": "uint256"
        },
        {
          "indexed": false,
          "internalType": "uint256",
          "name": "totalReturn",
          "type": "uint256"
        }
      ],
      "name": "StrategyCompleted",
      "type": "event"
    },
    {
      "anonymous": false,
      "inputs": [
        {
          "indexed": true,
          "internalType": "uint256",
          "name": "strategyId",
          "type": "uint256"
        },
        {
          "indexed": true,
          "internalType": "address",
          "name": "user",
          "type": "address"
        },
        {
          "indexed": false,
          "internalType": "enum CoreYieldStrategy.StrategyType",
          "name": "strategyType",
          "type": "uint8"
        }
      ],
      "name": "StrategyCreated",
      "type": "event"
    },
    {
      "anonymous": false,
      "inputs": [
        {
          "indexed": true,
          "internalType": "uint256",
          "name": "strategyId",
          "type": "uint256"
        },
        {
          "indexed": false,
          "internalType": "uint256",
          "name": "totalValue",
          "type": "uint256"
        },
        {
          "indexed": false,
          "internalType": "uint256",
          "name": "currentAPY",
          "type": "uint256"
        }
      ],
      "name": "StrategyExecuted",
      "type": "event"
    },
    {
      "anonymous": false,
      "inputs": [
        {
          "indexed": true,
          "internalType": "uint256",
          "name": "strategyId",
          "type": "uint256"
        },
        {
          "indexed": false,
          "internalType": "address[]",
          "name": "newAssets",
          "type": "address[]"
        },
        {
          "indexed": false,
          "internalType": "uint256[]",
          "name": "newAllocations",
          "type": "uint256[]"
        }
      ],
      "name": "StrategyRebalanced",
      "type": "event"
    },
    {
      "anonymous": false,
      "inputs": [
        {
          "indexed": false,
          "internalType": "address",
          "name": "account",
          "type": "address"
        }
      ],
      "name": "Unpaused",
      "type": "event"
    },
    {
      "inputs": [
        {
          "internalType": "uint256",
          "name": "strategyId",
          "type": "uint256"
        }
      ],
      "name": "autoRebalance",
      "outputs": [],
      "stateMutability": "nonpayable",
      "type": "function"
    },
    {
      "inputs": [
        {
          "internalType": "uint256",
          "name": "strategyId",
          "type": "uint256"
        }
      ],
      "name": "completeStrategy",
      "outputs": [],
      "stateMutability": "nonpayable",
      "type": "function"
    },
    {
      "inputs": [
        {
          "internalType": "enum CoreYieldStrategy.StrategyType",
          "name": "_strategyType",
          "type": "uint8"
        },
        {
          "internalType": "address[]",
          "name": "_assets",
          "type": "address[]"
        },
        {
          "internalType": "uint256[]",
          "name": "_allocations",
          "type": "uint256[]"
        },
        {
          "internalType": "uint256",
          "name": "_targetAPY",
          "type": "uint256"
        },
        {
          "internalType": "uint256",
          "name": "_riskTolerance",
          "type": "uint256"
        },
        {
          "internalType": "uint256",
          "name": "_rebalanceFrequency",
          "type": "uint256"
        },
        {
          "internalType": "bool",
          "name": "_autoRebalance",
          "type": "bool"
        }
      ],
      "name": "createStrategy",
      "outputs": [
        {
          "internalType": "uint256",
          "name": "strategyId",
          "type": "uint256"
        }
      ],
      "stateMutability": "nonpayable",
      "type": "function"
    },
    {
      "inputs": [
        {
          "internalType": "uint256",
          "name": "strategyId",
          "type": "uint256"
        }
      ],
      "name": "executeStrategy",
      "outputs": [],
      "stateMutability": "nonpayable",
      "type": "function"
    },
    {
      "inputs": [
        {
          "internalType": "uint256",
          "name": "strategyId",
          "type": "uint256"
        }
      ],
      "name": "getStrategyInfo",
      "outputs": [
        {
          "internalType": "address",
          "name": "user",
          "type": "address"
        },
        {
          "internalType": "enum CoreYieldStrategy.StrategyType",
          "name": "strategyType",
          "type": "uint8"
        },
        {
          "internalType": "address[]",
          "name": "assets",
          "type": "address[]"
        },
        {
          "internalType": "uint256[]",
          "name": "allocations",
          "type": "uint256[]"
        },
        {
          "internalType": "uint256",
          "name": "totalValue",
          "type": "uint256"
        },
        {
          "internalType": "uint256",
          "name": "targetAPY",
          "type": "uint256"
        },
        {
          "internalType": "uint256",
          "name": "riskTolerance",
          "type": "uint256"
        },
        {
          "internalType": "enum CoreYieldStrategy.StrategyStatus",
          "name": "status",
          "type": "uint8"
        },
        {
          "internalType": "uint256",
          "name": "startTime",
          "type": "uint256"
        },
        {
          "internalType": "uint256",
          "name": "lastRebalance",
          "type": "uint256"
        }
      ],
      "stateMutability": "view",
      "type": "function"
    },
    {
      "inputs": [
        {
          "internalType": "uint256",
          "name": "strategyId",
          "type": "uint256"
        }
      ],
      "name": "getStrategyPerformance",
      "outputs": [
        {
          "internalType": "uint256",
          "name": "totalReturn",
          "type": "uint256"
        },
        {
          "internalType": "uint256",
          "name": "currentAPY",
          "type": "uint256"
        },
        {
          "internalType": "uint256",
          "name": "maxDrawdown",
          "type": "uint256"
        },
        {
          "internalType": "uint256",
          "name": "sharpeRatio",
          "type": "uint256"
        },
        {
          "internalType": "uint256",
          "name": "lastUpdateTime",
          "type": "uint256"
        }
      ],
      "stateMutability": "view",
      "type": "function"
    },
    {
      "inputs": [
        {
          "internalType": "address",
          "name": "user",
          "type": "address"
        }
      ],
      "name": "getUserStrategies",
      "outputs": [
        {
          "internalType": "uint256[]",
          "name": "",
          "type": "uint256[]"
        }
      ],
      "stateMutability": "view",
      "type": "function"
    },
    {
      "inputs": [],
      "name": "owner",
      "outputs": [
        {
          "internalType": "address",
          "name": "",
          "type": "address"
        }
      ],
      "stateMutability": "view",
      "type": "function"
    },
    {
      "inputs": [],
      "name": "pause",
      "outputs": [],
      "stateMutability": "nonpayable",
      "type": "function"
    },
    {
      "inputs": [
        {
          "internalType": "uint256",
          "name": "strategyId",
          "type": "uint256"
        }
      ],
      "name": "pauseStrategy",
      "outputs": [],
      "stateMutability": "nonpayable",
      "type": "function"
    },
    {
      "inputs": [],
      "name": "paused",
      "outputs": [
        {
          "internalType": "bool",
          "name": "",
          "type": "bool"
        }
      ],
      "stateMutability": "view",
      "type": "function"
    },
    {
      "inputs": [
        {
          "internalType": "uint256",
          "name": "strategyId",
          "type": "uint256"
        },
        {
          "internalType": "address[]",
          "name": "newAssets",
          "type": "address[]"
        },
        {
          "internalType": "uint256[]",
          "name": "newAllocations",
          "type": "uint256[]"
        }
      ],
      "name": "rebalanceStrategy",
      "outputs": [],
      "stateMutability": "nonpayable",
      "type": "function"
    },
    {
      "inputs": [],
      "name": "renounceOwnership",
      "outputs": [],
      "stateMutability": "nonpayable",
      "type": "function"
    },
    {
      "inputs": [
        {
          "internalType": "uint256",
          "name": "strategyId",
          "type": "uint256"
        }
      ],
      "name": "resumeStrategy",
      "outputs": [],
      "stateMutability": "nonpayable",
      "type": "function"
    },
    {
      "inputs": [
        {
          "internalType": "uint256",
          "name": "",
          "type": "uint256"
        }
      ],
      "name": "strategies",
      "outputs": [
        {
          "internalType": "uint256",
          "name": "id",
          "type": "uint256"
        },
        {
          "internalType": "address",
          "name": "user",
          "type": "address"
        },
        {
          "internalType": "enum CoreYieldStrategy.StrategyType",
          "name": "strategyType",
          "type": "uint8"
        },
        {
          "internalType": "uint256",
          "name": "totalValue",
          "type": "uint256"
        },
        {
          "internalType": "uint256",
          "name": "targetAPY",
          "type": "uint256"
        },
        {
          "internalType": "uint256",
          "name": "riskTolerance",
          "type": "uint256"
        },
        {
          "internalType": "enum CoreYieldStrategy.StrategyStatus",
          "name": "status",
          "type": "uint8"
        },
        {
          "internalType": "uint256",
          "name": "startTime",
          "type": "uint256"
        },
        {
          "internalType": "uint256",
          "name": "lastRebalance",
          "type": "uint256"
        },
        {
          "internalType": "uint256",
          "name": "rebalanceFrequency",
          "type": "uint256"
        },
        {
          "internalType": "uint256",
          "name": "maxDrawdown",
          "type": "uint256"
        },
        {
          "internalType": "bool",
          "name": "autoRebalance",
          "type": "bool"
        }
      ],
      "stateMutability": "view",
      "type": "function"
    },
    {
      "inputs": [],
      "name": "strategyCount",
      "outputs": [
        {
          "internalType": "uint256",
          "name": "",
          "type": "uint256"
        }
      ],
      "stateMutability": "view",
      "type": "function"
    },
    {
      "inputs": [
        {
          "internalType": "uint256",
          "name": "",
          "type": "uint256"
        }
      ],
      "name": "strategyPerformance",
      "outputs": [
        {
          "internalType": "uint256",
          "name": "totalReturn",
          "type": "uint256"
        },
        {
          "internalType": "uint256",
          "name": "currentAPY",
          "type": "uint256"
        },
        {
          "internalType": "uint256",
          "name": "maxDrawdown",
          "type": "uint256"
        },
        {
          "internalType": "uint256",
          "name": "sharpeRatio",
          "type": "uint256"
        },
        {
          "internalType": "uint256",
          "name": "lastUpdateTime",
          "type": "uint256"
        }
      ],
      "stateMutability": "view",
      "type": "function"
    },
    {
      "inputs": [],
      "name": "totalValueLocked",
      "outputs": [
        {
          "internalType": "uint256",
          "name": "",
          "type": "uint256"
        }
      ],
      "stateMutability": "view",
      "type": "function"
    },
    {
      "inputs": [
        {
          "internalType": "address",
          "name": "newOwner",
          "type": "address"
        }
      ],
      "name": "transferOwnership",
      "outputs": [],
      "stateMutability": "nonpayable",
      "type": "function"
    },
    {
      "inputs": [],
      "name": "unpause",
      "outputs": [],
      "stateMutability": "nonpayable",
      "type": "function"
    },
    {
      "inputs": [
        {
          "internalType": "address",
          "name": "",
          "type": "address"
        },
        {
          "internalType": "uint256",
          "name": "",
          "type": "uint256"
        }
      ],
      "name": "userStrategies",
      "outputs": [
        {
          "internalType": "uint256",
          "name": "",
          "type": "uint256"
        }
      ],
      "stateMutability": "view",
      "type": "function"
    }
  ],
  "bytecode": "0x60808060405234610084576001600055331561006e5760018054336001600160a01b03198216811790925560405191906001600160a01b03167f8be0079c531659141344cd1fd0a4f28419497f9722a3daafe3b4186f6b6457e0600080a36000600555611566908161008a8239f35b631e4fbdf760e01b815260006004820152602490fd5b600080fdfe608080604052600436101561001357600080fd5b60003560e01c90816322068b44146111ba575080632cc3ce4d14610e6a57806332ec0fed14610fc25780633e9f9e4914610f6a5780633f4ba83a14610ef85780635c975abb14610ed25780636b844f2a14610e6a578063715018a614610e0d578063746065f814610d5957806379f02fd414610d075780638456cb5914610c90578063887a2f7214610a015780638a524fa7146109ab5780638da5cb5b14610982578063a6d3597a14610896578063d574ea3d146107ce578063db089e791461067a578063e2bff5e614610627578063ec18154e14610609578063f2fde38b1461057b5763faece1c31461010657600080fd5b346104e65760e03660031901126104e657600760043510156104e65760243567ffffffffffffffff81116104e6576101429036906004016111d5565b60443567ffffffffffffffff81116104e6576101629036906004016111d5565b9060c4359182151583036104e65761017b8415156112d8565b61018681851461131a565b6064351561054157600a60843511610503576101a360055461135e565b9485600555604051946101c0860186811067ffffffffffffffff8211176104795760405286865233602087015260043560408701526101e18161138f565b916101ef604051938461136d565b8183526020830190368360051b8201116104e65780915b8360051b820183106104eb575050505060608501526102248161138f565b91610232604051938461136d565b8183526020830190368360051b8201116104e65780915b8360051b820183106104d657505050506080830152600060a083015260643560c083015260843560e08301526000610100830152426101208301524261014083015260a435610160830152600061018083015215156101a08201528160005260026020526040600020815181556001810160018060a01b036020840151168154906040850151600781101561048f576001600160a81b03199092161760a09190911b60ff60a01b16179055606082015180519067ffffffffffffffff8211610479576020600284019161031c84846113a7565b0190600052602060002060005b8381106104b95750505050608082015180519067ffffffffffffffff8211610479576020600384019161035c84846113a7565b0190600052602060002060005b8381106104a5575050505060a0820151600482015560c0820151600582015560e082015160068201556007810161010083015191600483101561048f57600c6101a09160ff938419958587835416911617905561012086015160088201556101408601516009820155610160860151600a820155610180860151600b820155019301511515918354169116179055336000526004602052604060002090815491600160401b8310156104795782610427916001602095018155611230565b81549060031b9083821b91600019901b191617905560405161044b81600435611292565b817f2d5ae33d603d2c8524a5fdf2eff48d1f7af4e25b05a4297c79f7075ba02576a6843393a3604051908152f35b634e487b7160e01b600052604160045260246000fd5b634e487b7160e01b600052602160045260246000fd5b600190602084519401938184015501610369565b82516001600160a01b031681830155602090920191600101610329565b8235815260209283019201610249565b600080fd5b602080916104f88561121c565b815201920191610206565b60405162461bcd60e51b8152602060048201526016602482015275496e76616c6964207269736b20746f6c6572616e636560501b6044820152606490fd5b60405162461bcd60e51b8152602060048201526012602482015271496e76616c6964207461726765742041505960701b6044820152606490fd5b346104e65760203660031901126104e657610594611206565b61059c6112ac565b6001600160a01b039081169081156105f057600154826bffffffffffffffffffffffff60a01b821617600155167f8be0079c531659141344cd1fd0a4f28419497f9722a3daafe3b4186f6b6457e0600080a3005b604051631e4fbdf760e01b815260006004820152602490fd5b346104e65760003660031901126104e6576020600654604051908152f35b346104e65760203660031901126104e65760043580600052600260205261065f60018060a01b0360016040600020015416331461142c565b6000908152600260205260409020600701805460ff19169055005b346104e6576020806003193601126104e6576004356000526002815260406000209060018201546002830192600481015491600582015460068301549060ff6007850154169660088501549360098601549560405190818a855491828152019081956000528b6000209060005b8181106107b1575050506107099161070384600393038561136d565b016114bf565b91604051998a926101406107358186019460ff8560018060a01b03988984168152019160a01c16611292565b60408d0152518092526101608b0194926000905b8382106107985750505050509161076e82899a948a61078897950360608c015261125e565b96608089015260a088015260c087015260e086019061129f565b6101008401526101208301520390f35b8451811687529582019593820193600190910190610749565b82546001600160a01b03168452928d0192600192830192016106e7565b346104e65760203660031901126104e6576004356000526002602052610180604060002080549060018101549060048101546005820154600683015461087560ff600786015416600886015492600987015494600a8801549661085c60ff600c600b8c01549b0154169a60ff604080519e8f90815260018060a01b0384166020820152019160a01c16611292565b60608b015260808a015260a089015260c088019061129f565b60e08601526101008501526101208401526101408301521515610160820152f35b346104e65760203660031901126104e657600435806000526002602052604060002060ff600c820154161561093d576001816108e86108e0600960ff950154600a8401549061146d565b42101561147a565b015460a01c16600781101561048f576004810361091b57506109199060005260026020526040600020600942910155565b005b60051461092457005b6109199060005260026020526040600020600942910155565b60405162461bcd60e51b815260206004820152601a60248201527f4175746f2d726562616c616e6365206e6f7420656e61626c65640000000000006044820152606490fd5b346104e65760003660031901126104e6576001546040516001600160a01b039091168152602090f35b346104e65760203660031901126104e6576004358060005260026020526109e360018060a01b0360016040600020015416331461142c565b6000908152600260205260409020600701805460ff19166001179055005b346104e6576020806003193601126104e657600435906002918260005414610c7e57826000558060005282825260ff60076040600020015416600481101561048f57610a4d90156113ea565b80600052828252604060002060019260ff8483015460a01c16600781101561048f57808503610b4957508260005284815260406000208460009187810160039360048584019301935b610afd575b5050505050906040916000805160206115118339815191529394955b85600052815260646003846000208184526005866000209160048101548355015489820155426004820155015560056004830154920154908351928352820152a2600055005b8154811015610b445790610b3b82610b188b96959484611230565b5050610b34610b278286611230565b905490891b1c865461146d565b855561135e565b90919293610a96565b610a9b565b8581969294959614600014610bbd57509083600052818352600460406000200192835492600584029484860460051485151715610ba757610ba06040956103e860008051602061151183398151915298049061146d565b9055610ab7565b634e487b7160e01b600052601160045260246000fd5b60038103610c0a57509083600052818352600b60406000200192835492605084029380850460501490151715610ba757600080516020611511833981519152946064604095049055610ab7565b600614610c2b575b9060008051602061151183398151915292604092610ab7565b9083600052818352600460406000200192835492600384029484860460031485151715610ba757610c726040956103e860008051602061151183398151915298049061146d565b90559192509250610c12565b604051633ee5aeb560e01b8152600490fd5b346104e65760003660031901126104e657610ca96112ac565b60015460ff8160a01c16610cf55760ff60a01b1916600160a01b176001556040513381527f62e78cea01bee320cd4e420270b5ea74000d11b0c9f74754ebdbfc544b05a25890602090a1005b60405163d93c066560e01b8152600490fd5b346104e65760203660031901126104e6576001600160a01b03610d28611206565b166000526004602052610d55610d4160406000206114bf565b60405191829160208352602083019061125e565b0390f35b346104e65760203660031901126104e657600435806000526002602052610d9160018060a01b0360016040600020015416331461142c565b8060005260026020526040600020600781019081549060ff821692600484101561048f576002604093610de57f37c8380b2284767eac942c610487f999ad4aa72b275e8af54bf32e4de2fc7d7496156113ea565b60ff1916179055836000526003602052600482600020549101549082519182526020820152a2005b346104e65760003660031901126104e657610e266112ac565b600180546001600160a01b031981169091556000906001600160a01b03167f8be0079c531659141344cd1fd0a4f28419497f9722a3daafe3b4186f6b6457e08280a3005b346104e65760203660031901126104e657600435600052600360205260406000208054610d556001830154926002810154906004600382015491015491604051958695869192608093969594919660a084019784526020840152604083015260608201520152565b346104e65760003660031901126104e657602060ff60015460a01c166040519015158152f35b346104e65760003660031901126104e657610f116112ac565b60015460ff8160a01c1615610f585760ff60a01b19166001556040513381527f5db9ee0a495bf2e6ff9c91a7834c1ba4fdd244a5e8aa4e537bd38aeae4b073aa90602090a1005b604051638dfc202b60e01b8152600490fd5b346104e65760403660031901126104e657610f83611206565b6001600160a01b03166000908152600460205260409020805460243591908210156104e657602091610fb491611230565b90546040519160031b1c8152f35b346104e65760603660031901126104e65760043567ffffffffffffffff6024358181116104e657610ff79036906004016111d5565b90916044358181116104e6576110119036906004016111d5565b90856000526020926002845260018060a01b039460019161103c87846040600020015416331461142c565b886000526002865260ff60076040600020015416600481101561048f5761106390156113ea565b61106e8215156112d8565b61107985831461131a565b8860005260028652604060002090600982019161109f6108e08454600a8401549061146d565b60028101828511610479576110b485826113a7565b6000908152888120908b5b86821061119e57505050600301908611610479576110e18682999594996113a7565b8490600052866000209060005b87811061118d5750505042905560405195806040880160408952526060870197926000905b82821061116b575050505084860384860152508185526001600160fb1b0382116104e6577f57dbebc5ac142104ecfe3b6145eeaa414d1090caff24201c616542a432efaee994849260051b80928583013701030190a2005b9091928780869b8461117d859961121c565b168152019a019493920190611113565b8135838201559088019084016110ee565b8035918c831683036104e6578b899201928185015501906110bf565b346104e65760003660031901126104e6576020906005548152f35b9181601f840112156104e65782359167ffffffffffffffff83116104e6576020808501948460051b0101116104e657565b600435906001600160a01b03821682036104e657565b35906001600160a01b03821682036104e657565b80548210156112485760005260206000200190600090565b634e487b7160e01b600052603260045260246000fd5b90815180825260208080930193019160005b82811061127e575050505090565b835185529381019392810192600101611270565b90600782101561048f5752565b90600482101561048f5752565b6001546001600160a01b031633036112c057565b60405163118cdaa760e01b8152336004820152602490fd5b156112df57565b60405162461bcd60e51b8152602060048201526013602482015272139bc8185cdcd95d1cc81cdc1958da599a5959606a1b6044820152606490fd5b1561132157565b60405162461bcd60e51b8152602060048201526015602482015274082e4e4c2f240d8cadccee8d040dad2e6dac2e8c6d605b1b6044820152606490fd5b6000198114610ba75760010190565b90601f8019910116810190811067ffffffffffffffff82111761047957604052565b67ffffffffffffffff81116104795760051b60200190565b600160401b8211610479578054918082558281106113c457505050565b60009182526020822092830192015b8281106113df57505050565b8181556001016113d3565b156113f157565b60405162461bcd60e51b81526020600482015260136024820152725374726174656779206e6f742061637469766560681b6044820152606490fd5b1561143357565b60405162461bcd60e51b81526020600482015260126024820152712737ba1039ba3930ba32b3bc9037bbb732b960711b6044820152606490fd5b91908201809211610ba757565b1561148157565b60405162461bcd60e51b8152602060048201526016602482015275546f6f206561726c7920746f20726562616c616e636560501b6044820152606490fd5b9060405191828154918282526020928383019160005283600020936000905b8282106114f6575050506114f49250038361136d565b565b8554845260019586019588955093810193909101906114de56fe5cbbd55b15d61e9c5c325482654ebc8a6770f32a48cc3d374ab5173c254c94e6a2646970667358221220c4c0d4fe6af7f45776f8ecba251b55ffa4461e6a01479cb6386bdf5b1620aef064736f6c63430008140033",
  "linkReferences": {},
  "deployedLinkReferences": {}
}