{
  "_format": "hh-sol-artifact-1",
  "contractName": "CoreYieldFactory",
  "sourceName": "contracts/core/CoreYieldFactory.sol",
  "abi": [
    {
      "inputs": [],
      "stateMutability": "nonpayable",
      "type": "constructor"
    },
    {
      "inputs": [
        {
          "internalType": "address",
          "name": "owner",
          "type": "address"
        }
      ],
      "name": "OwnableInvalidOwner",
      "type": "error"
    },
    {
      "inputs": [
        {
          "internalType": "address",
          "name": "account",
          "type": "address"
        }
      ],
      "name": "OwnableUnauthorizedAccount",
      "type": "error"
    },
    {
      "inputs": [],
      "name": "ReentrancyGuardReentrantCall",
      "type": "error"
    },
    {
      "inputs": [
        {
          "internalType": "address",
          "name": "token",
          "type": "address"
        }
      ],
      "name": "SafeERC20FailedOperation",
      "type": "error"
    },
    {
      "anonymous": false,
      "inputs": [
        {
          "indexed": true,
          "internalType": "address",
          "name": "syToken",
          "type": "address"
        },
        {
          "indexed": true,
          "internalType": "address",
          "name": "ptToken",
          "type": "address"
        },
        {
          "indexed": true,
          "internalType": "address",
          "name": "ytToken",
          "type": "address"
        },
        {
          "indexed": false,
          "internalType": "uint256",
          "name": "maturity",
          "type": "uint256"
        }
      ],
      "name": "MarketCreated",
      "type": "event"
    },
    {
      "anonymous": false,
      "inputs": [
        {
          "indexed": true,
          "internalType": "address",
          "name": "syToken",
          "type": "address"
        },
        {
          "indexed": true,
          "internalType": "address",
          "name": "by",
          "type": "address"
        }
      ],
      "name": "MarketPaused",
      "type": "event"
    },
    {
      "anonymous": false,
      "inputs": [
        {
          "indexed": true,
          "internalType": "address",
          "name": "syToken",
          "type": "address"
        },
        {
          "indexed": true,
          "internalType": "address",
          "name": "by",
          "type": "address"
        }
      ],
      "name": "MarketResumed",
      "type": "event"
    },
    {
      "anonymous": false,
      "inputs": [
        {
          "indexed": true,
          "internalType": "address",
          "name": "previousOwner",
          "type": "address"
        },
        {
          "indexed": true,
          "internalType": "address",
          "name": "newOwner",
          "type": "address"
        }
      ],
      "name": "OwnershipTransferred",
      "type": "event"
    },
    {
      "anonymous": false,
      "inputs": [
        {
          "indexed": true,
          "internalType": "address",
          "name": "syToken",
          "type": "address"
        },
        {
          "indexed": true,
          "internalType": "address",
          "name": "user",
          "type": "address"
        },
        {
          "indexed": false,
          "internalType": "uint256",
          "name": "ptAmount",
          "type": "uint256"
        },
        {
          "indexed": false,
          "internalType": "uint256",
          "name": "ytAmount",
          "type": "uint256"
        },
        {
          "indexed": false,
          "internalType": "uint256",
          "name": "syAmount",
          "type": "uint256"
        }
      ],
      "name": "TokensRedeemed",
      "type": "event"
    },
    {
      "anonymous": false,
      "inputs": [
        {
          "indexed": true,
          "internalType": "address",
          "name": "syToken",
          "type": "address"
        },
        {
          "indexed": true,
          "internalType": "address",
          "name": "user",
          "type": "address"
        },
        {
          "indexed": false,
          "internalType": "uint256",
          "name": "syAmount",
          "type": "uint256"
        },
        {
          "indexed": false,
          "internalType": "uint256",
          "name": "ptAmount",
          "type": "uint256"
        },
        {
          "indexed": false,
          "internalType": "uint256",
          "name": "ytAmount",
          "type": "uint256"
        },
        {
          "indexed": false,
          "internalType": "uint256",
          "name": "fee",
          "type": "uint256"
        }
      ],
      "name": "TokensSplit",
      "type": "event"
    },
    {
      "anonymous": false,
      "inputs": [
        {
          "indexed": true,
          "internalType": "address",
          "name": "syToken",
          "type": "address"
        },
        {
          "indexed": true,
          "internalType": "address",
          "name": "user",
          "type": "address"
        },
        {
          "indexed": false,
          "internalType": "uint256",
          "name": "amount",
          "type": "uint256"
        }
      ],
      "name": "YieldClaimed",
      "type": "event"
    },
    {
      "anonymous": false,
      "inputs": [
        {
          "indexed": true,
          "internalType": "address",
          "name": "syToken",
          "type": "address"
        },
        {
          "indexed": false,
          "internalType": "uint256",
          "name": "amount",
          "type": "uint256"
        },
        {
          "indexed": false,
          "internalType": "uint256",
          "name": "timestamp",
          "type": "uint256"
        }
      ],
      "name": "YieldDistributed",
      "type": "event"
    },
    {
      "inputs": [],
      "name": "FEE_DENOMINATOR",
      "outputs": [
        {
          "internalType": "uint256",
          "name": "",
          "type": "uint256"
        }
      ],
      "stateMutability": "view",
      "type": "function"
    },
    {
      "inputs": [],
      "name": "MARKET_CREATION_FEE",
      "outputs": [
        {
          "internalType": "uint256",
          "name": "",
          "type": "uint256"
        }
      ],
      "stateMutability": "view",
      "type": "function"
    },
    {
      "inputs": [
        {
          "internalType": "uint256",
          "name": "",
          "type": "uint256"
        }
      ],
      "name": "allMarkets",
      "outputs": [
        {
          "internalType": "address",
          "name": "",
          "type": "address"
        }
      ],
      "stateMutability": "view",
      "type": "function"
    },
    {
      "inputs": [
        {
          "internalType": "address[]",
          "name": "syTokens",
          "type": "address[]"
        },
        {
          "internalType": "uint256[]",
          "name": "yieldAmounts",
          "type": "uint256[]"
        },
        {
          "internalType": "address",
          "name": "yieldSource",
          "type": "address"
        }
      ],
      "name": "batchDistributeYield",
      "outputs": [],
      "stateMutability": "nonpayable",
      "type": "function"
    },
    {
      "inputs": [
        {
          "internalType": "address",
          "name": "syToken",
          "type": "address"
        }
      ],
      "name": "claimYield",
      "outputs": [],
      "stateMutability": "nonpayable",
      "type": "function"
    },
    {
      "inputs": [
        {
          "internalType": "address",
          "name": "syToken",
          "type": "address"
        },
        {
          "internalType": "uint256",
          "name": "maturityDuration",
          "type": "uint256"
        },
        {
          "internalType": "string",
          "name": "ptName",
          "type": "string"
        },
        {
          "internalType": "string",
          "name": "ptSymbol",
          "type": "string"
        },
        {
          "internalType": "string",
          "name": "ytName",
          "type": "string"
        },
        {
          "internalType": "string",
          "name": "ytSymbol",
          "type": "string"
        },
        {
          "internalType": "uint256",
          "name": "_minInvestment",
          "type": "uint256"
        },
        {
          "internalType": "uint256",
          "name": "_maxInvestment",
          "type": "uint256"
        }
      ],
      "name": "createMarket",
      "outputs": [
        {
          "internalType": "address",
          "name": "ptToken",
          "type": "address"
        },
        {
          "internalType": "address",
          "name": "ytToken",
          "type": "address"
        }
      ],
      "stateMutability": "nonpayable",
      "type": "function"
    },
    {
      "inputs": [
        {
          "internalType": "address",
          "name": "syToken",
          "type": "address"
        },
        {
          "internalType": "uint256",
          "name": "yieldAmount",
          "type": "uint256"
        },
        {
          "internalType": "address",
          "name": "yieldSource",
          "type": "address"
        }
      ],
      "name": "distributeYieldFromSource",
      "outputs": [],
      "stateMutability": "nonpayable",
      "type": "function"
    },
    {
      "inputs": [],
      "name": "emergencyPause",
      "outputs": [],
      "stateMutability": "nonpayable",
      "type": "function"
    },
    {
      "inputs": [],
      "name": "emergencyResume",
      "outputs": [],
      "stateMutability": "nonpayable",
      "type": "function"
    },
    {
      "inputs": [],
      "name": "getAllMarkets",
      "outputs": [
        {
          "internalType": "address[]",
          "name": "",
          "type": "address[]"
        }
      ],
      "stateMutability": "view",
      "type": "function"
    },
    {
      "inputs": [
        {
          "internalType": "address",
          "name": "syToken",
          "type": "address"
        },
        {
          "internalType": "address",
          "name": "user",
          "type": "address"
        }
      ],
      "name": "getClaimableYield",
      "outputs": [
        {
          "internalType": "uint256",
          "name": "",
          "type": "uint256"
        }
      ],
      "stateMutability": "view",
      "type": "function"
    },
    {
      "inputs": [
        {
          "internalType": "address",
          "name": "syToken",
          "type": "address"
        }
      ],
      "name": "getMarket",
      "outputs": [
        {
          "components": [
            {
              "internalType": "bool",
              "name": "active",
              "type": "bool"
            },
            {
              "internalType": "address",
              "name": "syToken",
              "type": "address"
            },
            {
              "internalType": "address",
              "name": "ptToken",
              "type": "address"
            },
            {
              "internalType": "address",
              "name": "ytToken",
              "type": "address"
            },
            {
              "internalType": "uint256",
              "name": "maturity",
              "type": "uint256"
            },
            {
              "internalType": "uint256",
              "name": "totalSYDeposited",
              "type": "uint256"
            },
            {
              "internalType": "uint256",
              "name": "totalYieldDistributed",
              "type": "uint256"
            },
            {
              "internalType": "uint256",
              "name": "minInvestment",
              "type": "uint256"
            },
            {
              "internalType": "uint256",
              "name": "maxInvestment",
              "type": "uint256"
            },
            {
              "internalType": "uint256",
              "name": "createdAt",
              "type": "uint256"
            }
          ],
          "internalType": "struct ICoreYieldFactory.Market",
          "name": "",
          "type": "tuple"
        }
      ],
      "stateMutability": "view",
      "type": "function"
    },
    {
      "inputs": [
        {
          "internalType": "address",
          "name": "syToken",
          "type": "address"
        }
      ],
      "name": "getMarketAnalytics",
      "outputs": [
        {
          "internalType": "uint256",
          "name": "totalDeposited",
          "type": "uint256"
        },
        {
          "internalType": "uint256",
          "name": "daysToMaturity",
          "type": "uint256"
        },
        {
          "internalType": "bool",
          "name": "isActive",
          "type": "bool"
        },
        {
          "internalType": "bool",
          "name": "isExpired",
          "type": "bool"
        },
        {
          "internalType": "uint256",
          "name": "totalYieldDistributed",
          "type": "uint256"
        },
        {
          "internalType": "uint256",
          "name": "lastYieldDistribution",
          "type": "uint256"
        },
        {
          "internalType": "uint256",
          "name": "minInvestment",
          "type": "uint256"
        },
        {
          "internalType": "uint256",
          "name": "maxInvestment",
          "type": "uint256"
        }
      ],
      "stateMutability": "view",
      "type": "function"
    },
    {
      "inputs": [],
      "name": "getMarketCount",
      "outputs": [
        {
          "internalType": "uint256",
          "name": "",
          "type": "uint256"
        }
      ],
      "stateMutability": "view",
      "type": "function"
    },
    {
      "inputs": [
        {
          "internalType": "address",
          "name": "syToken",
          "type": "address"
        },
        {
          "internalType": "address",
          "name": "user",
          "type": "address"
        }
      ],
      "name": "getMarketValue",
      "outputs": [
        {
          "internalType": "uint256",
          "name": "",
          "type": "uint256"
        }
      ],
      "stateMutability": "view",
      "type": "function"
    },
    {
      "inputs": [],
      "name": "getProtocolStats",
      "outputs": [
        {
          "internalType": "uint256",
          "name": "totalMarkets",
          "type": "uint256"
        },
        {
          "internalType": "uint256",
          "name": "activeMarkets",
          "type": "uint256"
        },
        {
          "internalType": "uint256",
          "name": "totalValueLocked",
          "type": "uint256"
        },
        {
          "internalType": "uint256",
          "name": "totalYieldDistributed",
          "type": "uint256"
        },
        {
          "internalType": "uint256",
          "name": "lastGlobalYieldDistribution",
          "type": "uint256"
        }
      ],
      "stateMutability": "view",
      "type": "function"
    },
    {
      "inputs": [
        {
          "internalType": "address",
          "name": "user",
          "type": "address"
        }
      ],
      "name": "getUserAnalytics",
      "outputs": [
        {
          "internalType": "uint256",
          "name": "totalMarkets",
          "type": "uint256"
        },
        {
          "internalType": "uint256",
          "name": "activePTBalance",
          "type": "uint256"
        },
        {
          "internalType": "uint256",
          "name": "activeYTBalance",
          "type": "uint256"
        },
        {
          "internalType": "uint256",
          "name": "totalSYInvested",
          "type": "uint256"
        },
        {
          "internalType": "uint256",
          "name": "lastActivityTime",
          "type": "uint256"
        },
        {
          "internalType": "uint256",
          "name": "totalYieldClaimed",
          "type": "uint256"
        }
      ],
      "stateMutability": "view",
      "type": "function"
    },
    {
      "inputs": [
        {
          "internalType": "address",
          "name": "user",
          "type": "address"
        }
      ],
      "name": "getUserMarkets",
      "outputs": [
        {
          "internalType": "address[]",
          "name": "",
          "type": "address[]"
        }
      ],
      "stateMutability": "view",
      "type": "function"
    },
    {
      "inputs": [
        {
          "internalType": "address",
          "name": "syToken",
          "type": "address"
        },
        {
          "internalType": "address",
          "name": "user",
          "type": "address"
        }
      ],
      "name": "getUserPosition",
      "outputs": [
        {
          "components": [
            {
              "internalType": "uint256",
              "name": "syAmount",
              "type": "uint256"
            },
            {
              "internalType": "uint256",
              "name": "ptAmount",
              "type": "uint256"
            },
            {
              "internalType": "uint256",
              "name": "ytAmount",
              "type": "uint256"
            },
            {
              "internalType": "uint256",
              "name": "lastInteraction",
              "type": "uint256"
            },
            {
              "internalType": "uint256",
              "name": "totalYieldClaimed",
              "type": "uint256"
            },
            {
              "internalType": "uint256",
              "name": "lastYieldClaim",
              "type": "uint256"
            }
          ],
          "internalType": "struct ICoreYieldFactory.UserPosition",
          "name": "",
          "type": "tuple"
        }
      ],
      "stateMutability": "view",
      "type": "function"
    },
    {
      "inputs": [
        {
          "internalType": "address",
          "name": "syToken",
          "type": "address"
        }
      ],
      "name": "isMarketActive",
      "outputs": [
        {
          "internalType": "bool",
          "name": "",
          "type": "bool"
        }
      ],
      "stateMutability": "view",
      "type": "function"
    },
    {
      "inputs": [
        {
          "internalType": "address",
          "name": "",
          "type": "address"
        }
      ],
      "name": "markets",
      "outputs": [
        {
          "internalType": "bool",
          "name": "active",
          "type": "bool"
        },
        {
          "internalType": "address",
          "name": "syToken",
          "type": "address"
        },
        {
          "internalType": "address",
          "name": "ptToken",
          "type": "address"
        },
        {
          "internalType": "address",
          "name": "ytToken",
          "type": "address"
        },
        {
          "internalType": "uint256",
          "name": "maturity",
          "type": "uint256"
        },
        {
          "internalType": "uint256",
          "name": "totalSYDeposited",
          "type": "uint256"
        },
        {
          "internalType": "uint256",
          "name": "totalYieldDistributed",
          "type": "uint256"
        },
        {
          "internalType": "uint256",
          "name": "minInvestment",
          "type": "uint256"
        },
        {
          "internalType": "uint256",
          "name": "maxInvestment",
          "type": "uint256"
        },
        {
          "internalType": "uint256",
          "name": "createdAt",
          "type": "uint256"
        }
      ],
      "stateMutability": "view",
      "type": "function"
    },
    {
      "inputs": [],
      "name": "owner",
      "outputs": [
        {
          "internalType": "address",
          "name": "",
          "type": "address"
        }
      ],
      "stateMutability": "view",
      "type": "function"
    },
    {
      "inputs": [
        {
          "internalType": "address",
          "name": "syToken",
          "type": "address"
        }
      ],
      "name": "pauseMarket",
      "outputs": [],
      "stateMutability": "nonpayable",
      "type": "function"
    },
    {
      "inputs": [
        {
          "internalType": "address",
          "name": "syToken",
          "type": "address"
        },
        {
          "internalType": "uint256",
          "name": "amount",
          "type": "uint256"
        },
        {
          "internalType": "uint256",
          "name": "minSYAmount",
          "type": "uint256"
        }
      ],
      "name": "redeemTokens",
      "outputs": [],
      "stateMutability": "nonpayable",
      "type": "function"
    },
    {
      "inputs": [],
      "name": "renounceOwnership",
      "outputs": [],
      "stateMutability": "nonpayable",
      "type": "function"
    },
    {
      "inputs": [
        {
          "internalType": "address",
          "name": "syToken",
          "type": "address"
        }
      ],
      "name": "resumeMarket",
      "outputs": [],
      "stateMutability": "nonpayable",
      "type": "function"
    },
    {
      "inputs": [
        {
          "internalType": "address",
          "name": "syToken",
          "type": "address"
        },
        {
          "internalType": "uint256",
          "name": "syAmount",
          "type": "uint256"
        },
        {
          "internalType": "uint256",
          "name": "minPTAmount",
          "type": "uint256"
        },
        {
          "internalType": "uint256",
          "name": "minYTAmount",
          "type": "uint256"
        }
      ],
      "name": "splitTokens",
      "outputs": [],
      "stateMutability": "nonpayable",
      "type": "function"
    },
    {
      "inputs": [
        {
          "internalType": "address",
          "name": "newOwner",
          "type": "address"
        }
      ],
      "name": "transferOwnership",
      "outputs": [],
      "stateMutability": "nonpayable",
      "type": "function"
    },
    {
      "inputs": [
        {
          "internalType": "address",
          "name": "",
          "type": "address"
        },
        {
          "internalType": "uint256",
          "name": "",
          "type": "uint256"
        }
      ],
      "name": "userMarkets",
      "outputs": [
        {
          "internalType": "address",
          "name": "",
          "type": "address"
        }
      ],
      "stateMutability": "view",
      "type": "function"
    },
    {
      "inputs": [
        {
          "internalType": "address",
          "name": "",
          "type": "address"
        },
        {
          "internalType": "address",
          "name": "",
          "type": "address"
        }
      ],
      "name": "userPositions",
      "outputs": [
        {
          "internalType": "uint256",
          "name": "syAmount",
          "type": "uint256"
        },
        {
          "internalType": "uint256",
          "name": "ptAmount",
          "type": "uint256"
        },
        {
          "internalType": "uint256",
          "name": "ytAmount",
          "type": "uint256"
        },
        {
          "internalType": "uint256",
          "name": "lastInteraction",
          "type": "uint256"
        },
        {
          "internalType": "uint256",
          "name": "totalYieldClaimed",
          "type": "uint256"
        },
        {
          "internalType": "uint256",
          "name": "lastYieldClaim",
          "type": "uint256"
        }
      ],
      "stateMutability": "view",
      "type": "function"
    }
  ],
  "bytecode": "0x6080806040523461007e5733156100685760008054336001600160a01b03198216811783556040519290916001600160a01b0316907f8be0079c531659141344cd1fd0a4f28419497f9722a3daafe3b4186f6b6457e09080a3600180556143b190816100848239f35b631e4fbdf760e01b815260006004820152602490fd5b600080fdfe608060405260043610156200001357600080fd5b6000803560e01c8063068ad95d1462001eb15780630a6f89811462001e925780630ca0a0041462001b8d5780631caac70114620018215780632daf15cd146200126457806351858e2714620011fb57806352d84d1e14620011b25780635d65ca6a14620010c157806368e2cf061462000e86578063715018a61462000e28578063771aceef1462000d4357806381d358001462000cda578063827251961462000c7f5780638598bcc41462000b535780638da5cb5b1462000b2a5780638e8f294b1462000a7d57806392a576e6146200098e57806393c87f03146200091e5780639785a7df1462000883578063999927df1462000735578063ac6114bc14620006a2578063b0772d0b146200061c578063d4dfadbf1462000498578063d73792a91462000478578063da4473d814620003e2578063db0f871d1462000380578063e952cba914620002f0578063f2fde38b146200025e578063fa56165e14620001a85763fd69f3c2146200018657600080fd5b34620001a55780600319360112620001a5576020600354604051908152f35b80fd5b5034620001a5576020366003190112620001a557610100906001600160a01b03620001d262001ee6565b16815260026020526040812090600482015491600381015491428311600014620002575750620151806200020742846200220d565b04915b60ff8254169060058301549060088401549260076006860154950154956040519788526020880152151560408701524210156060860152608085015260a084015260c083015260e0820152f35b916200020a565b5034620001a5576020366003190112620001a5576200027c62001ee6565b62000286620020ba565b6001600160a01b03908116908115620002d757600054826001600160601b0360a01b821617600055167f8be0079c531659141344cd1fd0a4f28419497f9722a3daafe3b4186f6b6457e0600080a380f35b604051631e4fbdf760e01b815260048101849052602490fd5b5034620001a5576020366003190112620001a5576200030e62001ee6565b62000318620020ba565b6001600160a01b03908116808352600260205260408320549091620003439160081c16151562002372565b808252600260205260408220805460ff1916905533907fc716256a16d5b549d75db251538aa6a5e212e4e29de53ba0fbe1621d5cc8014b8380a380f35b5034620001a5576040366003190112620001a5576200039e62001ee6565b6001600160a01b03908116825260046020526040822080546024359390841015620001a55750602092620003d29162002043565b9190546040519260031b1c168152f35b5034620001a55760208060031936011262000474576001600160a01b0391826200040b62001ee6565b168152600482526040812092604051908193808654938481520195845280842093915b8383106200045a57620004568662000449818a038262001f78565b6040519182918262002074565b0390f35b84548116875295810195600194850194909201916200042e565b5080fd5b5034620001a55780600319360112620001a5576020604051620f42408152f35b5034620001a5576020366003190112620001a557604061014091620004bc62001ee6565b816101208451620004cd8162001f3f565b82815282602082015282868201528260608201528260808201528260a08201528260c08201528260e082015282610100820152015260018060a01b03168152600260205220610120604051620005238162001f3f565b600883549360ff85161515835260018060a01b0385831c16602084015260018060a01b03600182015416604084015260018060a01b03600282015416606084015260038101546080840152600481015460a0840152600581015460c0840152600681015460e0840152600781015461010084015201548282015260ff60405193161515835260018060a01b03602082015116602084015260018060a01b03604082015116604084015260018060a01b0360608201511660608401526080810151608084015260a081015160a084015260c081015160c084015260e081015160e08401526101008101516101008401520151610120820152f35b5034620001a55780600319360112620001a557604051600380548083529083526020808301937fc2575a0e9e593c00f959f8c92f12db2869c3395a3b0502d05e2516446f71f85b92915b82821062000681576200045685620004498189038262001f78565b83546001600160a01b03168652948501946001938401939091019062000666565b5034620001a5576020366003190112620001a557620006c062001ee6565b620006ca620020ba565b6001600160a01b03908116808352600260205260408320549091620006f59160081c16151562002372565b808252600260205260408220805460ff1916600117905533907f58c6cf720198b2d2014ac2483b8eb28155aba6d14f6606121848e11aca7586638380a380f35b5034620001a55760208060031936011262000474576200075462001ee6565b906200075f620022e4565b6001600160a01b038216808452600282526040842054909190620007869060ff16620021ce565b81845260058152604084203360005281526040600020926002840154156200084f57620007b5903390620023b7565b9283156200081657908160047ff3055bc8d92d9c8d2f12b45d112dd345cd2cfd17292b8d65c5642ac6f912dfd79301620007f1868254620020e7565b90556005429101556200080684338562002308565b6040519384523393a36001805580f35b60405162461bcd60e51b81526004810183905260116024820152704e6f207969656c6420746f20636c61696d60781b6044820152606490fd5b60405162461bcd60e51b815260048101839052600c60248201526b4e6f20595420746f6b656e7360a01b6044820152606490fd5b5034620001a5576040366003190112620001a557620008a162001ee6565b6040620008ad62001efd565b9260018060a01b0380931681526005602052209116600052602052604060002080546200045660018301549260028101549060038101546005600483015492015492604051968796879260a094919796959260c0850198855260208501526040840152606083015260808201520152565b5034620001a55780600319360112620001a5576200093b620020ba565b805b60039081548110156200098a5762000984916200095a8262001ff5565b9054911b1c6001600160a01b03168352600260205260408320805460ff191660011790556200234d565b6200093d565b8280f35b5034620001a5576040366003190112620001a557620009ac62001ee6565b6040620009b862001efd565b928060a08351620009c98162001f5c565b8281528260208201528285820152826060820152826080820152015260018060a01b038093168152600560205220911660005260205260c0604060002060405162000a148162001f5c565b8154918282526001810154602083019081526002820154604084019081526003830154916060850192835260a0600560048601549560808801968752015495019485526040519586525160208601525160408501525160608401525160808301525160a0820152f35b5034620001a5576020366003190112620001a557610140906001600160a01b03906040908262000aac62001ee6565b168152600260205220908154918160018201541682600283015416600383015460048401549060058501549260068601549460086007880154970154976040519960ff811615158b5260081c1660208a015260408901526060880152608087015260a086015260c085015260e0840152610100830152610120820152f35b5034620001a55780600319360112620001a557546040516001600160a01b039091168152602090f35b5034620001a55760208060031936011262000474579062000b7362001ee6565b909182918291829182916001600160a01b0391839190831690825b8288526004825260408820805488101562000c46579962000bb5888798999a9b9c62002043565b969054600397881b1c168a526005835260408a2084600052835262000c0462000bfa62000bed604060002093600185015490620020e7565b9c600284015490620020e7565b95825490620020e7565b9581015488811162000c3a575b5062000c2e91600462000c2792015490620020e7565b976200234d565b95949392979662000b8e565b975062000c2e62000c11565b50918752600490526040808720548151908152602081018a905290810188905260608101929092526080820184905260a082015260c090f35b5034620001a5576020366003190112620001a5576020906040906001600160a01b0362000cab62001ee6565b168152600283522060ff815416908162000ccb575b506040519015158152f35b60039150015442103862000cc0565b5034620001a5576040366003190112620001a55762000cf862001ee6565b604062000d0462001efd565b9260018060a01b0380931681526005602052209116600052602052602062000d3b60406000206002600182015491015490620020e7565b604051908152f35b5034620001a55780600319360112620001a55780818291839260038054945b85811062000d8d57505060a09450604051938452602084015260408301526060820152426080820152f35b62000d9b8195949562001ff5565b905490831b1c6001600160a01b031687526002602052604087206004810154909562000dd99162000dcc91620020e7565b94600587015490620020e7565b948260ff825416918262000e1a575b505062000e01575b62000dfb906200234d565b62000d62565b9162000e1162000dfb916200234d565b92905062000df0565b015442109050823862000de8565b5034620001a55780600319360112620001a55762000e45620020ba565b600080546001600160a01b0319811682556001600160a01b03167f8be0079c531659141344cd1fd0a4f28419497f9722a3daafe3b4186f6b6457e08280a380f35b5034620001a5576060366003190112620001a5576004356001600160401b03808211620010bd5736602383011215620010bd5781600401359162000eca836200205c565b9262000eda604051948562001f78565b8084526020918285016024809360051b830101913683116200108f578301905b82821062001097575050508035928311620010935736602384011215620010935782600401359262000f2c846200205c565b9362000f3c604051958662001f78565b808552828486019160051b830101913683116200108f5783859101915b8383106200107e575050505062000f6f62001f14565b918451845103620010445750845b8451811015620010405762000f9381856200235d565b5162000fab575b62000fa5906200234d565b62000f7d565b856001600160a01b038062000fc184896200235d565b51169062000fd084886200235d565b51303b156200103c5760405192632eb2e53560e11b845260048401528583015285166044820152818160648183305af18015620010315762001015575b505062000f9a565b620010209062001f2b565b6200102d5785386200100d565b8580fd5b6040513d84823e3d90fd5b8380fd5b8580f35b60156064926040519262461bcd60e51b8452600484015282015274082e4e4c2f240d8cadccee8d040dad2e6dac2e8c6d605b1b6044820152fd5b823581529181019185910162000f59565b8780fd5b8480fd5b81356001600160a01b0381168103620010b857815290840190840162000efa565b600080fd5b8280fd5b5034620001a5576060366003190112620001a557620010df62001ee6565b602435620010ec62001f14565b9160018060a01b03169182845260026020526200111060ff604086205416620021ce565b81156200117657816200114a7feb7e0363c2ab135c59a60c2c11ff34cf51eb456ec3b0b41852c4c4fd22116b4a936040933090876200221b565b838552600260205260058286200162001165828254620020e7565b90558151908152426020820152a280f35b60405162461bcd60e51b8152602060048201526014602482015273125b9d985b1a59081e5a595b1908185b5bdd5b9d60621b6044820152606490fd5b5034620001a5576020366003190112620001a55760043590600354821015620001a5576020620011e28362001ff5565b905460405160039290921b1c6001600160a01b03168152f35b5034620001a55780600319360112620001a55762001218620020ba565b805b60039081548110156200098a576200125e91620012378262001ff5565b9054911b1c6001600160a01b03168352600260205260408320805460ff191690556200234d565b6200121a565b5034620001a557610100366003190112620001a5576200128362001ee6565b906044356001600160401b0381116200047457620012a690369060040162001f9a565b906064356001600160401b0381116200047457620012c990369060040162001f9a565b926084356001600160401b038111620010bd57620012ec90369060040162001f9a565b60a4356001600160401b0381116200103c576200130e90369060040162001f9a565b936001600160a01b03831615620017e95762015180602435101580620017d8575b15620017a05760c43515620017625760c43560e435111562001724576001600160a01b03831684526002602052604084205460ff16620016ef576200137760243542620020e7565b95604051620013868162001f3f565b600181526008610120602083019260018060a01b0388168452604081018981528960608301528b60808301528960a08301528960c083015260c43560e083015260e435610100830152428383015260018060a01b0389168a52600260205260408a2094825115159060ff875491610100600160a81b039051881b169216906affffffffffffffffffffff60a81b161717855560018060a01b039051166001600160601b0360a01b6001860154161760018501556002840160018060a01b036060830151166001600160601b0360a01b8254161790556080810151600385015560a0810151600485015560c0810151600585015560e08101516006850155610100810151600785015501519101556040519182610f938101106001600160401b03610f9385011117620016db5787858493620014cf93610f93620024568739610f9386016200214d565b039084f0938415620016d05760405191610f93808401908482106001600160401b03831117620016bc57849362001510938a938893620033e988396200214d565b039083f0801562001031576001600160a01b0384163b15620010bd5760405163f2fde38b60e01b81523060048201528381602481836001600160a01b038a165af18015620016b15790849162001699575b50506001600160a01b031691823b15620001a55760405163f2fde38b60e01b8152306004820152818160248183885af18015620010315762001681575b506001600160a01b0382811682526002602081905260409092206001810180549287166001600160a01b031993841617905590910180549091168317905560035490600160401b8210156200166b576040946200160383600186950160035562001ff5565b81546001600160a01b0394851660039290921b82811b9086901b1990911617909155865191825291851691907ffe7e33f239f268e882861cae62e631558d814973588d97738cc084b8b348959990602090a482516001600160a01b0390921682526020820152f35b634e487b7160e01b600052604160045260246000fd5b6200168d829162001f2b565b620001a557386200159e565b620016a49062001f2b565b620010bd57823862001561565b6040513d86823e3d90fd5b634e487b7160e01b87526041600452602487fd5b6040513d85823e3d90fd5b634e487b7160e01b86526041600452602486fd5b60405162461bcd60e51b815260206004820152600d60248201526c4d61726b65742065786973747360981b6044820152606490fd5b60405162461bcd60e51b8152602060048201526016602482015275125b9d985b1a59081b585e081a5b9d995cdd1b595b9d60521b6044820152606490fd5b60405162461bcd60e51b8152602060048201526016602482015275125b9d985b1a59081b5a5b881a5b9d995cdd1b595b9d60521b6044820152606490fd5b60405162461bcd60e51b815260206004820152601060248201526f24b73b30b634b210323ab930ba34b7b760811b6044820152606490fd5b506301e1338060243511156200132f565b60405162461bcd60e51b815260206004820152601060248201526f24b73b30b634b21029ac903a37b5b2b760811b6044820152606490fd5b5034620001a5576080366003190112620001a5576200183f62001ee6565b602480356200184d620022e4565b6200185a81151562002190565b60018060a01b0380931691828552602093600285526200188160ff604088205416620021ce565b83865260028552600360408720015442101562001b5857838652600285526040862091620018b2843033886200221b565b604435841062001b1c57606435841062001ae05786826001850154168360028601541690803b15620010bd576040516340c10f1960e01b808252336004830152602482018990529184908290604490829084905af1908115620016b157849162001ac8575b5050813b15620010bd57604051908152336004820152602481018790529082908290604490829084905af18015620010315762001aac575b50859052600586526040872033600052865260406000206001810162001977868254620020e7565b9055600281016200198a868254620020e7565b905560034291015533875260048652604087208054801591821562001a6a575b505062001a09575b5050600401620019c4828254620020e7565b9055806040519381855284015260408301528260608301527fb2ed9e1121ab588b22d3471a84182113f9e0050aca5f90ab32b789c61863549560803393a36001805580f35b3387526004865260408720805491600160401b83101562001a5657508162001a3b916001600496959401815562002043565b819291549060031b9187831b921b19161790559038620019b2565b634e487b7160e01b60009081526041600452fd5b6000198201925090821162001a995762001a878792859262002043565b90549060031b1c1614153880620019aa565b634e487b7160e01b895260116004528289fd5b62001ab79062001f2b565b62001ac45786386200194f565b8680fd5b62001ad39062001f2b565b620010bd57823862001917565b8560166064926040519262461bcd60e51b8452600484015282015275125b9cdd59999a58da595b9d08165508185b5bdd5b9d60521b6044820152fd5b8560166064926040519262461bcd60e51b8452600484015282015275125b9cdd59999a58da595b9d08141508185b5bdd5b9d60521b6044820152fd5b60405162461bcd60e51b815260048101869052600e818401526d13585c9ad95d08195e1c1a5c995960921b6044820152606490fd5b5034620001a5576060366003190112620001a55762001bab62001ee6565b60243562001bb8620022e4565b62001bc581151562002190565b60018060a01b03809216908184526020926002845262001bec60ff604087205416620021ce565b828552600284526003604086200154421062001e5857828552600284526040852090600585526040862033875285526040862090600182018481541062001e135760028301918583541062001dce576001850154600286015482169116803b1562001dca57604051632770a7eb60e21b80825233600483015260248201899052918b908290604490829084905af1801562001dbf5762001da7575b50908991813b15620010bd57604051908152336004820152602481018890529082908290604490829084905af18015620010315762001d8f575b5050604435851062001d515790600493929162001ce086338962002308565b62001ced8682546200220d565b905562001cfc8582546200220d565b90556003429101550162001d128282546200220d565b9055806040519381855284015260408301527f75b6073dcb0773119aa05ecb4a5866ef9323b20a5b4e795d5a436532deeae4f760603393a36001805580f35b60405162461bcd60e51b8152600481018890526016602482015275125b9cdd59999a58da595b9d0814d648185b5bdd5b9d60521b6044820152606490fd5b62001d9a9062001f2b565b6200108f57873862001cc1565b62001db6909a91929a62001f2b565b98903862001c87565b6040513d8d823e3d90fd5b8980fd5b60405162461bcd60e51b815260048101899052601760248201527f496e73756666696369656e742059542062616c616e63650000000000000000006044820152606490fd5b60405162461bcd60e51b815260048101889052601760248201527f496e73756666696369656e742050542062616c616e63650000000000000000006044820152606490fd5b60405162461bcd60e51b815260048101859052601260248201527113585c9ad95d081b9bdd08195e1c1a5c995960721b6044820152606490fd5b5034620001a55780600319360112620001a55760206040516103e88152f35b5034620001a5576040366003190112620001a557602062000d3b62001ed562001ee6565b62001edf62001efd565b90620023b7565b600435906001600160a01b0382168203620010b857565b602435906001600160a01b0382168203620010b857565b604435906001600160a01b0382168203620010b857565b6001600160401b0381116200166b57604052565b61014081019081106001600160401b038211176200166b57604052565b60c081019081106001600160401b038211176200166b57604052565b90601f801991011681019081106001600160401b038211176200166b57604052565b81601f82011215620010b8578035906001600160401b0382116200166b576040519262001fd2601f8401601f19166020018562001f78565b82845260208383010111620010b857816000926020809301838601378301015290565b6003548110156200202d5760036000527fc2575a0e9e593c00f959f8c92f12db2869c3395a3b0502d05e2516446f71f85b0190600090565b634e487b7160e01b600052603260045260246000fd5b80548210156200202d5760005260206000200190600090565b6001600160401b0381116200166b5760051b60200190565b6020908160408183019282815285518094520193019160005b8281106200209c575050505090565b83516001600160a01b0316855293810193928101926001016200208d565b6000546001600160a01b03163303620020cf57565b60405163118cdaa760e01b8152336004820152602490fd5b91908201809211620020f557565b634e487b7160e01b600052601160045260246000fd5b919082519283825260005b84811062002138575050826000602080949584010152601f8019910116010190565b60208183018101518483018201520162002116565b906060926200216d6200217c92979695976080855260808501906200210b565b9083820360208501526200210b565b6001600160a01b0390951660408201520152565b156200219857565b60405162461bcd60e51b815260206004820152600e60248201526d125b9d985b1a5908185b5bdd5b9d60921b6044820152606490fd5b15620021d657565b60405162461bcd60e51b815260206004820152600f60248201526e4d61726b657420696e61637469766560881b6044820152606490fd5b91908203918211620020f557565b6040516323b872dd60e01b60208201526001600160a01b03928316602482015292909116604483015260648083019390935291815260a08101918183106001600160401b038411176200166b57620022769260405262002278565b565b906000602091828151910182855af115620022d8576000513d620022ce57506001600160a01b0381163b155b620022ac5750565b604051635274afe760e01b81526001600160a01b039091166004820152602490fd5b60011415620022a4565b6040513d6000823e3d90fd5b600260015414620022f6576002600155565b604051633ee5aeb560e01b8152600490fd5b60405163a9059cbb60e01b60208201526001600160a01b0392909216602483015260448083019390935291815262002276916200234760648362001f78565b62002278565b6000198114620020f55760010190565b80518210156200202d5760209160051b010190565b156200237a57565b60405162461bcd60e51b815260206004820152601560248201527413585c9ad95d08191bd95cc81b9bdd08195e1a5cdd605a1b6044820152606490fd5b9060018060a01b038060009316835260056020526040832091168252602052604081209060028201549182156200244f576005620023f8910154426200220d565b916103528082029180830482036200243b5784020292818404149015171562002427575064496cebb800900490565b634e487b7160e01b81526011600452602490fd5b634e487b7160e01b84526011600452602484fd5b5090509056fe60c060405234620003be5762000f93803803806200001d81620003c3565b9283398101608082820312620003be5781516001600160401b0390818111620003be57826200004e918501620003e9565b916020908185015190838211620003be576200006c918601620003e9565b9260408501519260018060a01b03958685168503620003be5760600151948251828111620002be576003918254916001958684811c94168015620003b3575b888510146200039d578190601f9485811162000347575b508890858311600114620002e057600092620002d4575b505060001982861b1c191690861b1783555b8051938411620002be5760049586548681811c91168015620002b3575b828210146200029e5783811162000253575b5080928511600114620001e55750938394918492600095620001d9575b50501b92600019911b1c19161781555b3315620001c1575060058054336001600160a01b03198216811790925560405194167f8be0079c531659141344cd1fd0a4f28419497f9722a3daafe3b4186f6b6457e0600080a360805260a052610b3790816200045c8239608051816105f9015260a0518181816101d70152818161065501526107600152f35b602490600060405191631e4fbdf760e01b8352820152fd5b01519350388062000137565b92919084601f1981168860005285600020956000905b898383106200023857505050106200021d575b50505050811b01815562000147565b01519060f884600019921b161c19169055388080806200020e565b858701518955909701969485019488935090810190620001fb565b87600052816000208480880160051c82019284891062000294575b0160051c019087905b828110620002875750506200011a565b6000815501879062000277565b925081926200026e565b602288634e487b7160e01b6000525260246000fd5b90607f169062000108565b634e487b7160e01b600052604160045260246000fd5b015190503880620000d9565b90889350601f19831691876000528a6000209260005b8c82821062000330575050841162000317575b505050811b018355620000eb565b015160001983881b60f8161c1916905538808062000309565b8385015186558c97909501949384019301620002f6565b90915085600052886000208580850160051c8201928b861062000393575b918a91869594930160051c01915b82811062000383575050620000c2565b600081558594508a910162000373565b9250819262000365565b634e487b7160e01b600052602260045260246000fd5b93607f1693620000ab565b600080fd5b6040519190601f01601f191682016001600160401b03811183821017620002be57604052565b919080601f84011215620003be5782516001600160401b038111620002be576020906200041f601f8201601f19168301620003c3565b92818452828287010111620003be5760005b8181106200044757508260009394955001015290565b85810183015184820184015282016200043156fe6080604081815260048036101561001557600080fd5b600092833560e01c90816306fdde031461084b57508063095ea7b3146107a257806318160ddd14610783578063204f83f91461074857806323b872dd14610628578063287b448d146105e4578063313ce567146105c857806340c10f19146104f057806370a08231146104b9578063715018a6146104595780638da5cb5b1461043057806395d89b41146103105780639dc29fac1461020e578063a9059cbb146101b2578063dd62ed3e146101655763f2fde38b146100d357600080fd5b34610161576020366003190112610161576100ec610989565b906100f56109ba565b6001600160a01b0391821692831561014b575050600554826bffffffffffffffffffffffff60a01b821617600555167f8be0079c531659141344cd1fd0a4f28419497f9722a3daafe3b4186f6b6457e08380a380f35b51631e4fbdf760e01b8152908101849052602490fd5b8280fd5b5050346101ae57806003193601126101ae5780602092610183610989565b61018b6109a4565b6001600160a01b0391821683526001865283832091168252845220549051908152f35b5080fd5b5050346101ae57806003193601126101ae576020906102076101d2610989565b6101fd7f000000000000000000000000000000000000000000000000000000000000000042106109e6565b6024359033610a23565b5160018152f35b5034610161578160031936011261016157610227610989565b91602435916102346109ba565b6001600160a01b0384169384156102fa578486528560205282862054918483106102c657505091602091817ffd38818f5291bf0bb3a2a48aadc06ba8757865d1dabd804585338aab3009dcb6948688528785520381872055816002540360025585857fddf252ad1be2c89b69c2b068fc378daa952ba7f163c4a11628f55a4df523b3ef858451868152a351908152a280f35b835163391434e360e21b81526001600160a01b03909216908201908152602081018390526040810185905281906060010390fd5b50846024925191634b637e8f60e11b8352820152fd5b509190346101ae57816003193601126101ae57805190828454600181811c90808316928315610426575b6020938484108114610413578388529081156103f757506001146103a2575b505050829003601f01601f191682019267ffffffffffffffff84118385101761038f575082918261038b925282610940565b0390f35b634e487b7160e01b815260418552602490fd5b8787529192508591837f8a35acfbc15ff81a39ae7d344fd709f28e8600b4aa8c65c6b64bfe7fe36bd19b5b8385106103e35750505050830101388080610359565b8054888601830152930192849082016103cd565b60ff1916878501525050151560051b8401019050388080610359565b634e487b7160e01b895260228a52602489fd5b91607f169161033a565b5050346101ae57816003193601126101ae5760055490516001600160a01b039091168152602090f35b83346104b657806003193601126104b6576104726109ba565b600580546001600160a01b0319811690915581906001600160a01b03167f8be0079c531659141344cd1fd0a4f28419497f9722a3daafe3b4186f6b6457e08280a380f35b80fd5b5050346101ae5760203660031901126101ae5760209181906001600160a01b036104e1610989565b16815280845220549051908152f35b50903461016157806003193601126101615761050a610989565b90602435916105176109ba565b6001600160a01b03169283156105b357600254908382018092116105a05750916020917f3f2c9d57c068687834f0de942a9babb9e5acab57d516d3480a3c16ee165a42739360025584865285835280862082815401905584867fddf252ad1be2c89b69c2b068fc378daa952ba7f163c4a11628f55a4df523b3ef858451868152a351908152a280f35b634e487b7160e01b865260119052602485fd5b84602492519163ec442f0560e01b8352820152fd5b5050346101ae57816003193601126101ae576020905160128152f35b5050346101ae57816003193601126101ae57517f00000000000000000000000000000000000000000000000000000000000000006001600160a01b03168152602090f35b5082346104b65760603660031901126104b657610643610989565b61064b6109a4565b916044359361067b7f000000000000000000000000000000000000000000000000000000000000000042106109e6565b6001600160a01b038316808352600160209081528784203385529052868320549160001983106106b4575b602088610207898989610a23565b86831061071c5781156107055733156106ee57508252600160209081528683203384528152918690209085900390558290610207876106a6565b8751634a1406b160e11b8152908101849052602490fd5b875163e602df0560e01b8152908101849052602490fd5b8751637dc7a0d960e11b8152339181019182526020820193909352604081018790528291506060010390fd5b5050346101ae57816003193601126101ae57602090517f00000000000000000000000000000000000000000000000000000000000000008152f35b5050346101ae57816003193601126101ae576020906002549051908152f35b50346101615781600319360112610161576107bb610989565b602435903315610834576001600160a01b031691821561081d57508083602095338152600187528181208582528752205582519081527f8c5be1e5ebec7d5bd14f71427d1e84f3dd0314c0f7b2291e5b200ac8c7c3b925843392a35160018152f35b8351634a1406b160e11b8152908101859052602490fd5b835163e602df0560e01b8152808401869052602490fd5b849150833461016157826003193601126101615782600354600181811c90808316928315610936575b60209384841081146104135783885290811561091a57506001146108c457505050829003601f01601f191682019267ffffffffffffffff84118385101761038f575082918261038b925282610940565b600387529192508591837fc2575a0e9e593c00f959f8c92f12db2869c3395a3b0502d05e2516446f71f85b5b8385106109065750505050830101858080610359565b8054888601830152930192849082016108f0565b60ff1916878501525050151560051b8401019050858080610359565b91607f1691610874565b6020808252825181830181905290939260005b82811061097557505060409293506000838284010152601f8019910116010190565b818101860151848201604001528501610953565b600435906001600160a01b038216820361099f57565b600080fd5b602435906001600160a01b038216820361099f57565b6005546001600160a01b031633036109ce57565b60405163118cdaa760e01b8152336004820152602490fd5b156109ed57565b60405162461bcd60e51b815260206004820152600e60248201526d13585c9ad95d08195e1c1a5c995960921b6044820152606490fd5b916001600160a01b03808416928315610ae85716928315610acf5760009083825281602052604082205490838210610a9d575091604082827fddf252ad1be2c89b69c2b068fc378daa952ba7f163c4a11628f55a4df523b3ef958760209652828652038282205586815220818154019055604051908152a3565b60405163391434e360e21b81526001600160a01b03919091166004820152602481019190915260448101839052606490fd5b60405163ec442f0560e01b815260006004820152602490fd5b604051634b637e8f60e11b815260006004820152602490fdfea2646970667358221220cbb015dc99b784cb475f6e40d381c7844100b1ed7fecdda3caad291266b86c1164736f6c6343000814003360c060405234620003be5762000f93803803806200001d81620003c3565b9283398101608082820312620003be5781516001600160401b0390818111620003be57826200004e918501620003e9565b916020908185015190838211620003be576200006c918601620003e9565b9260408501519260018060a01b03958685168503620003be5760600151948251828111620002be576003918254916001958684811c94168015620003b3575b888510146200039d578190601f9485811162000347575b508890858311600114620002e057600092620002d4575b505060001982861b1c191690861b1783555b8051938411620002be5760049586548681811c91168015620002b3575b828210146200029e5783811162000253575b5080928511600114620001e55750938394918492600095620001d9575b50501b92600019911b1c19161781555b3315620001c1575060058054336001600160a01b03198216811790925560405194167f8be0079c531659141344cd1fd0a4f28419497f9722a3daafe3b4186f6b6457e0600080a360805260a052610b3790816200045c8239608051816105f9015260a0518181816101d70152818161065501526107600152f35b602490600060405191631e4fbdf760e01b8352820152fd5b01519350388062000137565b92919084601f1981168860005285600020956000905b898383106200023857505050106200021d575b50505050811b01815562000147565b01519060f884600019921b161c19169055388080806200020e565b858701518955909701969485019488935090810190620001fb565b87600052816000208480880160051c82019284891062000294575b0160051c019087905b828110620002875750506200011a565b6000815501879062000277565b925081926200026e565b602288634e487b7160e01b6000525260246000fd5b90607f169062000108565b634e487b7160e01b600052604160045260246000fd5b015190503880620000d9565b90889350601f19831691876000528a6000209260005b8c82821062000330575050841162000317575b505050811b018355620000eb565b015160001983881b60f8161c1916905538808062000309565b8385015186558c97909501949384019301620002f6565b90915085600052886000208580850160051c8201928b861062000393575b918a91869594930160051c01915b82811062000383575050620000c2565b600081558594508a910162000373565b9250819262000365565b634e487b7160e01b600052602260045260246000fd5b93607f1693620000ab565b600080fd5b6040519190601f01601f191682016001600160401b03811183821017620002be57604052565b919080601f84011215620003be5782516001600160401b038111620002be576020906200041f601f8201601f19168301620003c3565b92818452828287010111620003be5760005b8181106200044757508260009394955001015290565b85810183015184820184015282016200043156fe6080604081815260048036101561001557600080fd5b600092833560e01c90816306fdde031461084b57508063095ea7b3146107a257806318160ddd14610783578063204f83f91461074857806323b872dd14610628578063287b448d146105e4578063313ce567146105c857806340c10f19146104f057806370a08231146104b9578063715018a6146104595780638da5cb5b1461043057806395d89b41146103105780639dc29fac1461020e578063a9059cbb146101b2578063dd62ed3e146101655763f2fde38b146100d357600080fd5b34610161576020366003190112610161576100ec610989565b906100f56109ba565b6001600160a01b0391821692831561014b575050600554826bffffffffffffffffffffffff60a01b821617600555167f8be0079c531659141344cd1fd0a4f28419497f9722a3daafe3b4186f6b6457e08380a380f35b51631e4fbdf760e01b8152908101849052602490fd5b8280fd5b5050346101ae57806003193601126101ae5780602092610183610989565b61018b6109a4565b6001600160a01b0391821683526001865283832091168252845220549051908152f35b5080fd5b5050346101ae57806003193601126101ae576020906102076101d2610989565b6101fd7f000000000000000000000000000000000000000000000000000000000000000042106109e6565b6024359033610a23565b5160018152f35b5034610161578160031936011261016157610227610989565b91602435916102346109ba565b6001600160a01b0384169384156102fa578486528560205282862054918483106102c657505091602091817ffd38818f5291bf0bb3a2a48aadc06ba8757865d1dabd804585338aab3009dcb6948688528785520381872055816002540360025585857fddf252ad1be2c89b69c2b068fc378daa952ba7f163c4a11628f55a4df523b3ef858451868152a351908152a280f35b835163391434e360e21b81526001600160a01b03909216908201908152602081018390526040810185905281906060010390fd5b50846024925191634b637e8f60e11b8352820152fd5b509190346101ae57816003193601126101ae57805190828454600181811c90808316928315610426575b6020938484108114610413578388529081156103f757506001146103a2575b505050829003601f01601f191682019267ffffffffffffffff84118385101761038f575082918261038b925282610940565b0390f35b634e487b7160e01b815260418552602490fd5b8787529192508591837f8a35acfbc15ff81a39ae7d344fd709f28e8600b4aa8c65c6b64bfe7fe36bd19b5b8385106103e35750505050830101388080610359565b8054888601830152930192849082016103cd565b60ff1916878501525050151560051b8401019050388080610359565b634e487b7160e01b895260228a52602489fd5b91607f169161033a565b5050346101ae57816003193601126101ae5760055490516001600160a01b039091168152602090f35b83346104b657806003193601126104b6576104726109ba565b600580546001600160a01b0319811690915581906001600160a01b03167f8be0079c531659141344cd1fd0a4f28419497f9722a3daafe3b4186f6b6457e08280a380f35b80fd5b5050346101ae5760203660031901126101ae5760209181906001600160a01b036104e1610989565b16815280845220549051908152f35b50903461016157806003193601126101615761050a610989565b90602435916105176109ba565b6001600160a01b03169283156105b357600254908382018092116105a05750916020917f3f2c9d57c068687834f0de942a9babb9e5acab57d516d3480a3c16ee165a42739360025584865285835280862082815401905584867fddf252ad1be2c89b69c2b068fc378daa952ba7f163c4a11628f55a4df523b3ef858451868152a351908152a280f35b634e487b7160e01b865260119052602485fd5b84602492519163ec442f0560e01b8352820152fd5b5050346101ae57816003193601126101ae576020905160128152f35b5050346101ae57816003193601126101ae57517f00000000000000000000000000000000000000000000000000000000000000006001600160a01b03168152602090f35b5082346104b65760603660031901126104b657610643610989565b61064b6109a4565b916044359361067b7f000000000000000000000000000000000000000000000000000000000000000042106109e6565b6001600160a01b038316808352600160209081528784203385529052868320549160001983106106b4575b602088610207898989610a23565b86831061071c5781156107055733156106ee57508252600160209081528683203384528152918690209085900390558290610207876106a6565b8751634a1406b160e11b8152908101849052602490fd5b875163e602df0560e01b8152908101849052602490fd5b8751637dc7a0d960e11b8152339181019182526020820193909352604081018790528291506060010390fd5b5050346101ae57816003193601126101ae57602090517f00000000000000000000000000000000000000000000000000000000000000008152f35b5050346101ae57816003193601126101ae576020906002549051908152f35b50346101615781600319360112610161576107bb610989565b602435903315610834576001600160a01b031691821561081d57508083602095338152600187528181208582528752205582519081527f8c5be1e5ebec7d5bd14f71427d1e84f3dd0314c0f7b2291e5b200ac8c7c3b925843392a35160018152f35b8351634a1406b160e11b8152908101859052602490fd5b835163e602df0560e01b8152808401869052602490fd5b849150833461016157826003193601126101615782600354600181811c90808316928315610936575b60209384841081146104135783885290811561091a57506001146108c457505050829003601f01601f191682019267ffffffffffffffff84118385101761038f575082918261038b925282610940565b600387529192508591837fc2575a0e9e593c00f959f8c92f12db2869c3395a3b0502d05e2516446f71f85b5b8385106109065750505050830101858080610359565b8054888601830152930192849082016108f0565b60ff1916878501525050151560051b8401019050858080610359565b91607f1691610874565b6020808252825181830181905290939260005b82811061097557505060409293506000838284010152601f8019910116010190565b818101860151848201604001528501610953565b600435906001600160a01b038216820361099f57565b600080fd5b602435906001600160a01b038216820361099f57565b6005546001600160a01b031633036109ce57565b60405163118cdaa760e01b8152336004820152602490fd5b156109ed57565b60405162461bcd60e51b815260206004820152600e60248201526d13585c9ad95d08195e1c1a5c995960921b6044820152606490fd5b916001600160a01b03808416928315610ae85716928315610acf5760009083825281602052604082205490838210610a9d575091604082827fddf252ad1be2c89b69c2b068fc378daa952ba7f163c4a11628f55a4df523b3ef958760209652828652038282205586815220818154019055604051908152a3565b60405163391434e360e21b81526001600160a01b03919091166004820152602481019190915260448101839052606490fd5b60405163ec442f0560e01b815260006004820152602490fd5b604051634b637e8f60e11b815260006004820152602490fdfea2646970667358221220d0f2e6f6dd2f3155ab0e5741dc39744b229ddd0c3bfb68f5687c6e0be854859164736f6c63430008140033a2646970667358221220b1f46dd71a325a94469cbaf6ed60e517e5496e8a027d11ea343877ece6f5628f64736f6c63430008140033",
  "linkReferences": {},
  "deployedLinkReferences": {}
}