{
  "_format": "hh-sol-artifact-1",
  "contractName": "CoreYieldToken",
  "sourceName": "contracts/tokens/CoreYieldToken.sol",
  "abi": [
    {
      "inputs": [
        {
          "internalType": "string",
          "name": "name",
          "type": "string"
        },
        {
          "internalType": "string",
          "name": "symbol",
          "type": "string"
        },
        {
          "internalType": "address",
          "name": "_syToken",
          "type": "address"
        },
        {
          "internalType": "uint256",
          "name": "_maturity",
          "type": "uint256"
        }
      ],
      "stateMutability": "nonpayable",
      "type": "constructor"
    },
    {
      "inputs": [],
      "name": "ECDSAInvalidSignature",
      "type": "error"
    },
    {
      "inputs": [
        {
          "internalType": "uint256",
          "name": "length",
          "type": "uint256"
        }
      ],
      "name": "ECDSAInvalidSignatureLength",
      "type": "error"
    },
    {
      "inputs": [
        {
          "internalType": "bytes32",
          "name": "s",
          "type": "bytes32"
        }
      ],
      "name": "ECDSAInvalidSignatureS",
      "type": "error"
    },
    {
      "inputs": [
        {
          "internalType": "address",
          "name": "spender",
          "type": "address"
        },
        {
          "internalType": "uint256",
          "name": "allowance",
          "type": "uint256"
        },
        {
          "internalType": "uint256",
          "name": "needed",
          "type": "uint256"
        }
      ],
      "name": "ERC20InsufficientAllowance",
      "type": "error"
    },
    {
      "inputs": [
        {
          "internalType": "address",
          "name": "sender",
          "type": "address"
        },
        {
          "internalType": "uint256",
          "name": "balance",
          "type": "uint256"
        },
        {
          "internalType": "uint256",
          "name": "needed",
          "type": "uint256"
        }
      ],
      "name": "ERC20InsufficientBalance",
      "type": "error"
    },
    {
      "inputs": [
        {
          "internalType": "address",
          "name": "approver",
          "type": "address"
        }
      ],
      "name": "ERC20InvalidApprover",
      "type": "error"
    },
    {
      "inputs": [
        {
          "internalType": "address",
          "name": "receiver",
          "type": "address"
        }
      ],
      "name": "ERC20InvalidReceiver",
      "type": "error"
    },
    {
      "inputs": [
        {
          "internalType": "address",
          "name": "sender",
          "type": "address"
        }
      ],
      "name": "ERC20InvalidSender",
      "type": "error"
    },
    {
      "inputs": [
        {
          "internalType": "address",
          "name": "spender",
          "type": "address"
        }
      ],
      "name": "ERC20InvalidSpender",
      "type": "error"
    },
    {
      "inputs": [
        {
          "internalType": "uint256",
          "name": "deadline",
          "type": "uint256"
        }
      ],
      "name": "ERC2612ExpiredSignature",
      "type": "error"
    },
    {
      "inputs": [
        {
          "internalType": "address",
          "name": "signer",
          "type": "address"
        },
        {
          "internalType": "address",
          "name": "owner",
          "type": "address"
        }
      ],
      "name": "ERC2612InvalidSigner",
      "type": "error"
    },
    {
      "inputs": [],
      "name": "EnforcedPause",
      "type": "error"
    },
    {
      "inputs": [],
      "name": "ExpectedPause",
      "type": "error"
    },
    {
      "inputs": [
        {
          "internalType": "address",
          "name": "account",
          "type": "address"
        },
        {
          "internalType": "uint256",
          "name": "currentNonce",
          "type": "uint256"
        }
      ],
      "name": "InvalidAccountNonce",
      "type": "error"
    },
    {
      "inputs": [],
      "name": "InvalidShortString",
      "type": "error"
    },
    {
      "inputs": [],
      "name": "ReentrancyGuardReentrantCall",
      "type": "error"
    },
    {
      "inputs": [
        {
          "internalType": "string",
          "name": "str",
          "type": "string"
        }
      ],
      "name": "StringTooLong",
      "type": "error"
    },
    {
      "anonymous": false,
      "inputs": [
        {
          "indexed": true,
          "internalType": "address",
          "name": "owner",
          "type": "address"
        },
        {
          "indexed": true,
          "internalType": "address",
          "name": "spender",
          "type": "address"
        },
        {
          "indexed": false,
          "internalType": "uint256",
          "name": "value",
          "type": "uint256"
        }
      ],
      "name": "Approval",
      "type": "event"
    },
    {
      "anonymous": false,
      "inputs": [],
      "name": "EIP712DomainChanged",
      "type": "event"
    },
    {
      "anonymous": false,
      "inputs": [
        {
          "indexed": false,
          "internalType": "address",
          "name": "account",
          "type": "address"
        }
      ],
      "name": "Paused",
      "type": "event"
    },
    {
      "anonymous": false,
      "inputs": [
        {
          "indexed": true,
          "internalType": "address",
          "name": "from",
          "type": "address"
        },
        {
          "indexed": false,
          "internalType": "uint256",
          "name": "amount",
          "type": "uint256"
        },
        {
          "indexed": false,
          "internalType": "uint256",
          "name": "timestamp",
          "type": "uint256"
        }
      ],
      "name": "TokensBurned",
      "type": "event"
    },
    {
      "anonymous": false,
      "inputs": [
        {
          "indexed": true,
          "internalType": "address",
          "name": "to",
          "type": "address"
        },
        {
          "indexed": false,
          "internalType": "uint256",
          "name": "amount",
          "type": "uint256"
        },
        {
          "indexed": false,
          "internalType": "uint256",
          "name": "timestamp",
          "type": "uint256"
        }
      ],
      "name": "TokensMinted",
      "type": "event"
    },
    {
      "anonymous": false,
      "inputs": [
        {
          "indexed": true,
          "internalType": "address",
          "name": "from",
          "type": "address"
        },
        {
          "indexed": true,
          "internalType": "address",
          "name": "to",
          "type": "address"
        },
        {
          "indexed": false,
          "internalType": "uint256",
          "name": "value",
          "type": "uint256"
        }
      ],
      "name": "Transfer",
      "type": "event"
    },
    {
      "anonymous": false,
      "inputs": [
        {
          "indexed": false,
          "internalType": "address",
          "name": "account",
          "type": "address"
        }
      ],
      "name": "Unpaused",
      "type": "event"
    },
    {
      "anonymous": false,
      "inputs": [
        {
          "indexed": true,
          "internalType": "address",
          "name": "user",
          "type": "address"
        },
        {
          "indexed": false,
          "internalType": "uint256",
          "name": "amount",
          "type": "uint256"
        },
        {
          "indexed": false,
          "internalType": "uint256",
          "name": "timestamp",
          "type": "uint256"
        }
      ],
      "name": "YieldClaimed",
      "type": "event"
    },
    {
      "anonymous": false,
      "inputs": [
        {
          "indexed": false,
          "internalType": "uint256",
          "name": "totalAmount",
          "type": "uint256"
        },
        {
          "indexed": false,
          "internalType": "uint256",
          "name": "yieldPerToken",
          "type": "uint256"
        },
        {
          "indexed": false,
          "internalType": "uint256",
          "name": "timestamp",
          "type": "uint256"
        }
      ],
      "name": "YieldDistributed",
      "type": "event"
    },
    {
      "inputs": [],
      "name": "DOMAIN_SEPARATOR",
      "outputs": [
        {
          "internalType": "bytes32",
          "name": "",
          "type": "bytes32"
        }
      ],
      "stateMutability": "view",
      "type": "function"
    },
    {
      "inputs": [
        {
          "internalType": "uint256",
          "name": "totalYieldAmount",
          "type": "uint256"
        }
      ],
      "name": "addTestYieldSnapshot",
      "outputs": [],
      "stateMutability": "nonpayable",
      "type": "function"
    },
    {
      "inputs": [
        {
          "internalType": "address",
          "name": "owner",
          "type": "address"
        },
        {
          "internalType": "address",
          "name": "spender",
          "type": "address"
        }
      ],
      "name": "allowance",
      "outputs": [
        {
          "internalType": "uint256",
          "name": "",
          "type": "uint256"
        }
      ],
      "stateMutability": "view",
      "type": "function"
    },
    {
      "inputs": [
        {
          "internalType": "address",
          "name": "spender",
          "type": "address"
        },
        {
          "internalType": "uint256",
          "name": "value",
          "type": "uint256"
        }
      ],
      "name": "approve",
      "outputs": [
        {
          "internalType": "bool",
          "name": "",
          "type": "bool"
        }
      ],
      "stateMutability": "nonpayable",
      "type": "function"
    },
    {
      "inputs": [
        {
          "internalType": "address",
          "name": "account",
          "type": "address"
        }
      ],
      "name": "balanceOf",
      "outputs": [
        {
          "internalType": "uint256",
          "name": "",
          "type": "uint256"
        }
      ],
      "stateMutability": "view",
      "type": "function"
    },
    {
      "inputs": [],
      "name": "baseYieldRate",
      "outputs": [
        {
          "internalType": "uint256",
          "name": "",
          "type": "uint256"
        }
      ],
      "stateMutability": "view",
      "type": "function"
    },
    {
      "inputs": [
        {
          "internalType": "address",
          "name": "from",
          "type": "address"
        },
        {
          "internalType": "uint256",
          "name": "amount",
          "type": "uint256"
        }
      ],
      "name": "burn",
      "outputs": [],
      "stateMutability": "nonpayable",
      "type": "function"
    },
    {
      "inputs": [],
      "name": "claimYield",
      "outputs": [
        {
          "internalType": "uint256",
          "name": "",
          "type": "uint256"
        }
      ],
      "stateMutability": "nonpayable",
      "type": "function"
    },
    {
      "inputs": [
        {
          "internalType": "address",
          "name": "user",
          "type": "address"
        }
      ],
      "name": "claimableYield",
      "outputs": [
        {
          "internalType": "uint256",
          "name": "",
          "type": "uint256"
        }
      ],
      "stateMutability": "view",
      "type": "function"
    },
    {
      "inputs": [],
      "name": "compoundingEnabled",
      "outputs": [
        {
          "internalType": "bool",
          "name": "",
          "type": "bool"
        }
      ],
      "stateMutability": "view",
      "type": "function"
    },
    {
      "inputs": [],
      "name": "decimals",
      "outputs": [
        {
          "internalType": "uint8",
          "name": "",
          "type": "uint8"
        }
      ],
      "stateMutability": "view",
      "type": "function"
    },
    {
      "inputs": [],
      "name": "eip712Domain",
      "outputs": [
        {
          "internalType": "bytes1",
          "name": "fields",
          "type": "bytes1"
        },
        {
          "internalType": "string",
          "name": "name",
          "type": "string"
        },
        {
          "internalType": "string",
          "name": "version",
          "type": "string"
        },
        {
          "internalType": "uint256",
          "name": "chainId",
          "type": "uint256"
        },
        {
          "internalType": "address",
          "name": "verifyingContract",
          "type": "address"
        },
        {
          "internalType": "bytes32",
          "name": "salt",
          "type": "bytes32"
        },
        {
          "internalType": "uint256[]",
          "name": "extensions",
          "type": "uint256[]"
        }
      ],
      "stateMutability": "view",
      "type": "function"
    },
    {
      "inputs": [],
      "name": "factory",
      "outputs": [
        {
          "internalType": "address",
          "name": "",
          "type": "address"
        }
      ],
      "stateMutability": "view",
      "type": "function"
    },
    {
      "inputs": [],
      "name": "getBasicTokenInfo",
      "outputs": [
        {
          "internalType": "string",
          "name": "tokenName",
          "type": "string"
        },
        {
          "internalType": "string",
          "name": "tokenSymbol",
          "type": "string"
        },
        {
          "internalType": "address",
          "name": "tokenSY",
          "type": "address"
        },
        {
          "internalType": "uint256",
          "name": "tokenMaturity",
          "type": "uint256"
        },
        {
          "internalType": "bool",
          "name": "expired",
          "type": "bool"
        },
        {
          "internalType": "uint256",
          "name": "timeLeft",
          "type": "uint256"
        }
      ],
      "stateMutability": "view",
      "type": "function"
    },
    {
      "inputs": [],
      "name": "getExpectedYieldRate",
      "outputs": [
        {
          "internalType": "uint256",
          "name": "",
          "type": "uint256"
        }
      ],
      "stateMutability": "view",
      "type": "function"
    },
    {
      "inputs": [],
      "name": "getMaturity",
      "outputs": [
        {
          "internalType": "uint256",
          "name": "",
          "type": "uint256"
        }
      ],
      "stateMutability": "view",
      "type": "function"
    },
    {
      "inputs": [],
      "name": "getSYToken",
      "outputs": [
        {
          "internalType": "address",
          "name": "",
          "type": "address"
        }
      ],
      "stateMutability": "view",
      "type": "function"
    },
    {
      "inputs": [],
      "name": "getYieldTokenInfo",
      "outputs": [
        {
          "internalType": "uint256",
          "name": "expectedYield",
          "type": "uint256"
        },
        {
          "internalType": "uint256",
          "name": "currentYieldRate",
          "type": "uint256"
        },
        {
          "internalType": "uint256",
          "name": "totalSupply_",
          "type": "uint256"
        },
        {
          "internalType": "uint256",
          "name": "totalYieldClaimed_",
          "type": "uint256"
        },
        {
          "internalType": "uint256",
          "name": "totalYieldDistributed_",
          "type": "uint256"
        }
      ],
      "stateMutability": "view",
      "type": "function"
    },
    {
      "inputs": [],
      "name": "isExpired",
      "outputs": [
        {
          "internalType": "bool",
          "name": "",
          "type": "bool"
        }
      ],
      "stateMutability": "view",
      "type": "function"
    },
    {
      "inputs": [
        {
          "internalType": "address",
          "name": "",
          "type": "address"
        }
      ],
      "name": "lastClaimIndex",
      "outputs": [
        {
          "internalType": "uint256",
          "name": "",
          "type": "uint256"
        }
      ],
      "stateMutability": "view",
      "type": "function"
    },
    {
      "inputs": [
        {
          "internalType": "address",
          "name": "",
          "type": "address"
        }
      ],
      "name": "lastYieldClaim",
      "outputs": [
        {
          "internalType": "uint256",
          "name": "",
          "type": "uint256"
        }
      ],
      "stateMutability": "view",
      "type": "function"
    },
    {
      "inputs": [],
      "name": "maturity",
      "outputs": [
        {
          "internalType": "uint256",
          "name": "",
          "type": "uint256"
        }
      ],
      "stateMutability": "view",
      "type": "function"
    },
    {
      "inputs": [],
      "name": "minClaimAmount",
      "outputs": [
        {
          "internalType": "uint256",
          "name": "",
          "type": "uint256"
        }
      ],
      "stateMutability": "view",
      "type": "function"
    },
    {
      "inputs": [
        {
          "internalType": "address",
          "name": "to",
          "type": "address"
        },
        {
          "internalType": "uint256",
          "name": "amount",
          "type": "uint256"
        }
      ],
      "name": "mint",
      "outputs": [],
      "stateMutability": "nonpayable",
      "type": "function"
    },
    {
      "inputs": [
        {
          "internalType": "address",
          "name": "",
          "type": "address"
        }
      ],
      "name": "mintTimestamp",
      "outputs": [
        {
          "internalType": "uint256",
          "name": "",
          "type": "uint256"
        }
      ],
      "stateMutability": "view",
      "type": "function"
    },
    {
      "inputs": [],
      "name": "name",
      "outputs": [
        {
          "internalType": "string",
          "name": "",
          "type": "string"
        }
      ],
      "stateMutability": "view",
      "type": "function"
    },
    {
      "inputs": [
        {
          "internalType": "address",
          "name": "owner",
          "type": "address"
        }
      ],
      "name": "nonces",
      "outputs": [
        {
          "internalType": "uint256",
          "name": "",
          "type": "uint256"
        }
      ],
      "stateMutability": "view",
      "type": "function"
    },
    {
      "inputs": [],
      "name": "pause",
      "outputs": [],
      "stateMutability": "nonpayable",
      "type": "function"
    },
    {
      "inputs": [],
      "name": "paused",
      "outputs": [
        {
          "internalType": "bool",
          "name": "",
          "type": "bool"
        }
      ],
      "stateMutability": "view",
      "type": "function"
    },
    {
      "inputs": [
        {
          "internalType": "address",
          "name": "owner",
          "type": "address"
        },
        {
          "internalType": "address",
          "name": "spender",
          "type": "address"
        },
        {
          "internalType": "uint256",
          "name": "value",
          "type": "uint256"
        },
        {
          "internalType": "uint256",
          "name": "deadline",
          "type": "uint256"
        },
        {
          "internalType": "uint8",
          "name": "v",
          "type": "uint8"
        },
        {
          "internalType": "bytes32",
          "name": "r",
          "type": "bytes32"
        },
        {
          "internalType": "bytes32",
          "name": "s",
          "type": "bytes32"
        }
      ],
      "name": "permit",
      "outputs": [],
      "stateMutability": "nonpayable",
      "type": "function"
    },
    {
      "inputs": [],
      "name": "syToken",
      "outputs": [
        {
          "internalType": "address",
          "name": "",
          "type": "address"
        }
      ],
      "stateMutability": "view",
      "type": "function"
    },
    {
      "inputs": [],
      "name": "symbol",
      "outputs": [
        {
          "internalType": "string",
          "name": "",
          "type": "string"
        }
      ],
      "stateMutability": "view",
      "type": "function"
    },
    {
      "inputs": [],
      "name": "timeToMaturity",
      "outputs": [
        {
          "internalType": "uint256",
          "name": "",
          "type": "uint256"
        }
      ],
      "stateMutability": "view",
      "type": "function"
    },
    {
      "inputs": [],
      "name": "totalSupply",
      "outputs": [
        {
          "internalType": "uint256",
          "name": "",
          "type": "uint256"
        }
      ],
      "stateMutability": "view",
      "type": "function"
    },
    {
      "inputs": [],
      "name": "totalYieldClaimed",
      "outputs": [
        {
          "internalType": "uint256",
          "name": "",
          "type": "uint256"
        }
      ],
      "stateMutability": "view",
      "type": "function"
    },
    {
      "inputs": [],
      "name": "totalYieldDistributed",
      "outputs": [
        {
          "internalType": "uint256",
          "name": "",
          "type": "uint256"
        }
      ],
      "stateMutability": "view",
      "type": "function"
    },
    {
      "inputs": [
        {
          "internalType": "address",
          "name": "to",
          "type": "address"
        },
        {
          "internalType": "uint256",
          "name": "value",
          "type": "uint256"
        }
      ],
      "name": "transfer",
      "outputs": [
        {
          "internalType": "bool",
          "name": "",
          "type": "bool"
        }
      ],
      "stateMutability": "nonpayable",
      "type": "function"
    },
    {
      "inputs": [
        {
          "internalType": "address",
          "name": "from",
          "type": "address"
        },
        {
          "internalType": "address",
          "name": "to",
          "type": "address"
        },
        {
          "internalType": "uint256",
          "name": "value",
          "type": "uint256"
        }
      ],
      "name": "transferFrom",
      "outputs": [
        {
          "internalType": "bool",
          "name": "",
          "type": "bool"
        }
      ],
      "stateMutability": "nonpayable",
      "type": "function"
    },
    {
      "inputs": [],
      "name": "unpause",
      "outputs": [],
      "stateMutability": "nonpayable",
      "type": "function"
    },
    {
      "inputs": [
        {
          "internalType": "address",
          "name": "",
          "type": "address"
        }
      ],
      "name": "userYieldClaimed",
      "outputs": [
        {
          "internalType": "uint256",
          "name": "",
          "type": "uint256"
        }
      ],
      "stateMutability": "view",
      "type": "function"
    },
    {
      "inputs": [],
      "name": "yieldMultiplier",
      "outputs": [
        {
          "internalType": "uint256",
          "name": "",
          "type": "uint256"
        }
      ],
      "stateMutability": "view",
      "type": "function"
    },
    {
      "inputs": [
        {
          "internalType": "uint256",
          "name": "",
          "type": "uint256"
        }
      ],
      "name": "yieldSnapshots",
      "outputs": [
        {
          "internalType": "uint256",
          "name": "timestamp",
          "type": "uint256"
        },
        {
          "internalType": "uint256",
          "name": "yieldPerToken",
          "type": "uint256"
        },
        {
          "internalType": "uint256",
          "name": "totalSupply",
          "type": "uint256"
        },
        {
          "internalType": "uint256",
          "name": "cumulativeYieldPerToken",
          "type": "uint256"
        }
      ],
      "stateMutability": "view",
      "type": "function"
    }
  ],
  "bytecode": "0x6101c0604052612710600d556013805460ff1916600117905566038d7ea4c680006014553480156200003057600080fd5b506040516200255a3803806200255a83398101604081905262000053916200041e565b6040805180820190915260018152603160f81b602082015284908190818660036200007f838262000540565b5060046200008e828262000540565b50620000a091508390506005620002d5565b61012052620000b1816006620002d5565b61014052815160208084019190912060e052815190820120610100524660a0526200013f60e05161010051604080517f8b73c3c69bb8fe3d512ecc4cf759cc79239f7b179b0ffacaa9a75d522b39400f60208201529081019290925260608201524660808201523060a082015260009060c00160405160208183030381529060405280519060200120905090565b60805250503060c0525060016009556001600160a01b0382166200019d5760405162461bcd60e51b815260206004820152601060248201526f24b73b30b634b21029ac903a37b5b2b760811b60448201526064015b60405180910390fd5b428111620001e15760405162461bcd60e51b815260206004820152601060248201526f496e76616c6964206d6174757269747960801b604482015260640162000194565b6001600160a01b039190911661016052610180525050336101a052610352600c55604080516080810182524281526000602082018181529282018181526060830182815260118054600181018255935292517f31ecc21a745e3968a04e9570e4425bc18fa8019c68028196b546d1669c200c6860049093029283015592517f31ecc21a745e3968a04e9570e4425bc18fa8019c68028196b546d1669c200c6982015591517f31ecc21a745e3968a04e9570e4425bc18fa8019c68028196b546d1669c200c6a830155517f31ecc21a745e3968a04e9570e4425bc18fa8019c68028196b546d1669c200c6b9091015562000666565b6000602083511015620002f557620002ed836200030e565b905062000308565b8162000302848262000540565b5060ff90505b92915050565b600080829050601f815111156200033c578260405163305a27a960e01b81526004016200019491906200060c565b8051620003498262000641565b179392505050565b634e487b7160e01b600052604160045260246000fd5b60005b83811015620003845781810151838201526020016200036a565b50506000910152565b600082601f8301126200039f57600080fd5b81516001600160401b0380821115620003bc57620003bc62000351565b604051601f8301601f19908116603f01168101908282118183101715620003e757620003e762000351565b816040528381528660208588010111156200040157600080fd5b6200041484602083016020890162000367565b9695505050505050565b600080600080608085870312156200043557600080fd5b84516001600160401b03808211156200044d57600080fd5b6200045b888389016200038d565b955060208701519150808211156200047257600080fd5b5062000481878288016200038d565b604087015190945090506001600160a01b0381168114620004a157600080fd5b6060959095015193969295505050565b600181811c90821680620004c657607f821691505b602082108103620004e757634e487b7160e01b600052602260045260246000fd5b50919050565b601f8211156200053b57600081815260208120601f850160051c81016020861015620005165750805b601f850160051c820191505b81811015620005375782815560010162000522565b5050505b505050565b81516001600160401b038111156200055c576200055c62000351565b62000574816200056d8454620004b1565b84620004ed565b602080601f831160018114620005ac5760008415620005935750858301515b600019600386901b1c1916600185901b17855562000537565b600085815260208120601f198616915b82811015620005dd57888601518255948401946001909101908401620005bc565b5085821015620005fc5787850151600019600388901b60f8161c191681555b5050505050600190811b01905550565b60208152600082518060208401526200062d81604085016020870162000367565b601f01601f19169190910160400192915050565b80516020808301519190811015620004e75760001960209190910360031b1b16919050565b60805160a05160c05160e05161010051610120516101405161016051610180516101a051611e1d6200073d60003960008181610578015281816108b701528181610ac901528181610da40152610e490152600081816102bb015281816103310152818161061101528181610857015281816108880152818161109c015281816110bf01526110ee0152600081816102f5015281816103ee01526110790152600061148a0152600061145d015260006112ee015260006112c6015260006112210152600061124b015260006112750152611e1d6000f3fe608060405234801561001057600080fd5b506004361061025e5760003560e01c806374205afc11610146578063aa4cbf12116100c3578063d505accf11610087578063d505accf146105a3578063dd62ed3e146105b6578063def18972146105ef578063e16695b51461060f578063eb9297ea14610635578063f266a2131461064f57600080fd5b8063aa4cbf121461052e578063adc25bde14610561578063b8a457c31461056a578063c45a015514610573578063d27e36451461059a57600080fd5b806395d89b411161010a57806395d89b41146104d757806397206bd5146104df57806397d53803146104e85780639dc29fac14610508578063a9059cbb1461051b57600080fd5b806374205afc146104865780637ecebe00146104995780638456cb59146104ac57806384b0196e146104b45780638fa85736146104cf57600080fd5b80633644e515116101df5780634a6da50d116101a35780634a6da50d146103bc578063578bc89e146103ec5780635c975abb146104125780636d63066f1461041d57806370a082311461043d57806370a82d8f1461046657600080fd5b80633644e515146103875780633cb3c4fd1461038f5780633f4ba83a14610397578063406cf229146103a157806340c10f19146103a957600080fd5b8063287b448d11610226578063287b448d146102f05780632f13b60c1461032f5780632f4504ae14610358578063313ce567146103655780633180afec1461037457600080fd5b806306fdde0314610263578063095ea7b31461028157806318160ddd146102a4578063204f83f9146102b657806323b872dd146102dd575b600080fd5b61026b610658565b6040516102789190611a43565b60405180910390f35b61029461028f366004611a79565b6106ea565b6040519015158152602001610278565b6002545b604051908152602001610278565b6102a87f000000000000000000000000000000000000000000000000000000000000000081565b6102946102eb366004611aa3565b610704565b6103177f000000000000000000000000000000000000000000000000000000000000000081565b6040516001600160a01b039091168152602001610278565b7f0000000000000000000000000000000000000000000000000000000000000000421015610294565b6013546102949060ff1681565b60405160128152602001610278565b6102a8610382366004611adf565b610728565b6102a8610844565b6102a8610853565b61039f6108ac565b005b6102a8610907565b61039f6103b7366004611a79565b610abe565b6103c4610b7f565b604080519586526020860194909452928401919091526060830152608082015260a001610278565b7f0000000000000000000000000000000000000000000000000000000000000000610317565b60085460ff16610294565b6102a861042b366004611adf565b600e6020526000908152604090205481565b6102a861044b366004611adf565b6001600160a01b031660009081526020819052604090205490565b6102a8610474366004611adf565b60126020526000908152604090205481565b61039f610494366004611afa565b610ba3565b6102a86104a7366004611adf565b610d7b565b61039f610d99565b6104bc610de9565b6040516102789796959493929190611b13565b600c546102a8565b61026b610e2f565b6102a8600b5481565b6102a86104f6366004611adf565b600f6020526000908152604090205481565b61039f610516366004611a79565b610e3e565b610294610529366004611a79565b610ed8565b61054161053c366004611afa565b610ee6565b604080519485526020850193909352918301526060820152608001610278565b6102a860145481565b6102a8600a5481565b6103177f000000000000000000000000000000000000000000000000000000000000000081565b6102a8600d5481565b61039f6105b1366004611ba9565b610f20565b6102a86105c4366004611c1c565b6001600160a01b03918216600090815260016020908152604080832093909416825291909152205490565b6102a86105fd366004611adf565b60106020526000908152604090205481565b7f00000000000000000000000000000000000000000000000000000000000000006102a8565b61063d61105a565b60405161027896959493929190611c4f565b6102a8600c5481565b60606003805461066790611ca3565b80601f016020809104026020016040519081016040528092919081815260200182805461069390611ca3565b80156106e05780601f106106b5576101008083540402835291602001916106e0565b820191906000526020600020905b8154815290600101906020018083116106c357829003601f168201915b5050505050905090565b6000336106f8818585611124565b60019150505b92915050565b600033610712858285611136565b61071d8585856111b5565b506001949350505050565b6001600160a01b038116600090815260208190526040812054806000036107525750600092915050565b6001600160a01b03831660009081526012602052604081205481610777826001611cf3565b90505b60115481101561081f5760006011828154811061079957610799611d06565b90600052602060002090600402016040518060800160405290816000820154815260200160018201548152602001600282015481526020016003820154815250509050670de0b6b3a76400008160200151866107f59190611d1c565b6107ff9190611d33565b6108099085611cf3565b935050808061081790611d55565b91505061077a565b50612710600d54836108319190611d1c565b61083b9190611d33565b95945050505050565b600061084e611214565b905090565b60007f000000000000000000000000000000000000000000000000000000000000000042106108825750600090565b61084e427f0000000000000000000000000000000000000000000000000000000000000000611d6e565b336001600160a01b037f000000000000000000000000000000000000000000000000000000000000000016146108fd5760405162461bcd60e51b81526004016108f490611d81565b60405180910390fd5b61090561133f565b565b6000610911611391565b604051630c602bfb60e21b81523360048201526000903090633180afec90602401602060405180830381865afa15801561094f573d6000803e3d6000fd5b505050506040513d601f19601f820116820180604052508101906109739190611db8565b9050600081116109b95760405162461bcd60e51b81526020600482015260116024820152704e6f207969656c6420746f20636c61696d60781b60448201526064016108f4565b601454811015610a0b5760405162461bcd60e51b815260206004820152601a60248201527f42656c6f77206d696e696d756d20636c61696d20616d6f756e7400000000000060448201526064016108f4565b336000908152600e602052604081208054839290610a2a908490611cf3565b9091555050601154610a3e90600190611d6e565b3360009081526012602090815260408083209390935560109052908120429055600a8054839290610a70908490611cf3565b90915550506040805182815242602082015233917f10d8dedfc0745b8c25ba10b06e304138b251c18dcaadf2d71c7f3214719dc4d1910160405180910390a29050610abb6001600955565b90565b336001600160a01b037f00000000000000000000000000000000000000000000000000000000000000001614610b065760405162461bcd60e51b81526004016108f490611d81565b610b0e6113bb565b610b1882826113df565b6001600160a01b0382166000818152600f60209081526040808320429081905560108352928190208390558051858152918201929092527f2e8ac5177a616f2aec08c3048f5021e4e9743ece034e8d83ba5caf76688bb47591015b60405180910390a25050565b600c548060008080610b9060025490565b9250600a549150600b5490509091929394565b6000610bae60025490565b11610bfb5760405162461bcd60e51b815260206004820152601a60248201527f4e6f20746f6b656e7320746f206469737472696275746520746f00000000000060448201526064016108f4565b60008111610c425760405162461bcd60e51b8152602060048201526014602482015273125b9d985b1a59081e5a595b1908185b5bdd5b9d60621b60448201526064016108f4565b6000610c4d60025490565b610c5f83670de0b6b3a7640000611d1c565b610c699190611d33565b601154909150600090610c7d576000610cb0565b60118054610c8d90600190611d6e565b81548110610c9d57610c9d611d06565b9060005260206000209060040201600301545b905060116040518060800160405280428152602001848152602001610cd460025490565b8152602001610ce38585611cf3565b90528154600181810184556000938452602080852084516004909402019283558301519082015560408201516002820155606090910151600390910155600b8054859290610d32908490611cf3565b90915550506040805184815260208101849052428183015290517ff571bb88b0ec5dc25398fc62c69d5970d50ea313a0a6596b0ca7f0197d37383f9181900360600190a1505050565b6001600160a01b0381166000908152600760205260408120546106fe565b336001600160a01b037f00000000000000000000000000000000000000000000000000000000000000001614610de15760405162461bcd60e51b81526004016108f490611d81565b610905611419565b600060608060008060006060610dfd611456565b610e05611483565b60408051600080825260208201909252600f60f81b9b939a50919850469750309650945092509050565b60606004805461066790611ca3565b336001600160a01b037f00000000000000000000000000000000000000000000000000000000000000001614610e865760405162461bcd60e51b81526004016108f490611d81565b610e8e6113bb565b610e9882826114b0565b604080518281524260208201526001600160a01b038416917fccbea4088a3b7ae9ca2d15fab9a9742a4075b4d7247768a1eecea917565aba009101610b73565b6000336106f88185856111b5565b60118181548110610ef657600080fd5b60009182526020909120600490910201805460018201546002830154600390930154919350919084565b83421115610f445760405163313c898160e11b8152600481018590526024016108f4565b60007f6e71edae12b1b97f4d1f60370fef10105fa2faae0126114a169c64845d6126c9888888610f918c6001600160a01b0316600090815260076020526040902080546001810190915590565b6040805160208101969096526001600160a01b0394851690860152929091166060840152608083015260a082015260c0810186905260e0016040516020818303038152906040528051906020012090506000610fec826114e6565b90506000610ffc82878787611513565b9050896001600160a01b0316816001600160a01b031614611043576040516325c0072360e11b81526001600160a01b0380831660048301528b1660248201526044016108f4565b61104e8a8a8a611124565b50505050505050505050565b60608060008060008061106b610658565b9550611075610e2f565b94507f000000000000000000000000000000000000000000000000000000000000000093507f000000000000000000000000000000000000000000000000000000000000000092507f000000000000000000000000000000000000000000000000000000000000000042101591508161111757611112427f0000000000000000000000000000000000000000000000000000000000000000611d6e565b61111a565b60005b9050909192939495565b6111318383836001611541565b505050565b6001600160a01b038381166000908152600160209081526040808320938616835292905220546000198110156111af57818110156111a057604051637dc7a0d960e11b81526001600160a01b038416600482015260248101829052604481018390526064016108f4565b6111af84848484036000611541565b50505050565b6001600160a01b0383166111df57604051634b637e8f60e11b8152600060048201526024016108f4565b6001600160a01b0382166112095760405163ec442f0560e01b8152600060048201526024016108f4565b611131838383611616565b6000306001600160a01b037f00000000000000000000000000000000000000000000000000000000000000001614801561126d57507f000000000000000000000000000000000000000000000000000000000000000046145b1561129757507f000000000000000000000000000000000000000000000000000000000000000090565b61084e604080517f8b73c3c69bb8fe3d512ecc4cf759cc79239f7b179b0ffacaa9a75d522b39400f60208201527f0000000000000000000000000000000000000000000000000000000000000000918101919091527f000000000000000000000000000000000000000000000000000000000000000060608201524660808201523060a082015260009060c00160405160208183030381529060405280519060200120905090565b611347611740565b6008805460ff191690557f5db9ee0a495bf2e6ff9c91a7834c1ba4fdd244a5e8aa4e537bd38aeae4b073aa335b6040516001600160a01b03909116815260200160405180910390a1565b6002600954036113b457604051633ee5aeb560e01b815260040160405180910390fd5b6002600955565b60085460ff16156109055760405163d93c066560e01b815260040160405180910390fd5b6001600160a01b0382166114095760405163ec442f0560e01b8152600060048201526024016108f4565b61141560008383611616565b5050565b6114216113bb565b6008805460ff191660011790557f62e78cea01bee320cd4e420270b5ea74000d11b0c9f74754ebdbfc544b05a2586113743390565b606061084e7f00000000000000000000000000000000000000000000000000000000000000006005611763565b606061084e7f00000000000000000000000000000000000000000000000000000000000000006006611763565b6001600160a01b0382166114da57604051634b637e8f60e11b8152600060048201526024016108f4565b61141582600083611616565b60006106fe6114f3611214565b8360405161190160f01b8152600281019290925260228201526042902090565b6000806000806115258888888861180e565b92509250925061153582826118dd565b50909695505050505050565b6001600160a01b03841661156b5760405163e602df0560e01b8152600060048201526024016108f4565b6001600160a01b03831661159557604051634a1406b160e11b8152600060048201526024016108f4565b6001600160a01b03808516600090815260016020908152604080832093871683529290522082905580156111af57826001600160a01b0316846001600160a01b03167f8c5be1e5ebec7d5bd14f71427d1e84f3dd0314c0f7b2291e5b200ac8c7c3b9258460405161160891815260200190565b60405180910390a350505050565b6001600160a01b0383166116415780600260008282546116369190611cf3565b909155506116b39050565b6001600160a01b038316600090815260208190526040902054818110156116945760405163391434e360e21b81526001600160a01b038516600482015260248101829052604481018390526064016108f4565b6001600160a01b03841660009081526020819052604090209082900390555b6001600160a01b0382166116cf576002805482900390556116ee565b6001600160a01b03821660009081526020819052604090208054820190555b816001600160a01b0316836001600160a01b03167fddf252ad1be2c89b69c2b068fc378daa952ba7f163c4a11628f55a4df523b3ef8360405161173391815260200190565b60405180910390a3505050565b60085460ff1661090557604051638dfc202b60e01b815260040160405180910390fd5b606060ff831461177d5761177683611996565b90506106fe565b81805461178990611ca3565b80601f01602080910402602001604051908101604052809291908181526020018280546117b590611ca3565b80156118025780601f106117d757610100808354040283529160200191611802565b820191906000526020600020905b8154815290600101906020018083116117e557829003601f168201915b505050505090506106fe565b600080807f7fffffffffffffffffffffffffffffff5d576e7357a4501ddfe92f46681b20a084111561184957506000915060039050826118d3565b604080516000808252602082018084528a905260ff891692820192909252606081018790526080810186905260019060a0016020604051602081039080840390855afa15801561189d573d6000803e3d6000fd5b5050604051601f1901519150506001600160a01b0381166118c9575060009250600191508290506118d3565b9250600091508190505b9450945094915050565b60008260038111156118f1576118f1611dd1565b036118fa575050565b600182600381111561190e5761190e611dd1565b0361192c5760405163f645eedf60e01b815260040160405180910390fd5b600282600381111561194057611940611dd1565b036119615760405163fce698f760e01b8152600481018290526024016108f4565b600382600381111561197557611975611dd1565b03611415576040516335e2f38360e21b8152600481018290526024016108f4565b606060006119a3836119d5565b604080516020808252818301909252919250600091906020820181803683375050509182525060208101929092525090565b600060ff8216601f8111156106fe57604051632cd44ac360e21b815260040160405180910390fd5b6000815180845260005b81811015611a2357602081850181015186830182015201611a07565b506000602082860101526020601f19601f83011685010191505092915050565b602081526000611a5660208301846119fd565b9392505050565b80356001600160a01b0381168114611a7457600080fd5b919050565b60008060408385031215611a8c57600080fd5b611a9583611a5d565b946020939093013593505050565b600080600060608486031215611ab857600080fd5b611ac184611a5d565b9250611acf60208501611a5d565b9150604084013590509250925092565b600060208284031215611af157600080fd5b611a5682611a5d565b600060208284031215611b0c57600080fd5b5035919050565b60ff60f81b881681526000602060e081840152611b3360e084018a6119fd565b8381036040850152611b45818a6119fd565b606085018990526001600160a01b038816608086015260a0850187905284810360c0860152855180825283870192509083019060005b81811015611b9757835183529284019291840191600101611b7b565b50909c9b505050505050505050505050565b600080600080600080600060e0888a031215611bc457600080fd5b611bcd88611a5d565b9650611bdb60208901611a5d565b95506040880135945060608801359350608088013560ff81168114611bff57600080fd5b9699959850939692959460a0840135945060c09093013592915050565b60008060408385031215611c2f57600080fd5b611c3883611a5d565b9150611c4660208401611a5d565b90509250929050565b60c081526000611c6260c08301896119fd565b8281036020840152611c7481896119fd565b6001600160a01b0397909716604084015250506060810193909352901515608083015260a09091015292915050565b600181811c90821680611cb757607f821691505b602082108103611cd757634e487b7160e01b600052602260045260246000fd5b50919050565b634e487b7160e01b600052601160045260246000fd5b808201808211156106fe576106fe611cdd565b634e487b7160e01b600052603260045260246000fd5b80820281158282048414176106fe576106fe611cdd565b600082611d5057634e487b7160e01b600052601260045260246000fd5b500490565b600060018201611d6757611d67611cdd565b5060010190565b818103818111156106fe576106fe611cdd565b6020808252601a908201527f4f6e6c7920666163746f72792063616e206d696e742f6275726e000000000000604082015260600190565b600060208284031215611dca57600080fd5b5051919050565b634e487b7160e01b600052602160045260246000fdfea264697066735822122038765c384c07933097151328cb63ddf4240bbe94c34ffc53218d72712f7e038564736f6c63430008140033",
  "linkReferences": {},
  "deployedLinkReferences": {}
}