{
  "_format": "hh-sol-artifact-1",
  "contractName": "CoreYieldRouter",
  "sourceName": "contracts/core/CoreYieldRouter.sol",
  "abi": [
    {
      "inputs": [],
      "stateMutability": "nonpayable",
      "type": "constructor"
    },
    {
      "inputs": [
        {
          "internalType": "address",
          "name": "owner",
          "type": "address"
        }
      ],
      "name": "OwnableInvalidOwner",
      "type": "error"
    },
    {
      "inputs": [
        {
          "internalType": "address",
          "name": "account",
          "type": "address"
        }
      ],
      "name": "OwnableUnauthorizedAccount",
      "type": "error"
    },
    {
      "inputs": [],
      "name": "ReentrancyGuardReentrantCall",
      "type": "error"
    },
    {
      "inputs": [
        {
          "internalType": "address",
          "name": "token",
          "type": "address"
        }
      ],
      "name": "SafeERC20FailedOperation",
      "type": "error"
    },
    {
      "anonymous": false,
      "inputs": [
        {
          "indexed": true,
          "internalType": "address",
          "name": "user",
          "type": "address"
        },
        {
          "indexed": true,
          "internalType": "address",
          "name": "underlying",
          "type": "address"
        },
        {
          "indexed": false,
          "internalType": "uint256",
          "name": "amount",
          "type": "uint256"
        },
        {
          "indexed": false,
          "internalType": "uint256",
          "name": "syAmount",
          "type": "uint256"
        }
      ],
      "name": "AssetWrapped",
      "type": "event"
    },
    {
      "anonymous": false,
      "inputs": [
        {
          "indexed": true,
          "internalType": "address",
          "name": "user",
          "type": "address"
        },
        {
          "indexed": false,
          "internalType": "uint256",
          "name": "timestamp",
          "type": "uint256"
        }
      ],
      "name": "EmergencyPaused",
      "type": "event"
    },
    {
      "anonymous": false,
      "inputs": [
        {
          "indexed": true,
          "internalType": "address",
          "name": "user",
          "type": "address"
        },
        {
          "indexed": false,
          "internalType": "uint256",
          "name": "timestamp",
          "type": "uint256"
        }
      ],
      "name": "EmergencyResumed",
      "type": "event"
    },
    {
      "anonymous": false,
      "inputs": [
        {
          "indexed": true,
          "internalType": "address",
          "name": "user",
          "type": "address"
        },
        {
          "indexed": true,
          "internalType": "address",
          "name": "underlying",
          "type": "address"
        },
        {
          "indexed": false,
          "internalType": "uint256",
          "name": "underlyingIn",
          "type": "uint256"
        },
        {
          "indexed": false,
          "internalType": "address",
          "name": "quoteToken",
          "type": "address"
        },
        {
          "indexed": false,
          "internalType": "uint256",
          "name": "ptReceived",
          "type": "uint256"
        },
        {
          "indexed": false,
          "internalType": "uint256",
          "name": "ytSold",
          "type": "uint256"
        },
        {
          "indexed": false,
          "internalType": "uint256",
          "name": "proceeds",
          "type": "uint256"
        }
      ],
      "name": "FixedYieldOpened",
      "type": "event"
    },
    {
      "anonymous": false,
      "inputs": [
        {
          "indexed": true,
          "internalType": "address",
          "name": "user",
          "type": "address"
        },
        {
          "indexed": true,
          "internalType": "address",
          "name": "underlying",
          "type": "address"
        },
        {
          "indexed": false,
          "internalType": "uint256",
          "name": "initialUnderlyingIn",
          "type": "uint256"
        },
        {
          "indexed": false,
          "internalType": "uint8",
          "name": "loops",
          "type": "uint8"
        },
        {
          "indexed": false,
          "internalType": "uint256",
          "name": "totalYTReceived",
          "type": "uint256"
        }
      ],
      "name": "LeveragedYieldOpened",
      "type": "event"
    },
    {
      "anonymous": false,
      "inputs": [
        {
          "indexed": true,
          "internalType": "address",
          "name": "previousOwner",
          "type": "address"
        },
        {
          "indexed": true,
          "internalType": "address",
          "name": "newOwner",
          "type": "address"
        }
      ],
      "name": "OwnershipTransferred",
      "type": "event"
    },
    {
      "anonymous": false,
      "inputs": [],
      "name": "RouterInitialized",
      "type": "event"
    },
    {
      "anonymous": false,
      "inputs": [
        {
          "indexed": true,
          "internalType": "address",
          "name": "token",
          "type": "address"
        }
      ],
      "name": "TokenAdded",
      "type": "event"
    },
    {
      "anonymous": false,
      "inputs": [
        {
          "indexed": true,
          "internalType": "address",
          "name": "token",
          "type": "address"
        }
      ],
      "name": "TokenRemoved",
      "type": "event"
    },
    {
      "anonymous": false,
      "inputs": [
        {
          "indexed": true,
          "internalType": "address",
          "name": "user",
          "type": "address"
        },
        {
          "indexed": true,
          "internalType": "address",
          "name": "syToken",
          "type": "address"
        },
        {
          "indexed": false,
          "internalType": "uint256",
          "name": "ptAmount",
          "type": "uint256"
        },
        {
          "indexed": false,
          "internalType": "uint256",
          "name": "ytAmount",
          "type": "uint256"
        },
        {
          "indexed": false,
          "internalType": "uint256",
          "name": "syAmount",
          "type": "uint256"
        }
      ],
      "name": "TokensMerged",
      "type": "event"
    },
    {
      "anonymous": false,
      "inputs": [
        {
          "indexed": true,
          "internalType": "address",
          "name": "user",
          "type": "address"
        },
        {
          "indexed": true,
          "internalType": "address",
          "name": "syToken",
          "type": "address"
        },
        {
          "indexed": false,
          "internalType": "uint256",
          "name": "syAmount",
          "type": "uint256"
        },
        {
          "indexed": false,
          "internalType": "uint256",
          "name": "ptAmount",
          "type": "uint256"
        },
        {
          "indexed": false,
          "internalType": "uint256",
          "name": "ytAmount",
          "type": "uint256"
        }
      ],
      "name": "TokensSplit",
      "type": "event"
    },
    {
      "anonymous": false,
      "inputs": [
        {
          "indexed": true,
          "internalType": "address",
          "name": "user",
          "type": "address"
        },
        {
          "indexed": false,
          "internalType": "uint256",
          "name": "timestamp",
          "type": "uint256"
        }
      ],
      "name": "UserActivityUpdated",
      "type": "event"
    },
    {
      "inputs": [
        {
          "internalType": "address",
          "name": "user",
          "type": "address"
        },
        {
          "internalType": "address",
          "name": "asset",
          "type": "address"
        },
        {
          "internalType": "uint256",
          "name": "amount",
          "type": "uint256"
        }
      ],
      "name": "addPendingYieldForTesting",
      "outputs": [],
      "stateMutability": "nonpayable",
      "type": "function"
    },
    {
      "inputs": [
        {
          "internalType": "address",
          "name": "token",
          "type": "address"
        }
      ],
      "name": "addSupportedToken",
      "outputs": [],
      "stateMutability": "nonpayable",
      "type": "function"
    },
    {
      "inputs": [],
      "name": "analyticsEngine",
      "outputs": [
        {
          "internalType": "contract AnalyticsEngine",
          "name": "",
          "type": "address"
        }
      ],
      "stateMutability": "view",
      "type": "function"
    },
    {
      "inputs": [
        {
          "internalType": "uint256",
          "name": "targetChainId",
          "type": "uint256"
        },
        {
          "internalType": "address",
          "name": "token",
          "type": "address"
        },
        {
          "internalType": "uint256",
          "name": "amount",
          "type": "uint256"
        }
      ],
      "name": "bridgeAndTrack",
      "outputs": [
        {
          "internalType": "uint256",
          "name": "requestId",
          "type": "uint256"
        }
      ],
      "stateMutability": "nonpayable",
      "type": "function"
    },
    {
      "inputs": [
        {
          "internalType": "address",
          "name": "user",
          "type": "address"
        }
      ],
      "name": "checkPortfolioRisk",
      "outputs": [
        {
          "internalType": "bool",
          "name": "isAcceptable",
          "type": "bool"
        },
        {
          "internalType": "string",
          "name": "reason",
          "type": "string"
        },
        {
          "internalType": "uint256",
          "name": "riskScore",
          "type": "uint256"
        },
        {
          "internalType": "uint256",
          "name": "recommendedActions",
          "type": "uint256"
        }
      ],
      "stateMutability": "view",
      "type": "function"
    },
    {
      "inputs": [],
      "name": "coreGovernance",
      "outputs": [
        {
          "internalType": "contract CoreGovernance",
          "name": "",
          "type": "address"
        }
      ],
      "stateMutability": "view",
      "type": "function"
    },
    {
      "inputs": [],
      "name": "coreStaking",
      "outputs": [
        {
          "internalType": "contract CoreStaking",
          "name": "",
          "type": "address"
        }
      ],
      "stateMutability": "view",
      "type": "function"
    },
    {
      "inputs": [],
      "name": "coreSwapAMM",
      "outputs": [
        {
          "internalType": "contract CoreSwapAMM",
          "name": "",
          "type": "address"
        }
      ],
      "stateMutability": "view",
      "type": "function"
    },
    {
      "inputs": [],
      "name": "coreYieldAMM",
      "outputs": [
        {
          "internalType": "contract CoreYieldAMM",
          "name": "",
          "type": "address"
        }
      ],
      "stateMutability": "view",
      "type": "function"
    },
    {
      "inputs": [],
      "name": "coreYieldAnalytics",
      "outputs": [
        {
          "internalType": "contract CoreYieldAnalytics",
          "name": "",
          "type": "address"
        }
      ],
      "stateMutability": "view",
      "type": "function"
    },
    {
      "inputs": [],
      "name": "coreYieldBridge",
      "outputs": [
        {
          "internalType": "contract CoreYieldBridge",
          "name": "",
          "type": "address"
        }
      ],
      "stateMutability": "view",
      "type": "function"
    },
    {
      "inputs": [],
      "name": "coreYieldStrategy",
      "outputs": [
        {
          "internalType": "contract CoreYieldStrategy",
          "name": "",
          "type": "address"
        }
      ],
      "stateMutability": "view",
      "type": "function"
    },
    {
      "inputs": [
        {
          "internalType": "enum CoreYieldStrategy.StrategyType",
          "name": "strategyType",
          "type": "uint8"
        },
        {
          "internalType": "address[]",
          "name": "assets",
          "type": "address[]"
        },
        {
          "internalType": "uint256[]",
          "name": "allocations",
          "type": "uint256[]"
        },
        {
          "internalType": "uint256",
          "name": "targetAPY",
          "type": "uint256"
        },
        {
          "internalType": "uint256",
          "name": "riskTolerance",
          "type": "uint256"
        }
      ],
      "name": "createAndExecuteStrategy",
      "outputs": [
        {
          "internalType": "uint256",
          "name": "strategyId",
          "type": "uint256"
        }
      ],
      "stateMutability": "nonpayable",
      "type": "function"
    },
    {
      "inputs": [
        {
          "internalType": "string",
          "name": "title",
          "type": "string"
        },
        {
          "internalType": "string",
          "name": "description",
          "type": "string"
        },
        {
          "internalType": "uint256",
          "name": "duration",
          "type": "uint256"
        },
        {
          "internalType": "bool",
          "name": "support",
          "type": "bool"
        },
        {
          "internalType": "string",
          "name": "reason",
          "type": "string"
        }
      ],
      "name": "createProposalAndVote",
      "outputs": [
        {
          "internalType": "uint256",
          "name": "proposalId",
          "type": "uint256"
        }
      ],
      "stateMutability": "nonpayable",
      "type": "function"
    },
    {
      "inputs": [],
      "name": "emergencyPause",
      "outputs": [],
      "stateMutability": "nonpayable",
      "type": "function"
    },
    {
      "inputs": [],
      "name": "emergencyResume",
      "outputs": [],
      "stateMutability": "nonpayable",
      "type": "function"
    },
    {
      "inputs": [
        {
          "internalType": "address",
          "name": "user",
          "type": "address"
        }
      ],
      "name": "getCompleteAnalytics",
      "outputs": [
        {
          "internalType": "uint256",
          "name": "totalValue",
          "type": "uint256"
        },
        {
          "internalType": "uint256",
          "name": "totalAPY",
          "type": "uint256"
        },
        {
          "internalType": "uint256",
          "name": "totalRisk",
          "type": "uint256"
        },
        {
          "internalType": "uint256",
          "name": "transactionCount",
          "type": "uint256"
        },
        {
          "internalType": "uint256",
          "name": "strategyCount",
          "type": "uint256"
        },
        {
          "internalType": "uint256",
          "name": "bridgeCount",
          "type": "uint256"
        }
      ],
      "stateMutability": "view",
      "type": "function"
    },
    {
      "inputs": [
        {
          "internalType": "address",
          "name": "user",
          "type": "address"
        }
      ],
      "name": "getCompletePortfolio",
      "outputs": [
        {
          "internalType": "uint256",
          "name": "totalValue",
          "type": "uint256"
        },
        {
          "internalType": "uint256",
          "name": "totalAPY",
          "type": "uint256"
        },
        {
          "internalType": "uint256",
          "name": "totalRisk",
          "type": "uint256"
        },
        {
          "internalType": "uint256[]",
          "name": "strategyIds",
          "type": "uint256[]"
        },
        {
          "internalType": "uint256[]",
          "name": "bridgeRequests",
          "type": "uint256[]"
        }
      ],
      "stateMutability": "view",
      "type": "function"
    },
    {
      "inputs": [],
      "name": "getRouterStats",
      "outputs": [
        {
          "internalType": "uint256",
          "name": "totalUsers",
          "type": "uint256"
        },
        {
          "internalType": "uint256",
          "name": "totalValue",
          "type": "uint256"
        },
        {
          "internalType": "uint256",
          "name": "totalStrategies",
          "type": "uint256"
        },
        {
          "internalType": "uint256",
          "name": "totalBridges",
          "type": "uint256"
        }
      ],
      "stateMutability": "view",
      "type": "function"
    },
    {
      "inputs": [
        {
          "internalType": "address",
          "name": "user",
          "type": "address"
        }
      ],
      "name": "getUserLastActivity",
      "outputs": [
        {
          "internalType": "uint256",
          "name": "",
          "type": "uint256"
        }
      ],
      "stateMutability": "view",
      "type": "function"
    },
    {
      "inputs": [
        {
          "internalType": "address",
          "name": "token0",
          "type": "address"
        },
        {
          "internalType": "address",
          "name": "token1",
          "type": "address"
        }
      ],
      "name": "getYieldAdjustedPrice",
      "outputs": [
        {
          "internalType": "uint256",
          "name": "price",
          "type": "uint256"
        }
      ],
      "stateMutability": "view",
      "type": "function"
    },
    {
      "inputs": [
        {
          "internalType": "address",
          "name": "asset",
          "type": "address"
        }
      ],
      "name": "harvestAndTrack",
      "outputs": [],
      "stateMutability": "nonpayable",
      "type": "function"
    },
    {
      "inputs": [
        {
          "internalType": "address",
          "name": "_coreStaking",
          "type": "address"
        },
        {
          "internalType": "address",
          "name": "_coreSwapAMM",
          "type": "address"
        },
        {
          "internalType": "address",
          "name": "_portfolioTracker",
          "type": "address"
        },
        {
          "internalType": "address",
          "name": "_yieldHarvester",
          "type": "address"
        },
        {
          "internalType": "address",
          "name": "_riskManager",
          "type": "address"
        },
        {
          "internalType": "address",
          "name": "_coreGovernance",
          "type": "address"
        },
        {
          "internalType": "address",
          "name": "_analyticsEngine",
          "type": "address"
        },
        {
          "internalType": "address",
          "name": "_coreYieldStrategy",
          "type": "address"
        },
        {
          "internalType": "address",
          "name": "_coreYieldBridge",
          "type": "address"
        },
        {
          "internalType": "address",
          "name": "_coreYieldAnalytics",
          "type": "address"
        },
        {
          "internalType": "address",
          "name": "_coreYieldAMM",
          "type": "address"
        }
      ],
      "name": "initializeRouter",
      "outputs": [],
      "stateMutability": "nonpayable",
      "type": "function"
    },
    {
      "inputs": [
        {
          "internalType": "address",
          "name": "syToken",
          "type": "address"
        },
        {
          "internalType": "uint256",
          "name": "ptAmount",
          "type": "uint256"
        },
        {
          "internalType": "uint256",
          "name": "ytAmount",
          "type": "uint256"
        }
      ],
      "name": "mergePTYT",
      "outputs": [
        {
          "internalType": "uint256",
          "name": "syAmount",
          "type": "uint256"
        }
      ],
      "stateMutability": "nonpayable",
      "type": "function"
    },
    {
      "inputs": [
        {
          "internalType": "address",
          "name": "underlying",
          "type": "address"
        },
        {
          "internalType": "uint256",
          "name": "amount",
          "type": "uint256"
        },
        {
          "internalType": "address",
          "name": "quoteToken",
          "type": "address"
        }
      ],
      "name": "openFixedYieldPosition",
      "outputs": [
        {
          "internalType": "uint256",
          "name": "ptAmount",
          "type": "uint256"
        },
        {
          "internalType": "uint256",
          "name": "ytSold",
          "type": "uint256"
        },
        {
          "internalType": "uint256",
          "name": "proceeds",
          "type": "uint256"
        }
      ],
      "stateMutability": "nonpayable",
      "type": "function"
    },
    {
      "inputs": [
        {
          "internalType": "address",
          "name": "underlying",
          "type": "address"
        },
        {
          "internalType": "uint256",
          "name": "amount",
          "type": "uint256"
        },
        {
          "internalType": "uint8",
          "name": "loops",
          "type": "uint8"
        }
      ],
      "name": "openLeveragedYieldPosition",
      "outputs": [
        {
          "internalType": "uint256",
          "name": "totalYT",
          "type": "uint256"
        }
      ],
      "stateMutability": "nonpayable",
      "type": "function"
    },
    {
      "inputs": [],
      "name": "owner",
      "outputs": [
        {
          "internalType": "address",
          "name": "",
          "type": "address"
        }
      ],
      "stateMutability": "view",
      "type": "function"
    },
    {
      "inputs": [],
      "name": "portfolioTracker",
      "outputs": [
        {
          "internalType": "contract PortfolioTracker",
          "name": "",
          "type": "address"
        }
      ],
      "stateMutability": "view",
      "type": "function"
    },
    {
      "inputs": [
        {
          "internalType": "address",
          "name": "token",
          "type": "address"
        }
      ],
      "name": "removeSupportedToken",
      "outputs": [],
      "stateMutability": "nonpayable",
      "type": "function"
    },
    {
      "inputs": [],
      "name": "renounceOwnership",
      "outputs": [],
      "stateMutability": "nonpayable",
      "type": "function"
    },
    {
      "inputs": [],
      "name": "riskManager",
      "outputs": [
        {
          "internalType": "contract RiskManager",
          "name": "",
          "type": "address"
        }
      ],
      "stateMutability": "view",
      "type": "function"
    },
    {
      "inputs": [
        {
          "internalType": "address",
          "name": "syToken",
          "type": "address"
        },
        {
          "internalType": "uint256",
          "name": "syAmount",
          "type": "uint256"
        }
      ],
      "name": "splitSY",
      "outputs": [
        {
          "internalType": "uint256",
          "name": "ptAmount",
          "type": "uint256"
        },
        {
          "internalType": "uint256",
          "name": "ytAmount",
          "type": "uint256"
        }
      ],
      "stateMutability": "nonpayable",
      "type": "function"
    },
    {
      "inputs": [
        {
          "internalType": "uint256",
          "name": "amount",
          "type": "uint256"
        },
        {
          "internalType": "address",
          "name": "token",
          "type": "address"
        }
      ],
      "name": "stakeAndTrack",
      "outputs": [],
      "stateMutability": "nonpayable",
      "type": "function"
    },
    {
      "inputs": [
        {
          "internalType": "address",
          "name": "",
          "type": "address"
        }
      ],
      "name": "supportedTokens",
      "outputs": [
        {
          "internalType": "bool",
          "name": "",
          "type": "bool"
        }
      ],
      "stateMutability": "view",
      "type": "function"
    },
    {
      "inputs": [
        {
          "internalType": "uint256",
          "name": "amountIn",
          "type": "uint256"
        },
        {
          "internalType": "address",
          "name": "tokenIn",
          "type": "address"
        },
        {
          "internalType": "address",
          "name": "tokenOut",
          "type": "address"
        },
        {
          "internalType": "uint256",
          "name": "slippageTolerance",
          "type": "uint256"
        }
      ],
      "name": "swapAndTrack",
      "outputs": [],
      "stateMutability": "nonpayable",
      "type": "function"
    },
    {
      "inputs": [
        {
          "internalType": "address",
          "name": "newOwner",
          "type": "address"
        }
      ],
      "name": "transferOwnership",
      "outputs": [],
      "stateMutability": "nonpayable",
      "type": "function"
    },
    {
      "inputs": [
        {
          "internalType": "address",
          "name": "",
          "type": "address"
        }
      ],
      "name": "userLastActivity",
      "outputs": [
        {
          "internalType": "uint256",
          "name": "",
          "type": "uint256"
        }
      ],
      "stateMutability": "view",
      "type": "function"
    },
    {
      "inputs": [
        {
          "internalType": "address",
          "name": "underlying",
          "type": "address"
        },
        {
          "internalType": "uint256",
          "name": "amount",
          "type": "uint256"
        }
      ],
      "name": "wrapAsset",
      "outputs": [
        {
          "internalType": "uint256",
          "name": "syAmount",
          "type": "uint256"
        }
      ],
      "stateMutability": "nonpayable",
      "type": "function"
    },
    {
      "inputs": [],
      "name": "yieldHarvester",
      "outputs": [
        {
          "internalType": "contract YieldHarvester",
          "name": "",
          "type": "address"
        }
      ],
      "stateMutability": "view",
      "type": "function"
    }
  ],
  "bytecode": "0x6080806040523461007f57600160005533156100695760018054336001600160a01b03198216811790925560405191906001600160a01b03167f8be0079c531659141344cd1fd0a4f28419497f9722a3daafe3b4186f6b6457e0600080a3612c9190816100858239f35b631e4fbdf760e01b815260006004820152602490fd5b600080fdfe6040608081526004908136101561001557600080fd5b60009160e08335811c9081630694b51314612493578163085420e81461246957816320315f99146123d85781632e150ab71461220b57816345cdabee1461207e5781634744b929146120065781634784266314611fdc57848263488294e714611db2575081634b4a00e014611cb75781634c46481614611c8d5781634c7f34e414611c635784826351858e2714611a155750816368c4ac26146119d65781636d69fcaf1461196c5781636f9b18d8146117ed578163715018a61461190e57816371636180146118b7578163763191901461185057816376b1e16e1461182657816377ce2992146117ed5781637f60bcb0146117c35781638b7cca6b146117995781638da5cb5b1461176f5781638db71b87146112f9578163908170601461128d5784826393c87f031461103f57508163aad8a1a414610c1b578163ad95481414610a90578163b675108714610a66578163bb1612bb14610a3e578163c0bd157614610a14578163c3c78b1a14610838578163cb2873991461070357508063cb641b43146106da578063d146de40146106aa578063e17f11d51461048d578063f2fde38b146103f957838163f387147a1461035b575063f78972c7146101d957600080fd5b829134610357576020366003190112610357576101f46127ae565b916101fd612a58565b6005546001600160a01b0390811693843b1561033157818451916379c38a3d60e11b835233858401521690816024820152868160648183683635c9adc5dea000009a8b60448401525af1801561034d57908791610339575b50508160055416803b156103355786809291602482938851958693849263c54175a360e01b84528a8401525af1918261031d575b50506102a1575b8461029a33612c17565b6001815580f35b6008541692833b156103195760a485928385519687948593634100584d60e01b8552339085015260248401526000604484015260006064840152600160848401525af190811561031057506102f9575b808080610290565b6103029061280b565b61030d5780386102f1565b80fd5b513d84823e3d90fd5b8480fd5b6103269061280b565b610331578538610289565b8580fd5b8680fd5b6103429061280b565b610331578538610255565b85513d89823e3d90fd5b5050fd5b92905034610357576060366003190112610357576103776127ae565b61037f612798565b9261038861293e565b6005546001600160a01b0316803b156103315783516379c38a3d60e11b81526001600160a01b0393841692810192835294909216602082015260443560408201528491849182908490829060600103925af190811561031057506103e95750f35b6103f29061280b565b61030d5780f35b5034610489576020366003190112610489576104136127ae565b9061041c61293e565b6001600160a01b03918216928315610473575050600154826bffffffffffffffffffffffff60a01b821617600155167f8be0079c531659141344cd1fd0a4f28419497f9722a3daafe3b4186f6b6457e0600080a380f35b51631e4fbdf760e01b8152908101849052602490fd5b8280fd5b509034610489576020366003190112610489576104a86127ae565b82548251631edb27e960e01b81526001600160a01b0392831681860181905294929160a0908290602490829086165afa80156106705761067a575b50600654835163a257a0b560e01b815283810186905291169360c082602481885afa91821561067057869261062c575b50602460609293855196879384926303414b2b60e01b84528301525afa9283156106225784936105eb575b5082116105aa57600191815161055381612835565b601f81527f506f7274666f6c696f207269736b2077697468696e20746f6c6572616e636500602082015293905b61059d8351958695151586526080602087015260808601906128fe565b9284015260608301520390f35b90919080516105b881612835565b602081527f506f7274666f6c696f207269736b206578636565647320746f6c6572616e6365602082015292600190610580565b9092506060813d821161061a575b8161060660609383612851565b810103126106165751913861053e565b8380fd5b3d91506105f9565b82513d86823e3d90fd5b915060c0823d8211610668575b8161064660c09383612851565b810103126103315760248261066060608095519201612b5a565b509250610513565b3d9150610639565b84513d88823e3d90fd5b61069a9060a03d81116106a3575b6106928183612851565b810190612b67565b505050506104e3565b503d610688565b5050346106d657816003193601126106d657816080928251928184528160208501528301526060820152f35b5080fd5b5050346106d657816003193601126106d65760095490516001600160a01b039091168152602090f35b90503461061657826003193601126106165761071d6127ae565b9181610727612798565b600c54865163c515ee2360e01b81526001600160a01b03968716858201529186166024830152670de0b6b3a76400006044830152909485916064918391165afa94851561082d578095610782575b6020868101518651908152f35b90918381809597503d8311610826575b61079c8183612851565b8101031261030d575082519182019082821067ffffffffffffffff83111761081157509061080460c0602095869486528051845284810151858501528581015186850152606081015160608501526080810151608085015260a081015160a085015201612b5a565b60c0820152923880610775565b604190634e487b7160e01b6000525260246000fd5b503d610792565b8451903d90823e3d90fd5b505034610489576020366003190112610489576108536127ae565b60018060a01b03809360a082855416936024835180988193631edb27e960e01b8352169687898301525afa908115610a0b57869487809581946109d8575b859697985060c0602496600854168551978880926321662f3160e21b825285888301525afa9586156109ce578296610998575b506024828860095416865192838092631e7c0bf560e21b825286898301525afa90811561098e57906024918491610974575b505197600a54169385519485938492630265a14960e11b84528301525afa90811561096a578860c09992610947575b50505194815196875260208701528501526060840152608083015260a0820152f35b61096392503d8091833e61095b8183612851565b810190612aa1565b3880610925565b82513d8a823e3d90fd5b61098891503d8086833e61095b8183612851565b386108f6565b85513d85823e3d90fd5b90955060c0813d82116109c6575b816109b360c09383612851565b810103126106d6576060015194386108c4565b3d91506109a6565b84513d84823e3d90fd5b9350966109f9919650602494955060a03d81116106a3576106928183612851565b50509691979096938897969550610891565b513d87823e3d90fd5b505050346106d657816003193601126106d65760035490516001600160a01b039091168152602090f35b5050346104895782600319360112610489575490516001600160a01b03909116815260209150f35b505050346106d657816003193601126106d657600c5490516001600160a01b039091168152602090f35b5050903461048957602036600319011261048957610aac6127ae565b9060018060a01b039283928560a085845416926024865180998193631edb27e960e01b8352169586888301525afa918215610c0f57819582978394610bdd575b50908183602495949360095416885196878092631e7c0bf560e21b8252868b8301525afa948515610bd3578395610bb4575b50602490600a54169587519687938492630265a14960e11b84528301525afa928315610baa5787610b8696979894610b8a575b505083610b789394519788978852602088015286015260a0606086015260a08501906128ca565b9083820360808501526128ca565b0390f35b610b78945090610ba3913d8091833e61095b8183612851565b9238610b51565b84513d89823e3d90fd5b6024919550610bcc903d8086833e61095b8183612851565b9490610b1e565b87513d85823e3d90fd5b90929750610bfe9196506024935060a03d81116106a3576106928183612851565b505097919690979392909192610aec565b508351903d90823e3d90fd5b838584346106d65760803660031901126106d657803592610c3a612798565b91610c436127c4565b94610c4c612a58565b8251956060870187811067ffffffffffffffff82111761102a57845260028752602087019484368737875115611015576001600160a01b0380821696879052859390929190610c9a8a612a7b565b8484169052610cd2898b8660035416848a8a519586948593849363d06ca61f60e01b855284015260249c8d8401526044830190612b1d565b03915afa90811561100b5790610cef918b91610ff1575b50612a7b565b5190612710986064358a03928a8411610f8957838102938185041490151715610fdd57602082610d5f928b8e610d27843033866129ac565b600354915163095ea7b360e01b8152918b166001600160a01b03168d8301908152602081019490945290948593849291839160400190565b03925af18015610fd357610f9b575b5084600354169a61012c420190814211610f8957918b89819e938296958d519e8f97889687956338ed173960e01b8752860152048c8401526044830160a0905260a48301610dbb91612b1d565b90336064840152608483015203925af1968715610f7f578897610f63575b5082855416803b15610f5f578651636737382960e01b808252338883019081526001600160a01b03909416602085015260006040850181905260608501529290918a9183919082908490829060800103925af18015610f5557908991610f3d575b505082855416610e4988612a7b565b5190610e5489612a7b565b5193813b15610f39578851938452338885019081526001600160a01b039091166020820152604081019290925260608201939093529091889183919082908490829060800103925af1801561034d57908791610f25575b5050610ebb906008541694612a7b565b5193803b156103315785928360a49286519788958694634100584d60e01b865233908601528401526000604484015260006064840152600160848401525af19081156103105750610f11575b5061029a33612c17565b610f1a9061280b565b61030d578082610f07565b610f2e9061280b565b610331578588610eab565b8a80fd5b610f469061280b565b610f5157878a610e3a565b8780fd5b87513d8b823e3d90fd5b8880fd5b610f789197503d808a833e61095b8183612851565b9589610dd9565b86513d8a823e3d90fd5b634e487b7160e01b8c5260118952878cfd5b6020813d8211610fcb575b81610fb360209383612851565b81010312610f3957610fc490612b5a565b508b610d6e565b3d9150610fa6565b89513d8d823e3d90fd5b86601189634e487b7160e01b600052526000fd5b61100591503d808d833e61095b8183612851565b8c610ce9565b88513d8c823e3d90fd5b603284634e487b7160e01b6000525260246000fd5b604184634e487b7160e01b6000525260246000fd5b848185346106d657816003193601126106d65761105a61293e565b6002546001600160a01b03908116803b15610616578385518181868183631fa5d41d60e11b978883525af1611279575b50508160035416803b156103195784808092868951809481938883525af1611265575b505081835416803b156103195784808092868951809481938883525af1611251575b50508160055416803b156103195784808092868951809481938883525af161123d575b50508160065416803b156103195784808092868951809481938883525af1611229575b50508160075416803b156103195784808092868951809481938883525af1611215575b50508160085416803b156103195784808092868951809481938883525af1611201575b50508160095416803b1561031957848092918582938951948593849283525af16111ed575b5050600a541690813b156104895783516393c87f0360e01b81529183918391829084905af16111d9575b5050514281527fe0dc8967738d1ca725802874d41e2ab2405df0e2eb3c61069d26d2782660d59460203392a280f35b6111e29061280b565b6106d65781836111aa565b6111f69061280b565b610489578286611180565b61120a9061280b565b61061657838761115b565b61121e9061280b565b610616578387611138565b6112329061280b565b610616578387611115565b6112469061280b565b6106165783876110f2565b61125a9061280b565b6106165783876110cf565b61126e9061280b565b6106165783876110ad565b6112829061280b565b61061657838761108a565b505050346106d657806003193601126106d657906020916112ef6112af6127ae565b602435906112bb612a58565b6001600160a01b0316808552600d8652838520546112db9060ff1661296a565b6112e6821515612b8e565b309033906129ac565b6001825551908152f35b5050903461048957610160366003190112610489576113166127ae565b61131e612798565b916113276127c4565b6001600160a01b03946064929083358781169081900361176a576084359088821680920361176a5760a4359289841680940361176a5760c435948a861680960361176a5760e435968b881680980361176a5761010435988c8a16809a0361176a57610124359a8d8c16809c0361176a578d90610144359e8f169e8f0361176a5781906113b161293e565b169c8d156117285781169283156116e657169283156116a75785156116685786156116295787156115ea5788156115ab57891561155f578a15611520578b156114d3578d156114945750506bffffffffffffffffffffffff60a01b9a8b60025416176002558a60035416176003558982541617905587600554161760055586600654161760065585600754161760075584600854161760085583600954161760095582600a541617600a5581600b541617600b55600c541617600c557fda7976742744bfa90c8d8c8bc006204bb05ea1b8a0a09d199bd1d025304098b58180a180f35b5162461bcd60e51b8152602081860152601c60248201527f496e76616c696420436f72655969656c64414d4d2061646472657373000000006044820152fd5b61737360f01b60849260208793519362461bcd60e51b8552840152602260248401527f496e76616c696420436f72655969656c64416e616c79746963732061646472656044840152820152fd5b5162461bcd60e51b8152602081860152601f60248201527f496e76616c696420436f72655969656c644272696467652061646472657373006044820152fd5b607360f81b60849260208793519362461bcd60e51b8552840152602160248401527f496e76616c696420436f72655969656c645374726174656779206164647265736044840152820152fd5b5162461bcd60e51b8152602081860152601f60248201527f496e76616c696420416e616c7974696373456e67696e652061646472657373006044820152fd5b5162461bcd60e51b8152602081860152601e60248201527f496e76616c696420436f7265476f7665726e616e6365206164647265737300006044820152fd5b5162461bcd60e51b8152602081860152601b60248201527f496e76616c6964205269736b4d616e61676572206164647265737300000000006044820152fd5b5162461bcd60e51b8152602081860152601e60248201527f496e76616c6964205969656c64486172766573746572206164647265737300006044820152fd5b5162461bcd60e51b8152602081860181905260248201527f496e76616c696420506f7274666f6c696f547261636b657220616464726573736044820152fd5b845162461bcd60e51b8152602081880152601b60248201527f496e76616c696420436f726553776170414d4d2061646472657373000000000060448201528390fd5b845162461bcd60e51b8152602081880152601b60248201527f496e76616c696420436f72655374616b696e672061646472657373000000000060448201528390fd5b600080fd5b505050346106d657816003193601126106d65760015490516001600160a01b039091168152602090f35b505050346106d657816003193601126106d65760075490516001600160a01b039091168152602090f35b505050346106d657816003193601126106d65760085490516001600160a01b039091168152602090f35b505050346106d65760203660031901126106d65760209181906001600160a01b036118166127ae565b168152600e845220549051908152f35b505050346106d657816003193601126106d657600b5490516001600160a01b039091168152602090f35b505050346106d65760203660031901126106d65761186c6127ae565b61187461293e565b6001600160a01b0316808352600d602052908220805460ff191690557f4c910b69fe65a61f7531b9c5042b2329ca7179c77290aa7e2eb3afa3c8511fd38280a280f35b83853461030d578160031936011261030d576118fd6118d46127ae565b602435906118e0612a58565b6118eb821515612b8e565b309033906001600160a01b03166129ac565b600181558151908082526020820152f35b843461030d578060031936011261030d5761192761293e565b600180546001600160a01b031981169091556000906001600160a01b03167f8be0079c531659141344cd1fd0a4f28419497f9722a3daafe3b4186f6b6457e08280a380f35b505050346106d65760203660031901126106d6576119886127ae565b61199061293e565b6001600160a01b0316808352600d602052908220805460ff191660011790557f784c8f4dbf0ffedd6e72c76501c545a70f8b203b30a26ce542bf92ba87c248a48280a280f35b505050346106d65760203660031901126106d65760209160ff9082906001600160a01b03611a026127ae565b168152600d855220541690519015158152f35b848185346106d657816003193601126106d657611a3061293e565b6002546001600160a01b03908116803b15610616578385518181868183638456cb5960e01b978883525af1611c4f575b50508160035416803b156103195784808092868951809481938883525af1611c3b575b505081835416803b156103195784808092868951809481938883525af1611c27575b50508160055416803b156103195784808092868951809481938883525af1611c13575b50508160065416803b156103195784808092868951809481938883525af1611bff575b50508160075416803b156103195784808092868951809481938883525af1611beb575b50508160085416803b156103195784808092868951809481938883525af1611bd7575b50508160095416803b1561031957848092918582938951948593849283525af1611bc3575b5050600a541690813b156104895783516351858e2760e01b81529183918391829084905af1611baf575b5050514281527f2e31b3b12b9bb0e82c32f27df5f234fabc95a374f54fd287a7132878d5dc9fc360203392a280f35b611bb89061280b565b6106d6578183611b80565b611bcc9061280b565b610489578286611b56565b611be09061280b565b610616578387611b31565b611bf49061280b565b610616578387611b0e565b611c089061280b565b610616578387611aeb565b611c1c9061280b565b610616578387611ac8565b611c309061280b565b610616578387611aa5565b611c449061280b565b610616578387611a83565b611c589061280b565b610616578387611a60565b505050346106d657816003193601126106d65760025490516001600160a01b039091168152602090f35b505050346106d657816003193601126106d65760055490516001600160a01b039091168152602090f35b828585346106d65760603660031901126106d657611cd36127ae565b6024908135946044359560ff9283881680980361033557611cf2612a58565b6001600160a01b0316808752600d60205285872054611d1290851661296a565b611d1d821515612bda565b87151580611da7575b15611d755790611d3991309033906129ac565b845b8683821610611d5257602086866001825551908152f35b8216828114611d6357600101611d3b565b634e487b7160e01b8652601182528386fd5b855162461bcd60e51b8152602081850152600d818701526c496e76616c6964206c6f6f707360981b6044820152606490fd5b506005881115611d26565b80848634610357578060031936011261035757813591611dd0612798565b611dd8612a58565b60018060a01b03809116808652611e5185602092600d8452611dff60ff888b20541661296a565b611e0b823033846129ac565b600254875163a9059cbb60e01b868201529086166001600160a01b031660248201526044810192909252611e4c82606481015b03601f198101845283612851565b6129f0565b8160025416803b15610335578451637ebce35160e11b815233858201908152602081018890529091889183919082908490829060400103925af1801561034d57908791611fc8575b505082818360025416865192838092637948f6c960e11b82525afa91821561034d578792611f91575b505081835416803b15610335578451636737382960e01b8152338582019081529284166001600160a01b031660208401526040830187905260608301879052918791839182908490829060800103925af1801561067057908691611f7d575b50506008541692833b156103195760a485928385519687948593634100584d60e01b855233908501526024840152610352604484015260056064840152600160848401525af19081156103105750610f11575061029a33612c17565b611f869061280b565b610319578487611f21565b90809250813d8311611fc1575b611fa88183612851565b8101031261033157518181168103610331578780611ec2565b503d611f9e565b611fd19061280b565b610331578588611e99565b505050346106d657816003193601126106d65760065490516001600160a01b039091168152602090f35b505050346106d65760603660031901126106d6576060916120696120286127ae565b602435906120346127c4565b5061203d612a58565b6001600160a01b0316808452600d6020528484205461205e9060ff1661296a565b6112e6821515612bda565b60018155815191818352816020840152820152f35b50509034610489576003199160a036840112610616578367ffffffffffffffff8235818111610489576120b49036908501612873565b92602435828111610616576120cc9036908301612873565b936064359283151580940361031957608435908111610319576120f460209136908501612873565b9560018060a01b039261212d8785600754169261213c8c519d8e96879586946303383afd60e21b865260608d87015260648601906128fe565b918483030160248501526128fe565b604435604483015203925af19687156122015784976121cb575b506007541690813b156106165783879161219588519788968795869463d3c0715b60e01b865285015260248401526060604484015260648301906128fe565b03925af18015610622576121b7575b602083836121b133612c17565b51908152f35b6121c1849161280b565b61048957826121a4565b935095506020833d82116121f9575b816121e760209383612851565b8101031261176a578692519538612156565b3d91506121da565b86513d86823e3d90fd5b905082843461030d576003199360a0368601126106d657803560078110156104895767ffffffffffffffff956024358781116103195761224e90369085016127da565b9290976044359081116103315761226890369086016127da565b9092612272612a58565b60018060a01b0394808660095416948a519b8c9163faece1c360e01b83528a60e4840193015260248d0152526101048a019a90885b8181106123b457505050888a030160448901528089526001600160fb1b03811161033157908786819360051b94828660209d8e98899485830137606435606484015260843560848401526201518060a4840152600160c4840152010301925af19485156123aa57839561237b575b506009541690813b15610489578460248492838751958694859363443d17b960e11b85528401525af180156123715761235d575b5060019061235633612c17565b5551908152f35b612367829161280b565b61030d5784612349565b83513d84823e3d90fd5b9094508581813d83116123a3575b6123938183612851565b8101031261176a57519386612315565b503d612389565b84513d85823e3d90fd5b90919b8c359088821680920361176a5790815260209081019c0191906001016122a7565b838584346106d65760603660031901126106d6576123f46127ae565b506123fd612a58565b60243515158061245e575b1561241b57506020916001825551908152f35b606490602084519162461bcd60e51b8352820152601860248201527f416d6f756e7473206d75737420626520706f73697469766500000000000000006044820152fd5b506044351515612408565b505050346106d657816003193601126106d657600a5490516001600160a01b039091168152602090f35b50509034610489576060366003190112610489576124af612798565b92604435926124bc612a58565b6032840284810460321485151715612785576127109004840194858511612785576001600160a01b03818116959091906124f88830338a6129ac565b85516370a0823160e01b815230858201526020989089816024818c5afa90811561277b57908291889161274a575b501061270757600a54875163095ea7b360e01b81529085166001600160a01b03168682019081526020810192909252908990829081906040010381898c5af180156126fd57908992916126c6575b50606484600a5416988789519a8b9485936332703dfd60e01b85528a358b860152602485015260448401525af195861561268d578496612697575b508183541690813b15610319578551636737382960e01b8152338582019081526001600160a01b039092166020830152600060408301819052606083015291859183919082908490829060800103925af1801561268d5761267a575b506008541690813b1561048957829160a4839286519485938492634100584d60e01b84523390840152816024840152816044840152816064840152600160848401525af1801561237157612666575060019061235633612c17565b612670829161280b565b61030d5738612349565b6126869093919361280b565b913861260b565b85513d86823e3d90fd5b9095508681813d83116126bf575b6126af8183612851565b81010312610616575194386125af565b503d6126a5565b909181813d83116126f6575b6126dc8183612851565b8101031261033157906126ef8992612b5a565b5038612574565b503d6126d2565b87513d88823e3d90fd5b865162461bcd60e51b81528086018a9052601b60248201527f526f7574657220696e73756666696369656e742062616c616e636500000000006044820152606490fd5b8092508b8092503d8311612774575b6127638183612851565b810103126103355781905138612526565b503d612759565b88513d89823e3d90fd5b634e487b7160e01b835260118252602483fd5b602435906001600160a01b038216820361176a57565b600435906001600160a01b038216820361176a57565b604435906001600160a01b038216820361176a57565b9181601f8401121561176a5782359167ffffffffffffffff831161176a576020808501948460051b01011161176a57565b67ffffffffffffffff811161281f57604052565b634e487b7160e01b600052604160045260246000fd5b6040810190811067ffffffffffffffff82111761281f57604052565b90601f8019910116810190811067ffffffffffffffff82111761281f57604052565b81601f8201121561176a5780359067ffffffffffffffff821161281f57604051926128a8601f8401601f191660200185612851565b8284526020838301011161176a57816000926020809301838601378301015290565b90815180825260208080930193019160005b8281106128ea575050505090565b8351855293810193928101926001016128dc565b919082519283825260005b84811061292a575050826000602080949584010152601f8019910116010190565b602081830181015184830182015201612909565b6001546001600160a01b0316330361295257565b60405163118cdaa760e01b8152336004820152602490fd5b1561297157565b60405162461bcd60e51b8152602060048201526013602482015272151bdad95b881b9bdd081cdd5c1c1bdc9d1959606a1b6044820152606490fd5b6040516323b872dd60e01b60208201526001600160a01b03928316602482015292909116604483015260648201929092526129ee91611e4c8260848101611e3e565b565b906000602091828151910182855af115612a4c576000513d612a4357506001600160a01b0381163b155b612a215750565b604051635274afe760e01b81526001600160a01b039091166004820152602490fd5b60011415612a1a565b6040513d6000823e3d90fd5b600260005414612a69576002600055565b604051633ee5aeb560e01b8152600490fd5b805160011015612a8b5760400190565b634e487b7160e01b600052603260045260246000fd5b90602090818382031261176a57825167ffffffffffffffff9384821161176a570181601f8201121561176a57805193841161281f578360051b9060405194612aeb85840187612851565b8552838086019282010192831161176a578301905b828210612b0e575050505090565b81518152908301908301612b00565b90815180825260208080930193019160005b828110612b3d575050505090565b83516001600160a01b031685529381019392810192600101612b2f565b5190811515820361176a57565b908160a091031261176a578051916020820151916040810151916080606083015192015190565b15612b9557565b60405162461bcd60e51b815260206004820152601760248201527f416d6f756e74206d75737420626520706f7369746976650000000000000000006044820152606490fd5b15612be157565b60405162461bcd60e51b815260206004820152600e60248201526d125b9d985b1a5908185b5bdd5b9d60921b6044820152606490fd5b60018060a01b031680600052600e602052426040600020557fa90112a4886a741a336146f8bf654b2fcd8987cc2c0e54d945b088dae30ebe486020604051428152a256fea264697066735822122028088bfe7c3a6982552a35feb7ed28dcb90dbfb51138b232a8b6615d77ff6d4f64736f6c63430008140033",
  "linkReferences": {},
  "deployedLinkReferences": {}
}