{
  "_format": "hh-sol-artifact-1",
  "contractName": "LiquidityMining",
  "sourceName": "contracts/core/incentives/LiquidityMining.sol",
  "abi": [
    {
      "inputs": [
        {
          "internalType": "address",
          "name": "_amm",
          "type": "address"
        }
      ],
      "stateMutability": "nonpayable",
      "type": "constructor"
    },
    {
      "inputs": [
        {
          "internalType": "address",
          "name": "owner",
          "type": "address"
        }
      ],
      "name": "OwnableInvalidOwner",
      "type": "error"
    },
    {
      "inputs": [
        {
          "internalType": "address",
          "name": "account",
          "type": "address"
        }
      ],
      "name": "OwnableUnauthorizedAccount",
      "type": "error"
    },
    {
      "inputs": [],
      "name": "ReentrancyGuardReentrantCall",
      "type": "error"
    },
    {
      "inputs": [
        {
          "internalType": "address",
          "name": "token",
          "type": "address"
        }
      ],
      "name": "SafeERC20FailedOperation",
      "type": "error"
    },
    {
      "anonymous": false,
      "inputs": [
        {
          "indexed": true,
          "internalType": "address",
          "name": "previousOwner",
          "type": "address"
        },
        {
          "indexed": true,
          "internalType": "address",
          "name": "newOwner",
          "type": "address"
        }
      ],
      "name": "OwnershipTransferred",
      "type": "event"
    },
    {
      "anonymous": false,
      "inputs": [
        {
          "indexed": true,
          "internalType": "address",
          "name": "syToken",
          "type": "address"
        },
        {
          "indexed": true,
          "internalType": "address",
          "name": "rewardToken",
          "type": "address"
        },
        {
          "indexed": false,
          "internalType": "uint256",
          "name": "rewardRate",
          "type": "uint256"
        }
      ],
      "name": "PoolAdded",
      "type": "event"
    },
    {
      "anonymous": false,
      "inputs": [
        {
          "indexed": true,
          "internalType": "address",
          "name": "syToken",
          "type": "address"
        }
      ],
      "name": "PoolRemoved",
      "type": "event"
    },
    {
      "anonymous": false,
      "inputs": [
        {
          "indexed": true,
          "internalType": "address",
          "name": "syToken",
          "type": "address"
        },
        {
          "indexed": false,
          "internalType": "uint256",
          "name": "newRate",
          "type": "uint256"
        }
      ],
      "name": "RewardRateUpdated",
      "type": "event"
    },
    {
      "anonymous": false,
      "inputs": [
        {
          "indexed": true,
          "internalType": "address",
          "name": "user",
          "type": "address"
        },
        {
          "indexed": true,
          "internalType": "address",
          "name": "rewardToken",
          "type": "address"
        },
        {
          "indexed": false,
          "internalType": "uint256",
          "name": "amount",
          "type": "uint256"
        }
      ],
      "name": "RewardsClaimed",
      "type": "event"
    },
    {
      "anonymous": false,
      "inputs": [
        {
          "indexed": true,
          "internalType": "address",
          "name": "user",
          "type": "address"
        },
        {
          "indexed": true,
          "internalType": "address",
          "name": "syToken",
          "type": "address"
        },
        {
          "indexed": false,
          "internalType": "uint256",
          "name": "amount",
          "type": "uint256"
        }
      ],
      "name": "Staked",
      "type": "event"
    },
    {
      "anonymous": false,
      "inputs": [
        {
          "indexed": true,
          "internalType": "address",
          "name": "user",
          "type": "address"
        },
        {
          "indexed": true,
          "internalType": "address",
          "name": "syToken",
          "type": "address"
        },
        {
          "indexed": false,
          "internalType": "uint256",
          "name": "amount",
          "type": "uint256"
        }
      ],
      "name": "Unstaked",
      "type": "event"
    },
    {
      "inputs": [],
      "name": "MIN_STAKE_AMOUNT",
      "outputs": [
        {
          "internalType": "uint256",
          "name": "",
          "type": "uint256"
        }
      ],
      "stateMutability": "view",
      "type": "function"
    },
    {
      "inputs": [],
      "name": "PRECISION",
      "outputs": [
        {
          "internalType": "uint256",
          "name": "",
          "type": "uint256"
        }
      ],
      "stateMutability": "view",
      "type": "function"
    },
    {
      "inputs": [
        {
          "internalType": "uint256",
          "name": "",
          "type": "uint256"
        }
      ],
      "name": "activePools",
      "outputs": [
        {
          "internalType": "address",
          "name": "",
          "type": "address"
        }
      ],
      "stateMutability": "view",
      "type": "function"
    },
    {
      "inputs": [
        {
          "internalType": "address",
          "name": "syToken",
          "type": "address"
        },
        {
          "internalType": "address",
          "name": "rewardToken",
          "type": "address"
        },
        {
          "internalType": "uint256",
          "name": "rewardRate",
          "type": "uint256"
        }
      ],
      "name": "addPool",
      "outputs": [],
      "stateMutability": "nonpayable",
      "type": "function"
    },
    {
      "inputs": [],
      "name": "amm",
      "outputs": [
        {
          "internalType": "contract CoreYieldAMM",
          "name": "",
          "type": "address"
        }
      ],
      "stateMutability": "view",
      "type": "function"
    },
    {
      "inputs": [
        {
          "internalType": "address",
          "name": "syToken",
          "type": "address"
        }
      ],
      "name": "claimRewards",
      "outputs": [
        {
          "internalType": "uint256",
          "name": "rewardAmount",
          "type": "uint256"
        }
      ],
      "stateMutability": "nonpayable",
      "type": "function"
    },
    {
      "inputs": [
        {
          "internalType": "address",
          "name": "token",
          "type": "address"
        },
        {
          "internalType": "uint256",
          "name": "amount",
          "type": "uint256"
        }
      ],
      "name": "emergencyRecover",
      "outputs": [],
      "stateMutability": "nonpayable",
      "type": "function"
    },
    {
      "inputs": [],
      "name": "getActivePools",
      "outputs": [
        {
          "internalType": "address[]",
          "name": "",
          "type": "address[]"
        }
      ],
      "stateMutability": "view",
      "type": "function"
    },
    {
      "inputs": [
        {
          "internalType": "address",
          "name": "syToken",
          "type": "address"
        }
      ],
      "name": "getPoolAPY",
      "outputs": [
        {
          "internalType": "uint256",
          "name": "",
          "type": "uint256"
        }
      ],
      "stateMutability": "view",
      "type": "function"
    },
    {
      "inputs": [
        {
          "internalType": "address",
          "name": "syToken",
          "type": "address"
        },
        {
          "internalType": "address",
          "name": "user",
          "type": "address"
        }
      ],
      "name": "getUserStakedAmount",
      "outputs": [
        {
          "internalType": "uint256",
          "name": "",
          "type": "uint256"
        }
      ],
      "stateMutability": "view",
      "type": "function"
    },
    {
      "inputs": [],
      "name": "owner",
      "outputs": [
        {
          "internalType": "address",
          "name": "",
          "type": "address"
        }
      ],
      "stateMutability": "view",
      "type": "function"
    },
    {
      "inputs": [
        {
          "internalType": "address",
          "name": "syToken",
          "type": "address"
        },
        {
          "internalType": "address",
          "name": "user",
          "type": "address"
        }
      ],
      "name": "pendingRewards",
      "outputs": [
        {
          "internalType": "uint256",
          "name": "",
          "type": "uint256"
        }
      ],
      "stateMutability": "view",
      "type": "function"
    },
    {
      "inputs": [
        {
          "internalType": "address",
          "name": "",
          "type": "address"
        }
      ],
      "name": "poolRewards",
      "outputs": [
        {
          "internalType": "address",
          "name": "rewardToken",
          "type": "address"
        },
        {
          "internalType": "uint256",
          "name": "rewardRate",
          "type": "uint256"
        },
        {
          "internalType": "uint256",
          "name": "lastUpdateTime",
          "type": "uint256"
        },
        {
          "internalType": "uint256",
          "name": "rewardPerTokenStored",
          "type": "uint256"
        },
        {
          "internalType": "uint256",
          "name": "totalStaked",
          "type": "uint256"
        }
      ],
      "stateMutability": "view",
      "type": "function"
    },
    {
      "inputs": [
        {
          "internalType": "address",
          "name": "syToken",
          "type": "address"
        }
      ],
      "name": "removePool",
      "outputs": [],
      "stateMutability": "nonpayable",
      "type": "function"
    },
    {
      "inputs": [],
      "name": "renounceOwnership",
      "outputs": [],
      "stateMutability": "nonpayable",
      "type": "function"
    },
    {
      "inputs": [
        {
          "internalType": "address",
          "name": "syToken",
          "type": "address"
        },
        {
          "internalType": "uint256",
          "name": "amount",
          "type": "uint256"
        }
      ],
      "name": "stake",
      "outputs": [],
      "stateMutability": "nonpayable",
      "type": "function"
    },
    {
      "inputs": [
        {
          "internalType": "address",
          "name": "",
          "type": "address"
        }
      ],
      "name": "supportedPools",
      "outputs": [
        {
          "internalType": "bool",
          "name": "",
          "type": "bool"
        }
      ],
      "stateMutability": "view",
      "type": "function"
    },
    {
      "inputs": [
        {
          "internalType": "address",
          "name": "newOwner",
          "type": "address"
        }
      ],
      "name": "transferOwnership",
      "outputs": [],
      "stateMutability": "nonpayable",
      "type": "function"
    },
    {
      "inputs": [
        {
          "internalType": "address",
          "name": "syToken",
          "type": "address"
        },
        {
          "internalType": "uint256",
          "name": "amount",
          "type": "uint256"
        }
      ],
      "name": "unstake",
      "outputs": [],
      "stateMutability": "nonpayable",
      "type": "function"
    },
    {
      "inputs": [
        {
          "internalType": "address",
          "name": "syToken",
          "type": "address"
        },
        {
          "internalType": "uint256",
          "name": "newRate",
          "type": "uint256"
        }
      ],
      "name": "updateRewardRate",
      "outputs": [],
      "stateMutability": "nonpayable",
      "type": "function"
    },
    {
      "inputs": [
        {
          "internalType": "address",
          "name": "",
          "type": "address"
        },
        {
          "internalType": "address",
          "name": "",
          "type": "address"
        }
      ],
      "name": "userRewards",
      "outputs": [
        {
          "internalType": "uint256",
          "name": "rewardPerTokenPaid",
          "type": "uint256"
        },
        {
          "internalType": "uint256",
          "name": "rewards",
          "type": "uint256"
        },
        {
          "internalType": "uint256",
          "name": "lastStakeTime",
          "type": "uint256"
        },
        {
          "internalType": "uint256",
          "name": "totalStaked",
          "type": "uint256"
        }
      ],
      "stateMutability": "view",
      "type": "function"
    }
  ],
  "bytecode": "0x60a03461011e57601f61150638819003918201601f19168301916001600160401b038311848410176101235780849260209460405283398101031261011e57516001600160a01b038082169182900361011e573315610105576000543360018060a01b0319821617600055604051913391167f8be0079c531659141344cd1fd0a4f28419497f9722a3daafe3b4186f6b6457e0600080a36001805581156100c357506080526040516113cc908161013a82396080518181816106410152610dc50152f35b62461bcd60e51b815260206004820152601360248201527f496e76616c696420414d4d2061646472657373000000000000000000000000006044820152606490fd5b604051631e4fbdf760e01b815260006004820152602490fd5b600080fd5b634e487b7160e01b600052604160045260246000fdfe6040608081526004908136101561001557600080fd5b600091823560e01c806326d768e914610df457806327ed71881461076d5780632a94394514610db05780633b7d094614610c06578063715018a614610bac5780637e29d6c21461093f57806380ac82281461090a5780638da5cb5b146108e25780638ec083541461081d5780639639011e146107de578063a980356a14610772578063aaf5eb681461076d578063adc9772e146105a5578063c2a672e014610459578063d5d9d2411461040a578063da787ff7146103ce578063dd5aba4b14610368578063ef5cfb8c1461025e578063f0b3adee146101d4578063f2fde38b1461014e5763f87793ad1461010857600080fd5b3461014a57602036600319011261014a5735916005548310156101475750610131602092610e6e565b905491519160018060a01b039160031b1c168152f35b80fd5b8280fd5b503461014a57602036600319011261014a57610168610e1a565b90610171610ebb565b6001600160a01b039182169283156101be57505082546001600160a01b0319811683178455167f8be0079c531659141344cd1fd0a4f28419497f9722a3daafe3b4186f6b6457e08380a380f35b51631e4fbdf760e01b8152908101849052602490fd5b50903461014a578060031936011261014a5760207f9581ad17b8550e1bb81ad2e2da42cd0dcc395d9f5012a35daeffbd670baecbbf91610212610e1a565b9061024760243592610222610ebb565b6001600160a01b038116808952968552828820546102429060ff16610f1f565b6110c5565b84865260028352816001828820015551908152a280f35b50903461014a57602092836003193601126101475761027b610e1a565b90610284610fcd565b6001600160a01b03828116808352858752848320549193916102a89060ff16610f7f565b825260028652838220916003875284812033825287526102d5858220926102ce816110c5565b3390611157565b60018201805496871561032f575055600382015490556102f9843384845416610ff0565b541681518381527f9310ccfcb8de723f578a9e4282ea9f521f05ae40dc08f3068dfad528a65ee3c7853392a36001805551908152f35b865162461bcd60e51b815290810189905260136024820152724e6f207265776172647320746f20636c61696d60681b6044820152606490fd5b50903461014a57602036600319011261014a5760a0926001600160a01b0390829082610392610e1a565b16815260026020522090815416926001820154926002830154916003840154930154938151958652602086015284015260608301526080820152f35b503461014a57602036600319011261014a5760209260ff918391906001600160a01b036103f9610e1a565b168252855220541690519015158152f35b50503461045557806003193601126104555760038160209361042a610e1a565b610432610e35565b6001600160a01b0391821683528487528383209116825285522001549051908152f35b5080fd5b50919034610455578060031936011261045557610474610e1a565b9260243590610481610fcd565b60018060a01b038516928385526020918083526104a360ff8388205416610f7f565b83156105735784865260028352818620600384528287203388528452828720600381019086825410610530576105008a6102ce7fd8654fcc8cf5b36d30b3f5e4688fc78118e6d68de60b9994e09902268b57c3e3999a9b9c6110c5565b60038301549055610512878254610f5c565b905501610520858254610f5c565b9055519283523392a36001805580f35b845162461bcd60e51b8152808501879052601a60248201527f496e73756666696369656e74207374616b656420616d6f756e740000000000006044820152606490fd5b82606492519162461bcd60e51b8352820152600e60248201526d125b9d985b1a5908185b5bdd5b9d60921b6044820152fd5b508290346104555782600319360112610455576105c0610e1a565b92602435906105cd610fcd565b60018060a01b0390818616938486526020928184526105f160ff8489205416610f7f565b670de0b6b3a7640000851061073857858752600284526024838089209260038752818a20338b52875261062a828b209b6102ce816110c5565b815192838092634bee939560e01b82528b888301527f0000000000000000000000000000000000000000000000000000000000000000165afa90811561072e5788916106fd575b50156106c45760037f5dac0c1b1112564a045ba943c9d50270893e8e826c49be8e7073adc713ab7bd795969798818301548155426002820155016106b6878254610fc0565b905501610520858254610fc0565b5082606492519162461bcd60e51b83528201526014602482015273141bdbdb081b9bdd081a5b9a5d1a585b1a5e995960621b6044820152fd5b90508381813d8311610727575b6107148183610ee7565b81010312610723575189610671565b8780fd5b503d61070a565b84513d8a823e3d90fd5b5082606492519162461bcd60e51b8352820152601060248201526f105b5bdd5b9d081d1bdbc81cdb585b1b60821b6044820152fd5b610e4b565b50503461045557806003193601126104555780608092610790610e1a565b610798610e35565b9060018060a01b03809116835260036020528383209116825260205220908154916001810154916003600283015492015492815194855260208501528301526060820152f35b505034610455573660031901126101475761081a6107fa610e1a565b610802610ebb565b8254602435916001600160a01b039182169116610ff0565b80f35b8284346101475780600319360112610147579080519182906005549182855260208095018093600584527f036b6384b5eca791c62761152d0c79bb0604c104a5fb6f4eb0703f3154bb3db090845b8181106108c55750505081610881910382610ee7565b83519485948186019282875251809352850193925b8281106108a557505050500390f35b83516001600160a01b031685528695509381019392810192600101610896565b82546001600160a01b03168452928801926001928301920161086b565b505034610455578160031936011261045557905490516001600160a01b039091168152602090f35b50503461045557806003193601126104555760209061093861092a610e1a565b610932610e35565b90611225565b9051908152f35b509190346104555760603660031901126104555761095b610e1a565b90610964610e35565b90604435610970610ebb565b6001600160a01b03848116939092908415610b76578316948515610b3c5784875260209388855260ff8389205416610b03578315610aca5782519060a0820182811067ffffffffffffffff821117610ab7578a918a9186528984528784018781528685019042825260608601928484528860808801958087528d815260028d52209651166bffffffffffffffffffffffff60a01b87541617865551600186015551600285015551600384015551910155878452818720600160ff1982541617905560055468010000000000000000811015610aa4577f616f4319a54dcbbb5a18b8b2f702faa1d9c1030304616fc770ae877f0934fcdd94939291610a7d826001610a9c9401600555610e6e565b90919082549060031b9160018060a01b03809116831b921b1916179055565b51908152a380f35b634e487b7160e01b885260418952602488fd5b634e487b7160e01b8a5260418b5260248afd5b825162461bcd60e51b8152808a018690526013602482015272496e76616c696420726577617264207261746560681b6044820152606490fd5b825162461bcd60e51b8152808a018690526013602482015272506f6f6c20616c72656164792065786973747360681b6044820152606490fd5b815162461bcd60e51b81526020818a0152601460248201527324b73b30b634b2103932bbb0b932103a37b5b2b760611b6044820152606490fd5b815162461bcd60e51b81526020818a0152601060248201526f24b73b30b634b21029ac903a37b5b2b760811b6044820152606490fd5b8334610147578060031936011261014757610bc5610ebb565b80546001600160a01b03198116825581906001600160a01b03167f8be0079c531659141344cd1fd0a4f28419497f9722a3daafe3b4186f6b6457e08280a380f35b5082903461045557602036600319011261045557610c22610e1a565b92610c2b610ebb565b60018060a01b038094169081845282602052610c4c60ff8286205416610f1f565b8184526002602052828185200154610d6e5781845282602052832060ff198154169055825b6005805480831015610d625790869184610c8a85610e6e565b949054600395861b1c1614610cc0575050506000198114610cad57600101610c71565b634e487b7160e01b845260118352602484fd5b9194909395969260001992838101908111610d4f5790610a7d85610ce6610cf394610e6e565b9054908a1b1c1691610e6e565b8354908115610d3c57500192610d0884610e6e565b81939154921b1b19169055555b7f4106dfdaa577573db51c0ca93f766dbedfa0758faa2e7f5bcdb7c142be803c3f8280a280f35b634e487b7160e01b885260319052602487fd5b634e487b7160e01b895260118352602489fd5b50505091925050610d15565b5162461bcd60e51b8152602081840152601960248201527f506f6f6c20686173207374616b6564206c6971756964697479000000000000006044820152606490fd5b505034610455578160031936011261045557517f00000000000000000000000000000000000000000000000000000000000000006001600160a01b03168152602090f35b50503461045557602036600319011261045557602090610938610e15610e1a565b6112e8565b600435906001600160a01b0382168203610e3057565b600080fd5b602435906001600160a01b0382168203610e3057565b34610e30576000366003190112610e30576020604051670de0b6b3a76400008152f35b600554811015610ea55760056000527f036b6384b5eca791c62761152d0c79bb0604c104a5fb6f4eb0703f3154bb3db00190600090565b634e487b7160e01b600052603260045260246000fd5b6000546001600160a01b03163303610ecf57565b60405163118cdaa760e01b8152336004820152602490fd5b90601f8019910116810190811067ffffffffffffffff821117610f0957604052565b634e487b7160e01b600052604160045260246000fd5b15610f2657565b60405162461bcd60e51b815260206004820152600e60248201526d141bdbdb081b9bdd08199bdd5b9960921b6044820152606490fd5b91908203918211610f6957565b634e487b7160e01b600052601160045260246000fd5b15610f8657565b60405162461bcd60e51b8152602060048201526012602482015271141bdbdb081b9bdd081cdd5c1c1bdc9d195960721b6044820152606490fd5b91908201809211610f6957565b600260015414610fde576002600155565b604051633ee5aeb560e01b8152600490fd5b60405163a9059cbb60e01b602082019081526001600160a01b0393841660248301526044808301959095529381529092608082019067ffffffffffffffff821183831017610f0957602092600092604052519082865af115611086576000513d61107d57508082163b155b611063575050565b604051635274afe760e01b81529116600482015260249150fd5b6001141561105b565b6040513d6000823e3d90fd5b81810292918115918404141715610f6957565b81156110af570490565b634e487b7160e01b600052601260045260246000fd5b6001600160a01b03166000908152600260205260409020600481015490811561114d5760028101916110f8835442610f5c565b80156111475761110c906001840154611092565b90670de0b6b3a764000091828102928184041490151715610f6957611136600391611140936110a5565b9201918254610fc0565b9055429055565b50505050565b9050600242910155565b9060018060a01b03908160009316835260026020526040832091600360205260408420911683526020526040822090600481015480156111475760036111ae6111a4600285015442610f5c565b6001850154611092565b92015491670de0b6b3a7640000948582029180830487149015171561121157506111e292916111dc916110a5565b90610fc0565b916111fc60038301546111f6845486610f5c565b90611092565b0461120c60018301918254610fc0565b905555565b634e487b7160e01b81526011600452602490fd5b60018060a01b039182600092168252600460205260ff604083205416156112e25760026020526040822092600360205260408320911682526020526040812091600481015480156112d85760036112836111a4600285015442610f5c565b92015491670de0b6b3a7640000938482029180830486149015171561121157506112bb6001936111dc6112d59796946112cc946110a5565b6111f6600386015491865490610f5c565b04910154610fc0565b90565b5050506001015490565b50905090565b6001600160a01b031660009081526004602052604081205490919060ff161561139457600260205260408220600481015490811561139057600101546301e133809081810291818304148115171561137c576a1a1601fc4ea7109e0000000290808204670de0b6b3a76400001490151715611368576112d59293506110a5565b634e487b7160e01b84526011600452602484fd5b634e487b7160e01b85526011600452602485fd5b5050565b56fea26469706673582212204637d1f17b04f8378b84e31a00efd3c85e3626962efc82051ea35454d69c9e5a64736f6c63430008140033",
  "linkReferences": {},
  "deployedLinkReferences": {}
}