{
  "_format": "hh-sol-artifact-1",
  "contractName": "MockDualCORE",
  "sourceName": "contracts/mocks/MockDualCORE.sol",
  "abi": [
    {
      "inputs": [],
      "stateMutability": "nonpayable",
      "type": "constructor"
    },
    {
      "inputs": [
        {
          "internalType": "address",
          "name": "spender",
          "type": "address"
        },
        {
          "internalType": "uint256",
          "name": "allowance",
          "type": "uint256"
        },
        {
          "internalType": "uint256",
          "name": "needed",
          "type": "uint256"
        }
      ],
      "name": "ERC20InsufficientAllowance",
      "type": "error"
    },
    {
      "inputs": [
        {
          "internalType": "address",
          "name": "sender",
          "type": "address"
        },
        {
          "internalType": "uint256",
          "name": "balance",
          "type": "uint256"
        },
        {
          "internalType": "uint256",
          "name": "needed",
          "type": "uint256"
        }
      ],
      "name": "ERC20InsufficientBalance",
      "type": "error"
    },
    {
      "inputs": [
        {
          "internalType": "address",
          "name": "approver",
          "type": "address"
        }
      ],
      "name": "ERC20InvalidApprover",
      "type": "error"
    },
    {
      "inputs": [
        {
          "internalType": "address",
          "name": "receiver",
          "type": "address"
        }
      ],
      "name": "ERC20InvalidReceiver",
      "type": "error"
    },
    {
      "inputs": [
        {
          "internalType": "address",
          "name": "sender",
          "type": "address"
        }
      ],
      "name": "ERC20InvalidSender",
      "type": "error"
    },
    {
      "inputs": [
        {
          "internalType": "address",
          "name": "spender",
          "type": "address"
        }
      ],
      "name": "ERC20InvalidSpender",
      "type": "error"
    },
    {
      "inputs": [
        {
          "internalType": "address",
          "name": "owner",
          "type": "address"
        }
      ],
      "name": "OwnableInvalidOwner",
      "type": "error"
    },
    {
      "inputs": [
        {
          "internalType": "address",
          "name": "account",
          "type": "address"
        }
      ],
      "name": "OwnableUnauthorizedAccount",
      "type": "error"
    },
    {
      "anonymous": false,
      "inputs": [
        {
          "indexed": true,
          "internalType": "address",
          "name": "owner",
          "type": "address"
        },
        {
          "indexed": true,
          "internalType": "address",
          "name": "spender",
          "type": "address"
        },
        {
          "indexed": false,
          "internalType": "uint256",
          "name": "value",
          "type": "uint256"
        }
      ],
      "name": "Approval",
      "type": "event"
    },
    {
      "anonymous": false,
      "inputs": [
        {
          "indexed": true,
          "internalType": "address",
          "name": "provider",
          "type": "address"
        },
        {
          "indexed": false,
          "internalType": "uint256",
          "name": "coreAmount",
          "type": "uint256"
        },
        {
          "indexed": false,
          "internalType": "uint256",
          "name": "btcAmount",
          "type": "uint256"
        },
        {
          "indexed": false,
          "internalType": "uint256",
          "name": "lpTokens",
          "type": "uint256"
        }
      ],
      "name": "LiquidityAdded",
      "type": "event"
    },
    {
      "anonymous": false,
      "inputs": [
        {
          "indexed": true,
          "internalType": "address",
          "name": "provider",
          "type": "address"
        },
        {
          "indexed": false,
          "internalType": "uint256",
          "name": "lpTokens",
          "type": "uint256"
        },
        {
          "indexed": false,
          "internalType": "uint256",
          "name": "coreAmount",
          "type": "uint256"
        },
        {
          "indexed": false,
          "internalType": "uint256",
          "name": "btcAmount",
          "type": "uint256"
        }
      ],
      "name": "LiquidityRemoved",
      "type": "event"
    },
    {
      "anonymous": false,
      "inputs": [
        {
          "indexed": true,
          "internalType": "address",
          "name": "previousOwner",
          "type": "address"
        },
        {
          "indexed": true,
          "internalType": "address",
          "name": "newOwner",
          "type": "address"
        }
      ],
      "name": "OwnershipTransferred",
      "type": "event"
    },
    {
      "anonymous": false,
      "inputs": [
        {
          "indexed": true,
          "internalType": "address",
          "name": "from",
          "type": "address"
        },
        {
          "indexed": true,
          "internalType": "address",
          "name": "to",
          "type": "address"
        },
        {
          "indexed": false,
          "internalType": "uint256",
          "name": "value",
          "type": "uint256"
        }
      ],
      "name": "Transfer",
      "type": "event"
    },
    {
      "inputs": [
        {
          "internalType": "address",
          "name": "owner",
          "type": "address"
        },
        {
          "internalType": "address",
          "name": "spender",
          "type": "address"
        }
      ],
      "name": "allowance",
      "outputs": [
        {
          "internalType": "uint256",
          "name": "",
          "type": "uint256"
        }
      ],
      "stateMutability": "view",
      "type": "function"
    },
    {
      "inputs": [
        {
          "internalType": "address",
          "name": "spender",
          "type": "address"
        },
        {
          "internalType": "uint256",
          "name": "value",
          "type": "uint256"
        }
      ],
      "name": "approve",
      "outputs": [
        {
          "internalType": "bool",
          "name": "",
          "type": "bool"
        }
      ],
      "stateMutability": "nonpayable",
      "type": "function"
    },
    {
      "inputs": [
        {
          "internalType": "address",
          "name": "account",
          "type": "address"
        }
      ],
      "name": "balanceOf",
      "outputs": [
        {
          "internalType": "uint256",
          "name": "",
          "type": "uint256"
        }
      ],
      "stateMutability": "view",
      "type": "function"
    },
    {
      "inputs": [],
      "name": "btcReserve",
      "outputs": [
        {
          "internalType": "uint256",
          "name": "",
          "type": "uint256"
        }
      ],
      "stateMutability": "view",
      "type": "function"
    },
    {
      "inputs": [],
      "name": "coreReserve",
      "outputs": [
        {
          "internalType": "uint256",
          "name": "",
          "type": "uint256"
        }
      ],
      "stateMutability": "view",
      "type": "function"
    },
    {
      "inputs": [],
      "name": "decimals",
      "outputs": [
        {
          "internalType": "uint8",
          "name": "",
          "type": "uint8"
        }
      ],
      "stateMutability": "view",
      "type": "function"
    },
    {
      "inputs": [],
      "name": "getPoolInfo",
      "outputs": [
        {
          "internalType": "uint256",
          "name": "coreReserve_",
          "type": "uint256"
        },
        {
          "internalType": "uint256",
          "name": "btcReserve_",
          "type": "uint256"
        },
        {
          "internalType": "uint256",
          "name": "totalLiquidity_",
          "type": "uint256"
        },
        {
          "internalType": "uint256",
          "name": "currentAPY",
          "type": "uint256"
        }
      ],
      "stateMutability": "view",
      "type": "function"
    },
    {
      "inputs": [],
      "name": "getRewardRate",
      "outputs": [
        {
          "internalType": "uint256",
          "name": "",
          "type": "uint256"
        }
      ],
      "stateMutability": "view",
      "type": "function"
    },
    {
      "inputs": [
        {
          "internalType": "address",
          "name": "user",
          "type": "address"
        }
      ],
      "name": "getUserLPInfo",
      "outputs": [
        {
          "internalType": "uint256",
          "name": "lpTokens",
          "type": "uint256"
        },
        {
          "internalType": "uint256",
          "name": "lpDuration",
          "type": "uint256"
        },
        {
          "internalType": "uint256",
          "name": "shareOfPool",
          "type": "uint256"
        },
        {
          "internalType": "uint256",
          "name": "estimatedRewards",
          "type": "uint256"
        }
      ],
      "stateMutability": "view",
      "type": "function"
    },
    {
      "inputs": [
        {
          "internalType": "address",
          "name": "",
          "type": "address"
        }
      ],
      "name": "lastLPTime",
      "outputs": [
        {
          "internalType": "uint256",
          "name": "",
          "type": "uint256"
        }
      ],
      "stateMutability": "view",
      "type": "function"
    },
    {
      "inputs": [
        {
          "internalType": "address",
          "name": "",
          "type": "address"
        }
      ],
      "name": "liquidityProvided",
      "outputs": [
        {
          "internalType": "uint256",
          "name": "",
          "type": "uint256"
        }
      ],
      "stateMutability": "view",
      "type": "function"
    },
    {
      "inputs": [
        {
          "internalType": "address",
          "name": "to",
          "type": "address"
        },
        {
          "internalType": "uint256",
          "name": "amount",
          "type": "uint256"
        }
      ],
      "name": "mint",
      "outputs": [],
      "stateMutability": "nonpayable",
      "type": "function"
    },
    {
      "inputs": [],
      "name": "name",
      "outputs": [
        {
          "internalType": "string",
          "name": "",
          "type": "string"
        }
      ],
      "stateMutability": "view",
      "type": "function"
    },
    {
      "inputs": [],
      "name": "owner",
      "outputs": [
        {
          "internalType": "address",
          "name": "",
          "type": "address"
        }
      ],
      "stateMutability": "view",
      "type": "function"
    },
    {
      "inputs": [],
      "name": "renounceOwnership",
      "outputs": [],
      "stateMutability": "nonpayable",
      "type": "function"
    },
    {
      "inputs": [],
      "name": "rewardRate",
      "outputs": [
        {
          "internalType": "uint256",
          "name": "",
          "type": "uint256"
        }
      ],
      "stateMutability": "view",
      "type": "function"
    },
    {
      "inputs": [],
      "name": "symbol",
      "outputs": [
        {
          "internalType": "string",
          "name": "",
          "type": "string"
        }
      ],
      "stateMutability": "view",
      "type": "function"
    },
    {
      "inputs": [],
      "name": "totalLiquidity",
      "outputs": [
        {
          "internalType": "uint256",
          "name": "",
          "type": "uint256"
        }
      ],
      "stateMutability": "view",
      "type": "function"
    },
    {
      "inputs": [],
      "name": "totalSupply",
      "outputs": [
        {
          "internalType": "uint256",
          "name": "",
          "type": "uint256"
        }
      ],
      "stateMutability": "view",
      "type": "function"
    },
    {
      "inputs": [
        {
          "internalType": "address",
          "name": "to",
          "type": "address"
        },
        {
          "internalType": "uint256",
          "name": "value",
          "type": "uint256"
        }
      ],
      "name": "transfer",
      "outputs": [
        {
          "internalType": "bool",
          "name": "",
          "type": "bool"
        }
      ],
      "stateMutability": "nonpayable",
      "type": "function"
    },
    {
      "inputs": [
        {
          "internalType": "address",
          "name": "from",
          "type": "address"
        },
        {
          "internalType": "address",
          "name": "to",
          "type": "address"
        },
        {
          "internalType": "uint256",
          "name": "value",
          "type": "uint256"
        }
      ],
      "name": "transferFrom",
      "outputs": [
        {
          "internalType": "bool",
          "name": "",
          "type": "bool"
        }
      ],
      "stateMutability": "nonpayable",
      "type": "function"
    },
    {
      "inputs": [
        {
          "internalType": "address",
          "name": "newOwner",
          "type": "address"
        }
      ],
      "name": "transferOwnership",
      "outputs": [],
      "stateMutability": "nonpayable",
      "type": "function"
    }
  ],
  "bytecode": "0x60806040526104ba6006553480156200001757600080fd5b50336040518060400160405280601081526020016f4475616c205374616b656420434f524560801b815250604051806040016040528060088152602001676475616c434f524560c01b81525081600390816200007491906200036f565b5060046200008382826200036f565b5050506001600160a01b038116620000b657604051631e4fbdf760e01b8152600060048201526024015b60405180910390fd5b620000c18162000107565b50620000d8336969e10de76676d080000062000159565b69d3c21bcecceda100000060075568056bc75e2d631000006008556969e10de76676d080000060095562000463565b600580546001600160a01b038381166001600160a01b0319831681179093556040519116919082907f8be0079c531659141344cd1fd0a4f28419497f9722a3daafe3b4186f6b6457e090600090a35050565b6001600160a01b038216620001855760405163ec442f0560e01b815260006004820152602401620000ad565b620001936000838362000197565b5050565b6001600160a01b038316620001c6578060026000828254620001ba91906200043b565b909155506200023a9050565b6001600160a01b038316600090815260208190526040902054818110156200021b5760405163391434e360e21b81526001600160a01b03851660048201526024810182905260448101839052606401620000ad565b6001600160a01b03841660009081526020819052604090209082900390555b6001600160a01b038216620002585760028054829003905562000277565b6001600160a01b03821660009081526020819052604090208054820190555b816001600160a01b0316836001600160a01b03167fddf252ad1be2c89b69c2b068fc378daa952ba7f163c4a11628f55a4df523b3ef83604051620002bd91815260200190565b60405180910390a3505050565b634e487b7160e01b600052604160045260246000fd5b600181811c90821680620002f557607f821691505b6020821081036200031657634e487b7160e01b600052602260045260246000fd5b50919050565b601f8211156200036a57600081815260208120601f850160051c81016020861015620003455750805b601f850160051c820191505b81811015620003665782815560010162000351565b5050505b505050565b81516001600160401b038111156200038b576200038b620002ca565b620003a3816200039c8454620002e0565b846200031c565b602080601f831160018114620003db5760008415620003c25750858301515b600019600386901b1c1916600185901b17855562000366565b600085815260208120601f198616915b828110156200040c57888601518255948401946001909101908401620003eb565b50858210156200042b5787850151600019600388901b60f8161c191681555b5050505050600190811b01905550565b808201808211156200045d57634e487b7160e01b600052601160045260246000fd5b92915050565b610bab80620004736000396000f3fe608060405234801561001057600080fd5b50600436106101425760003560e01c806370a08231116100b857806395d89b411161007c57806395d89b41146102a4578063a9059cbb146102ac578063bf27bb89146102bf578063c9e003cb146102df578063dd62ed3e146102e8578063f2fde38b1461032157600080fd5b806370a0823114610247578063715018a6146102705780637b0a47ee146102785780637e1a3786146102815780638da5cb5b1461028957600080fd5b806318160ddd1161010a57806318160ddd146101d757806323b872dd146101df578063313ce567146101f257806340c10f191461020157806360246c881461021657806365119f721461022757600080fd5b806301b424e51461014757806306fdde0314610163578063095ea7b314610178578063119f3eb61461019b57806315770f92146101ce575b600080fd5b61015060085481565b6040519081526020015b60405180910390f35b61016b610334565b60405161015a91906109a1565b61018b610186366004610a0b565b6103c6565b604051901515815260200161015a565b6101ae6101a9366004610a35565b6103e0565b60408051948552602085019390935291830152606082015260800161015a565b61015060095481565b600254610150565b61018b6101ed366004610a57565b61048b565b6040516012815260200161015a565b61021461020f366004610a0b565b6104af565b005b6007546008546009546006546101ae565b610150610235366004610a35565b600a6020526000908152604090205481565b610150610255366004610a35565b6001600160a01b031660009081526020819052604090205490565b610214610585565b61015060065481565b600654610150565b6005546040516001600160a01b03909116815260200161015a565b61016b610599565b61018b6102ba366004610a0b565b6105a8565b6101506102cd366004610a35565b600b6020526000908152604090205481565b61015060075481565b6101506102f6366004610a93565b6001600160a01b03918216600090815260016020908152604080832093909416825291909152205490565b61021461032f366004610a35565b6105b6565b60606003805461034390610ac6565b80601f016020809104026020016040519081016040528092919081815260200182805461036f90610ac6565b80156103bc5780601f10610391576101008083540402835291602001916103bc565b820191906000526020600020905b81548152906001019060200180831161039f57829003601f168201915b5050505050905090565b6000336103d48185856105f9565b60019150505b92915050565b600080600080610405856001600160a01b031660009081526020819052604090205490565b6001600160a01b0386166000908152600b602052604090205490945061042b9042610b16565b925060006009541161043e576000610457565b60095461044d85612710610b29565b6104579190610b40565b915064496cebb800836006548661046e9190610b29565b6104789190610b29565b6104829190610b40565b90509193509193565b60003361049985828561060b565b6104a485858561068a565b506001949350505050565b6104b76106e9565b6104c18282610716565b6001600160a01b0382166000908152600a6020526040812080548392906104e9908490610b62565b90915550506001600160a01b0382166000908152600b602052604081204290556009805483929061051b908490610b62565b90915550506001600160a01b0382167f64b83944e79c3ce8d4c297411de637c3e102d064677aac0c163976ebdcd6f50e610556600284610b40565b610562614e2085610b40565b604080519283526020830191909152810184905260600160405180910390a25050565b61058d6106e9565b6105976000610750565b565b60606004805461034390610ac6565b6000336103d481858561068a565b6105be6106e9565b6001600160a01b0381166105ed57604051631e4fbdf760e01b8152600060048201526024015b60405180910390fd5b6105f681610750565b50565b61060683838360016107a2565b505050565b6001600160a01b03838116600090815260016020908152604080832093861683529290522054600019811015610684578181101561067557604051637dc7a0d960e11b81526001600160a01b038416600482015260248101829052604481018390526064016105e4565b610684848484840360006107a2565b50505050565b6001600160a01b0383166106b457604051634b637e8f60e11b8152600060048201526024016105e4565b6001600160a01b0382166106de5760405163ec442f0560e01b8152600060048201526024016105e4565b610606838383610877565b6005546001600160a01b031633146105975760405163118cdaa760e01b81523360048201526024016105e4565b6001600160a01b0382166107405760405163ec442f0560e01b8152600060048201526024016105e4565b61074c60008383610877565b5050565b600580546001600160a01b038381166001600160a01b0319831681179093556040519116919082907f8be0079c531659141344cd1fd0a4f28419497f9722a3daafe3b4186f6b6457e090600090a35050565b6001600160a01b0384166107cc5760405163e602df0560e01b8152600060048201526024016105e4565b6001600160a01b0383166107f657604051634a1406b160e11b8152600060048201526024016105e4565b6001600160a01b038085166000908152600160209081526040808320938716835292905220829055801561068457826001600160a01b0316846001600160a01b03167f8c5be1e5ebec7d5bd14f71427d1e84f3dd0314c0f7b2291e5b200ac8c7c3b9258460405161086991815260200190565b60405180910390a350505050565b6001600160a01b0383166108a25780600260008282546108979190610b62565b909155506109149050565b6001600160a01b038316600090815260208190526040902054818110156108f55760405163391434e360e21b81526001600160a01b038516600482015260248101829052604481018390526064016105e4565b6001600160a01b03841660009081526020819052604090209082900390555b6001600160a01b0382166109305760028054829003905561094f565b6001600160a01b03821660009081526020819052604090208054820190555b816001600160a01b0316836001600160a01b03167fddf252ad1be2c89b69c2b068fc378daa952ba7f163c4a11628f55a4df523b3ef8360405161099491815260200190565b60405180910390a3505050565b600060208083528351808285015260005b818110156109ce578581018301518582016040015282016109b2565b506000604082860101526040601f19601f8301168501019250505092915050565b80356001600160a01b0381168114610a0657600080fd5b919050565b60008060408385031215610a1e57600080fd5b610a27836109ef565b946020939093013593505050565b600060208284031215610a4757600080fd5b610a50826109ef565b9392505050565b600080600060608486031215610a6c57600080fd5b610a75846109ef565b9250610a83602085016109ef565b9150604084013590509250925092565b60008060408385031215610aa657600080fd5b610aaf836109ef565b9150610abd602084016109ef565b90509250929050565b600181811c90821680610ada57607f821691505b602082108103610afa57634e487b7160e01b600052602260045260246000fd5b50919050565b634e487b7160e01b600052601160045260246000fd5b818103818111156103da576103da610b00565b80820281158282048414176103da576103da610b00565b600082610b5d57634e487b7160e01b600052601260045260246000fd5b500490565b808201808211156103da576103da610b0056fea2646970667358221220d54003c0147779e05489d35e5b76eb88fddc5ba50fa8dcdaf072274d72d31b2364736f6c63430008140033",
  "linkReferences": {},
  "deployedLinkReferences": {}
}