{
  "_format": "hh-sol-artifact-1",
  "contractName": "MockStCORE",
  "sourceName": "contracts/mocks/MockStCORE.sol",
  "abi": [
    {
      "inputs": [],
      "stateMutability": "nonpayable",
      "type": "constructor"
    },
    {
      "inputs": [
        {
          "internalType": "address",
          "name": "spender",
          "type": "address"
        },
        {
          "internalType": "uint256",
          "name": "allowance",
          "type": "uint256"
        },
        {
          "internalType": "uint256",
          "name": "needed",
          "type": "uint256"
        }
      ],
      "name": "ERC20InsufficientAllowance",
      "type": "error"
    },
    {
      "inputs": [
        {
          "internalType": "address",
          "name": "sender",
          "type": "address"
        },
        {
          "internalType": "uint256",
          "name": "balance",
          "type": "uint256"
        },
        {
          "internalType": "uint256",
          "name": "needed",
          "type": "uint256"
        }
      ],
      "name": "ERC20InsufficientBalance",
      "type": "error"
    },
    {
      "inputs": [
        {
          "internalType": "address",
          "name": "approver",
          "type": "address"
        }
      ],
      "name": "ERC20InvalidApprover",
      "type": "error"
    },
    {
      "inputs": [
        {
          "internalType": "address",
          "name": "receiver",
          "type": "address"
        }
      ],
      "name": "ERC20InvalidReceiver",
      "type": "error"
    },
    {
      "inputs": [
        {
          "internalType": "address",
          "name": "sender",
          "type": "address"
        }
      ],
      "name": "ERC20InvalidSender",
      "type": "error"
    },
    {
      "inputs": [
        {
          "internalType": "address",
          "name": "spender",
          "type": "address"
        }
      ],
      "name": "ERC20InvalidSpender",
      "type": "error"
    },
    {
      "inputs": [
        {
          "internalType": "address",
          "name": "owner",
          "type": "address"
        }
      ],
      "name": "OwnableInvalidOwner",
      "type": "error"
    },
    {
      "inputs": [
        {
          "internalType": "address",
          "name": "account",
          "type": "address"
        }
      ],
      "name": "OwnableUnauthorizedAccount",
      "type": "error"
    },
    {
      "anonymous": false,
      "inputs": [
        {
          "indexed": true,
          "internalType": "address",
          "name": "owner",
          "type": "address"
        },
        {
          "indexed": true,
          "internalType": "address",
          "name": "spender",
          "type": "address"
        },
        {
          "indexed": false,
          "internalType": "uint256",
          "name": "value",
          "type": "uint256"
        }
      ],
      "name": "Approval",
      "type": "event"
    },
    {
      "anonymous": false,
      "inputs": [
        {
          "indexed": true,
          "internalType": "address",
          "name": "previousOwner",
          "type": "address"
        },
        {
          "indexed": true,
          "internalType": "address",
          "name": "newOwner",
          "type": "address"
        }
      ],
      "name": "OwnershipTransferred",
      "type": "event"
    },
    {
      "anonymous": false,
      "inputs": [
        {
          "indexed": true,
          "internalType": "address",
          "name": "user",
          "type": "address"
        },
        {
          "indexed": false,
          "internalType": "uint256",
          "name": "reward",
          "type": "uint256"
        }
      ],
      "name": "RewardClaimed",
      "type": "event"
    },
    {
      "anonymous": false,
      "inputs": [
        {
          "indexed": false,
          "internalType": "uint256",
          "name": "oldRate",
          "type": "uint256"
        },
        {
          "indexed": false,
          "internalType": "uint256",
          "name": "newRate",
          "type": "uint256"
        }
      ],
      "name": "RewardRateUpdated",
      "type": "event"
    },
    {
      "anonymous": false,
      "inputs": [
        {
          "indexed": true,
          "internalType": "address",
          "name": "user",
          "type": "address"
        },
        {
          "indexed": false,
          "internalType": "uint256",
          "name": "amount",
          "type": "uint256"
        }
      ],
      "name": "Staked",
      "type": "event"
    },
    {
      "anonymous": false,
      "inputs": [
        {
          "indexed": true,
          "internalType": "address",
          "name": "from",
          "type": "address"
        },
        {
          "indexed": true,
          "internalType": "address",
          "name": "to",
          "type": "address"
        },
        {
          "indexed": false,
          "internalType": "uint256",
          "name": "value",
          "type": "uint256"
        }
      ],
      "name": "Transfer",
      "type": "event"
    },
    {
      "anonymous": false,
      "inputs": [
        {
          "indexed": true,
          "internalType": "address",
          "name": "user",
          "type": "address"
        },
        {
          "indexed": false,
          "internalType": "uint256",
          "name": "amount",
          "type": "uint256"
        }
      ],
      "name": "Unstaked",
      "type": "event"
    },
    {
      "inputs": [
        {
          "internalType": "address",
          "name": "owner",
          "type": "address"
        },
        {
          "internalType": "address",
          "name": "spender",
          "type": "address"
        }
      ],
      "name": "allowance",
      "outputs": [
        {
          "internalType": "uint256",
          "name": "",
          "type": "uint256"
        }
      ],
      "stateMutability": "view",
      "type": "function"
    },
    {
      "inputs": [
        {
          "internalType": "address",
          "name": "spender",
          "type": "address"
        },
        {
          "internalType": "uint256",
          "name": "value",
          "type": "uint256"
        }
      ],
      "name": "approve",
      "outputs": [
        {
          "internalType": "bool",
          "name": "",
          "type": "bool"
        }
      ],
      "stateMutability": "nonpayable",
      "type": "function"
    },
    {
      "inputs": [
        {
          "internalType": "address",
          "name": "account",
          "type": "address"
        }
      ],
      "name": "balanceOf",
      "outputs": [
        {
          "internalType": "uint256",
          "name": "",
          "type": "uint256"
        }
      ],
      "stateMutability": "view",
      "type": "function"
    },
    {
      "inputs": [
        {
          "internalType": "address",
          "name": "from",
          "type": "address"
        },
        {
          "internalType": "uint256",
          "name": "amount",
          "type": "uint256"
        }
      ],
      "name": "burn",
      "outputs": [],
      "stateMutability": "nonpayable",
      "type": "function"
    },
    {
      "inputs": [],
      "name": "decimals",
      "outputs": [
        {
          "internalType": "uint8",
          "name": "",
          "type": "uint8"
        }
      ],
      "stateMutability": "view",
      "type": "function"
    },
    {
      "inputs": [
        {
          "internalType": "address",
          "name": "account",
          "type": "address"
        }
      ],
      "name": "earned",
      "outputs": [
        {
          "internalType": "uint256",
          "name": "",
          "type": "uint256"
        }
      ],
      "stateMutability": "view",
      "type": "function"
    },
    {
      "inputs": [
        {
          "internalType": "uint256",
          "name": "timeInSeconds",
          "type": "uint256"
        }
      ],
      "name": "fastForwardTime",
      "outputs": [],
      "stateMutability": "nonpayable",
      "type": "function"
    },
    {
      "inputs": [],
      "name": "getReward",
      "outputs": [
        {
          "internalType": "uint256",
          "name": "",
          "type": "uint256"
        }
      ],
      "stateMutability": "nonpayable",
      "type": "function"
    },
    {
      "inputs": [],
      "name": "getRewardRate",
      "outputs": [
        {
          "internalType": "uint256",
          "name": "",
          "type": "uint256"
        }
      ],
      "stateMutability": "view",
      "type": "function"
    },
    {
      "inputs": [
        {
          "internalType": "address",
          "name": "account",
          "type": "address"
        }
      ],
      "name": "getStakingInfo",
      "outputs": [
        {
          "internalType": "uint256",
          "name": "stakedAmount",
          "type": "uint256"
        },
        {
          "internalType": "uint256",
          "name": "stakingDuration",
          "type": "uint256"
        },
        {
          "internalType": "uint256",
          "name": "currentReward",
          "type": "uint256"
        },
        {
          "internalType": "uint256",
          "name": "projectedAnnualReward",
          "type": "uint256"
        }
      ],
      "stateMutability": "view",
      "type": "function"
    },
    {
      "inputs": [],
      "name": "getTotalStats",
      "outputs": [
        {
          "internalType": "uint256",
          "name": "totalSupply_",
          "type": "uint256"
        },
        {
          "internalType": "uint256",
          "name": "totalStaked_",
          "type": "uint256"
        },
        {
          "internalType": "uint256",
          "name": "rewardPool_",
          "type": "uint256"
        },
        {
          "internalType": "uint256",
          "name": "currentAPY",
          "type": "uint256"
        }
      ],
      "stateMutability": "view",
      "type": "function"
    },
    {
      "inputs": [
        {
          "internalType": "address",
          "name": "",
          "type": "address"
        }
      ],
      "name": "lastUpdateTime",
      "outputs": [
        {
          "internalType": "uint256",
          "name": "",
          "type": "uint256"
        }
      ],
      "stateMutability": "view",
      "type": "function"
    },
    {
      "inputs": [
        {
          "internalType": "address",
          "name": "to",
          "type": "address"
        },
        {
          "internalType": "uint256",
          "name": "amount",
          "type": "uint256"
        }
      ],
      "name": "mint",
      "outputs": [],
      "stateMutability": "nonpayable",
      "type": "function"
    },
    {
      "inputs": [],
      "name": "name",
      "outputs": [
        {
          "internalType": "string",
          "name": "",
          "type": "string"
        }
      ],
      "stateMutability": "view",
      "type": "function"
    },
    {
      "inputs": [],
      "name": "owner",
      "outputs": [
        {
          "internalType": "address",
          "name": "",
          "type": "address"
        }
      ],
      "stateMutability": "view",
      "type": "function"
    },
    {
      "inputs": [],
      "name": "renounceOwnership",
      "outputs": [],
      "stateMutability": "nonpayable",
      "type": "function"
    },
    {
      "inputs": [],
      "name": "rewardPool",
      "outputs": [
        {
          "internalType": "uint256",
          "name": "",
          "type": "uint256"
        }
      ],
      "stateMutability": "view",
      "type": "function"
    },
    {
      "inputs": [],
      "name": "rewardRate",
      "outputs": [
        {
          "internalType": "uint256",
          "name": "",
          "type": "uint256"
        }
      ],
      "stateMutability": "view",
      "type": "function"
    },
    {
      "inputs": [
        {
          "internalType": "address",
          "name": "",
          "type": "address"
        }
      ],
      "name": "rewards",
      "outputs": [
        {
          "internalType": "uint256",
          "name": "",
          "type": "uint256"
        }
      ],
      "stateMutability": "view",
      "type": "function"
    },
    {
      "inputs": [
        {
          "internalType": "uint256",
          "name": "newRate",
          "type": "uint256"
        }
      ],
      "name": "setRewardRate",
      "outputs": [],
      "stateMutability": "nonpayable",
      "type": "function"
    },
    {
      "inputs": [
        {
          "internalType": "address",
          "name": "",
          "type": "address"
        }
      ],
      "name": "stakingTime",
      "outputs": [
        {
          "internalType": "uint256",
          "name": "",
          "type": "uint256"
        }
      ],
      "stateMutability": "view",
      "type": "function"
    },
    {
      "inputs": [],
      "name": "symbol",
      "outputs": [
        {
          "internalType": "string",
          "name": "",
          "type": "string"
        }
      ],
      "stateMutability": "view",
      "type": "function"
    },
    {
      "inputs": [],
      "name": "totalStaked",
      "outputs": [
        {
          "internalType": "uint256",
          "name": "",
          "type": "uint256"
        }
      ],
      "stateMutability": "view",
      "type": "function"
    },
    {
      "inputs": [],
      "name": "totalSupply",
      "outputs": [
        {
          "internalType": "uint256",
          "name": "",
          "type": "uint256"
        }
      ],
      "stateMutability": "view",
      "type": "function"
    },
    {
      "inputs": [
        {
          "internalType": "address",
          "name": "to",
          "type": "address"
        },
        {
          "internalType": "uint256",
          "name": "value",
          "type": "uint256"
        }
      ],
      "name": "transfer",
      "outputs": [
        {
          "internalType": "bool",
          "name": "",
          "type": "bool"
        }
      ],
      "stateMutability": "nonpayable",
      "type": "function"
    },
    {
      "inputs": [
        {
          "internalType": "address",
          "name": "from",
          "type": "address"
        },
        {
          "internalType": "address",
          "name": "to",
          "type": "address"
        },
        {
          "internalType": "uint256",
          "name": "value",
          "type": "uint256"
        }
      ],
      "name": "transferFrom",
      "outputs": [
        {
          "internalType": "bool",
          "name": "",
          "type": "bool"
        }
      ],
      "stateMutability": "nonpayable",
      "type": "function"
    },
    {
      "inputs": [
        {
          "internalType": "address",
          "name": "newOwner",
          "type": "address"
        }
      ],
      "name": "transferOwnership",
      "outputs": [],
      "stateMutability": "nonpayable",
      "type": "function"
    }
  ],
  "bytecode": "0x60806040526103526006553480156200001757600080fd5b50336040518060400160405280600b81526020016a5374616b656420434f524560a81b815250604051806040016040528060068152602001657374434f524560d01b81525081600390816200006d919062000383565b5060046200007c828262000383565b5050506001600160a01b038116620000af57604051631e4fbdf760e01b8152600060048201526024015b60405180910390fd5b620000ba816200011b565b50620000d13369d3c21bcecceda10000006200016d565b620000e73069d3c21bcecceda10000006200016d565b69d3c21bcecceda10000006008553360009081526009602090815260408083204290819055600b9092529091205562000477565b600580546001600160a01b038381166001600160a01b0319831681179093556040519116919082907f8be0079c531659141344cd1fd0a4f28419497f9722a3daafe3b4186f6b6457e090600090a35050565b6001600160a01b038216620001995760405163ec442f0560e01b815260006004820152602401620000a6565b620001a760008383620001ab565b5050565b6001600160a01b038316620001da578060026000828254620001ce91906200044f565b909155506200024e9050565b6001600160a01b038316600090815260208190526040902054818110156200022f5760405163391434e360e21b81526001600160a01b03851660048201526024810182905260448101839052606401620000a6565b6001600160a01b03841660009081526020819052604090209082900390555b6001600160a01b0382166200026c576002805482900390556200028b565b6001600160a01b03821660009081526020819052604090208054820190555b816001600160a01b0316836001600160a01b03167fddf252ad1be2c89b69c2b068fc378daa952ba7f163c4a11628f55a4df523b3ef83604051620002d191815260200190565b60405180910390a3505050565b634e487b7160e01b600052604160045260246000fd5b600181811c908216806200030957607f821691505b6020821081036200032a57634e487b7160e01b600052602260045260246000fd5b50919050565b601f8211156200037e57600081815260208120601f850160051c81016020861015620003595750805b601f850160051c820191505b818110156200037a5782815560010162000365565b5050505b505050565b81516001600160401b038111156200039f576200039f620002de565b620003b781620003b08454620002f4565b8462000330565b602080601f831160018114620003ef5760008415620003d65750858301515b600019600386901b1c1916600185901b1785556200037a565b600085815260208120601f198616915b828110156200042057888601518255948401946001909101908401620003ff565b50858210156200043f5787850151600019600388901b60f8161c191681555b5050505050600190811b01905550565b808201808211156200047157634e487b7160e01b600052601160045260246000fd5b92915050565b61100380620004876000396000f3fe608060405234801561001057600080fd5b50600436106101a85760003560e01c8063715018a6116100f95780639e447fc611610097578063cd0e0e8011610071578063cd0e0e8014610395578063dd62ed3e146103a8578063f2fde38b146103e1578063fc5cbf1d146103f457600080fd5b80639e447fc61461033c578063a9059cbb1461034f578063aa4704f31461036257600080fd5b8063817b1cd2116100d3578063817b1cd2146102fd5780638da5cb5b1461030657806395d89b41146103215780639dc29fac1461032957600080fd5b8063715018a6146102e45780637b0a47ee146102ec5780637e1a3786146102f557600080fd5b80632ce9aead1161016657806340c10f191161014057806340c10f191461027d578063583d42fd1461029257806366666aa9146102b257806370a08231146102bb57600080fd5b80632ce9aead14610246578063313ce567146102665780633d18b9121461027557600080fd5b80628cc262146101ad57806306fdde03146101d35780630700037d146101e8578063095ea7b31461020857806318160ddd1461022b57806323b872dd14610233575b600080fd5b6101c06101bb366004610de3565b6103fc565b6040519081526020015b60405180910390f35b6101db6104ee565b6040516101ca9190610e05565b6101c06101f6366004610de3565b600a6020526000908152604090205481565b61021b610216366004610e53565b610580565b60405190151581526020016101ca565b6002546101c0565b61021b610241366004610e7d565b61059a565b6101c0610254366004610de3565b60096020526000908152604090205481565b604051601281526020016101ca565b6101c06105be565b61029061028b366004610e53565b6106b5565b005b6101c06102a0366004610de3565b600b6020526000908152604090205481565b6101c060085481565b6101c06102c9366004610de3565b6001600160a01b031660009081526020819052604090205490565b61029061076a565b6101c060065481565b6006546101c0565b6101c060075481565b6005546040516001600160a01b0390911681526020016101ca565b6101db61077e565b610290610337366004610e53565b61078d565b61029061034a366004610eb9565b6107f1565b61021b61035d366004610e53565b610885565b610375610370366004610de3565b610893565b6040805194855260208501939093529183015260608201526080016101ca565b6102906103a3366004610eb9565b61096d565b6101c06103b6366004610ed2565b6001600160a01b03918216600090815260016020908152604080832093909416825291909152205490565b6102906103ef366004610de3565b61098a565b6103756109c8565b6001600160a01b038116600090815260096020526040812054810361042357506000919050565b6001600160a01b0382166000908152600960205260408120546104469042610f1b565b9050600064496cebb80082600654610473876001600160a01b031660009081526020819052604090205490565b61047d9190610f2e565b6104879190610f2e565b6104919190610f45565b6001600160a01b0385166000908152600b6020526040812054919250906104b89042610f1b565b9050600062278d0082116104cd5760006104d8565b6104d8600a84610f45565b90506104e48184610f67565b9695505050505050565b6060600380546104fd90610f7a565b80601f016020809104026020016040519081016040528092919081815260200182805461052990610f7a565b80156105765780601f1061054b57610100808354040283529160200191610576565b820191906000526020600020905b81548152906001019060200180831161055957829003601f168201915b5050505050905090565b60003361058e8185856109ee565b60019150505b92915050565b6000336105a8858285610a00565b6105b3858585610a7f565b506001949350505050565b6040516246613160e11b815233600482015260009081903090628cc26290602401602060405180830381865afa1580156105fc573d6000803e3d6000fd5b505050506040513d601f19601f820116820180604052508101906106209190610fb4565b905060008111801561063457508060085410155b156106b057336000908152600a60209081526040808320839055600990915281204290556008805483929061066a908490610f1b565b9091555061067a90503382610ade565b60405181815233907f106f923f993c2149d49b4255ff723acafa1f2d94393f561d3eda32ae348f72419060200160405180910390a25b919050565b6106bd610b18565b6106c78282610ade565b6001600160a01b0382166000908152600960205260408120549003610710576001600160a01b03821660009081526009602090815260408083204290819055600b909252909120555b80600760008282546107229190610f67565b90915550506040518181526001600160a01b038316907f9e71bc8eea02a63969f509818f2dafb9254532904319f9dbda79b67bd34a5f3d906020015b60405180910390a25050565b610772610b18565b61077c6000610b45565b565b6060600480546104fd90610f7a565b610795610b18565b61079f8282610b97565b80600760008282546107b19190610f1b565b90915550506040518181526001600160a01b038316907f0f5bb82176feb1b5e747e28471aa92156a04d9f3ab9f45f28e2d704232b93f759060200161075e565b6107f9610b18565b6107d08111156108405760405162461bcd60e51b815260206004820152600d60248201526c0a4c2e8ca40e8dede40d0d2ced609b1b60448201526064015b60405180910390fd5b600680549082905560408051828152602081018490527fc390a98ace15a7bb6bab611eedfdbb2685043b241a869420043cdfb23ccfee50910160405180910390a15050565b60003361058e818585610a7f565b6000806000806108b8856001600160a01b031660009081526020819052604090205490565b6001600160a01b0386166000908152600b60205260409020549094506108de9042610f1b565b6040516246613160e11b81526001600160a01b03871660048201529093503090628cc26290602401602060405180830381865afa158015610923573d6000803e3d6000fd5b505050506040513d601f19601f820116820180604052508101906109479190610fb4565b91506127106006548561095a9190610f2e565b6109649190610f45565b90509193509193565b6109778142610f1b565b3360009081526009602052604090205550565b610992610b18565b6001600160a01b0381166109bc57604051631e4fbdf760e01b815260006004820152602401610837565b6109c581610b45565b50565b6000806000806109d760025490565b935060075492506008549150600654905090919293565b6109fb8383836001610bcd565b505050565b6001600160a01b03838116600090815260016020908152604080832093861683529290522054600019811015610a795781811015610a6a57604051637dc7a0d960e11b81526001600160a01b03841660048201526024810182905260448101839052606401610837565b610a7984848484036000610bcd565b50505050565b6001600160a01b038316610aa957604051634b637e8f60e11b815260006004820152602401610837565b6001600160a01b038216610ad35760405163ec442f0560e01b815260006004820152602401610837565b6109fb838383610ca2565b6001600160a01b038216610b085760405163ec442f0560e01b815260006004820152602401610837565b610b1460008383610ca2565b5050565b6005546001600160a01b0316331461077c5760405163118cdaa760e01b8152336004820152602401610837565b600580546001600160a01b038381166001600160a01b0319831681179093556040519116919082907f8be0079c531659141344cd1fd0a4f28419497f9722a3daafe3b4186f6b6457e090600090a35050565b6001600160a01b038216610bc157604051634b637e8f60e11b815260006004820152602401610837565b610b1482600083610ca2565b6001600160a01b038416610bf75760405163e602df0560e01b815260006004820152602401610837565b6001600160a01b038316610c2157604051634a1406b160e11b815260006004820152602401610837565b6001600160a01b0380851660009081526001602090815260408083209387168352929052208290558015610a7957826001600160a01b0316846001600160a01b03167f8c5be1e5ebec7d5bd14f71427d1e84f3dd0314c0f7b2291e5b200ac8c7c3b92584604051610c9491815260200190565b60405180910390a350505050565b6001600160a01b038316610ccd578060026000828254610cc29190610f67565b90915550610d3f9050565b6001600160a01b03831660009081526020819052604090205481811015610d205760405163391434e360e21b81526001600160a01b03851660048201526024810182905260448101839052606401610837565b6001600160a01b03841660009081526020819052604090209082900390555b6001600160a01b038216610d5b57600280548290039055610d7a565b6001600160a01b03821660009081526020819052604090208054820190555b816001600160a01b0316836001600160a01b03167fddf252ad1be2c89b69c2b068fc378daa952ba7f163c4a11628f55a4df523b3ef83604051610dbf91815260200190565b60405180910390a3505050565b80356001600160a01b03811681146106b057600080fd5b600060208284031215610df557600080fd5b610dfe82610dcc565b9392505050565b600060208083528351808285015260005b81811015610e3257858101830151858201604001528201610e16565b506000604082860101526040601f19601f8301168501019250505092915050565b60008060408385031215610e6657600080fd5b610e6f83610dcc565b946020939093013593505050565b600080600060608486031215610e9257600080fd5b610e9b84610dcc565b9250610ea960208501610dcc565b9150604084013590509250925092565b600060208284031215610ecb57600080fd5b5035919050565b60008060408385031215610ee557600080fd5b610eee83610dcc565b9150610efc60208401610dcc565b90509250929050565b634e487b7160e01b600052601160045260246000fd5b8181038181111561059457610594610f05565b808202811582820484141761059457610594610f05565b600082610f6257634e487b7160e01b600052601260045260246000fd5b500490565b8082018082111561059457610594610f05565b600181811c90821680610f8e57607f821691505b602082108103610fae57634e487b7160e01b600052602260045260246000fd5b50919050565b600060208284031215610fc657600080fd5b505191905056fea2646970667358221220d6276e0b4d9f8031bfe4a2b8c48561fa6d7b13dedd026a4f179cf5143de4376a64736f6c63430008140033",
  "linkReferences": {},
  "deployedLinkReferences": {}
}