{
  "_format": "hh-sol-artifact-1",
  "contractName": "MockLstBTC",
  "sourceName": "contracts/mocks/MockLstBTC.sol",
  "abi": [
    {
      "inputs": [],
      "stateMutability": "nonpayable",
      "type": "constructor"
    },
    {
      "inputs": [
        {
          "internalType": "address",
          "name": "spender",
          "type": "address"
        },
        {
          "internalType": "uint256",
          "name": "allowance",
          "type": "uint256"
        },
        {
          "internalType": "uint256",
          "name": "needed",
          "type": "uint256"
        }
      ],
      "name": "ERC20InsufficientAllowance",
      "type": "error"
    },
    {
      "inputs": [
        {
          "internalType": "address",
          "name": "sender",
          "type": "address"
        },
        {
          "internalType": "uint256",
          "name": "balance",
          "type": "uint256"
        },
        {
          "internalType": "uint256",
          "name": "needed",
          "type": "uint256"
        }
      ],
      "name": "ERC20InsufficientBalance",
      "type": "error"
    },
    {
      "inputs": [
        {
          "internalType": "address",
          "name": "approver",
          "type": "address"
        }
      ],
      "name": "ERC20InvalidApprover",
      "type": "error"
    },
    {
      "inputs": [
        {
          "internalType": "address",
          "name": "receiver",
          "type": "address"
        }
      ],
      "name": "ERC20InvalidReceiver",
      "type": "error"
    },
    {
      "inputs": [
        {
          "internalType": "address",
          "name": "sender",
          "type": "address"
        }
      ],
      "name": "ERC20InvalidSender",
      "type": "error"
    },
    {
      "inputs": [
        {
          "internalType": "address",
          "name": "spender",
          "type": "address"
        }
      ],
      "name": "ERC20InvalidSpender",
      "type": "error"
    },
    {
      "inputs": [
        {
          "internalType": "address",
          "name": "owner",
          "type": "address"
        }
      ],
      "name": "OwnableInvalidOwner",
      "type": "error"
    },
    {
      "inputs": [
        {
          "internalType": "address",
          "name": "account",
          "type": "address"
        }
      ],
      "name": "OwnableUnauthorizedAccount",
      "type": "error"
    },
    {
      "anonymous": false,
      "inputs": [
        {
          "indexed": true,
          "internalType": "address",
          "name": "owner",
          "type": "address"
        },
        {
          "indexed": true,
          "internalType": "address",
          "name": "spender",
          "type": "address"
        },
        {
          "indexed": false,
          "internalType": "uint256",
          "name": "value",
          "type": "uint256"
        }
      ],
      "name": "Approval",
      "type": "event"
    },
    {
      "anonymous": false,
      "inputs": [
        {
          "indexed": true,
          "internalType": "address",
          "name": "user",
          "type": "address"
        },
        {
          "indexed": false,
          "internalType": "uint256",
          "name": "btcAmount",
          "type": "uint256"
        },
        {
          "indexed": false,
          "internalType": "uint256",
          "name": "lstBTCAmount",
          "type": "uint256"
        }
      ],
      "name": "BTCDeposited",
      "type": "event"
    },
    {
      "anonymous": false,
      "inputs": [
        {
          "indexed": false,
          "internalType": "uint256",
          "name": "oldRate",
          "type": "uint256"
        },
        {
          "indexed": false,
          "internalType": "uint256",
          "name": "newRate",
          "type": "uint256"
        }
      ],
      "name": "ExchangeRateUpdated",
      "type": "event"
    },
    {
      "anonymous": false,
      "inputs": [
        {
          "indexed": true,
          "internalType": "address",
          "name": "previousOwner",
          "type": "address"
        },
        {
          "indexed": true,
          "internalType": "address",
          "name": "newOwner",
          "type": "address"
        }
      ],
      "name": "OwnershipTransferred",
      "type": "event"
    },
    {
      "anonymous": false,
      "inputs": [
        {
          "indexed": true,
          "internalType": "address",
          "name": "from",
          "type": "address"
        },
        {
          "indexed": true,
          "internalType": "address",
          "name": "to",
          "type": "address"
        },
        {
          "indexed": false,
          "internalType": "uint256",
          "name": "value",
          "type": "uint256"
        }
      ],
      "name": "Transfer",
      "type": "event"
    },
    {
      "inputs": [
        {
          "internalType": "address",
          "name": "owner",
          "type": "address"
        },
        {
          "internalType": "address",
          "name": "spender",
          "type": "address"
        }
      ],
      "name": "allowance",
      "outputs": [
        {
          "internalType": "uint256",
          "name": "",
          "type": "uint256"
        }
      ],
      "stateMutability": "view",
      "type": "function"
    },
    {
      "inputs": [
        {
          "internalType": "address",
          "name": "spender",
          "type": "address"
        },
        {
          "internalType": "uint256",
          "name": "value",
          "type": "uint256"
        }
      ],
      "name": "approve",
      "outputs": [
        {
          "internalType": "bool",
          "name": "",
          "type": "bool"
        }
      ],
      "stateMutability": "nonpayable",
      "type": "function"
    },
    {
      "inputs": [
        {
          "internalType": "address",
          "name": "account",
          "type": "address"
        }
      ],
      "name": "balanceOf",
      "outputs": [
        {
          "internalType": "uint256",
          "name": "",
          "type": "uint256"
        }
      ],
      "stateMutability": "view",
      "type": "function"
    },
    {
      "inputs": [],
      "name": "decimals",
      "outputs": [
        {
          "internalType": "uint8",
          "name": "",
          "type": "uint8"
        }
      ],
      "stateMutability": "view",
      "type": "function"
    },
    {
      "inputs": [
        {
          "internalType": "address",
          "name": "",
          "type": "address"
        }
      ],
      "name": "depositTime",
      "outputs": [
        {
          "internalType": "uint256",
          "name": "",
          "type": "uint256"
        }
      ],
      "stateMutability": "view",
      "type": "function"
    },
    {
      "inputs": [],
      "name": "exchangeRate",
      "outputs": [
        {
          "internalType": "uint256",
          "name": "",
          "type": "uint256"
        }
      ],
      "stateMutability": "view",
      "type": "function"
    },
    {
      "inputs": [
        {
          "internalType": "uint256",
          "name": "lstBTCAmount",
          "type": "uint256"
        }
      ],
      "name": "getBTCValue",
      "outputs": [
        {
          "internalType": "uint256",
          "name": "",
          "type": "uint256"
        }
      ],
      "stateMutability": "view",
      "type": "function"
    },
    {
      "inputs": [
        {
          "internalType": "uint256",
          "name": "btcAmount",
          "type": "uint256"
        }
      ],
      "name": "getLstBTCAmount",
      "outputs": [
        {
          "internalType": "uint256",
          "name": "",
          "type": "uint256"
        }
      ],
      "stateMutability": "view",
      "type": "function"
    },
    {
      "inputs": [],
      "name": "getRewardRate",
      "outputs": [
        {
          "internalType": "uint256",
          "name": "",
          "type": "uint256"
        }
      ],
      "stateMutability": "view",
      "type": "function"
    },
    {
      "inputs": [],
      "name": "lastRateUpdate",
      "outputs": [
        {
          "internalType": "uint256",
          "name": "",
          "type": "uint256"
        }
      ],
      "stateMutability": "view",
      "type": "function"
    },
    {
      "inputs": [
        {
          "internalType": "address",
          "name": "to",
          "type": "address"
        },
        {
          "internalType": "uint256",
          "name": "amount",
          "type": "uint256"
        }
      ],
      "name": "mint",
      "outputs": [],
      "stateMutability": "nonpayable",
      "type": "function"
    },
    {
      "inputs": [],
      "name": "name",
      "outputs": [
        {
          "internalType": "string",
          "name": "",
          "type": "string"
        }
      ],
      "stateMutability": "view",
      "type": "function"
    },
    {
      "inputs": [],
      "name": "owner",
      "outputs": [
        {
          "internalType": "address",
          "name": "",
          "type": "address"
        }
      ],
      "stateMutability": "view",
      "type": "function"
    },
    {
      "inputs": [],
      "name": "renounceOwnership",
      "outputs": [],
      "stateMutability": "nonpayable",
      "type": "function"
    },
    {
      "inputs": [],
      "name": "rewardRate",
      "outputs": [
        {
          "internalType": "uint256",
          "name": "",
          "type": "uint256"
        }
      ],
      "stateMutability": "view",
      "type": "function"
    },
    {
      "inputs": [],
      "name": "symbol",
      "outputs": [
        {
          "internalType": "string",
          "name": "",
          "type": "string"
        }
      ],
      "stateMutability": "view",
      "type": "function"
    },
    {
      "inputs": [],
      "name": "totalSupply",
      "outputs": [
        {
          "internalType": "uint256",
          "name": "",
          "type": "uint256"
        }
      ],
      "stateMutability": "view",
      "type": "function"
    },
    {
      "inputs": [
        {
          "internalType": "address",
          "name": "to",
          "type": "address"
        },
        {
          "internalType": "uint256",
          "name": "value",
          "type": "uint256"
        }
      ],
      "name": "transfer",
      "outputs": [
        {
          "internalType": "bool",
          "name": "",
          "type": "bool"
        }
      ],
      "stateMutability": "nonpayable",
      "type": "function"
    },
    {
      "inputs": [
        {
          "internalType": "address",
          "name": "from",
          "type": "address"
        },
        {
          "internalType": "address",
          "name": "to",
          "type": "address"
        },
        {
          "internalType": "uint256",
          "name": "value",
          "type": "uint256"
        }
      ],
      "name": "transferFrom",
      "outputs": [
        {
          "internalType": "bool",
          "name": "",
          "type": "bool"
        }
      ],
      "stateMutability": "nonpayable",
      "type": "function"
    },
    {
      "inputs": [
        {
          "internalType": "address",
          "name": "newOwner",
          "type": "address"
        }
      ],
      "name": "transferOwnership",
      "outputs": [],
      "stateMutability": "nonpayable",
      "type": "function"
    },
    {
      "inputs": [],
      "name": "updateExchangeRate",
      "outputs": [],
      "stateMutability": "nonpayable",
      "type": "function"
    }
  ],
  "bytecode": "0x60806040526101a4600655670de0b6b3a76400006007553480156200002357600080fd5b5033604051806040016040528060118152602001704c6971756964205374616b65642042544360781b815250604051806040016040528060068152602001656c737442544360d01b81525081600390816200007f919062000354565b5060046200008e828262000354565b5050506001600160a01b038116620000c157604051631e4fbdf760e01b8152600060048201526024015b60405180910390fd5b620000cc81620000ec565b50620000e23368056bc75e2d631000006200013e565b4260085562000448565b600580546001600160a01b038381166001600160a01b0319831681179093556040519116919082907f8be0079c531659141344cd1fd0a4f28419497f9722a3daafe3b4186f6b6457e090600090a35050565b6001600160a01b0382166200016a5760405163ec442f0560e01b815260006004820152602401620000b8565b62000178600083836200017c565b5050565b6001600160a01b038316620001ab5780600260008282546200019f919062000420565b909155506200021f9050565b6001600160a01b03831660009081526020819052604090205481811015620002005760405163391434e360e21b81526001600160a01b03851660048201526024810182905260448101839052606401620000b8565b6001600160a01b03841660009081526020819052604090209082900390555b6001600160a01b0382166200023d576002805482900390556200025c565b6001600160a01b03821660009081526020819052604090208054820190555b816001600160a01b0316836001600160a01b03167fddf252ad1be2c89b69c2b068fc378daa952ba7f163c4a11628f55a4df523b3ef83604051620002a291815260200190565b60405180910390a3505050565b634e487b7160e01b600052604160045260246000fd5b600181811c90821680620002da57607f821691505b602082108103620002fb57634e487b7160e01b600052602260045260246000fd5b50919050565b601f8211156200034f57600081815260208120601f850160051c810160208610156200032a5750805b601f850160051c820191505b818110156200034b5782815560010162000336565b5050505b505050565b81516001600160401b03811115620003705762000370620002af565b6200038881620003818454620002c5565b8462000301565b602080601f831160018114620003c05760008415620003a75750858301515b600019600386901b1c1916600185901b1785556200034b565b600085815260208120601f198616915b82811015620003f157888601518255948401946001909101908401620003d0565b5085821015620004105787850151600019600388901b60f8161c191681555b5050505050600190811b01905550565b808201808211156200044257634e487b7160e01b600052601160045260246000fd5b92915050565b610b7880620004586000396000f3fe608060405234801561001057600080fd5b50600436106101375760003560e01c80634d82680e116100b85780638da5cb5b1161007c5780638da5cb5b1461025557806395d89b4114610270578063a9059cbb14610278578063c045d44b1461028b578063dd62ed3e1461029e578063f2fde38b146102d757600080fd5b80634d82680e1461020a57806370a0823114610213578063715018a61461023c5780637b0a47ee146102445780637e1a37861461024d57600080fd5b806323b872dd116100ff57806323b872dd146101ac578063313ce567146101bf5780633ba0b9a9146101ce57806340c10f19146101d757806346c64873146101ea57600080fd5b806302ce728f1461013c57806306fdde0314610146578063095ea7b31461016457806318160ddd146101875780631a5f83c314610199575b600080fd5b6101446102ea565b005b61014e61039c565b60405161015b9190610955565b60405180910390f35b6101776101723660046109bf565b61042e565b604051901515815260200161015b565b6002545b60405190815260200161015b565b61018b6101a73660046109e9565b610448565b6101776101ba366004610a02565b61046a565b6040516012815260200161015b565b61018b60075481565b6101446101e53660046109bf565b61048e565b61018b6101f8366004610a3e565b60096020526000908152604090205481565b61018b60085481565b61018b610221366004610a3e565b6001600160a01b031660009081526020819052604090205490565b610144610523565b61018b60065481565b60065461018b565b6005546040516001600160a01b03909116815260200161015b565b61014e610537565b6101776102863660046109bf565b610546565b61018b6102993660046109e9565b610554565b61018b6102ac366004610a60565b6001600160a01b03918216600090815260016020908152604080832093909416825291909152205490565b6101446102e5366004610a3e565b61056d565b6000600854426102fa9190610aa9565b9050801561039957600064496cebb8008260065460075461031b9190610abc565b6103259190610abc565b61032f9190610ad3565b905080600760008282546103439190610af5565b9091555050426008556007547fc8d1043f24843c0a1c9251fdc30017d84e87498fbcf232af9f86816b5e182bde9061037c908390610aa9565b6007546040805192835260208301919091520160405180910390a1505b50565b6060600380546103ab90610b08565b80601f01602080910402602001604051908101604052809291908181526020018280546103d790610b08565b80156104245780601f106103f957610100808354040283529160200191610424565b820191906000526020600020905b81548152906001019060200180831161040757829003601f168201915b5050505050905090565b60003361043c8185856105ad565b60019150505b92915050565b60075460009061046083670de0b6b3a7640000610abc565b6104429190610ad3565b6000336104788582856105bf565b61048385858561063e565b506001949350505050565b61049661069d565b6104a082826106ca565b6001600160a01b03821660009081526009602052604081205490036104db576001600160a01b03821660009081526009602052604090204290555b60408051828152602081018390526001600160a01b038416917ff1048c0beef5b81978cccc9de417eba45a7814dd31609c3d5be8ce66685f336b910160405180910390a25050565b61052b61069d565b6105356000610704565b565b6060600480546103ab90610b08565b60003361043c81858561063e565b6000670de0b6b3a7640000600754836104609190610abc565b61057561069d565b6001600160a01b0381166105a457604051631e4fbdf760e01b8152600060048201526024015b60405180910390fd5b61039981610704565b6105ba8383836001610756565b505050565b6001600160a01b03838116600090815260016020908152604080832093861683529290522054600019811015610638578181101561062957604051637dc7a0d960e11b81526001600160a01b0384166004820152602481018290526044810183905260640161059b565b61063884848484036000610756565b50505050565b6001600160a01b03831661066857604051634b637e8f60e11b81526000600482015260240161059b565b6001600160a01b0382166106925760405163ec442f0560e01b81526000600482015260240161059b565b6105ba83838361082b565b6005546001600160a01b031633146105355760405163118cdaa760e01b815233600482015260240161059b565b6001600160a01b0382166106f45760405163ec442f0560e01b81526000600482015260240161059b565b6107006000838361082b565b5050565b600580546001600160a01b038381166001600160a01b0319831681179093556040519116919082907f8be0079c531659141344cd1fd0a4f28419497f9722a3daafe3b4186f6b6457e090600090a35050565b6001600160a01b0384166107805760405163e602df0560e01b81526000600482015260240161059b565b6001600160a01b0383166107aa57604051634a1406b160e11b81526000600482015260240161059b565b6001600160a01b038085166000908152600160209081526040808320938716835292905220829055801561063857826001600160a01b0316846001600160a01b03167f8c5be1e5ebec7d5bd14f71427d1e84f3dd0314c0f7b2291e5b200ac8c7c3b9258460405161081d91815260200190565b60405180910390a350505050565b6001600160a01b03831661085657806002600082825461084b9190610af5565b909155506108c89050565b6001600160a01b038316600090815260208190526040902054818110156108a95760405163391434e360e21b81526001600160a01b0385166004820152602481018290526044810183905260640161059b565b6001600160a01b03841660009081526020819052604090209082900390555b6001600160a01b0382166108e457600280548290039055610903565b6001600160a01b03821660009081526020819052604090208054820190555b816001600160a01b0316836001600160a01b03167fddf252ad1be2c89b69c2b068fc378daa952ba7f163c4a11628f55a4df523b3ef8360405161094891815260200190565b60405180910390a3505050565b600060208083528351808285015260005b8181101561098257858101830151858201604001528201610966565b506000604082860101526040601f19601f8301168501019250505092915050565b80356001600160a01b03811681146109ba57600080fd5b919050565b600080604083850312156109d257600080fd5b6109db836109a3565b946020939093013593505050565b6000602082840312156109fb57600080fd5b5035919050565b600080600060608486031215610a1757600080fd5b610a20846109a3565b9250610a2e602085016109a3565b9150604084013590509250925092565b600060208284031215610a5057600080fd5b610a59826109a3565b9392505050565b60008060408385031215610a7357600080fd5b610a7c836109a3565b9150610a8a602084016109a3565b90509250929050565b634e487b7160e01b600052601160045260246000fd5b8181038181111561044257610442610a93565b808202811582820484141761044257610442610a93565b600082610af057634e487b7160e01b600052601260045260246000fd5b500490565b8082018082111561044257610442610a93565b600181811c90821680610b1c57607f821691505b602082108103610b3c57634e487b7160e01b600052602260045260246000fd5b5091905056fea2646970667358221220dda468acecc25ff0095e840ada725364a0ef0079f221e7e2f4531aae982aca9a64736f6c63430008140033",
  "linkReferences": {},
  "deployedLinkReferences": {}
}