{
  "_format": "hh-sol-artifact-1",
  "contractName": "PrincipalToken",
  "sourceName": "contracts/core/PrincipalToken.sol",
  "abi": [
    {
      "inputs": [
        {
          "internalType": "string",
          "name": "_name",
          "type": "string"
        },
        {
          "internalType": "string",
          "name": "_symbol",
          "type": "string"
        },
        {
          "internalType": "uint256",
          "name": "_maturity",
          "type": "uint256"
        }
      ],
      "stateMutability": "nonpayable",
      "type": "constructor"
    },
    {
      "inputs": [
        {
          "internalType": "address",
          "name": "spender",
          "type": "address"
        },
        {
          "internalType": "uint256",
          "name": "allowance",
          "type": "uint256"
        },
        {
          "internalType": "uint256",
          "name": "needed",
          "type": "uint256"
        }
      ],
      "name": "ERC20InsufficientAllowance",
      "type": "error"
    },
    {
      "inputs": [
        {
          "internalType": "address",
          "name": "sender",
          "type": "address"
        },
        {
          "internalType": "uint256",
          "name": "balance",
          "type": "uint256"
        },
        {
          "internalType": "uint256",
          "name": "needed",
          "type": "uint256"
        }
      ],
      "name": "ERC20InsufficientBalance",
      "type": "error"
    },
    {
      "inputs": [
        {
          "internalType": "address",
          "name": "approver",
          "type": "address"
        }
      ],
      "name": "ERC20InvalidApprover",
      "type": "error"
    },
    {
      "inputs": [
        {
          "internalType": "address",
          "name": "receiver",
          "type": "address"
        }
      ],
      "name": "ERC20InvalidReceiver",
      "type": "error"
    },
    {
      "inputs": [
        {
          "internalType": "address",
          "name": "sender",
          "type": "address"
        }
      ],
      "name": "ERC20InvalidSender",
      "type": "error"
    },
    {
      "inputs": [
        {
          "internalType": "address",
          "name": "spender",
          "type": "address"
        }
      ],
      "name": "ERC20InvalidSpender",
      "type": "error"
    },
    {
      "inputs": [
        {
          "internalType": "address",
          "name": "owner",
          "type": "address"
        }
      ],
      "name": "OwnableInvalidOwner",
      "type": "error"
    },
    {
      "inputs": [
        {
          "internalType": "address",
          "name": "account",
          "type": "address"
        }
      ],
      "name": "OwnableUnauthorizedAccount",
      "type": "error"
    },
    {
      "inputs": [
        {
          "internalType": "address",
          "name": "token",
          "type": "address"
        }
      ],
      "name": "SafeERC20FailedOperation",
      "type": "error"
    },
    {
      "anonymous": false,
      "inputs": [
        {
          "indexed": true,
          "internalType": "address",
          "name": "owner",
          "type": "address"
        },
        {
          "indexed": true,
          "internalType": "address",
          "name": "spender",
          "type": "address"
        },
        {
          "indexed": false,
          "internalType": "uint256",
          "name": "value",
          "type": "uint256"
        }
      ],
      "name": "Approval",
      "type": "event"
    },
    {
      "anonymous": false,
      "inputs": [
        {
          "indexed": true,
          "internalType": "address",
          "name": "user",
          "type": "address"
        },
        {
          "indexed": false,
          "internalType": "uint256",
          "name": "amount",
          "type": "uint256"
        },
        {
          "indexed": false,
          "internalType": "string",
          "name": "operation",
          "type": "string"
        }
      ],
      "name": "FeesCollected",
      "type": "event"
    },
    {
      "anonymous": false,
      "inputs": [
        {
          "indexed": true,
          "internalType": "address",
          "name": "previousOwner",
          "type": "address"
        },
        {
          "indexed": true,
          "internalType": "address",
          "name": "newOwner",
          "type": "address"
        }
      ],
      "name": "OwnershipTransferred",
      "type": "event"
    },
    {
      "anonymous": false,
      "inputs": [
        {
          "indexed": true,
          "internalType": "address",
          "name": "user",
          "type": "address"
        },
        {
          "indexed": false,
          "internalType": "uint256",
          "name": "amount",
          "type": "uint256"
        },
        {
          "indexed": false,
          "internalType": "uint256",
          "name": "timestamp",
          "type": "uint256"
        }
      ],
      "name": "PrincipalMinted",
      "type": "event"
    },
    {
      "anonymous": false,
      "inputs": [
        {
          "indexed": true,
          "internalType": "address",
          "name": "user",
          "type": "address"
        },
        {
          "indexed": false,
          "internalType": "uint256",
          "name": "amount",
          "type": "uint256"
        },
        {
          "indexed": false,
          "internalType": "uint256",
          "name": "underlyingAmount",
          "type": "uint256"
        },
        {
          "indexed": false,
          "internalType": "uint256",
          "name": "fee",
          "type": "uint256"
        }
      ],
      "name": "PrincipalRedeemed",
      "type": "event"
    },
    {
      "anonymous": false,
      "inputs": [
        {
          "indexed": true,
          "internalType": "address",
          "name": "from",
          "type": "address"
        },
        {
          "indexed": true,
          "internalType": "address",
          "name": "to",
          "type": "address"
        },
        {
          "indexed": false,
          "internalType": "uint256",
          "name": "value",
          "type": "uint256"
        }
      ],
      "name": "Transfer",
      "type": "event"
    },
    {
      "inputs": [],
      "name": "BASIS_POINTS",
      "outputs": [
        {
          "internalType": "uint256",
          "name": "",
          "type": "uint256"
        }
      ],
      "stateMutability": "view",
      "type": "function"
    },
    {
      "inputs": [
        {
          "internalType": "address",
          "name": "owner",
          "type": "address"
        },
        {
          "internalType": "address",
          "name": "spender",
          "type": "address"
        }
      ],
      "name": "allowance",
      "outputs": [
        {
          "internalType": "uint256",
          "name": "",
          "type": "uint256"
        }
      ],
      "stateMutability": "view",
      "type": "function"
    },
    {
      "inputs": [
        {
          "internalType": "address",
          "name": "spender",
          "type": "address"
        },
        {
          "internalType": "uint256",
          "name": "value",
          "type": "uint256"
        }
      ],
      "name": "approve",
      "outputs": [
        {
          "internalType": "bool",
          "name": "",
          "type": "bool"
        }
      ],
      "stateMutability": "nonpayable",
      "type": "function"
    },
    {
      "inputs": [
        {
          "internalType": "address",
          "name": "account",
          "type": "address"
        }
      ],
      "name": "balanceOf",
      "outputs": [
        {
          "internalType": "uint256",
          "name": "",
          "type": "uint256"
        }
      ],
      "stateMutability": "view",
      "type": "function"
    },
    {
      "inputs": [],
      "name": "decimals",
      "outputs": [
        {
          "internalType": "uint8",
          "name": "",
          "type": "uint8"
        }
      ],
      "stateMutability": "view",
      "type": "function"
    },
    {
      "inputs": [
        {
          "internalType": "uint256",
          "name": "_amount",
          "type": "uint256"
        }
      ],
      "name": "emergencyBurn",
      "outputs": [],
      "stateMutability": "nonpayable",
      "type": "function"
    },
    {
      "inputs": [
        {
          "internalType": "address",
          "name": "_token",
          "type": "address"
        },
        {
          "internalType": "uint256",
          "name": "_amount",
          "type": "uint256"
        }
      ],
      "name": "emergencyWithdraw",
      "outputs": [],
      "stateMutability": "nonpayable",
      "type": "function"
    },
    {
      "inputs": [],
      "name": "feeConfig",
      "outputs": [
        {
          "internalType": "uint256",
          "name": "mintFee",
          "type": "uint256"
        },
        {
          "internalType": "uint256",
          "name": "redeemFee",
          "type": "uint256"
        },
        {
          "internalType": "uint256",
          "name": "transferFee",
          "type": "uint256"
        },
        {
          "internalType": "address",
          "name": "feeCollector",
          "type": "address"
        }
      ],
      "stateMutability": "view",
      "type": "function"
    },
    {
      "inputs": [
        {
          "internalType": "address",
          "name": "_user",
          "type": "address"
        }
      ],
      "name": "getPrincipal",
      "outputs": [
        {
          "internalType": "uint256",
          "name": "",
          "type": "uint256"
        }
      ],
      "stateMutability": "view",
      "type": "function"
    },
    {
      "inputs": [
        {
          "internalType": "address",
          "name": "_user",
          "type": "address"
        }
      ],
      "name": "getPrincipalStats",
      "outputs": [
        {
          "internalType": "uint256",
          "name": "userPrincipalAmount",
          "type": "uint256"
        },
        {
          "internalType": "uint256",
          "name": "redeemed",
          "type": "uint256"
        },
        {
          "internalType": "uint256",
          "name": "remaining",
          "type": "uint256"
        },
        {
          "internalType": "bool",
          "name": "matured",
          "type": "bool"
        }
      ],
      "stateMutability": "view",
      "type": "function"
    },
    {
      "inputs": [
        {
          "internalType": "address",
          "name": "_user",
          "type": "address"
        }
      ],
      "name": "getRedeemed",
      "outputs": [
        {
          "internalType": "uint256",
          "name": "",
          "type": "uint256"
        }
      ],
      "stateMutability": "view",
      "type": "function"
    },
    {
      "inputs": [
        {
          "internalType": "address",
          "name": "_user",
          "type": "address"
        }
      ],
      "name": "getRemainingPrincipal",
      "outputs": [
        {
          "internalType": "uint256",
          "name": "",
          "type": "uint256"
        }
      ],
      "stateMutability": "view",
      "type": "function"
    },
    {
      "inputs": [],
      "name": "getTimeToMaturity",
      "outputs": [
        {
          "internalType": "uint256",
          "name": "",
          "type": "uint256"
        }
      ],
      "stateMutability": "view",
      "type": "function"
    },
    {
      "inputs": [],
      "name": "getTotalRemainingPrincipal",
      "outputs": [
        {
          "internalType": "uint256",
          "name": "",
          "type": "uint256"
        }
      ],
      "stateMutability": "view",
      "type": "function"
    },
    {
      "inputs": [],
      "name": "isMatured",
      "outputs": [
        {
          "internalType": "bool",
          "name": "",
          "type": "bool"
        }
      ],
      "stateMutability": "view",
      "type": "function"
    },
    {
      "inputs": [],
      "name": "maturity",
      "outputs": [
        {
          "internalType": "uint256",
          "name": "",
          "type": "uint256"
        }
      ],
      "stateMutability": "view",
      "type": "function"
    },
    {
      "inputs": [
        {
          "internalType": "address",
          "name": "_to",
          "type": "address"
        },
        {
          "internalType": "uint256",
          "name": "_amount",
          "type": "uint256"
        }
      ],
      "name": "mint",
      "outputs": [],
      "stateMutability": "nonpayable",
      "type": "function"
    },
    {
      "inputs": [],
      "name": "name",
      "outputs": [
        {
          "internalType": "string",
          "name": "",
          "type": "string"
        }
      ],
      "stateMutability": "view",
      "type": "function"
    },
    {
      "inputs": [],
      "name": "owner",
      "outputs": [
        {
          "internalType": "address",
          "name": "",
          "type": "address"
        }
      ],
      "stateMutability": "view",
      "type": "function"
    },
    {
      "inputs": [
        {
          "internalType": "uint256",
          "name": "_ptAmount",
          "type": "uint256"
        }
      ],
      "name": "redeem",
      "outputs": [
        {
          "internalType": "uint256",
          "name": "underlyingAmount",
          "type": "uint256"
        }
      ],
      "stateMutability": "nonpayable",
      "type": "function"
    },
    {
      "inputs": [],
      "name": "renounceOwnership",
      "outputs": [],
      "stateMutability": "nonpayable",
      "type": "function"
    },
    {
      "inputs": [],
      "name": "symbol",
      "outputs": [
        {
          "internalType": "string",
          "name": "",
          "type": "string"
        }
      ],
      "stateMutability": "view",
      "type": "function"
    },
    {
      "inputs": [],
      "name": "totalPrincipalAmount",
      "outputs": [
        {
          "internalType": "uint256",
          "name": "",
          "type": "uint256"
        }
      ],
      "stateMutability": "view",
      "type": "function"
    },
    {
      "inputs": [],
      "name": "totalRedeemed",
      "outputs": [
        {
          "internalType": "uint256",
          "name": "",
          "type": "uint256"
        }
      ],
      "stateMutability": "view",
      "type": "function"
    },
    {
      "inputs": [],
      "name": "totalSupply",
      "outputs": [
        {
          "internalType": "uint256",
          "name": "",
          "type": "uint256"
        }
      ],
      "stateMutability": "view",
      "type": "function"
    },
    {
      "inputs": [
        {
          "internalType": "address",
          "name": "to",
          "type": "address"
        },
        {
          "internalType": "uint256",
          "name": "value",
          "type": "uint256"
        }
      ],
      "name": "transfer",
      "outputs": [
        {
          "internalType": "bool",
          "name": "",
          "type": "bool"
        }
      ],
      "stateMutability": "nonpayable",
      "type": "function"
    },
    {
      "inputs": [
        {
          "internalType": "address",
          "name": "from",
          "type": "address"
        },
        {
          "internalType": "address",
          "name": "to",
          "type": "address"
        },
        {
          "internalType": "uint256",
          "name": "value",
          "type": "uint256"
        }
      ],
      "name": "transferFrom",
      "outputs": [
        {
          "internalType": "bool",
          "name": "",
          "type": "bool"
        }
      ],
      "stateMutability": "nonpayable",
      "type": "function"
    },
    {
      "inputs": [
        {
          "internalType": "address",
          "name": "newOwner",
          "type": "address"
        }
      ],
      "name": "transferOwnership",
      "outputs": [],
      "stateMutability": "nonpayable",
      "type": "function"
    },
    {
      "inputs": [
        {
          "internalType": "uint256",
          "name": "_mintFee",
          "type": "uint256"
        },
        {
          "internalType": "uint256",
          "name": "_redeemFee",
          "type": "uint256"
        },
        {
          "internalType": "uint256",
          "name": "_transferFee",
          "type": "uint256"
        },
        {
          "internalType": "address",
          "name": "_feeCollector",
          "type": "address"
        }
      ],
      "name": "updateFeeConfig",
      "outputs": [],
      "stateMutability": "nonpayable",
      "type": "function"
    },
    {
      "inputs": [
        {
          "internalType": "address",
          "name": "",
          "type": "address"
        }
      ],
      "name": "userPrincipal",
      "outputs": [
        {
          "internalType": "uint256",
          "name": "",
          "type": "uint256"
        }
      ],
      "stateMutability": "view",
      "type": "function"
    },
    {
      "inputs": [
        {
          "internalType": "address",
          "name": "",
          "type": "address"
        }
      ],
      "name": "userRedeemed",
      "outputs": [
        {
          "internalType": "uint256",
          "name": "",
          "type": "uint256"
        }
      ],
      "stateMutability": "view",
      "type": "function"
    }
  ],
  "bytecode": "0x604060a08152346200040a57620015ba803803806200001e816200040f565b9283398101906060818303126200040a5780516001600160401b0392908381116200040a57816200005191840162000435565b92602091828401518281116200040a5786916200007091860162000435565b9301519380518281116200030a5760038054916001938484811c94168015620003ff575b87851014620003e9578190601f9485811162000393575b5087908583116001146200032c5760009262000320575b505060001982841b1c191690841b1781555b8551918483116200030a5760049687548581811c91168015620002ff575b88821014620002ea578281116200029f575b5086918411600114620002345793839491849260009562000228575b50501b92600019911b1c19161783555b33156200021157600580546001600160a01b0319808216339081179093559591906001600160a01b03167f8be0079c531659141344cd1fd0a4f28419497f9722a3daafe3b4186f6b6457e0600080a3608052845192608084019184831090831117620001fc575090606491855260328352820152601e838201526060339101526032600a556064600b55601e600c553390600d541617600d55516111129081620004a88239608051818181610286015281816103590152818161084e01528181610bb601526110a10152f35b604190634e487b7160e01b6000525260246000fd5b8451631e4fbdf760e01b8152600081850152602490fd5b01519350388062000120565b9190601f198416928860005284886000209460005b8a898383106200028757505050106200026c575b50505050811b01835562000130565b01519060f884600019921b161c19169055388080806200025d565b86860151895590970196948501948893500162000249565b88600052876000208380870160051c8201928a8810620002e0575b0160051c019086905b828110620002d357505062000104565b60008155018690620002c3565b92508192620002ba565b602289634e487b7160e01b6000525260246000fd5b90607f1690620000f2565b634e487b7160e01b600052604160045260246000fd5b015190503880620000c2565b90869350601f1983169185600052896000209260005b8b8282106200037c575050841162000363575b505050811b018155620000d4565b015160001983861b60f8161c1916905538808062000355565b8385015186558a9790950194938401930162000342565b90915083600052876000208580850160051c8201928a8610620003df575b918891869594930160051c01915b828110620003cf575050620000ab565b60008155859450889101620003bf565b92508192620003b1565b634e487b7160e01b600052602260045260246000fd5b93607f169362000094565b600080fd5b6040519190601f01601f191682016001600160401b038111838210176200030a57604052565b919080601f840112156200040a5782516001600160401b0381116200030a576020906200046b601f8201601f191683016200040f565b928184528282870101116200040a5760005b8181106200049357508260009394955001015290565b85810183015184820184015282016200047d56fe608060408181526004918236101561001657600080fd5b600092833560e01c91826306fdde0314610d1f57508163095ea7b314610c755781630cc0143614610c5857816318160ddd14610c395781631b7466b414610c1a5781631e5eb1d014610bd9578163204f83f914610b9e57816323b872dd14610aaa578163277d6892146105e2578163313ce56714610a8e57816340c10f191461099c57816362dab6261461087457816370a0823114610965578163715018a61461090857816379f87e53146108ac5781637abdd2d1146108745781637f2b6a0d146108365781638da5cb5b1461080d57816395ccea671461074157816395d89b411461063e5781639a5826231461061a5781639f477d74146105e2578163a8ebe88714610598578163a9059cbb14610567578163db006a751461033e578163dd62ed3e146102f5578163dfff8568146102cc578163e1f1c4a7146102af578163ecb7e31a1461022f578163f2fde38b1461019b575063f35dad401461017a57600080fd5b346101975781600319360112610197576020906007549051908152f35b5080fd5b90503461022b57602036600319011261022b576101b6610e5d565b906101bf610e8e565b6001600160a01b03918216928315610215575050600554826bffffffffffffffffffffffff60a01b821617600555167f8be0079c531659141344cd1fd0a4f28419497f9722a3daafe3b4186f6b6457e08380a380f35b51631e4fbdf760e01b8152908101849052602490fd5b8280fd5b50503461019757602036600319011261019757608091906001600160a01b03610256610e5d565b168252600860205280808320549260096020522054906102768284611092565b91815193845260208401528201527f00000000000000000000000000000000000000000000000000000000000000004210156060820152f35b505034610197578160031936011261019757602090516127108152f35b839034610197576020366003190112610197576102f2906102eb610e8e565b3533610ff3565b80f35b50503461019757806003193601126101975780602092610313610e5d565b61031b610e78565b6001600160a01b0391821683526001865283832091168252845220549051908152f35b9190503461022b5760209283600319360112610564578235927f0000000000000000000000000000000000000000000000000000000000000000421061052c5783156104e9573382528185528383832054106104a6573382526008855283838320541061046a57600b549081850291858304036104575750612710839104916103c78386611092565b506103d28533610ff3565b338152600886528181206103e7868254611092565b90556103f585600654611092565b600655338152600986522061040b848254610fd0565b905561041983600754610fd0565b6007558151908382528385830152828201527f8a59113ea391ad0fe58cb2b72ed6066d73455e2254e0531b1a6cb25c8ff887a860603392a251908152f35b634e487b7160e01b835260119052602482fd5b825162461bcd60e51b81529081018590526016602482015275125b9cdd59999a58da595b9d081c1c9a5b98da5c185b60521b6044820152606490fd5b825162461bcd60e51b8152908101859052601760248201527f496e73756666696369656e742050542062616c616e63650000000000000000006044820152606490fd5b825162461bcd60e51b8152908101859052601760248201527f416d6f756e74206d75737420626520706f7369746976650000000000000000006044820152606490fd5b825162461bcd60e51b8152908101859052601260248201527113585c9ad95d081b9bdd081b585d1d5c995960721b6044820152606490fd5b80fd5b505034610197578060031936011261019757602090610591610587610e5d565b6024359033610ef2565b5160018152f35b505034610197576020366003190112610197576020916105db906001600160a01b036105c2610e5d565b1681526008845282808220549160098652205490611092565b9051908152f35b5050346101975760203660031901126101975760209181906001600160a01b0361060a610e5d565b1681526009845220549051908152f35b5050346101975781600319360112610197576020906105db60065460075490611092565b838334610197578160031936011261019757805191809380549160019083821c92828516948515610737575b60209586861081146107245785895290811561070057506001146106a8575b6106a4878761069a828c0383610eba565b5191829182610e14565b0390f35b81529295507f8a35acfbc15ff81a39ae7d344fd709f28e8600b4aa8c65c6b64bfe7fe36bd19b5b8284106106ed57505050826106a49461069a92820101948680610689565b80548685018801529286019281016106cf565b60ff19168887015250505050151560051b830101925061069a826106a48680610689565b634e487b7160e01b845260228352602484fd5b93607f169361066a565b9190503461022b578060031936011261022b5761075c610e5d565b90610765610e8e565b60018060a01b0380921691600554168151602081019163a9059cbb60e01b835260248201526024356044820152604481526080810181811067ffffffffffffffff8211176107fa5783525160209186919082865af1156107f15783513d6107e85750813b155b6107d3578380f35b51635274afe760e01b81529182015260249150fd5b600114156107cb565b513d84823e3d90fd5b634e487b7160e01b875260418652602487fd5b50503461019757816003193601126101975760055490516001600160a01b039091168152602090f35b505034610197578160031936011261019757602090517f00000000000000000000000000000000000000000000000000000000000000004210158152f35b5050346101975760203660031901126101975760209181906001600160a01b0361089c610e5d565b1681526008845220549051908152f35b839034610197576080366003190112610197576064356001600160a01b038116919082900361022b576108dd610e8e565b35600a55602435600b55604435600c556bffffffffffffffffffffffff60a01b600d541617600d5580f35b8334610564578060031936011261056457610921610e8e565b600580546001600160a01b0319811690915581906001600160a01b03167f8be0079c531659141344cd1fd0a4f28419497f9722a3daafe3b4186f6b6457e08280a380f35b5050346101975760203660031901126101975760209181906001600160a01b0361098d610e5d565b16815280845220549051908152f35b9190503461022b578060031936011261022b576109b7610e5d565b602435906109c3610e8e565b6001600160a01b0316928315610a7757509081610a037f0cac4523b4c70285817765f118645b9680e74fbb10de7d8ccdc34f757704160893600254610fd0565b6002558385528460205281852081815401905583857fddf252ad1be2c89b69c2b068fc378daa952ba7f163c4a11628f55a4df523b3ef60208551858152a38385526008602052818520610a57828254610fd0565b9055610a6581600654610fd0565b6006558151908152426020820152a280f35b825163ec442f0560e01b8152908101859052602490fd5b5050346101975781600319360112610197576020905160128152f35b9050823461056457606036600319011261056457610ac6610e5d565b610ace610e78565b916044359360018060a01b038316808352600160205286832033845260205286832054916000198310610b0a575b602088610591898989610ef2565b868310610b72578115610b5b573315610b445750825260016020908152868320338452815291869020908590039055829061059187610afc565b8751634a1406b160e11b8152908101849052602490fd5b875163e602df0560e01b8152908101849052602490fd5b8751637dc7a0d960e11b8152339181019182526020820193909352604081018790528291506060010390fd5b505034610197578160031936011261019757602090517f00000000000000000000000000000000000000000000000000000000000000008152f35b505034610197578160031936011261019757608090600a5490600b5490600c549060018060a01b03600d541692815194855260208501528301526060820152f35b5050346101975781600319360112610197576020906006549051908152f35b5050346101975781600319360112610197576020906002549051908152f35b5050346101975781600319360112610197576020906105db61109f565b90503461022b578160031936011261022b57610c8f610e5d565b602435903315610d08576001600160a01b0316918215610cf157508083602095338152600187528181208582528752205582519081527f8c5be1e5ebec7d5bd14f71427d1e84f3dd0314c0f7b2291e5b200ac8c7c3b925843392a35160018152f35b8351634a1406b160e11b8152908101859052602490fd5b835163e602df0560e01b8152808401869052602490fd5b92915034610e105783600319360112610e1057600354600181811c9186908281168015610e06575b6020958686108214610df35750848852908115610dd15750600114610d78575b6106a4868661069a828b0383610eba565b929550600383527fc2575a0e9e593c00f959f8c92f12db2869c3395a3b0502d05e2516446f71f85b5b828410610dbe57505050826106a49461069a928201019438610d67565b8054868501880152928601928101610da1565b60ff191687860152505050151560051b830101925061069a826106a438610d67565b634e487b7160e01b845260229052602483fd5b93607f1693610d47565b8380fd5b6020808252825181830181905290939260005b828110610e4957505060409293506000838284010152601f8019910116010190565b818101860151848201604001528501610e27565b600435906001600160a01b0382168203610e7357565b600080fd5b602435906001600160a01b0382168203610e7357565b6005546001600160a01b03163303610ea257565b60405163118cdaa760e01b8152336004820152602490fd5b90601f8019910116810190811067ffffffffffffffff821117610edc57604052565b634e487b7160e01b600052604160045260246000fd5b916001600160a01b03808416928315610fb75716928315610f9e5760009083825281602052604082205490838210610f6c575091604082827fddf252ad1be2c89b69c2b068fc378daa952ba7f163c4a11628f55a4df523b3ef958760209652828652038282205586815220818154019055604051908152a3565b60405163391434e360e21b81526001600160a01b03919091166004820152602481019190915260448101839052606490fd5b60405163ec442f0560e01b815260006004820152602490fd5b604051634b637e8f60e11b815260006004820152602490fd5b91908201809211610fdd57565b634e487b7160e01b600052601160045260246000fd5b906001600160a01b038216908115610fb757600092828452836020526040842054908282106110605750817fddf252ad1be2c89b69c2b068fc378daa952ba7f163c4a11628f55a4df523b3ef926020928587528684520360408620558060025403600255604051908152a3565b60405163391434e360e21b81526001600160a01b03919091166004820152602481019190915260448101829052606490fd5b91908203918211610fdd57565b7f0000000000000000000000000000000000000000000000000000000000000000804210156110d6576110d3904290611092565b90565b5060009056fea26469706673582212209d5f7226da9d361f3659f175a9e569dc44e87b19ca9880ada3e3ec7112eb218d64736f6c63430008140033",
  "linkReferences": {},
  "deployedLinkReferences": {}
}