{
  "_format": "hh-sol-artifact-1",
  "contractName": "StandardizedYieldToken",
  "sourceName": "contracts/core/StandardizedYieldToken.sol",
  "abi": [
    {
      "inputs": [
        {
          "internalType": "string",
          "name": "name",
          "type": "string"
        },
        {
          "internalType": "string",
          "name": "symbol",
          "type": "string"
        },
        {
          "internalType": "address",
          "name": "_underlyingAsset",
          "type": "address"
        },
        {
          "internalType": "uint256",
          "name": "_yieldRate",
          "type": "uint256"
        }
      ],
      "stateMutability": "nonpayable",
      "type": "constructor"
    },
    {
      "inputs": [
        {
          "internalType": "address",
          "name": "spender",
          "type": "address"
        },
        {
          "internalType": "uint256",
          "name": "allowance",
          "type": "uint256"
        },
        {
          "internalType": "uint256",
          "name": "needed",
          "type": "uint256"
        }
      ],
      "name": "ERC20InsufficientAllowance",
      "type": "error"
    },
    {
      "inputs": [
        {
          "internalType": "address",
          "name": "sender",
          "type": "address"
        },
        {
          "internalType": "uint256",
          "name": "balance",
          "type": "uint256"
        },
        {
          "internalType": "uint256",
          "name": "needed",
          "type": "uint256"
        }
      ],
      "name": "ERC20InsufficientBalance",
      "type": "error"
    },
    {
      "inputs": [
        {
          "internalType": "address",
          "name": "approver",
          "type": "address"
        }
      ],
      "name": "ERC20InvalidApprover",
      "type": "error"
    },
    {
      "inputs": [
        {
          "internalType": "address",
          "name": "receiver",
          "type": "address"
        }
      ],
      "name": "ERC20InvalidReceiver",
      "type": "error"
    },
    {
      "inputs": [
        {
          "internalType": "address",
          "name": "sender",
          "type": "address"
        }
      ],
      "name": "ERC20InvalidSender",
      "type": "error"
    },
    {
      "inputs": [
        {
          "internalType": "address",
          "name": "spender",
          "type": "address"
        }
      ],
      "name": "ERC20InvalidSpender",
      "type": "error"
    },
    {
      "inputs": [],
      "name": "EnforcedPause",
      "type": "error"
    },
    {
      "inputs": [],
      "name": "ExpectedPause",
      "type": "error"
    },
    {
      "inputs": [
        {
          "internalType": "address",
          "name": "user",
          "type": "address"
        }
      ],
      "name": "FlashMintNotApproved",
      "type": "error"
    },
    {
      "inputs": [
        {
          "internalType": "uint256",
          "name": "requested",
          "type": "uint256"
        },
        {
          "internalType": "uint256",
          "name": "available",
          "type": "uint256"
        }
      ],
      "name": "InsufficientBalance",
      "type": "error"
    },
    {
      "inputs": [
        {
          "internalType": "uint256",
          "name": "amount",
          "type": "uint256"
        }
      ],
      "name": "InvalidAmount",
      "type": "error"
    },
    {
      "inputs": [
        {
          "internalType": "uint256",
          "name": "requested",
          "type": "uint256"
        },
        {
          "internalType": "uint256",
          "name": "maxAllowed",
          "type": "uint256"
        }
      ],
      "name": "MaxSupplyExceeded",
      "type": "error"
    },
    {
      "inputs": [
        {
          "internalType": "address",
          "name": "owner",
          "type": "address"
        }
      ],
      "name": "OwnableInvalidOwner",
      "type": "error"
    },
    {
      "inputs": [
        {
          "internalType": "address",
          "name": "account",
          "type": "address"
        }
      ],
      "name": "OwnableUnauthorizedAccount",
      "type": "error"
    },
    {
      "inputs": [],
      "name": "ReentrancyGuardReentrantCall",
      "type": "error"
    },
    {
      "inputs": [
        {
          "internalType": "uint256",
          "name": "rate",
          "type": "uint256"
        }
      ],
      "name": "YieldRateTooHigh",
      "type": "error"
    },
    {
      "anonymous": false,
      "inputs": [
        {
          "indexed": true,
          "internalType": "address",
          "name": "owner",
          "type": "address"
        },
        {
          "indexed": true,
          "internalType": "address",
          "name": "spender",
          "type": "address"
        },
        {
          "indexed": false,
          "internalType": "uint256",
          "name": "value",
          "type": "uint256"
        }
      ],
      "name": "Approval",
      "type": "event"
    },
    {
      "anonymous": false,
      "inputs": [
        {
          "indexed": true,
          "internalType": "address",
          "name": "user",
          "type": "address"
        },
        {
          "indexed": false,
          "internalType": "uint256",
          "name": "amount",
          "type": "uint256"
        }
      ],
      "name": "AssetUnwrapped",
      "type": "event"
    },
    {
      "anonymous": false,
      "inputs": [
        {
          "indexed": true,
          "internalType": "address",
          "name": "user",
          "type": "address"
        },
        {
          "indexed": false,
          "internalType": "uint256",
          "name": "amount",
          "type": "uint256"
        }
      ],
      "name": "AssetWrapped",
      "type": "event"
    },
    {
      "anonymous": false,
      "inputs": [
        {
          "indexed": false,
          "internalType": "uint256",
          "name": "totalAmount",
          "type": "uint256"
        },
        {
          "indexed": false,
          "internalType": "uint256",
          "name": "userCount",
          "type": "uint256"
        }
      ],
      "name": "BatchWrapExecuted",
      "type": "event"
    },
    {
      "anonymous": false,
      "inputs": [
        {
          "indexed": true,
          "internalType": "address",
          "name": "user",
          "type": "address"
        },
        {
          "indexed": false,
          "internalType": "uint256",
          "name": "amount",
          "type": "uint256"
        },
        {
          "indexed": false,
          "internalType": "uint256",
          "name": "fee",
          "type": "uint256"
        }
      ],
      "name": "FlashMint",
      "type": "event"
    },
    {
      "anonymous": false,
      "inputs": [
        {
          "indexed": false,
          "internalType": "uint256",
          "name": "oldMax",
          "type": "uint256"
        },
        {
          "indexed": false,
          "internalType": "uint256",
          "name": "newMax",
          "type": "uint256"
        }
      ],
      "name": "MaxSupplyUpdated",
      "type": "event"
    },
    {
      "anonymous": false,
      "inputs": [
        {
          "indexed": false,
          "internalType": "uint256",
          "name": "oldMin",
          "type": "uint256"
        },
        {
          "indexed": false,
          "internalType": "uint256",
          "name": "newMin",
          "type": "uint256"
        }
      ],
      "name": "MinWrapAmountUpdated",
      "type": "event"
    },
    {
      "anonymous": false,
      "inputs": [
        {
          "indexed": true,
          "internalType": "address",
          "name": "previousOwner",
          "type": "address"
        },
        {
          "indexed": true,
          "internalType": "address",
          "name": "newOwner",
          "type": "address"
        }
      ],
      "name": "OwnershipTransferred",
      "type": "event"
    },
    {
      "anonymous": false,
      "inputs": [
        {
          "indexed": false,
          "internalType": "address",
          "name": "account",
          "type": "address"
        }
      ],
      "name": "Paused",
      "type": "event"
    },
    {
      "anonymous": false,
      "inputs": [
        {
          "indexed": true,
          "internalType": "address",
          "name": "from",
          "type": "address"
        },
        {
          "indexed": true,
          "internalType": "address",
          "name": "to",
          "type": "address"
        },
        {
          "indexed": false,
          "internalType": "uint256",
          "name": "value",
          "type": "uint256"
        }
      ],
      "name": "Transfer",
      "type": "event"
    },
    {
      "anonymous": false,
      "inputs": [
        {
          "indexed": false,
          "internalType": "address",
          "name": "account",
          "type": "address"
        }
      ],
      "name": "Unpaused",
      "type": "event"
    },
    {
      "anonymous": false,
      "inputs": [
        {
          "indexed": true,
          "internalType": "address",
          "name": "user",
          "type": "address"
        },
        {
          "indexed": false,
          "internalType": "uint256",
          "name": "amount",
          "type": "uint256"
        }
      ],
      "name": "YieldAccumulated",
      "type": "event"
    },
    {
      "anonymous": false,
      "inputs": [
        {
          "indexed": false,
          "internalType": "uint256",
          "name": "oldRate",
          "type": "uint256"
        },
        {
          "indexed": false,
          "internalType": "uint256",
          "name": "newRate",
          "type": "uint256"
        }
      ],
      "name": "YieldRateUpdated",
      "type": "event"
    },
    {
      "inputs": [
        {
          "internalType": "address",
          "name": "owner",
          "type": "address"
        },
        {
          "internalType": "address",
          "name": "spender",
          "type": "address"
        }
      ],
      "name": "allowance",
      "outputs": [
        {
          "internalType": "uint256",
          "name": "",
          "type": "uint256"
        }
      ],
      "stateMutability": "view",
      "type": "function"
    },
    {
      "inputs": [
        {
          "internalType": "address",
          "name": "spender",
          "type": "address"
        },
        {
          "internalType": "uint256",
          "name": "value",
          "type": "uint256"
        }
      ],
      "name": "approve",
      "outputs": [
        {
          "internalType": "bool",
          "name": "",
          "type": "bool"
        }
      ],
      "stateMutability": "nonpayable",
      "type": "function"
    },
    {
      "inputs": [
        {
          "internalType": "address",
          "name": "account",
          "type": "address"
        }
      ],
      "name": "balanceOf",
      "outputs": [
        {
          "internalType": "uint256",
          "name": "",
          "type": "uint256"
        }
      ],
      "stateMutability": "view",
      "type": "function"
    },
    {
      "inputs": [
        {
          "internalType": "uint256[]",
          "name": "amounts",
          "type": "uint256[]"
        },
        {
          "internalType": "address[]",
          "name": "recipients",
          "type": "address[]"
        }
      ],
      "name": "batchWrap",
      "outputs": [],
      "stateMutability": "nonpayable",
      "type": "function"
    },
    {
      "inputs": [],
      "name": "claimYield",
      "outputs": [
        {
          "internalType": "uint256",
          "name": "",
          "type": "uint256"
        }
      ],
      "stateMutability": "nonpayable",
      "type": "function"
    },
    {
      "inputs": [],
      "name": "decimals",
      "outputs": [
        {
          "internalType": "uint8",
          "name": "",
          "type": "uint8"
        }
      ],
      "stateMutability": "view",
      "type": "function"
    },
    {
      "inputs": [
        {
          "internalType": "address",
          "name": "token",
          "type": "address"
        },
        {
          "internalType": "uint256",
          "name": "amount",
          "type": "uint256"
        }
      ],
      "name": "emergencyWithdraw",
      "outputs": [],
      "stateMutability": "nonpayable",
      "type": "function"
    },
    {
      "inputs": [
        {
          "internalType": "uint256",
          "name": "amount",
          "type": "uint256"
        },
        {
          "internalType": "bytes",
          "name": "data",
          "type": "bytes"
        }
      ],
      "name": "flashMint",
      "outputs": [],
      "stateMutability": "nonpayable",
      "type": "function"
    },
    {
      "inputs": [
        {
          "internalType": "address",
          "name": "",
          "type": "address"
        }
      ],
      "name": "flashMintApproved",
      "outputs": [
        {
          "internalType": "bool",
          "name": "",
          "type": "bool"
        }
      ],
      "stateMutability": "view",
      "type": "function"
    },
    {
      "inputs": [],
      "name": "flashMintFee",
      "outputs": [
        {
          "internalType": "uint256",
          "name": "",
          "type": "uint256"
        }
      ],
      "stateMutability": "view",
      "type": "function"
    },
    {
      "inputs": [
        {
          "internalType": "address",
          "name": "user",
          "type": "address"
        }
      ],
      "name": "forceYieldUpdate",
      "outputs": [],
      "stateMutability": "nonpayable",
      "type": "function"
    },
    {
      "inputs": [
        {
          "internalType": "address",
          "name": "user",
          "type": "address"
        }
      ],
      "name": "getAccumulatedYield",
      "outputs": [
        {
          "internalType": "uint256",
          "name": "",
          "type": "uint256"
        }
      ],
      "stateMutability": "view",
      "type": "function"
    },
    {
      "inputs": [],
      "name": "getCurrentAPY",
      "outputs": [
        {
          "internalType": "uint256",
          "name": "",
          "type": "uint256"
        }
      ],
      "stateMutability": "view",
      "type": "function"
    },
    {
      "inputs": [
        {
          "internalType": "address",
          "name": "user",
          "type": "address"
        }
      ],
      "name": "getDetailedYieldInfo",
      "outputs": [
        {
          "internalType": "uint256",
          "name": "balance",
          "type": "uint256"
        },
        {
          "internalType": "uint256",
          "name": "yieldDebt",
          "type": "uint256"
        },
        {
          "internalType": "uint256",
          "name": "lastUpdate",
          "type": "uint256"
        },
        {
          "internalType": "uint256",
          "name": "timeElapsed",
          "type": "uint256"
        },
        {
          "internalType": "uint256",
          "name": "pendingYield",
          "type": "uint256"
        },
        {
          "internalType": "uint256",
          "name": "totalYield",
          "type": "uint256"
        },
        {
          "internalType": "uint256",
          "name": "yieldRate_",
          "type": "uint256"
        },
        {
          "internalType": "uint256",
          "name": "annualProjection",
          "type": "uint256"
        }
      ],
      "stateMutability": "view",
      "type": "function"
    },
    {
      "inputs": [],
      "name": "getProtocolStats",
      "outputs": [
        {
          "internalType": "uint256",
          "name": "totalSupply_",
          "type": "uint256"
        },
        {
          "internalType": "uint256",
          "name": "totalYieldAccumulated_",
          "type": "uint256"
        },
        {
          "internalType": "uint256",
          "name": "currentYieldRate",
          "type": "uint256"
        },
        {
          "internalType": "uint256",
          "name": "maxSupply_",
          "type": "uint256"
        },
        {
          "internalType": "uint256",
          "name": "utilizationRate",
          "type": "uint256"
        },
        {
          "internalType": "uint256",
          "name": "averageYieldPerToken",
          "type": "uint256"
        }
      ],
      "stateMutability": "view",
      "type": "function"
    },
    {
      "inputs": [
        {
          "internalType": "address",
          "name": "user",
          "type": "address"
        }
      ],
      "name": "getUserStats",
      "outputs": [
        {
          "internalType": "uint256",
          "name": "balance",
          "type": "uint256"
        },
        {
          "internalType": "uint256",
          "name": "yieldDebt",
          "type": "uint256"
        },
        {
          "internalType": "uint256",
          "name": "totalYieldClaimed",
          "type": "uint256"
        },
        {
          "internalType": "uint256",
          "name": "lastUpdate",
          "type": "uint256"
        },
        {
          "internalType": "uint256",
          "name": "pendingYield",
          "type": "uint256"
        },
        {
          "internalType": "uint256",
          "name": "projectedAnnualYield",
          "type": "uint256"
        }
      ],
      "stateMutability": "view",
      "type": "function"
    },
    {
      "inputs": [
        {
          "internalType": "address",
          "name": "user",
          "type": "address"
        },
        {
          "internalType": "uint256",
          "name": "timeHorizon",
          "type": "uint256"
        }
      ],
      "name": "getYieldProjection",
      "outputs": [
        {
          "internalType": "uint256",
          "name": "",
          "type": "uint256"
        }
      ],
      "stateMutability": "view",
      "type": "function"
    },
    {
      "inputs": [],
      "name": "lastGlobalUpdate",
      "outputs": [
        {
          "internalType": "uint256",
          "name": "",
          "type": "uint256"
        }
      ],
      "stateMutability": "view",
      "type": "function"
    },
    {
      "inputs": [],
      "name": "maxSupply",
      "outputs": [
        {
          "internalType": "uint256",
          "name": "",
          "type": "uint256"
        }
      ],
      "stateMutability": "view",
      "type": "function"
    },
    {
      "inputs": [],
      "name": "minWrapAmount",
      "outputs": [
        {
          "internalType": "uint256",
          "name": "",
          "type": "uint256"
        }
      ],
      "stateMutability": "view",
      "type": "function"
    },
    {
      "inputs": [],
      "name": "name",
      "outputs": [
        {
          "internalType": "string",
          "name": "",
          "type": "string"
        }
      ],
      "stateMutability": "view",
      "type": "function"
    },
    {
      "inputs": [],
      "name": "owner",
      "outputs": [
        {
          "internalType": "address",
          "name": "",
          "type": "address"
        }
      ],
      "stateMutability": "view",
      "type": "function"
    },
    {
      "inputs": [],
      "name": "pause",
      "outputs": [],
      "stateMutability": "nonpayable",
      "type": "function"
    },
    {
      "inputs": [],
      "name": "paused",
      "outputs": [
        {
          "internalType": "bool",
          "name": "",
          "type": "bool"
        }
      ],
      "stateMutability": "view",
      "type": "function"
    },
    {
      "inputs": [],
      "name": "renounceOwnership",
      "outputs": [],
      "stateMutability": "nonpayable",
      "type": "function"
    },
    {
      "inputs": [
        {
          "internalType": "address",
          "name": "user",
          "type": "address"
        },
        {
          "internalType": "bool",
          "name": "approved",
          "type": "bool"
        }
      ],
      "name": "setFlashMintApproval",
      "outputs": [],
      "stateMutability": "nonpayable",
      "type": "function"
    },
    {
      "inputs": [
        {
          "internalType": "uint256",
          "name": "newFee",
          "type": "uint256"
        }
      ],
      "name": "setFlashMintFee",
      "outputs": [],
      "stateMutability": "nonpayable",
      "type": "function"
    },
    {
      "inputs": [
        {
          "internalType": "uint256",
          "name": "newMaxSupply",
          "type": "uint256"
        }
      ],
      "name": "setMaxSupply",
      "outputs": [],
      "stateMutability": "nonpayable",
      "type": "function"
    },
    {
      "inputs": [
        {
          "internalType": "uint256",
          "name": "newMinAmount",
          "type": "uint256"
        }
      ],
      "name": "setMinWrapAmount",
      "outputs": [],
      "stateMutability": "nonpayable",
      "type": "function"
    },
    {
      "inputs": [
        {
          "internalType": "uint256",
          "name": "newRate",
          "type": "uint256"
        }
      ],
      "name": "setYieldRate",
      "outputs": [],
      "stateMutability": "nonpayable",
      "type": "function"
    },
    {
      "inputs": [
        {
          "internalType": "uint256",
          "name": "timeInSeconds",
          "type": "uint256"
        }
      ],
      "name": "simulateTimePass",
      "outputs": [],
      "stateMutability": "nonpayable",
      "type": "function"
    },
    {
      "inputs": [],
      "name": "symbol",
      "outputs": [
        {
          "internalType": "string",
          "name": "",
          "type": "string"
        }
      ],
      "stateMutability": "view",
      "type": "function"
    },
    {
      "inputs": [],
      "name": "totalSupply",
      "outputs": [
        {
          "internalType": "uint256",
          "name": "",
          "type": "uint256"
        }
      ],
      "stateMutability": "view",
      "type": "function"
    },
    {
      "inputs": [],
      "name": "totalYieldAccumulated",
      "outputs": [
        {
          "internalType": "uint256",
          "name": "",
          "type": "uint256"
        }
      ],
      "stateMutability": "view",
      "type": "function"
    },
    {
      "inputs": [
        {
          "internalType": "address",
          "name": "to",
          "type": "address"
        },
        {
          "internalType": "uint256",
          "name": "value",
          "type": "uint256"
        }
      ],
      "name": "transfer",
      "outputs": [
        {
          "internalType": "bool",
          "name": "",
          "type": "bool"
        }
      ],
      "stateMutability": "nonpayable",
      "type": "function"
    },
    {
      "inputs": [
        {
          "internalType": "address",
          "name": "from",
          "type": "address"
        },
        {
          "internalType": "address",
          "name": "to",
          "type": "address"
        },
        {
          "internalType": "uint256",
          "name": "value",
          "type": "uint256"
        }
      ],
      "name": "transferFrom",
      "outputs": [
        {
          "internalType": "bool",
          "name": "",
          "type": "bool"
        }
      ],
      "stateMutability": "nonpayable",
      "type": "function"
    },
    {
      "inputs": [
        {
          "internalType": "address",
          "name": "newOwner",
          "type": "address"
        }
      ],
      "name": "transferOwnership",
      "outputs": [],
      "stateMutability": "nonpayable",
      "type": "function"
    },
    {
      "inputs": [],
      "name": "underlyingAsset",
      "outputs": [
        {
          "internalType": "contract IERC20",
          "name": "",
          "type": "address"
        }
      ],
      "stateMutability": "view",
      "type": "function"
    },
    {
      "inputs": [],
      "name": "unpause",
      "outputs": [],
      "stateMutability": "nonpayable",
      "type": "function"
    },
    {
      "inputs": [
        {
          "internalType": "uint256",
          "name": "amount",
          "type": "uint256"
        }
      ],
      "name": "unwrap",
      "outputs": [
        {
          "internalType": "uint256",
          "name": "",
          "type": "uint256"
        }
      ],
      "stateMutability": "nonpayable",
      "type": "function"
    },
    {
      "inputs": [
        {
          "internalType": "address",
          "name": "",
          "type": "address"
        }
      ],
      "name": "userLastUpdate",
      "outputs": [
        {
          "internalType": "uint256",
          "name": "",
          "type": "uint256"
        }
      ],
      "stateMutability": "view",
      "type": "function"
    },
    {
      "inputs": [
        {
          "internalType": "address",
          "name": "",
          "type": "address"
        }
      ],
      "name": "userTotalYieldClaimed",
      "outputs": [
        {
          "internalType": "uint256",
          "name": "",
          "type": "uint256"
        }
      ],
      "stateMutability": "view",
      "type": "function"
    },
    {
      "inputs": [
        {
          "internalType": "address",
          "name": "",
          "type": "address"
        }
      ],
      "name": "userYieldDebt",
      "outputs": [
        {
          "internalType": "uint256",
          "name": "",
          "type": "uint256"
        }
      ],
      "stateMutability": "view",
      "type": "function"
    },
    {
      "inputs": [
        {
          "internalType": "uint256",
          "name": "amount",
          "type": "uint256"
        }
      ],
      "name": "wrap",
      "outputs": [
        {
          "internalType": "uint256",
          "name": "",
          "type": "uint256"
        }
      ],
      "stateMutability": "nonpayable",
      "type": "function"
    },
    {
      "inputs": [],
      "name": "yieldRate",
      "outputs": [
        {
          "internalType": "uint256",
          "name": "",
          "type": "uint256"
        }
      ],
      "stateMutability": "view",
      "type": "function"
    }
  ],
  "bytecode": "0x60a060405260056010553480156200001657600080fd5b50604051620026a5380380620026a5833981016040819052620000399162000298565b33848460036200004a8382620003ba565b506004620000598282620003ba565b50506001600555506001600160a01b0381166200009157604051631e4fbdf760e01b8152600060048201526024015b60405180910390fd5b6200009c8162000179565b506001600160a01b038216620000f55760405162461bcd60e51b815260206004820152601860248201527f496e76616c696420756e6465726c79696e672061737365740000000000000000604482015260640162000088565b6000811180156200010857506127108111155b6200014b5760405162461bcd60e51b8152602060048201526012602482015271496e76616c6964207969656c64207261746560701b604482015260640162000088565b6001600160a01b03909116608052600755505042600955600019600a5566038d7ea4c68000600b5562000486565b600680546001600160a01b03838116610100818102610100600160a81b031985161790945560405193909204169182907f8be0079c531659141344cd1fd0a4f28419497f9722a3daafe3b4186f6b6457e090600090a35050565b634e487b7160e01b600052604160045260246000fd5b600082601f830112620001fb57600080fd5b81516001600160401b0380821115620002185762000218620001d3565b604051601f8301601f19908116603f01168101908282118183101715620002435762000243620001d3565b816040528381526020925086838588010111156200026057600080fd5b600091505b8382101562000284578582018301518183018401529082019062000265565b600093810190920192909252949350505050565b60008060008060808587031215620002af57600080fd5b84516001600160401b0380821115620002c757600080fd5b620002d588838901620001e9565b95506020870151915080821115620002ec57600080fd5b50620002fb87828801620001e9565b604087015190945090506001600160a01b03811681146200031b57600080fd5b6060959095015193969295505050565b600181811c908216806200034057607f821691505b6020821081036200036157634e487b7160e01b600052602260045260246000fd5b50919050565b601f821115620003b557600081815260208120601f850160051c81016020861015620003905750805b601f850160051c820191505b81811015620003b1578281556001016200039c565b5050505b505050565b81516001600160401b03811115620003d657620003d6620001d3565b620003ee81620003e784546200032b565b8462000367565b602080601f8311600181146200042657600084156200040d5750858301515b600019600386901b1c1916600185901b178555620003b1565b600085815260208120601f198616915b82811015620004575788860151825594840194600190910190840162000436565b5085821015620004765787850151600019600388901b60f8161c191681555b5050505050600190811b01905550565b6080516121e7620004be600039600081816104a501528181610db60152818161100c015281816111be01526114c101526121e76000f3fe608060405234801561001057600080fd5b506004361061027f5760003560e01c8063715018a61161015c578063a9059cbb116100ce578063e991fb2711610087578063e991fb27146105f2578063ea598cb0146105fb578063ee3e762a1461060e578063f132a11e14610621578063f2fde38b14610634578063f8a91dcf1461064757600080fd5b8063a9059cbb14610557578063afc4c1781461056a578063bfcd78d81461057d578063d5abeb011461059d578063dd62ed3e146105a6578063de0e9a3e146105df57600080fd5b8063940a1dc011610120578063940a1dc01461050557806395ccea671461050e57806395d89b4114610521578063962ca496146105295780639cc65a55146105315780639f7c81f01461054457600080fd5b8063715018a6146104985780637158da7c146104a0578063771aceef146104df5780638456cb59146104e75780638da5cb5b146104ef57600080fd5b806348a9de8e116101f55780635c975abb116101b95780635c975abb1461043257806363531b651461043d5780636999ac93146104605780636ef41c90146104695780636f8b44b01461047257806370a082311461048557600080fd5b806348a9de8e146103755780634e43603a146103c357806351b1850d14610403578063522c8067146104165780635a6fcd401461042957600080fd5b80631d2a0e3d116102475780631d2a0e3d1461031057806323b872dd14610323578063313ce567146103365780633cfb3f73146103455780633f4ba83a14610365578063406cf2291461036d57600080fd5b806306fdde0314610284578063095ea7b3146102a25780631411dab0146102c5578063173be41b146102da57806318160ddd14610308575b600080fd5b61028c61065a565b6040516102999190611ced565b60405180910390f35b6102b56102b0366004611d52565b6106ec565b6040519015158152602001610299565b6102d86102d3366004611d7c565b610706565b005b6102fa6102e8366004611d95565b600c6020526000908152604090205481565b604051908152602001610299565b6002546102fa565b6102d861031e366004611d7c565b61077f565b6102b5610331366004611db7565b6107cc565b60405160128152602001610299565b6102fa610353366004611d95565b600d6020526000908152604090205481565b6102d86107f0565b6102fa610802565b610388610383366004611d95565b6108ee565b604080519889526020890197909752958701949094526060860192909252608085015260a084015260c083015260e082015261010001610299565b6103d66103d1366004611d95565b6109ab565b604080519687526020870195909552938501929092526060840152608083015260a082015260c001610299565b6102fa610411366004611d52565b610a61565b6102d8610424366004611df3565b610ab2565b6102fa60095481565b60065460ff166102b5565b6102b561044b366004611d95565b600f6020526000908152604090205460ff1681565b6102fa60075481565b6102fa60085481565b6102d8610480366004611d7c565b610cb7565b6102fa610493366004611d95565b610cfd565b6102d8610d18565b6104c77f000000000000000000000000000000000000000000000000000000000000000081565b6040516001600160a01b039091168152602001610299565b6103d6610d2a565b6102d8610d9c565b60065461010090046001600160a01b03166104c7565b6102fa60105481565b6102d861051c366004611d52565b610dac565b61028c610ecd565b6007546102fa565b6102d861053f366004611d7c565b610edc565b6102d8610552366004611e7d565b610f22565b6102b5610565366004611d52565b610f55565b6102d8610578366004611d95565b610f63565b6102fa61058b366004611d95565b600e6020526000908152604090205481565b6102fa600a5481565b6102fa6105b4366004611eb4565b6001600160a01b03918216600090815260016020908152604080832093909416825291909152205490565b6102fa6105ed366004611d7c565b610f6f565b6102fa600b5481565b6102fa610609366004611d7c565b6110e1565b6102d861061c366004611d7c565b6112b1565b6102fa61062f366004611d95565b6112ce565b6102d8610642366004611d95565b61137b565b6102d8610655366004611fc4565b6113b6565b6060600380546106699061207d565b80601f01602080910402602001604051908101604052809291908181526020018280546106959061207d565b80156106e25780601f106106b7576101008083540402835291602001916106e2565b820191906000526020600020905b8154815290600101906020018083116106c557829003601f168201915b5050505050905090565b6000336106fa8185856116f5565b60019150505b92915050565b61070e611702565b612710811115610739576040516338912b2960e01b8152600481018290526024015b60405180910390fd5b600780549082905560408051828152602081018490527f4959ad9023bf5b492922b51fbc7c0b5e5ec66aa39700e0da6d8af9b2d430898e91015b60405180910390a15050565b610787611702565b60648111156107c75760405162461bcd60e51b815260206004820152600c60248201526b08ccaca40e8dede40d0d2ced60a31b6044820152606401610730565b601055565b6000336107da858285611735565b6107e58585856117b4565b506001949350505050565b6107f8611702565b610800611813565b565b600061080c611865565b61081461188f565b61081d336118b3565b336000908152600c60205260409020548061086e5760405162461bcd60e51b81526020600482015260116024820152704e6f207969656c6420746f20636c61696d60781b6044820152606401610730565b336000908152600c60209081526040808320839055600e9091528120805483929061089a9084906120cd565b909155506108aa9050338261198d565b60405181815233907f23e1d823874ceb27840409b5cce587a305ffb2d4bcbf64e03a0b7d243d24ecd89060200160405180910390a290506108eb6001600555565b90565b60008060008060008060008061090389610cfd565b6001600160a01b038a166000908152600c6020908152604080832054600d909252909120549199509750955061093986426120e0565b94506000881161094a576000610973565b64496cebb800856007548a61095f91906120f3565b61096991906120f3565b610973919061210a565b935061097f84886120cd565b6007549093509150612710610994838a6120f3565b61099e919061210a565b9050919395975091939597565b6000806000806000806109bd87610cfd565b6001600160a01b0388166000908152600c6020908152604080832054600e835281842054600d90935290832054939950975095509093506109fe84426120e0565b905060008711610a0f576000610a38565b64496cebb8008160075489610a2491906120f3565b610a2e91906120f3565b610a38919061210a565b925061271060075488610a4b91906120f3565b610a55919061210a565b91505091939550919395565b600080610a6d84610cfd565b905080600003610a81576000915050610700565b64496cebb8008360075483610a9691906120f3565b610aa091906120f3565b610aaa919061210a565b949350505050565b610aba611865565b610ac261188f565b336000908152600f602052604090205460ff16610af457604051632a0a6b2d60e01b8152336004820152602401610730565b600061271060105485610b0791906120f3565b610b11919061210a565b90506000610b1e33610cfd565b9050610b2a338661198d565b6000336001600160a01b03168585604051610b4692919061212c565b6000604051808303816000865af19150503d8060008114610b83576040519150601f19603f3d011682016040523d82523d6000602084013e610b88565b606091505b5050905080610bd95760405162461bcd60e51b815260206004820152601a60248201527f466c617368206d696e742063616c6c6261636b206661696c65640000000000006044820152606401610730565b6000610be433610cfd565b9050610bf084846120cd565b811015610c375760405162461bcd60e51b8152602060048201526015602482015274119b185cda081b5a5b9d081b9bdd081c995c185a59605a1b6044820152606401610730565b610c4133886119c3565b8315610c6957610c6933610c636006546001600160a01b036101009091041690565b866117b4565b604080518881526020810186905233917fc1d5a9a0a7cdddbc3db5b9aeffbc9fa1ba5f7275fbd46d9de20ec463f8b8cfbd910160405180910390a250505050610cb26001600555565b505050565b610cbf611702565b600a80549082905560408051828152602081018490527f44ecfc706d63e347851cfd40acfa6cf2e3a41faa3e8b460210c03938e84a91ad9101610773565b6001600160a01b031660009081526020819052604090205490565b610d20611702565b61080060006119f9565b600080600080600080610d3c60025490565b955060085494506007549350600a5492506000600a5411610d5e576000610d77565b600a54610d6d876127106120f3565b610d77919061210a565b915060008611610d88576000610d92565b610d92868661210a565b9050909192939495565b610da4611702565b610800611a53565b610db4611702565b7f00000000000000000000000000000000000000000000000000000000000000006001600160a01b0316826001600160a01b031603610e355760405162461bcd60e51b815260206004820152601a60248201527f43616e6e6f7420776974686472617720756e6465726c79696e670000000000006044820152606401610730565b816001600160a01b031663a9059cbb610e5c6006546001600160a01b036101009091041690565b6040516001600160e01b031960e084901b1681526001600160a01b039091166004820152602481018490526044016020604051808303816000875af1158015610ea9573d6000803e3d6000fd5b505050506040513d601f19601f82011682018060405250810190610cb2919061213c565b6060600480546106699061207d565b610ee4611702565b600b80549082905560408051828152602081018490527f8396c839d750a14b99a7374b202729061509a16ae8ae7a5f4aee2042d00391f69101610773565b610f2a611702565b6001600160a01b03919091166000908152600f60205260409020805460ff1916911515919091179055565b6000336106fa8185856117b4565b610f6c816118b3565b50565b6000610f79611865565b610f8161188f565b81600003610fa557604051633728b83d60e01b815260048101839052602401610730565b6000610fb033610cfd565b905082811015610fdd5760405163cf47918160e01b81526004810184905260248101829052604401610730565b610fe6336118b3565b610ff033846119c3565b60405163a9059cbb60e01b8152336004820152602481018490527f00000000000000000000000000000000000000000000000000000000000000006001600160a01b03169063a9059cbb906044016020604051808303816000875af115801561105d573d6000803e3d6000fd5b505050506040513d601f19601f82011682018060405250810190611081919061213c565b61109d5760405162461bcd60e51b815260040161073090612159565b60405183815233907f8c3d78186e41faf477867d73d8ba013808c5af863faaf9b370834c5f3c4e08ca9060200160405180910390a25050600160055590565b919050565b60006110eb611865565b6110f361188f565b8160000361111757604051633728b83d60e01b815260048101839052602401610730565b600b5482101561113d57604051633728b83d60e01b815260048101839052602401610730565b600a548261114a60025490565b61115491906120cd565b1115611193578161116460025490565b61116e91906120cd565b600a54604051637502c12360e11b815260048101929092526024820152604401610730565b61119c336118b3565b6040516323b872dd60e01b8152336004820152306024820152604481018390527f00000000000000000000000000000000000000000000000000000000000000006001600160a01b0316906323b872dd906064016020604051808303816000875af115801561120f573d6000803e3d6000fd5b505050506040513d601f19601f82011682018060405250810190611233919061213c565b61124f5760405162461bcd60e51b815260040161073090612159565b611259338361198d565b336000818152600d602052604090819020429055517f4c5191cdf7731c3760c9a4b2db67caaf75a3d780cf7c2c5ee61e1404ff6886b59061129d9085815260200190565b60405180910390a250806110dc6001600555565b6112bb81426120e0565b336000908152600d602052604090205550565b60006112d982610cfd565b6000036112fc57506001600160a01b03166000908152600c602052604090205490565b6001600160a01b0382166000908152600d602052604081205461131f90426120e0565b9050600064496cebb8008260075461133687610cfd565b61134091906120f3565b61134a91906120f3565b611354919061210a565b6001600160a01b0385166000908152600c6020526040902054909150610aaa9082906120cd565b611383611702565b6001600160a01b0381166113ad57604051631e4fbdf760e01b815260006004820152602401610730565b610f6c816119f9565b6113be611865565b6113c661188f565b80518251146114105760405162461bcd60e51b8152602060048201526016602482015275082e4e4c2f2e640d8cadccee8d040dad2e6dac2e8c6d60531b6044820152606401610730565b6032825111156114585760405162461bcd60e51b8152602060048201526013602482015272546f6f206d616e79206f7065726174696f6e7360681b6044820152606401610730565b6000805b835181101561149e5783818151811061147757611477612182565b60200260200101518261148a91906120cd565b91508061149681612198565b91505061145c565b506040516323b872dd60e01b8152336004820152306024820152604481018290527f00000000000000000000000000000000000000000000000000000000000000006001600160a01b0316906323b872dd906064016020604051808303816000875af1158015611512573d6000803e3d6000fd5b505050506040513d601f19601f82011682018060405250810190611536919061213c565b6115525760405162461bcd60e51b815260040161073090612159565b60005b83518110156116a957600084828151811061157257611572612182565b60200260200101511115611697576115a283828151811061159557611595612182565b60200260200101516118b3565b6115de8382815181106115b7576115b7612182565b60200260200101518583815181106115d1576115d1612182565b602002602001015161198d565b42600d60008584815181106115f5576115f5612182565b60200260200101516001600160a01b03166001600160a01b031681526020019081526020016000208190555082818151811061163357611633612182565b60200260200101516001600160a01b03167f4c5191cdf7731c3760c9a4b2db67caaf75a3d780cf7c2c5ee61e1404ff6886b585838151811061167757611677612182565b602002602001015160405161168e91815260200190565b60405180910390a25b806116a181612198565b915050611555565b5082516040805183815260208101929092527f75e13a536c3c8b23154538bdf06683f97193e81e116f6072519fc2414bd510e0910160405180910390a1506116f16001600555565b5050565b610cb28383836001611a90565b6006546001600160a01b036101009091041633146108005760405163118cdaa760e01b8152336004820152602401610730565b6001600160a01b038381166000908152600160209081526040808320938616835292905220546000198110156117ae578181101561179f57604051637dc7a0d960e11b81526001600160a01b03841660048201526024810182905260448101839052606401610730565b6117ae84848484036000611a90565b50505050565b6001600160a01b0383166117de57604051634b637e8f60e11b815260006004820152602401610730565b6001600160a01b0382166118085760405163ec442f0560e01b815260006004820152602401610730565b610cb2838383611b65565b61181b611ba0565b6006805460ff191690557f5db9ee0a495bf2e6ff9c91a7834c1ba4fdd244a5e8aa4e537bd38aeae4b073aa335b6040516001600160a01b03909116815260200160405180910390a1565b60026005540361188857604051633ee5aeb560e01b815260040160405180910390fd5b6002600555565b60065460ff16156108005760405163d93c066560e01b815260040160405180910390fd5b60006118be82610cfd565b1115611971576001600160a01b0381166000908152600d60205260408120546118e790426120e0565b9050801561196f57600064496cebb8008260075461190486610cfd565b61190e91906120f3565b61191891906120f3565b611922919061210a565b6001600160a01b0384166000908152600c602052604081208054929350839290919061194f9084906120cd565b92505081905550806008600082825461196891906120cd565b9091555050505b505b6001600160a01b03166000908152600d60205260409020429055565b6001600160a01b0382166119b75760405163ec442f0560e01b815260006004820152602401610730565b6116f160008383611b65565b6001600160a01b0382166119ed57604051634b637e8f60e11b815260006004820152602401610730565b6116f182600083611b65565b600680546001600160a01b03838116610100818102610100600160a81b031985161790945560405193909204169182907f8be0079c531659141344cd1fd0a4f28419497f9722a3daafe3b4186f6b6457e090600090a35050565b611a5b61188f565b6006805460ff191660011790557f62e78cea01bee320cd4e420270b5ea74000d11b0c9f74754ebdbfc544b05a2586118483390565b6001600160a01b038416611aba5760405163e602df0560e01b815260006004820152602401610730565b6001600160a01b038316611ae457604051634a1406b160e11b815260006004820152602401610730565b6001600160a01b03808516600090815260016020908152604080832093871683529290522082905580156117ae57826001600160a01b0316846001600160a01b03167f8c5be1e5ebec7d5bd14f71427d1e84f3dd0314c0f7b2291e5b200ac8c7c3b92584604051611b5791815260200190565b60405180910390a350505050565b6001600160a01b03831615611b7d57611b7d836118b3565b6001600160a01b03821615611b9557611b95826118b3565b610cb2838383611bc3565b60065460ff1661080057604051638dfc202b60e01b815260040160405180910390fd5b6001600160a01b038316611bee578060026000828254611be391906120cd565b90915550611c609050565b6001600160a01b03831660009081526020819052604090205481811015611c415760405163391434e360e21b81526001600160a01b03851660048201526024810182905260448101839052606401610730565b6001600160a01b03841660009081526020819052604090209082900390555b6001600160a01b038216611c7c57600280548290039055611c9b565b6001600160a01b03821660009081526020819052604090208054820190555b816001600160a01b0316836001600160a01b03167fddf252ad1be2c89b69c2b068fc378daa952ba7f163c4a11628f55a4df523b3ef83604051611ce091815260200190565b60405180910390a3505050565b600060208083528351808285015260005b81811015611d1a57858101830151858201604001528201611cfe565b506000604082860101526040601f19601f8301168501019250505092915050565b80356001600160a01b03811681146110dc57600080fd5b60008060408385031215611d6557600080fd5b611d6e83611d3b565b946020939093013593505050565b600060208284031215611d8e57600080fd5b5035919050565b600060208284031215611da757600080fd5b611db082611d3b565b9392505050565b600080600060608486031215611dcc57600080fd5b611dd584611d3b565b9250611de360208501611d3b565b9150604084013590509250925092565b600080600060408486031215611e0857600080fd5b83359250602084013567ffffffffffffffff80821115611e2757600080fd5b818601915086601f830112611e3b57600080fd5b813581811115611e4a57600080fd5b876020828501011115611e5c57600080fd5b6020830194508093505050509250925092565b8015158114610f6c57600080fd5b60008060408385031215611e9057600080fd5b611e9983611d3b565b91506020830135611ea981611e6f565b809150509250929050565b60008060408385031215611ec757600080fd5b611ed083611d3b565b9150611ede60208401611d3b565b90509250929050565b634e487b7160e01b600052604160045260246000fd5b604051601f8201601f1916810167ffffffffffffffff81118282101715611f2657611f26611ee7565b604052919050565b600067ffffffffffffffff821115611f4857611f48611ee7565b5060051b60200190565b600082601f830112611f6357600080fd5b81356020611f78611f7383611f2e565b611efd565b82815260059290921b84018101918181019086841115611f9757600080fd5b8286015b84811015611fb957611fac81611d3b565b8352918301918301611f9b565b509695505050505050565b60008060408385031215611fd757600080fd5b823567ffffffffffffffff80821115611fef57600080fd5b818501915085601f83011261200357600080fd5b81356020612013611f7383611f2e565b82815260059290921b8401810191818101908984111561203257600080fd5b948201945b8386101561205057853582529482019490820190612037565b9650508601359250508082111561206657600080fd5b5061207385828601611f52565b9150509250929050565b600181811c9082168061209157607f821691505b6020821081036120b157634e487b7160e01b600052602260045260246000fd5b50919050565b634e487b7160e01b600052601160045260246000fd5b80820180821115610700576107006120b7565b81810381811115610700576107006120b7565b8082028115828204841417610700576107006120b7565b60008261212757634e487b7160e01b600052601260045260246000fd5b500490565b8183823760009101908152919050565b60006020828403121561214e57600080fd5b8151611db081611e6f565b6020808252600f908201526e151c985b9cd9995c8819985a5b1959608a1b604082015260600190565b634e487b7160e01b600052603260045260246000fd5b6000600182016121aa576121aa6120b7565b506001019056fea264697066735822122093759e65a20f1e34a96a225a5686d074075d3955a56b6ac174d0f7ce150fd25e64736f6c63430008140033",
  "linkReferences": {},
  "deployedLinkReferences": {}
}