{
  "_format": "hh-sol-artifact-1",
  "contractName": "StandardizedYieldToken",
  "sourceName": "contracts/core/StandardizedYieldToken.sol",
  "abi": [
    {
      "inputs": [
        {
          "internalType": "address",
          "name": "_underlying",
          "type": "address"
        },
        {
          "internalType": "string",
          "name": "_name",
          "type": "string"
        },
        {
          "internalType": "string",
          "name": "_symbol",
          "type": "string"
        },
        {
          "internalType": "uint256",
          "name": "_maturity",
          "type": "uint256"
        },
        {
          "internalType": "uint256",
          "name": "_initialExchangeRate",
          "type": "uint256"
        }
      ],
      "stateMutability": "nonpayable",
      "type": "constructor"
    },
    {
      "inputs": [
        {
          "internalType": "address",
          "name": "spender",
          "type": "address"
        },
        {
          "internalType": "uint256",
          "name": "allowance",
          "type": "uint256"
        },
        {
          "internalType": "uint256",
          "name": "needed",
          "type": "uint256"
        }
      ],
      "name": "ERC20InsufficientAllowance",
      "type": "error"
    },
    {
      "inputs": [
        {
          "internalType": "address",
          "name": "sender",
          "type": "address"
        },
        {
          "internalType": "uint256",
          "name": "balance",
          "type": "uint256"
        },
        {
          "internalType": "uint256",
          "name": "needed",
          "type": "uint256"
        }
      ],
      "name": "ERC20InsufficientBalance",
      "type": "error"
    },
    {
      "inputs": [
        {
          "internalType": "address",
          "name": "approver",
          "type": "address"
        }
      ],
      "name": "ERC20InvalidApprover",
      "type": "error"
    },
    {
      "inputs": [
        {
          "internalType": "address",
          "name": "receiver",
          "type": "address"
        }
      ],
      "name": "ERC20InvalidReceiver",
      "type": "error"
    },
    {
      "inputs": [
        {
          "internalType": "address",
          "name": "sender",
          "type": "address"
        }
      ],
      "name": "ERC20InvalidSender",
      "type": "error"
    },
    {
      "inputs": [
        {
          "internalType": "address",
          "name": "spender",
          "type": "address"
        }
      ],
      "name": "ERC20InvalidSpender",
      "type": "error"
    },
    {
      "inputs": [
        {
          "internalType": "address",
          "name": "owner",
          "type": "address"
        }
      ],
      "name": "OwnableInvalidOwner",
      "type": "error"
    },
    {
      "inputs": [
        {
          "internalType": "address",
          "name": "account",
          "type": "address"
        }
      ],
      "name": "OwnableUnauthorizedAccount",
      "type": "error"
    },
    {
      "inputs": [
        {
          "internalType": "address",
          "name": "token",
          "type": "address"
        }
      ],
      "name": "SafeERC20FailedOperation",
      "type": "error"
    },
    {
      "anonymous": false,
      "inputs": [
        {
          "indexed": true,
          "internalType": "address",
          "name": "owner",
          "type": "address"
        },
        {
          "indexed": true,
          "internalType": "address",
          "name": "spender",
          "type": "address"
        },
        {
          "indexed": false,
          "internalType": "uint256",
          "name": "value",
          "type": "uint256"
        }
      ],
      "name": "Approval",
      "type": "event"
    },
    {
      "anonymous": false,
      "inputs": [
        {
          "indexed": true,
          "internalType": "address",
          "name": "user",
          "type": "address"
        },
        {
          "indexed": false,
          "internalType": "uint256",
          "name": "amount",
          "type": "uint256"
        },
        {
          "indexed": false,
          "internalType": "string",
          "name": "operation",
          "type": "string"
        }
      ],
      "name": "FeesCollected",
      "type": "event"
    },
    {
      "anonymous": false,
      "inputs": [
        {
          "indexed": true,
          "internalType": "address",
          "name": "previousOwner",
          "type": "address"
        },
        {
          "indexed": true,
          "internalType": "address",
          "name": "newOwner",
          "type": "address"
        }
      ],
      "name": "OwnershipTransferred",
      "type": "event"
    },
    {
      "anonymous": false,
      "inputs": [
        {
          "indexed": true,
          "internalType": "address",
          "name": "user",
          "type": "address"
        },
        {
          "indexed": false,
          "internalType": "uint256",
          "name": "syAmount",
          "type": "uint256"
        },
        {
          "indexed": false,
          "internalType": "uint256",
          "name": "ptAmount",
          "type": "uint256"
        },
        {
          "indexed": false,
          "internalType": "uint256",
          "name": "ytAmount",
          "type": "uint256"
        }
      ],
      "name": "TokensSplit",
      "type": "event"
    },
    {
      "anonymous": false,
      "inputs": [
        {
          "indexed": true,
          "internalType": "address",
          "name": "from",
          "type": "address"
        },
        {
          "indexed": true,
          "internalType": "address",
          "name": "to",
          "type": "address"
        },
        {
          "indexed": false,
          "internalType": "uint256",
          "name": "value",
          "type": "uint256"
        }
      ],
      "name": "Transfer",
      "type": "event"
    },
    {
      "anonymous": false,
      "inputs": [
        {
          "indexed": false,
          "internalType": "uint256",
          "name": "amount",
          "type": "uint256"
        },
        {
          "indexed": false,
          "internalType": "uint256",
          "name": "newExchangeRate",
          "type": "uint256"
        },
        {
          "indexed": false,
          "internalType": "uint256",
          "name": "timestamp",
          "type": "uint256"
        }
      ],
      "name": "YieldAccrued",
      "type": "event"
    },
    {
      "inputs": [],
      "name": "BASIS_POINTS",
      "outputs": [
        {
          "internalType": "uint256",
          "name": "",
          "type": "uint256"
        }
      ],
      "stateMutability": "view",
      "type": "function"
    },
    {
      "inputs": [],
      "name": "accrueYield",
      "outputs": [],
      "stateMutability": "nonpayable",
      "type": "function"
    },
    {
      "inputs": [
        {
          "internalType": "address",
          "name": "owner",
          "type": "address"
        },
        {
          "internalType": "address",
          "name": "spender",
          "type": "address"
        }
      ],
      "name": "allowance",
      "outputs": [
        {
          "internalType": "uint256",
          "name": "",
          "type": "uint256"
        }
      ],
      "stateMutability": "view",
      "type": "function"
    },
    {
      "inputs": [
        {
          "internalType": "address",
          "name": "spender",
          "type": "address"
        },
        {
          "internalType": "uint256",
          "name": "value",
          "type": "uint256"
        }
      ],
      "name": "approve",
      "outputs": [
        {
          "internalType": "bool",
          "name": "",
          "type": "bool"
        }
      ],
      "stateMutability": "nonpayable",
      "type": "function"
    },
    {
      "inputs": [
        {
          "internalType": "address",
          "name": "account",
          "type": "address"
        }
      ],
      "name": "balanceOf",
      "outputs": [
        {
          "internalType": "uint256",
          "name": "",
          "type": "uint256"
        }
      ],
      "stateMutability": "view",
      "type": "function"
    },
    {
      "inputs": [],
      "name": "decimals",
      "outputs": [
        {
          "internalType": "uint8",
          "name": "",
          "type": "uint8"
        }
      ],
      "stateMutability": "view",
      "type": "function"
    },
    {
      "inputs": [
        {
          "internalType": "uint256",
          "name": "_amount",
          "type": "uint256"
        }
      ],
      "name": "emergencyBurn",
      "outputs": [],
      "stateMutability": "nonpayable",
      "type": "function"
    },
    {
      "inputs": [
        {
          "internalType": "address",
          "name": "_to",
          "type": "address"
        },
        {
          "internalType": "uint256",
          "name": "_amount",
          "type": "uint256"
        }
      ],
      "name": "emergencyMint",
      "outputs": [],
      "stateMutability": "nonpayable",
      "type": "function"
    },
    {
      "inputs": [
        {
          "internalType": "address",
          "name": "_token",
          "type": "address"
        },
        {
          "internalType": "uint256",
          "name": "_amount",
          "type": "uint256"
        }
      ],
      "name": "emergencyWithdraw",
      "outputs": [],
      "stateMutability": "nonpayable",
      "type": "function"
    },
    {
      "inputs": [],
      "name": "exchangeRate",
      "outputs": [
        {
          "internalType": "uint256",
          "name": "",
          "type": "uint256"
        }
      ],
      "stateMutability": "view",
      "type": "function"
    },
    {
      "inputs": [],
      "name": "factory",
      "outputs": [
        {
          "internalType": "address",
          "name": "",
          "type": "address"
        }
      ],
      "stateMutability": "view",
      "type": "function"
    },
    {
      "inputs": [],
      "name": "feeConfig",
      "outputs": [
        {
          "internalType": "uint256",
          "name": "wrapFee",
          "type": "uint256"
        },
        {
          "internalType": "uint256",
          "name": "unwrapFee",
          "type": "uint256"
        },
        {
          "internalType": "uint256",
          "name": "yieldFee",
          "type": "uint256"
        },
        {
          "internalType": "address",
          "name": "feeCollector",
          "type": "address"
        }
      ],
      "stateMutability": "view",
      "type": "function"
    },
    {
      "inputs": [],
      "name": "getCurrentAPY",
      "outputs": [
        {
          "internalType": "uint256",
          "name": "",
          "type": "uint256"
        }
      ],
      "stateMutability": "view",
      "type": "function"
    },
    {
      "inputs": [],
      "name": "getExchangeRate",
      "outputs": [
        {
          "internalType": "uint256",
          "name": "",
          "type": "uint256"
        }
      ],
      "stateMutability": "view",
      "type": "function"
    },
    {
      "inputs": [],
      "name": "getTimeToMaturity",
      "outputs": [
        {
          "internalType": "uint256",
          "name": "",
          "type": "uint256"
        }
      ],
      "stateMutability": "view",
      "type": "function"
    },
    {
      "inputs": [],
      "name": "getUnderlyingBalance",
      "outputs": [
        {
          "internalType": "uint256",
          "name": "",
          "type": "uint256"
        }
      ],
      "stateMutability": "view",
      "type": "function"
    },
    {
      "inputs": [],
      "name": "getYieldAccrued",
      "outputs": [
        {
          "internalType": "uint256",
          "name": "",
          "type": "uint256"
        }
      ],
      "stateMutability": "view",
      "type": "function"
    },
    {
      "inputs": [],
      "name": "lastUpdateTime",
      "outputs": [
        {
          "internalType": "uint256",
          "name": "",
          "type": "uint256"
        }
      ],
      "stateMutability": "view",
      "type": "function"
    },
    {
      "inputs": [],
      "name": "maturity",
      "outputs": [
        {
          "internalType": "uint256",
          "name": "",
          "type": "uint256"
        }
      ],
      "stateMutability": "view",
      "type": "function"
    },
    {
      "inputs": [
        {
          "internalType": "address",
          "name": "_to",
          "type": "address"
        },
        {
          "internalType": "uint256",
          "name": "_amount",
          "type": "uint256"
        }
      ],
      "name": "mint",
      "outputs": [],
      "stateMutability": "nonpayable",
      "type": "function"
    },
    {
      "inputs": [],
      "name": "name",
      "outputs": [
        {
          "internalType": "string",
          "name": "",
          "type": "string"
        }
      ],
      "stateMutability": "view",
      "type": "function"
    },
    {
      "inputs": [],
      "name": "owner",
      "outputs": [
        {
          "internalType": "address",
          "name": "",
          "type": "address"
        }
      ],
      "stateMutability": "view",
      "type": "function"
    },
    {
      "inputs": [],
      "name": "ptToken",
      "outputs": [
        {
          "internalType": "address",
          "name": "",
          "type": "address"
        }
      ],
      "stateMutability": "view",
      "type": "function"
    },
    {
      "inputs": [],
      "name": "renounceOwnership",
      "outputs": [],
      "stateMutability": "nonpayable",
      "type": "function"
    },
    {
      "inputs": [
        {
          "internalType": "address",
          "name": "_factory",
          "type": "address"
        },
        {
          "internalType": "address",
          "name": "_ptToken",
          "type": "address"
        },
        {
          "internalType": "address",
          "name": "_ytToken",
          "type": "address"
        }
      ],
      "name": "setFactoryAndTokens",
      "outputs": [],
      "stateMutability": "nonpayable",
      "type": "function"
    },
    {
      "inputs": [
        {
          "internalType": "uint256",
          "name": "_newRate",
          "type": "uint256"
        }
      ],
      "name": "setYieldRate",
      "outputs": [],
      "stateMutability": "nonpayable",
      "type": "function"
    },
    {
      "inputs": [
        {
          "internalType": "address",
          "name": "_user",
          "type": "address"
        },
        {
          "internalType": "uint256",
          "name": "_ptAmount",
          "type": "uint256"
        },
        {
          "internalType": "uint256",
          "name": "_ytAmount",
          "type": "uint256"
        }
      ],
      "name": "split",
      "outputs": [],
      "stateMutability": "nonpayable",
      "type": "function"
    },
    {
      "inputs": [],
      "name": "symbol",
      "outputs": [
        {
          "internalType": "string",
          "name": "",
          "type": "string"
        }
      ],
      "stateMutability": "view",
      "type": "function"
    },
    {
      "inputs": [],
      "name": "totalSupply",
      "outputs": [
        {
          "internalType": "uint256",
          "name": "",
          "type": "uint256"
        }
      ],
      "stateMutability": "view",
      "type": "function"
    },
    {
      "inputs": [],
      "name": "totalYieldAccrued",
      "outputs": [
        {
          "internalType": "uint256",
          "name": "",
          "type": "uint256"
        }
      ],
      "stateMutability": "view",
      "type": "function"
    },
    {
      "inputs": [
        {
          "internalType": "address",
          "name": "to",
          "type": "address"
        },
        {
          "internalType": "uint256",
          "name": "value",
          "type": "uint256"
        }
      ],
      "name": "transfer",
      "outputs": [
        {
          "internalType": "bool",
          "name": "",
          "type": "bool"
        }
      ],
      "stateMutability": "nonpayable",
      "type": "function"
    },
    {
      "inputs": [
        {
          "internalType": "address",
          "name": "from",
          "type": "address"
        },
        {
          "internalType": "address",
          "name": "to",
          "type": "address"
        },
        {
          "internalType": "uint256",
          "name": "value",
          "type": "uint256"
        }
      ],
      "name": "transferFrom",
      "outputs": [
        {
          "internalType": "bool",
          "name": "",
          "type": "bool"
        }
      ],
      "stateMutability": "nonpayable",
      "type": "function"
    },
    {
      "inputs": [
        {
          "internalType": "address",
          "name": "newOwner",
          "type": "address"
        }
      ],
      "name": "transferOwnership",
      "outputs": [],
      "stateMutability": "nonpayable",
      "type": "function"
    },
    {
      "inputs": [],
      "name": "underlying",
      "outputs": [
        {
          "internalType": "address",
          "name": "",
          "type": "address"
        }
      ],
      "stateMutability": "view",
      "type": "function"
    },
    {
      "inputs": [
        {
          "internalType": "uint256",
          "name": "_syAmount",
          "type": "uint256"
        }
      ],
      "name": "unwrap",
      "outputs": [
        {
          "internalType": "uint256",
          "name": "underlyingAmount",
          "type": "uint256"
        }
      ],
      "stateMutability": "nonpayable",
      "type": "function"
    },
    {
      "inputs": [
        {
          "internalType": "uint256",
          "name": "_wrapFee",
          "type": "uint256"
        },
        {
          "internalType": "uint256",
          "name": "_unwrapFee",
          "type": "uint256"
        },
        {
          "internalType": "uint256",
          "name": "_yieldFee",
          "type": "uint256"
        },
        {
          "internalType": "address",
          "name": "_feeCollector",
          "type": "address"
        }
      ],
      "name": "updateFeeConfig",
      "outputs": [],
      "stateMutability": "nonpayable",
      "type": "function"
    },
    {
      "inputs": [
        {
          "internalType": "uint256",
          "name": "_amount",
          "type": "uint256"
        }
      ],
      "name": "wrap",
      "outputs": [
        {
          "internalType": "uint256",
          "name": "syAmount",
          "type": "uint256"
        }
      ],
      "stateMutability": "nonpayable",
      "type": "function"
    },
    {
      "inputs": [],
      "name": "yieldRate",
      "outputs": [
        {
          "internalType": "uint256",
          "name": "",
          "type": "uint256"
        }
      ],
      "stateMutability": "view",
      "type": "function"
    },
    {
      "inputs": [],
      "name": "ytToken",
      "outputs": [
        {
          "internalType": "address",
          "name": "",
          "type": "address"
        }
      ],
      "stateMutability": "view",
      "type": "function"
    }
  ],
  "bytecode": "0x604060c0815234620004565762001bf2803803806200001e816200045b565b928339810160a082820312620004565781516001600160a01b03929091908383168303620004565760208181015190926001600160401b039290918381116200045657826200006f91830162000481565b91878201519084821162000456576200008a91830162000481565b9460806060830151920151928051858111620003565760038054916001938484811c941680156200044b575b8a85101462000435578190601f94858111620003df575b508a9085831160011462000378576000926200036c575b505060001982841b1c191690841b1781555b88519187831162000356576004998a548581811c911680156200034b575b8b8210146200033657828111620002eb575b5089918411600114620002805793839491849260009562000274575b50501b92600019911b1c19161786555b33156200025d57600580546001600160a01b03198082163390811790935598167f8be0079c531659141344cd1fd0a4f28419497f9722a3daafe3b4186f6b6457e0600080a360805260a05260065542600b556101f4600c558451926080840191848310908311176200024857509060329185528183528201526064838201526060339101526032600d556032600e556064600f5533906010541617601055516116fe9081620004f4823960805181818161031801528181610446015281816105c101528181610c980152611599015260a05181818161029b0152818161055001528181610e4401528181611546015261168d0152f35b604190634e487b7160e01b6000525260246000fd5b8751631e4fbdf760e01b8152600081880152602490fd5b01519350388062000142565b9190601f198416928b600052848b6000209460005b8d89838310620002d35750505010620002b8575b50505050811b01865562000152565b01519060f884600019921b161c1916905538808080620002a9565b86860151895590970196948501948893500162000295565b8b6000528a6000208380870160051c8201928d88106200032c575b0160051c019086905b8281106200031f57505062000126565b600081550186906200030f565b9250819262000306565b60228c634e487b7160e01b6000525260246000fd5b90607f169062000114565b634e487b7160e01b600052604160045260246000fd5b015190503880620000e4565b60008581528c8120889550929190601f198516908e5b828210620003c75750508411620003ae575b505050811b018155620000f6565b015160001983861b60f8161c19169055388080620003a0565b8385015186558a979095019493840193018e6200038e565b909150836000528a6000208580850160051c8201928d86106200042b575b918891869594930160051c01915b8281106200041b575050620000cd565b600081558594508891016200040b565b92508192620003fd565b634e487b7160e01b600052602260045260246000fd5b93607f1693620000b6565b600080fd5b6040519190601f01601f191682016001600160401b038111838210176200035657604052565b919080601f84011215620004565782516001600160401b0381116200035657602090620004b7601f8201601f191683016200045b565b92818452828287010111620004565760005b818110620004df57508260009394955001015290565b8581018301518482018401528201620004c956fe6040608081526004908136101561001557600080fd5b600091823560e01c8063059d9c75146110e957806306fdde0314610ff5578063095ea7b314610f4c5780630cc0143614610f285780631411dab014610ec757806318160ddd14610ea85780631e5eb1d014610e67578063204f83f914610e2c57806323b872dd14610d39578063313ce56714610d1d5780633ba0b9a9146103f857806340c10f1914610cc75780634220301514610cf457806343785dc914610cc75780636999ac93146108205780636f307dc314610c8357806370a0823114610c4c578063715018a614610bef57806379f87e5314610b985780638afbc1ed146109a95780638da5cb5b1461098057806395ccea671461094357806395d89b411461083f578063962ca49614610820578063a9059cbb146107ef578063c45a0155146107c6578063c4663add1461025c578063c8f33c91146107a7578063c92251c9146106f7578063dd62ed3e146106a9578063de0e9a3e14610532578063dfff856814610511578063e018b0ef146104e8578063e1f1c4a7146104cb578063e2c6743914610417578063e6aa216c146103f8578063ea598cb01461027f578063ee6c3bf21461025c5763f2fde38b146101ce57600080fd5b34610258576020366003190112610258576101e761114b565b906101f0611177565b6001600160a01b03918216928315610242575050600554826001600160601b0360a01b821617600555167f8be0079c531659141344cd1fd0a4f28419497f9722a3daafe3b4186f6b6457e0600080a380f35b51631e4fbdf760e01b8152908101849052602490fd5b8280fd5b50503461027b578160031936011261027b57602090600a549051908152f35b5080fd5b5082346103f55760203660031901126103f557508035916102c17f000000000000000000000000000000000000000000000000000000000000000042106112f0565b6102cc83151561132d565b6127106102db600d5485611379565b046102e6818561138c565b82516323b872dd60e01b6020820152336024820152306044820152606480820196909652948552926001600160a01b037f000000000000000000000000000000000000000000000000000000000000000081169060a0870187811067ffffffffffffffff8211176103e0576020976103609187528361143a565b61036a8633611399565b83610386575b50505050670de0b6b3a764000060065551908152f35b61039691849160105416906113f7565b8251918252828583015282820152630777261760e41b60608201527fdb23cba216bfaed89070d2734596f2ee2a163099cfc4f5ef32036debc979222660803392a283808080610370565b604184634e487b7160e01b6000525260246000fd5b80fd5b50503461027b578160031936011261027b576020906006549051908152f35b5091903461027b578160031936011261027b5780516370a0823160e01b815230938101939093526020836024817f00000000000000000000000000000000000000000000000000000000000000006001600160a01b03165afa9182156104c05791610487575b6020925051908152f35b90506020823d82116104b8575b816104a1602093836111cd565b810103126104b357602091519061047d565b600080fd5b3d9150610494565b9051903d90823e3d90fd5b50503461027b578160031936011261027b57602090516127108152f35b50503461027b578160031936011261027b5760085490516001600160a01b039091168152602090f35b83823461027b57602036600319011261027b5761052f9035336114a2565b80f35b503461025857602036600319011261025857819281359283916105767f000000000000000000000000000000000000000000000000000000000000000042106112f0565b61058183151561132d565b3381528060205220541061066657506020916127106105a2600e5484611379565b046105ad818461138c565b6105b784336114a2565b6001600160a01b037f00000000000000000000000000000000000000000000000000000000000000008116916105ee9033846113f7565b82610609575b505050670de0b6b3a764000060065551908152f35b61061991839160105416906113f7565b81519081528184820152600682820152650756e777261760d41b60608201527fdb23cba216bfaed89070d2734596f2ee2a163099cfc4f5ef32036debc979222660803392a23880806105f4565b606490602084519162461bcd60e51b8352820152601760248201527f496e73756666696369656e742053592062616c616e63650000000000000000006044820152fd5b50503461027b578060031936011261027b576020916106c661114b565b826106cf611161565b6001600160a01b03928316845260018652922091166000908152908352819020549051908152f35b5082903461027b57606036600319011261027b5761071361114b565b61071b611161565b6001600160a01b03604435818116949193908590036104b35761073c611177565b600754918483166107765750908392916001600160601b0360a01b9485911691161760075516816008541617600855600954161760095580f35b606490602089519162461bcd60e51b8352820152600b60248201526a105b1c9958591e481cd95d60aa1b6044820152fd5b50503461027b578160031936011261027b57602090600b549051908152f35b50503461027b578160031936011261027b5760075490516001600160a01b039091168152602090f35b50503461027b578060031936011261027b5760209061081961080f61114b565b60243590336111ef565b5160018152f35b50503461027b578160031936011261027b57602090600c549051908152f35b5091903461027b578160031936011261027b57805191809380549160019083821c92828516948515610939575b60209586861081146109265785895290811561090257506001146108aa575b6108a6878761089c828c03836111cd565b5191829182611102565b0390f35b81529295507f8a35acfbc15ff81a39ae7d344fd709f28e8600b4aa8c65c6b64bfe7fe36bd19b5b8284106108ef57505050826108a69461089c9282010194388061088b565b80548685018801529286019281016108d1565b60ff19168887015250505050151560051b830101925061089c826108a6388061088b565b634e487b7160e01b845260228352602484fd5b93607f169361086c565b50503461027b573660031901126103f55761052f61095f61114b565b610967611177565b600554602435916001600160a01b0391821691166113f7565b50503461027b578160031936011261027b5760055490516001600160a01b039091168152602090f35b509034610258576060366003190112610258576109c461114b565b60075460243593604435936001600160a01b03939290919084163303610b5e57848603610b1c576109f586846114a2565b836008541690813b15610b185782516340c10f1960e01b8082526001600160a01b038616838301908152602081018a905290938a9183919082908490829060400103925af18015610b0e57610af9575b50908791856009541691823b15610af55784519081526001600160a01b0386169181019182526020820188905291839183919082908490829060400103925af18015610aeb57610acd575b5050907f7c9b5aa7156a03ebc0670cad3026b75463ae54aa1bb1817b0bb803b093e0a30a938260609493519680885260208801528601521692a280f35b610ada90949392946111a3565b610ae75790918538610a90565b8580fd5b83513d84823e3d90fd5b8380fd5b610b0690989192986111a3565b969038610a45565b84513d8b823e3d90fd5b8780fd5b6020606492519162461bcd60e51b8352820152601f60248201527f505420616e6420595420616d6f756e7473206d75737420626520657175616c006044820152fd5b6020606492519162461bcd60e51b8352820152601560248201527413db9b1e48199858dd1bdc9e4818d85b8818d85b1b605a1b6044820152fd5b83823461027b57608036600319011261027b576064356001600160a01b038116919082900361025857610bc9611177565b35600d55602435600e55604435600f556001600160601b0360a01b601054161760105580f35b83346103f557806003193601126103f557610c08611177565b600580546001600160a01b0319811690915581906001600160a01b03167f8be0079c531659141344cd1fd0a4f28419497f9722a3daafe3b4186f6b6457e08280a380f35b50503461027b57602036600319011261027b5760209181906001600160a01b03610c7461114b565b16815280845220549051908152f35b50503461027b578160031936011261027b57517f00000000000000000000000000000000000000000000000000000000000000006001600160a01b03168152602090f35b50503461027b573660031901126103f55761052f610ce361114b565b610ceb611177565b60243590611399565b50503461027b578160031936011261027b5760095490516001600160a01b039091168152602090f35b50503461027b578160031936011261027b576020905160128152f35b5082346103f55760603660031901126103f557610d5461114b565b610d5c611161565b916044359360018060a01b038316808352600160205286832033845260205286832054916000198310610d98575b6020886108198989896111ef565b868310610e00578115610de9573315610dd25750825260016020908152868320338452815291869020908590039055829061081987610d8a565b8751634a1406b160e11b8152908101849052602490fd5b875163e602df0560e01b8152908101849052602490fd5b8751637dc7a0d960e11b8152339181019182526020820193909352604081018790528291506060010390fd5b50503461027b578160031936011261027b57602090517f00000000000000000000000000000000000000000000000000000000000000008152f35b50503461027b578160031936011261027b57608090600d5490600e5490600f549060018060a01b036010541692815194855260208501528301526060820152f35b50503461027b578160031936011261027b576020906002549051908152f35b503461025857602036600319011261025857803591610ee4611177565b6107d08311610ef5575050600c5580f35b906020606492519162461bcd60e51b8352820152600d60248201526c0a4c2e8ca40e8dede40d0d2ced609b1b6044820152fd5b50503461027b578160031936011261027b57602090610f4561168b565b9051908152f35b5034610258578160031936011261025857610f6561114b565b602435903315610fde576001600160a01b0316918215610fc757508083602095338152600187528181208582528752205582519081527f8c5be1e5ebec7d5bd14f71427d1e84f3dd0314c0f7b2291e5b200ac8c7c3b925843392a35160018152f35b8351634a1406b160e11b8152908101859052602490fd5b835163e602df0560e01b8152808401869052602490fd5b509034610258578260031936011261025857805191836003549060019082821c9282811680156110df575b60209586861082146110cc57508488529081156110aa5750600114611051575b6108a6868661089c828b03836111cd565b929550600383527fc2575a0e9e593c00f959f8c92f12db2869c3395a3b0502d05e2516446f71f85b5b82841061109757505050826108a69461089c928201019438611040565b805486850188015292860192810161107a565b60ff191687860152505050151560051b830101925061089c826108a638611040565b634e487b7160e01b845260229052602483fd5b93607f1693611020565b83346103f557806003193601126103f55761052f611541565b6020808252825181830181905290939260005b82811061113757505060409293506000838284010152601f8019910116010190565b818101860151848201604001528501611115565b600435906001600160a01b03821682036104b357565b602435906001600160a01b03821682036104b357565b6005546001600160a01b0316330361118b57565b60405163118cdaa760e01b8152336004820152602490fd5b67ffffffffffffffff81116111b757604052565b634e487b7160e01b600052604160045260246000fd5b90601f8019910116810190811067ffffffffffffffff8211176111b757604052565b916001600160a01b038084169283156112b4571692831561129b5760009083825281602052604082205490838210611269575091604082827fddf252ad1be2c89b69c2b068fc378daa952ba7f163c4a11628f55a4df523b3ef958760209652828652038282205586815220818154019055604051908152a3565b60405163391434e360e21b81526001600160a01b03919091166004820152602481019190915260448101839052606490fd5b60405163ec442f0560e01b815260006004820152602490fd5b604051634b637e8f60e11b815260006004820152602490fd5b919082018092116112da57565b634e487b7160e01b600052601160045260246000fd5b156112f757565b60405162461bcd60e51b815260206004820152600e60248201526d13585c9ad95d081b585d1d5c995960921b6044820152606490fd5b1561133457565b60405162461bcd60e51b815260206004820152601760248201527f416d6f756e74206d75737420626520706f7369746976650000000000000000006044820152606490fd5b818102929181159184041417156112da57565b919082039182116112da57565b6001600160a01b031690811561129b577fddf252ad1be2c89b69c2b068fc378daa952ba7f163c4a11628f55a4df523b3ef6020826113db6000946002546112cd565b60025584845283825260408420818154019055604051908152a3565b60405163a9059cbb60e01b60208201526001600160a01b03929092166024830152604480830193909352918152611438916114336064836111cd565b61143a565b565b906000602091828151910182855af115611496576000513d61148d57506001600160a01b0381163b155b61146b5750565b604051635274afe760e01b81526001600160a01b039091166004820152602490fd5b60011415611464565b6040513d6000823e3d90fd5b906001600160a01b0382169081156112b4576000928284528360205260408420549082821061150f5750817fddf252ad1be2c89b69c2b068fc378daa952ba7f163c4a11628f55a4df523b3ef926020928587528684520360408620558060025403600255604051908152a3565b60405163391434e360e21b81526001600160a01b03919091166004820152602481019190915260448101829052606490fd5b61156c7f000000000000000000000000000000000000000000000000000000000000000042106112f0565b611578600b544261138c565b8015611688576040516370a0823160e01b81523060048201526020816024817f00000000000000000000000000000000000000000000000000000000000000006001600160a01b03165afa90811561149657600091611653575b506301e13380916127106115ec6115f293600c5490611379565b04611379565b04806115fb5750565b60607fd3bca34d88bc8c8d0d3304ca482da710a7f673bcd8e764fdae6f4f2b66bb315d91670de0b6b3a76400008060065561163882600a546112cd565b600a5542600b556040519182526020820152426040820152a1565b906020823d8211611680575b8161166c602093836111cd565b810103126103f55750516301e133806115d2565b3d915061165f565b50565b7f0000000000000000000000000000000000000000000000000000000000000000804210156116c2576116bf90429061138c565b90565b5060009056fea264697066735822122040d367396fbf10cbf39899dc0a9e286f973e6f8a0c4b90540902f7f6b0f89e2164736f6c63430008140033",
  "linkReferences": {},
  "deployedLinkReferences": {}
}