{
  "_format": "hh-sol-artifact-1",
  "contractName": "StandardizedYieldToken",
  "sourceName": "contracts/core/StandardizedYieldToken.sol",
  "abi": [
    {
      "inputs": [
        {
          "internalType": "string",
          "name": "name",
          "type": "string"
        },
        {
          "internalType": "string",
          "name": "symbol",
          "type": "string"
        },
        {
          "internalType": "address",
          "name": "_underlyingAsset",
          "type": "address"
        },
        {
          "internalType": "uint256",
          "name": "_yieldRate",
          "type": "uint256"
        }
      ],
      "stateMutability": "nonpayable",
      "type": "constructor"
    },
    {
      "inputs": [
        {
          "internalType": "address",
          "name": "spender",
          "type": "address"
        },
        {
          "internalType": "uint256",
          "name": "allowance",
          "type": "uint256"
        },
        {
          "internalType": "uint256",
          "name": "needed",
          "type": "uint256"
        }
      ],
      "name": "ERC20InsufficientAllowance",
      "type": "error"
    },
    {
      "inputs": [
        {
          "internalType": "address",
          "name": "sender",
          "type": "address"
        },
        {
          "internalType": "uint256",
          "name": "balance",
          "type": "uint256"
        },
        {
          "internalType": "uint256",
          "name": "needed",
          "type": "uint256"
        }
      ],
      "name": "ERC20InsufficientBalance",
      "type": "error"
    },
    {
      "inputs": [
        {
          "internalType": "address",
          "name": "approver",
          "type": "address"
        }
      ],
      "name": "ERC20InvalidApprover",
      "type": "error"
    },
    {
      "inputs": [
        {
          "internalType": "address",
          "name": "receiver",
          "type": "address"
        }
      ],
      "name": "ERC20InvalidReceiver",
      "type": "error"
    },
    {
      "inputs": [
        {
          "internalType": "address",
          "name": "sender",
          "type": "address"
        }
      ],
      "name": "ERC20InvalidSender",
      "type": "error"
    },
    {
      "inputs": [
        {
          "internalType": "address",
          "name": "spender",
          "type": "address"
        }
      ],
      "name": "ERC20InvalidSpender",
      "type": "error"
    },
    {
      "inputs": [],
      "name": "EnforcedPause",
      "type": "error"
    },
    {
      "inputs": [],
      "name": "ExpectedPause",
      "type": "error"
    },
    {
      "inputs": [
        {
          "internalType": "address",
          "name": "user",
          "type": "address"
        }
      ],
      "name": "FlashMintNotApproved",
      "type": "error"
    },
    {
      "inputs": [
        {
          "internalType": "uint256",
          "name": "requested",
          "type": "uint256"
        },
        {
          "internalType": "uint256",
          "name": "available",
          "type": "uint256"
        }
      ],
      "name": "InsufficientBalance",
      "type": "error"
    },
    {
      "inputs": [
        {
          "internalType": "uint256",
          "name": "amount",
          "type": "uint256"
        }
      ],
      "name": "InvalidAmount",
      "type": "error"
    },
    {
      "inputs": [
        {
          "internalType": "uint256",
          "name": "requested",
          "type": "uint256"
        },
        {
          "internalType": "uint256",
          "name": "maxAllowed",
          "type": "uint256"
        }
      ],
      "name": "MaxSupplyExceeded",
      "type": "error"
    },
    {
      "inputs": [
        {
          "internalType": "address",
          "name": "owner",
          "type": "address"
        }
      ],
      "name": "OwnableInvalidOwner",
      "type": "error"
    },
    {
      "inputs": [
        {
          "internalType": "address",
          "name": "account",
          "type": "address"
        }
      ],
      "name": "OwnableUnauthorizedAccount",
      "type": "error"
    },
    {
      "inputs": [],
      "name": "ReentrancyGuardReentrantCall",
      "type": "error"
    },
    {
      "inputs": [
        {
          "internalType": "uint256",
          "name": "rate",
          "type": "uint256"
        }
      ],
      "name": "YieldRateTooHigh",
      "type": "error"
    },
    {
      "anonymous": false,
      "inputs": [
        {
          "indexed": true,
          "internalType": "address",
          "name": "owner",
          "type": "address"
        },
        {
          "indexed": true,
          "internalType": "address",
          "name": "spender",
          "type": "address"
        },
        {
          "indexed": false,
          "internalType": "uint256",
          "name": "value",
          "type": "uint256"
        }
      ],
      "name": "Approval",
      "type": "event"
    },
    {
      "anonymous": false,
      "inputs": [
        {
          "indexed": true,
          "internalType": "address",
          "name": "user",
          "type": "address"
        },
        {
          "indexed": false,
          "internalType": "uint256",
          "name": "amount",
          "type": "uint256"
        }
      ],
      "name": "AssetUnwrapped",
      "type": "event"
    },
    {
      "anonymous": false,
      "inputs": [
        {
          "indexed": true,
          "internalType": "address",
          "name": "user",
          "type": "address"
        },
        {
          "indexed": false,
          "internalType": "uint256",
          "name": "amount",
          "type": "uint256"
        }
      ],
      "name": "AssetWrapped",
      "type": "event"
    },
    {
      "anonymous": false,
      "inputs": [
        {
          "indexed": false,
          "internalType": "uint256",
          "name": "totalAmount",
          "type": "uint256"
        },
        {
          "indexed": false,
          "internalType": "uint256",
          "name": "userCount",
          "type": "uint256"
        }
      ],
      "name": "BatchWrapExecuted",
      "type": "event"
    },
    {
      "anonymous": false,
      "inputs": [
        {
          "indexed": true,
          "internalType": "address",
          "name": "user",
          "type": "address"
        },
        {
          "indexed": false,
          "internalType": "uint256",
          "name": "amount",
          "type": "uint256"
        },
        {
          "indexed": false,
          "internalType": "uint256",
          "name": "fee",
          "type": "uint256"
        }
      ],
      "name": "FlashMint",
      "type": "event"
    },
    {
      "anonymous": false,
      "inputs": [
        {
          "indexed": false,
          "internalType": "uint256",
          "name": "oldMax",
          "type": "uint256"
        },
        {
          "indexed": false,
          "internalType": "uint256",
          "name": "newMax",
          "type": "uint256"
        }
      ],
      "name": "MaxSupplyUpdated",
      "type": "event"
    },
    {
      "anonymous": false,
      "inputs": [
        {
          "indexed": false,
          "internalType": "uint256",
          "name": "oldMin",
          "type": "uint256"
        },
        {
          "indexed": false,
          "internalType": "uint256",
          "name": "newMin",
          "type": "uint256"
        }
      ],
      "name": "MinWrapAmountUpdated",
      "type": "event"
    },
    {
      "anonymous": false,
      "inputs": [
        {
          "indexed": true,
          "internalType": "address",
          "name": "previousOwner",
          "type": "address"
        },
        {
          "indexed": true,
          "internalType": "address",
          "name": "newOwner",
          "type": "address"
        }
      ],
      "name": "OwnershipTransferred",
      "type": "event"
    },
    {
      "anonymous": false,
      "inputs": [
        {
          "indexed": false,
          "internalType": "address",
          "name": "account",
          "type": "address"
        }
      ],
      "name": "Paused",
      "type": "event"
    },
    {
      "anonymous": false,
      "inputs": [
        {
          "indexed": true,
          "internalType": "address",
          "name": "from",
          "type": "address"
        },
        {
          "indexed": true,
          "internalType": "address",
          "name": "to",
          "type": "address"
        },
        {
          "indexed": false,
          "internalType": "uint256",
          "name": "value",
          "type": "uint256"
        }
      ],
      "name": "Transfer",
      "type": "event"
    },
    {
      "anonymous": false,
      "inputs": [
        {
          "indexed": false,
          "internalType": "address",
          "name": "account",
          "type": "address"
        }
      ],
      "name": "Unpaused",
      "type": "event"
    },
    {
      "anonymous": false,
      "inputs": [
        {
          "indexed": true,
          "internalType": "address",
          "name": "user",
          "type": "address"
        },
        {
          "indexed": false,
          "internalType": "uint256",
          "name": "amount",
          "type": "uint256"
        }
      ],
      "name": "YieldAccumulated",
      "type": "event"
    },
    {
      "anonymous": false,
      "inputs": [
        {
          "indexed": false,
          "internalType": "uint256",
          "name": "oldRate",
          "type": "uint256"
        },
        {
          "indexed": false,
          "internalType": "uint256",
          "name": "newRate",
          "type": "uint256"
        }
      ],
      "name": "YieldRateUpdated",
      "type": "event"
    },
    {
      "inputs": [
        {
          "internalType": "address",
          "name": "owner",
          "type": "address"
        },
        {
          "internalType": "address",
          "name": "spender",
          "type": "address"
        }
      ],
      "name": "allowance",
      "outputs": [
        {
          "internalType": "uint256",
          "name": "",
          "type": "uint256"
        }
      ],
      "stateMutability": "view",
      "type": "function"
    },
    {
      "inputs": [
        {
          "internalType": "address",
          "name": "spender",
          "type": "address"
        },
        {
          "internalType": "uint256",
          "name": "value",
          "type": "uint256"
        }
      ],
      "name": "approve",
      "outputs": [
        {
          "internalType": "bool",
          "name": "",
          "type": "bool"
        }
      ],
      "stateMutability": "nonpayable",
      "type": "function"
    },
    {
      "inputs": [
        {
          "internalType": "address",
          "name": "account",
          "type": "address"
        }
      ],
      "name": "balanceOf",
      "outputs": [
        {
          "internalType": "uint256",
          "name": "",
          "type": "uint256"
        }
      ],
      "stateMutability": "view",
      "type": "function"
    },
    {
      "inputs": [
        {
          "internalType": "uint256[]",
          "name": "amounts",
          "type": "uint256[]"
        },
        {
          "internalType": "address[]",
          "name": "recipients",
          "type": "address[]"
        }
      ],
      "name": "batchWrap",
      "outputs": [],
      "stateMutability": "nonpayable",
      "type": "function"
    },
    {
      "inputs": [],
      "name": "claimYield",
      "outputs": [
        {
          "internalType": "uint256",
          "name": "",
          "type": "uint256"
        }
      ],
      "stateMutability": "nonpayable",
      "type": "function"
    },
    {
      "inputs": [],
      "name": "decimals",
      "outputs": [
        {
          "internalType": "uint8",
          "name": "",
          "type": "uint8"
        }
      ],
      "stateMutability": "view",
      "type": "function"
    },
    {
      "inputs": [
        {
          "internalType": "address",
          "name": "token",
          "type": "address"
        },
        {
          "internalType": "uint256",
          "name": "amount",
          "type": "uint256"
        }
      ],
      "name": "emergencyWithdraw",
      "outputs": [],
      "stateMutability": "nonpayable",
      "type": "function"
    },
    {
      "inputs": [
        {
          "internalType": "uint256",
          "name": "amount",
          "type": "uint256"
        },
        {
          "internalType": "bytes",
          "name": "data",
          "type": "bytes"
        }
      ],
      "name": "flashMint",
      "outputs": [],
      "stateMutability": "nonpayable",
      "type": "function"
    },
    {
      "inputs": [
        {
          "internalType": "address",
          "name": "",
          "type": "address"
        }
      ],
      "name": "flashMintApproved",
      "outputs": [
        {
          "internalType": "bool",
          "name": "",
          "type": "bool"
        }
      ],
      "stateMutability": "view",
      "type": "function"
    },
    {
      "inputs": [],
      "name": "flashMintFee",
      "outputs": [
        {
          "internalType": "uint256",
          "name": "",
          "type": "uint256"
        }
      ],
      "stateMutability": "view",
      "type": "function"
    },
    {
      "inputs": [
        {
          "internalType": "address",
          "name": "user",
          "type": "address"
        }
      ],
      "name": "forceYieldUpdate",
      "outputs": [],
      "stateMutability": "nonpayable",
      "type": "function"
    },
    {
      "inputs": [
        {
          "internalType": "address",
          "name": "user",
          "type": "address"
        }
      ],
      "name": "getAccumulatedYield",
      "outputs": [
        {
          "internalType": "uint256",
          "name": "",
          "type": "uint256"
        }
      ],
      "stateMutability": "view",
      "type": "function"
    },
    {
      "inputs": [],
      "name": "getCurrentAPY",
      "outputs": [
        {
          "internalType": "uint256",
          "name": "",
          "type": "uint256"
        }
      ],
      "stateMutability": "view",
      "type": "function"
    },
    {
      "inputs": [
        {
          "internalType": "address",
          "name": "user",
          "type": "address"
        }
      ],
      "name": "getDetailedYieldInfo",
      "outputs": [
        {
          "internalType": "uint256",
          "name": "balance",
          "type": "uint256"
        },
        {
          "internalType": "uint256",
          "name": "yieldDebt",
          "type": "uint256"
        },
        {
          "internalType": "uint256",
          "name": "lastUpdate",
          "type": "uint256"
        },
        {
          "internalType": "uint256",
          "name": "timeElapsed",
          "type": "uint256"
        },
        {
          "internalType": "uint256",
          "name": "pendingYield",
          "type": "uint256"
        },
        {
          "internalType": "uint256",
          "name": "totalYield",
          "type": "uint256"
        },
        {
          "internalType": "uint256",
          "name": "yieldRate_",
          "type": "uint256"
        },
        {
          "internalType": "uint256",
          "name": "annualProjection",
          "type": "uint256"
        }
      ],
      "stateMutability": "view",
      "type": "function"
    },
    {
      "inputs": [],
      "name": "getProtocolStats",
      "outputs": [
        {
          "internalType": "uint256",
          "name": "totalSupply_",
          "type": "uint256"
        },
        {
          "internalType": "uint256",
          "name": "totalYieldAccumulated_",
          "type": "uint256"
        },
        {
          "internalType": "uint256",
          "name": "currentYieldRate",
          "type": "uint256"
        },
        {
          "internalType": "uint256",
          "name": "maxSupply_",
          "type": "uint256"
        },
        {
          "internalType": "uint256",
          "name": "utilizationRate",
          "type": "uint256"
        },
        {
          "internalType": "uint256",
          "name": "averageYieldPerToken",
          "type": "uint256"
        }
      ],
      "stateMutability": "view",
      "type": "function"
    },
    {
      "inputs": [
        {
          "internalType": "address",
          "name": "user",
          "type": "address"
        }
      ],
      "name": "getUserStats",
      "outputs": [
        {
          "internalType": "uint256",
          "name": "balance",
          "type": "uint256"
        },
        {
          "internalType": "uint256",
          "name": "yieldDebt",
          "type": "uint256"
        },
        {
          "internalType": "uint256",
          "name": "totalYieldClaimed",
          "type": "uint256"
        },
        {
          "internalType": "uint256",
          "name": "lastUpdate",
          "type": "uint256"
        },
        {
          "internalType": "uint256",
          "name": "pendingYield",
          "type": "uint256"
        },
        {
          "internalType": "uint256",
          "name": "projectedAnnualYield",
          "type": "uint256"
        }
      ],
      "stateMutability": "view",
      "type": "function"
    },
    {
      "inputs": [
        {
          "internalType": "address",
          "name": "user",
          "type": "address"
        },
        {
          "internalType": "uint256",
          "name": "timeHorizon",
          "type": "uint256"
        }
      ],
      "name": "getYieldProjection",
      "outputs": [
        {
          "internalType": "uint256",
          "name": "",
          "type": "uint256"
        }
      ],
      "stateMutability": "view",
      "type": "function"
    },
    {
      "inputs": [],
      "name": "lastGlobalUpdate",
      "outputs": [
        {
          "internalType": "uint256",
          "name": "",
          "type": "uint256"
        }
      ],
      "stateMutability": "view",
      "type": "function"
    },
    {
      "inputs": [],
      "name": "maxSupply",
      "outputs": [
        {
          "internalType": "uint256",
          "name": "",
          "type": "uint256"
        }
      ],
      "stateMutability": "view",
      "type": "function"
    },
    {
      "inputs": [],
      "name": "minWrapAmount",
      "outputs": [
        {
          "internalType": "uint256",
          "name": "",
          "type": "uint256"
        }
      ],
      "stateMutability": "view",
      "type": "function"
    },
    {
      "inputs": [],
      "name": "name",
      "outputs": [
        {
          "internalType": "string",
          "name": "",
          "type": "string"
        }
      ],
      "stateMutability": "view",
      "type": "function"
    },
    {
      "inputs": [],
      "name": "owner",
      "outputs": [
        {
          "internalType": "address",
          "name": "",
          "type": "address"
        }
      ],
      "stateMutability": "view",
      "type": "function"
    },
    {
      "inputs": [],
      "name": "pause",
      "outputs": [],
      "stateMutability": "nonpayable",
      "type": "function"
    },
    {
      "inputs": [],
      "name": "paused",
      "outputs": [
        {
          "internalType": "bool",
          "name": "",
          "type": "bool"
        }
      ],
      "stateMutability": "view",
      "type": "function"
    },
    {
      "inputs": [],
      "name": "renounceOwnership",
      "outputs": [],
      "stateMutability": "nonpayable",
      "type": "function"
    },
    {
      "inputs": [
        {
          "internalType": "address",
          "name": "user",
          "type": "address"
        },
        {
          "internalType": "bool",
          "name": "approved",
          "type": "bool"
        }
      ],
      "name": "setFlashMintApproval",
      "outputs": [],
      "stateMutability": "nonpayable",
      "type": "function"
    },
    {
      "inputs": [
        {
          "internalType": "uint256",
          "name": "newFee",
          "type": "uint256"
        }
      ],
      "name": "setFlashMintFee",
      "outputs": [],
      "stateMutability": "nonpayable",
      "type": "function"
    },
    {
      "inputs": [
        {
          "internalType": "uint256",
          "name": "newMaxSupply",
          "type": "uint256"
        }
      ],
      "name": "setMaxSupply",
      "outputs": [],
      "stateMutability": "nonpayable",
      "type": "function"
    },
    {
      "inputs": [
        {
          "internalType": "uint256",
          "name": "newMinAmount",
          "type": "uint256"
        }
      ],
      "name": "setMinWrapAmount",
      "outputs": [],
      "stateMutability": "nonpayable",
      "type": "function"
    },
    {
      "inputs": [
        {
          "internalType": "uint256",
          "name": "newRate",
          "type": "uint256"
        }
      ],
      "name": "setYieldRate",
      "outputs": [],
      "stateMutability": "nonpayable",
      "type": "function"
    },
    {
      "inputs": [
        {
          "internalType": "uint256",
          "name": "timeInSeconds",
          "type": "uint256"
        }
      ],
      "name": "simulateTimePass",
      "outputs": [],
      "stateMutability": "nonpayable",
      "type": "function"
    },
    {
      "inputs": [],
      "name": "symbol",
      "outputs": [
        {
          "internalType": "string",
          "name": "",
          "type": "string"
        }
      ],
      "stateMutability": "view",
      "type": "function"
    },
    {
      "inputs": [],
      "name": "totalSupply",
      "outputs": [
        {
          "internalType": "uint256",
          "name": "",
          "type": "uint256"
        }
      ],
      "stateMutability": "view",
      "type": "function"
    },
    {
      "inputs": [],
      "name": "totalYieldAccumulated",
      "outputs": [
        {
          "internalType": "uint256",
          "name": "",
          "type": "uint256"
        }
      ],
      "stateMutability": "view",
      "type": "function"
    },
    {
      "inputs": [
        {
          "internalType": "address",
          "name": "to",
          "type": "address"
        },
        {
          "internalType": "uint256",
          "name": "value",
          "type": "uint256"
        }
      ],
      "name": "transfer",
      "outputs": [
        {
          "internalType": "bool",
          "name": "",
          "type": "bool"
        }
      ],
      "stateMutability": "nonpayable",
      "type": "function"
    },
    {
      "inputs": [
        {
          "internalType": "address",
          "name": "from",
          "type": "address"
        },
        {
          "internalType": "address",
          "name": "to",
          "type": "address"
        },
        {
          "internalType": "uint256",
          "name": "value",
          "type": "uint256"
        }
      ],
      "name": "transferFrom",
      "outputs": [
        {
          "internalType": "bool",
          "name": "",
          "type": "bool"
        }
      ],
      "stateMutability": "nonpayable",
      "type": "function"
    },
    {
      "inputs": [
        {
          "internalType": "address",
          "name": "newOwner",
          "type": "address"
        }
      ],
      "name": "transferOwnership",
      "outputs": [],
      "stateMutability": "nonpayable",
      "type": "function"
    },
    {
      "inputs": [],
      "name": "underlyingAsset",
      "outputs": [
        {
          "internalType": "contract IERC20",
          "name": "",
          "type": "address"
        }
      ],
      "stateMutability": "view",
      "type": "function"
    },
    {
      "inputs": [],
      "name": "unpause",
      "outputs": [],
      "stateMutability": "nonpayable",
      "type": "function"
    },
    {
      "inputs": [
        {
          "internalType": "uint256",
          "name": "amount",
          "type": "uint256"
        }
      ],
      "name": "unwrap",
      "outputs": [
        {
          "internalType": "uint256",
          "name": "",
          "type": "uint256"
        }
      ],
      "stateMutability": "nonpayable",
      "type": "function"
    },
    {
      "inputs": [
        {
          "internalType": "address",
          "name": "",
          "type": "address"
        }
      ],
      "name": "userLastUpdate",
      "outputs": [
        {
          "internalType": "uint256",
          "name": "",
          "type": "uint256"
        }
      ],
      "stateMutability": "view",
      "type": "function"
    },
    {
      "inputs": [
        {
          "internalType": "address",
          "name": "",
          "type": "address"
        }
      ],
      "name": "userTotalYieldClaimed",
      "outputs": [
        {
          "internalType": "uint256",
          "name": "",
          "type": "uint256"
        }
      ],
      "stateMutability": "view",
      "type": "function"
    },
    {
      "inputs": [
        {
          "internalType": "address",
          "name": "",
          "type": "address"
        }
      ],
      "name": "userYieldDebt",
      "outputs": [
        {
          "internalType": "uint256",
          "name": "",
          "type": "uint256"
        }
      ],
      "stateMutability": "view",
      "type": "function"
    },
    {
      "inputs": [
        {
          "internalType": "uint256",
          "name": "amount",
          "type": "uint256"
        }
      ],
      "name": "wrap",
      "outputs": [
        {
          "internalType": "uint256",
          "name": "",
          "type": "uint256"
        }
      ],
      "stateMutability": "nonpayable",
      "type": "function"
    },
    {
      "inputs": [],
      "name": "yieldRate",
      "outputs": [
        {
          "internalType": "uint256",
          "name": "",
          "type": "uint256"
        }
      ],
      "stateMutability": "view",
      "type": "function"
    }
  ],
  "bytecode": "0x604060a0815234620004a25762002469803803806200001e81620004a7565b9283398101608082820312620004a25781516001600160401b039290838111620004a2578262000050918301620004cd565b916020908183015190858211620004a2576200006e918401620004cd565b858301516001600160a01b03808216959294909291869003620004a25760600151958151818111620003a2576003908154906001948583811c9316801562000497575b8884101462000481578190601f938481116200042b575b508890848311600114620003c457600092620003b8575b505060001982851b1c191690851b1782555b8651928311620003a25760049687548581811c9116801562000397575b888210146200038257908183869594931162000328575b5087918411600114620002bd57600093620002b1575b505082841b92600019911b1c19161784555b60055533156200029a5760068054610100600160a81b0319811633600881811b610100600160a81b03169290921790935588519391901c167f8be0079c531659141344cd1fd0a4f28419497f9722a3daafe3b4186f6b6457e0600080a3600560105583156200025b5750831515806200024e575b156200021757505060805260075542600955600019600a5566038d7ea4c68000600b5551611f29908162000540823960805181818161036e01528181610718015281816108b001528181610c530152610eab0152f35b845162461bcd60e51b8152918201526012602482015271496e76616c6964207969656c64207261746560701b604482015260649150fd5b50612710841115620001c1565b62461bcd60e51b815291820152601860248201527f496e76616c696420756e6465726c79696e6720617373657400000000000000006044820152606490fd5b8551631e4fbdf760e01b8152600081850152602490fd5b0151915038806200013b565b9190859450601f1984169289600052886000209360005b8a828210620003115750508511620002f6575b50505050811b0184556200014d565b01519060f884600019921b161c1916905538808080620002e7565b8385015187558998909601959384019301620002d4565b909192935088600052876000208380870160051c8201928a881062000378575b9188918897969594930160051c01915b8281106200036857505062000125565b6000815587965088910162000358565b9250819262000348565b602289634e487b7160e01b6000525260246000fd5b90607f16906200010e565b634e487b7160e01b600052604160045260246000fd5b015190503880620000df565b90879350601f19831691866000528a6000209260005b8c828210620004145750508411620003fb575b505050811b018255620000f1565b015160001983871b60f8161c19169055388080620003ed565b8385015186558b97909501949384019301620003da565b90915084600052886000208480850160051c8201928b861062000477575b918991869594930160051c01915b82811062000467575050620000c8565b6000815585945089910162000457565b9250819262000449565b634e487b7160e01b600052602260045260246000fd5b92607f1692620000b1565b600080fd5b6040519190601f01601f191682016001600160401b03811183821017620003a257604052565b919080601f84011215620004a25782516001600160401b038111620003a25760209062000503601f8201601f19168301620004a7565b92818452828287010111620004a25760005b8181106200052b57508260009394955001015290565b85810183015184820184015282016200051556fe608060408181526004918236101561001657600080fd5b600090813560e01c90816306fdde031461188057508063095ea7b3146117d65780631411dab014611760578063173be41b1461172857806318160ddd146117095780631d2a0e3d146116a957806323b872dd146115b5578063313ce567146115995780633cfb3f73146115615780633f4ba83a146114f7578063406cf2291461141f57806348a9de8e146113615780634e43603a1461129b57806351b1850d14611272578063522c8067146110675780635a6fcd40146110485780635c975abb1461102457806363531b6514610fe65780636999ac9314610b015780636ef41c9014610fc75780636f8b44b014610f7257806370a0823114610f3b578063715018a614610eda5780637158da7c14610e96578063771aceef14610ddf5780638456cb5914610d845780638da5cb5b14610d57578063940a1dc014610d3857806395ccea6714610c2357806395d89b4114610b20578063962ca49614610b015780639cc65a5514610aac5780639f7c81f014610a5a578063a9059cbb14610a29578063afc4c17814610a04578063bfcd78d8146109cc578063d5abeb01146109ad578063dd62ed3e14610964578063de0e9a3e14610828578063e991fb2714610809578063ea598cb014610683578063ee3e762a14610656578063f132a11e14610629578063f2fde38b146105885763f8a91dcf1461021357600080fd5b3461058557816003193601126105855782359067ffffffffffffffff808311610581573660238401121561058157828501359261024f84611a24565b9361025c865195866119ec565b8085526020918286016024809360051b830101913683116105695783859101915b8383106105715750505050803592831161056d573660238401121561056d5782870135926102aa84611a24565b936102b7885195866119ec565b808552828486019160051b83010191368311610569578301905b828210610546575050506102e3611c58565b6102eb611c3a565b845183510361050c5760328551116104d55750829483955b85518710156103305761032461032a9161031d8989611d32565b5190611b59565b96611d23565b95610303565b81516323b872dd60e01b815233898201908152306020820152604081018390529597509095946001600160a01b03919084908290819003606001818b7f000000000000000000000000000000000000000000000000000000000000000087165af19081156104cb57906103aa91899161049e575b50611b94565b865b855181101561046557806103c36103cd9288611d32565b516103d257611d23565b6103ac565b6103e7836103e08389611d32565b5116611e55565b610408836103f58389611d32565b5116610401838a611d32565b5190611bd2565b826104138288611d32565b51168952600d855242848a20558261042b8288611d32565b51167f4c5191cdf7731c3760c9a4b2db67caaf75a3d780cf7c2c5ee61e1404ff6886b586610459848b611d32565b518751908152a2611d23565b50509251835194855290840152507f75e13a536c3c8b23154538bdf06683f97193e81e116f6072519fc2414bd510e091a1600160055580f35b6104be9150853d87116104c4575b6104b681836119ec565b810190611b7c565b896103a4565b503d6104ac565b83513d8a823e3d90fd5b6013879160649388519362461bcd60e51b855284015282015272546f6f206d616e79206f7065726174696f6e7360681b6044820152fd5b6016879160649388519362461bcd60e51b855284015282015275082e4e4c2f2e640d8cadccee8d040dad2e6dac2e8c6d60531b6044820152fd5b81356001600160a01b03811681036105655781529084019084016102d1565b8780fd5b8680fd5b8380fd5b823581529181019185910161027d565b5080fd5b80fd5b509134610625576020366003190112610625576105a36119bb565b6105ab611a3c565b6001600160a01b0381811693909290841561060f57505060068054610100600160a81b03198116600893841b610100600160a81b031617909155901c167f8be0079c531659141344cd1fd0a4f28419497f9722a3daafe3b4186f6b6457e08380a380f35b51631e4fbdf760e01b8152908101859052602490fd5b8280fd5b5090346105815760203660031901126105815760209061064f61064a6119bb565b611d9c565b9051908152f35b50913461062557602036600319011261062557610674903542611d8f565b90338352600d60205282205580f35b509190346106255760209283600319360112610585578235926106a4611c58565b6106ac611c3a565b83156107f257600b5484106107f2576002546106c88582611b59565b90600a548092116107cc5750508484610713926106e433611e55565b85516323b872dd60e01b8152339181019182523060208301526040820192909252909283918291606090910190565b0381857f00000000000000000000000000000000000000000000000000000000000000006001600160a01b03165af19081156107c2579061075a9183916107a55750611b94565b6107648333611bd2565b338152600d8452814291205580518281527f4c5191cdf7731c3760c9a4b2db67caaf75a3d780cf7c2c5ee61e1404ff6886b5843392a2600160055551908152f35b6107bc9150863d88116104c4576104b681836119ec565b386103a4565b83513d84823e3d90fd5b604493506107db868692611b59565b9051637502c12360e11b8152928301526024820152fd5b8251633728b83d60e01b8152908101849052602490fd5b509034610581578160031936011261058157602090600b549051908152f35b50919034610625576020928360031936011261058557823592610849611c58565b610851611c3a565b83156107f25733825281855282822054848110610947575084846108ab9261087833611e55565b6108828233611c7b565b855163a9059cbb60e01b8152339181019182526020820192909252909283918291604090910190565b0381857f00000000000000000000000000000000000000000000000000000000000000006001600160a01b03165af191821561093c57906108f0926109255750611b94565b80518281527f8c3d78186e41faf477867d73d8ba013808c5af863faaf9b370834c5f3c4e08ca843392a2600160055551908152f35b6107bc9150853d87116104c4576104b681836119ec565b8351903d90823e3d90fd5b835163cf47918160e01b8152918201859052602482015260449150fd5b509034610581578060031936011261058157806020926109826119bb565b61098a6119d6565b6001600160a01b0391821683526001865283832091168252845220549051908152f35b509034610581578160031936011261058157602090600a549051908152f35b5090346105815760203660031901126105815760209181906001600160a01b036109f46119bb565b168152600e845220549051908152f35b503461058557602036600319011261058557610a26610a216119bb565b611e55565b80f35b509034610581578060031936011261058157602090610a53610a496119bb565b6024359033611a6b565b5160018152f35b509034610581578060031936011261058157610a746119bb565b906024359182151580930361056d57610a8b611a3c565b60018060a01b03168352600f60205282209060ff8019835416911617905580f35b50919034610625576020366003190112610625577f8396c839d750a14b99a7374b202729061509a16ae8ae7a5f4aee2042d00391f69135610aeb611a3c565b600b549080600b5582519182526020820152a180f35b5090346105815781600319360112610581576020906007549051908152f35b509034610581578160031936011261058157805191809380549160019083821c92828516948515610c19575b6020958686108114610c0657858952908115610be25750600114610b8a575b610b868787610b7c828c03836119ec565b5191829182611972565b0390f35b81529295507f8a35acfbc15ff81a39ae7d344fd709f28e8600b4aa8c65c6b64bfe7fe36bd19b5b828410610bcf5750505082610b8694610b7c92820101943880610b6b565b8054868501880152928601928101610bb1565b60ff19168887015250505050151560051b8301019250610b7c82610b863880610b6b565b634e487b7160e01b845260228352602484fd5b93607f1693610b4c565b509134610625578160031936011261062557610c3d6119bb565b610c45611a3c565b6001600160a01b03908116907f000000000000000000000000000000000000000000000000000000000000000081168214610cf557600654845163a9059cbb60e01b81526001600160a01b0360089290921c909216169281019283526024356020848101919091529093929091849182908790829060400103925af1908115610cec5750610cd1575080f35b610ce89060203d81116104c4576104b681836119ec565b5080f35b513d84823e3d90fd5b835162461bcd60e51b8152602081850152601a60248201527f43616e6e6f7420776974686472617720756e6465726c79696e670000000000006044820152606490fd5b5090346105815781600319360112610581576020906010549051908152f35b509034610581578160031936011261058157600654905160089190911c6001600160a01b03168152602090f35b50903461058157816003193601126105815760207f62e78cea01bee320cd4e420270b5ea74000d11b0c9f74754ebdbfc544b05a25891610dc2611a3c565b610dca611c3a565b600160ff19600654161760065551338152a180f35b5090346105815781600319360112610581576002549060085492600754600a5490811515600014610e8957612710808602908682041486151715610e7657610b869596975082610e2e91611d6f565b925b8615610e705750610e418688611d6f565b935b51968796879260a094919796959260c0850198855260208501526040840152606083015260808201520152565b93610e43565b634e487b7160e01b845260118852602484fd5b610b869495965082610e30565b509034610581578160031936011261058157517f00000000000000000000000000000000000000000000000000000000000000006001600160a01b03168152602090f35b5034610585578060031936011261058557610ef3611a3c565b60068054610100600160a81b03198116909155819060081c6001600160a01b03167f8be0079c531659141344cd1fd0a4f28419497f9722a3daafe3b4186f6b6457e08280a380f35b5090346105815760203660031901126105815760209181906001600160a01b03610f636119bb565b16815280845220549051908152f35b50919034610625576020366003190112610625577f44ecfc706d63e347851cfd40acfa6cf2e3a41faa3e8b460210c03938e84a91ad9135610fb1611a3c565b600a549080600a5582519182526020820152a180f35b5090346105815781600319360112610581576020906008549051908152f35b5090346105815760203660031901126105815760209160ff9082906001600160a01b036110116119bb565b168152600f855220541690519015158152f35b50903461058157816003193601126105815760209060ff6006541690519015158152f35b5090346105815781600319360112610581576020906009549051908152f35b50919034610625578060031936011261062557813591602480359167ffffffffffffffff91828411610569573660238501121561056957838201358381116105655736828287010111610565576110bc611c58565b6110c4611c3a565b338852602093600f855260ff878a2054161561125d578880846127106110ec6010548d611d5c565b04983383528289528a832054956111038d33611bd2565b808c519384930183378101838152039082335af1903d15611257573d9081116112455787519061113c601f8201601f19168801836119ec565b815289863d92013e5b156112045733885287845261115e85878a205492611b59565b116111cc575050907fc1d5a9a0a7cdddbc3db5b9aeffbc9fa1ba5f7275fbd46d9de20ec463f8b8cfbd92916111938533611c7b565b816111ac575b82519485528401523392a2600160055580f35b6006546111c790839060081c6001600160a01b031633611a6b565b611199565b60159060649386519362461bcd60e51b855284015282015274119b185cda081b5a5b9d081b9bdd081c995c185a59605a1b6044820152fd5b50601a9060649386519362461bcd60e51b85528401528201527f466c617368206d696e742063616c6c6261636b206661696c65640000000000006044820152fd5b634e487b7160e01b8a5260418552838afd5b50611145565b8651632a0a6b2d60e01b815233818601528390fd5b50903461058157806003193601126105815760209061064f6112926119bb565b60243590611e15565b509034610581576020366003190112610581576001600160a01b036112be6119bb565b16825281602052610b868183205491600c6020528084205493600e6020528181205490600d60205282812054906112f58242611d8f565b908615611359575061131864496cebb8009161131360075489611d5c565b611d5c565b04915b61271061132a60075488611d5c565b049351968796879260a094919796959260c0850198855260208501526040840152606083015260808201520152565b90509161131b565b50903461058157602036600319011261058157610100916001600160a01b036113886119bb565b168152806020528181205491600c6020528082205491600d60205281812054906113b28242611d8f565b908515611419575064496cebb8006113d08261131360075489611d5c565b04905b6113dd8286611b59565b92600754946127106113ef878a611d5c565b0496815198895260208901528701526060860152608085015260a084015260c083015260e0820152f35b906113d3565b5091903461062557826003193601126106255761143a611c58565b611442611c3a565b61144b33611e55565b338352602092600c8452818120549283156114c057508190338152600c85528082812055600e85522061147f838254611b59565b905561148b8233611bd2565b80518281527f23e1d823874ceb27840409b5cce587a305ffb2d4bcbf64e03a0b7d243d24ecd8843392a2600160055551908152f35b825162461bcd60e51b815290810185905260116024820152704e6f207969656c6420746f20636c61696d60781b6044820152606490fd5b509134610625578260031936011261062557611511611a3c565b6006549060ff821615611553575060ff1916600655513381527f5db9ee0a495bf2e6ff9c91a7834c1ba4fdd244a5e8aa4e537bd38aeae4b073aa90602090a180f35b8251638dfc202b60e01b8152fd5b5090346105815760203660031901126105815760209181906001600160a01b036115896119bb565b168152600d845220549051908152f35b5090346105815781600319360112610581576020905160128152f35b50829034610585576060366003190112610585576115d16119bb565b6115d96119d6565b916044359360018060a01b038316808352600160205286832033845260205286832054916000198310611615575b602088610a53898989611a6b565b86831061167d57811561166657331561164f57508252600160209081528683203384528152918690209085900390558290610a5387611607565b8751634a1406b160e11b8152908101849052602490fd5b875163e602df0560e01b8152908101849052602490fd5b8751637dc7a0d960e11b8152339181019182526020820193909352604081018790528291506060010390fd5b509134610625576020366003190112610625578035916116c7611a3c565b606483116116d757505060105580f35b906020606492519162461bcd60e51b8352820152600c60248201526b08ccaca40e8dede40d0d2ced60a31b6044820152fd5b5090346105815781600319360112610581576020906002549051908152f35b5090346105815760203660031901126105815760209181906001600160a01b036117506119bb565b168152600c845220549051908152f35b5091346106255760203660031901126106255780359061177e611a3c565b61271082116117c15750907f4959ad9023bf5b492922b51fbc7c0b5e5ec66aa39700e0da6d8af9b2d430898e91600754908060075582519182526020820152a180f35b91516338912b2960e01b815291820152602490fd5b5091346106255781600319360112610625576117f06119bb565b602435903315611869576001600160a01b031691821561185257508083602095338152600187528181208582528752205582519081527f8c5be1e5ebec7d5bd14f71427d1e84f3dd0314c0f7b2291e5b200ac8c7c3b925843392a35160018152f35b8351634a1406b160e11b8152908101859052602490fd5b835163e602df0560e01b8152808401869052602490fd5b905082843461056d578360031936011261056d57600354600181811c9186908281168015611968575b6020958686108214611955575084885290811561193357506001146118da575b610b868686610b7c828b03836119ec565b929550600383527fc2575a0e9e593c00f959f8c92f12db2869c3395a3b0502d05e2516446f71f85b5b8284106119205750505082610b8694610b7c9282010194866118c9565b8054868501880152928601928101611903565b60ff191687860152505050151560051b8301019250610b7c82610b86866118c9565b634e487b7160e01b845260229052602483fd5b93607f16936118a9565b6020808252825181830181905290939260005b8281106119a757505060409293506000838284010152601f8019910116010190565b818101860151848201604001528501611985565b600435906001600160a01b03821682036119d157565b600080fd5b602435906001600160a01b03821682036119d157565b90601f8019910116810190811067ffffffffffffffff821117611a0e57604052565b634e487b7160e01b600052604160045260246000fd5b67ffffffffffffffff8111611a0e5760051b60200190565b60065460081c6001600160a01b03163303611a5357565b60405163118cdaa760e01b8152336004820152602490fd5b90916001600160a01b0380831692908315611b40578416938415611b2757611a9690610a2183611e55565b60009083825281602052604082205490838210611af5575091604082827fddf252ad1be2c89b69c2b068fc378daa952ba7f163c4a11628f55a4df523b3ef958760209652828652038282205586815220818154019055604051908152a3565b60405163391434e360e21b81526001600160a01b03919091166004820152602481019190915260448101839052606490fd5b60405163ec442f0560e01b815260006004820152602490fd5b604051634b637e8f60e11b815260006004820152602490fd5b91908201809211611b6657565b634e487b7160e01b600052601160045260246000fd5b908160209103126119d1575180151581036119d15790565b15611b9b57565b60405162461bcd60e51b815260206004820152600f60248201526e151c985b9cd9995c8819985a5b1959608a1b6044820152606490fd5b6001600160a01b038116918215611b275760207fddf252ad1be2c89b69c2b068fc378daa952ba7f163c4a11628f55a4df523b3ef91611c12600094611e55565b611c1e81600254611b59565b60025584845283825260408420818154019055604051908152a3565b60ff60065416611c4657565b60405163d93c066560e01b8152600490fd5b600260055414611c69576002600555565b604051633ee5aeb560e01b8152600490fd5b906001600160a01b038216908115611b4057611c9683611e55565b60009282845283602052604084205490828210611cf15750817fddf252ad1be2c89b69c2b068fc378daa952ba7f163c4a11628f55a4df523b3ef926020928587528684520360408620558060025403600255604051908152a3565b60405163391434e360e21b81526001600160a01b03919091166004820152602481019190915260448101829052606490fd5b6000198114611b665760010190565b8051821015611d465760209160051b010190565b634e487b7160e01b600052603260045260246000fd5b81810292918115918404141715611b6657565b8115611d79570490565b634e487b7160e01b600052601260045260246000fd5b91908203918211611b6657565b6001600160a01b031660008181526020819052604081205490919015611e07576040611e0492600d60205264496cebb800611df4611ddd8484205442611d8f565b858452836020526113138585205460075490611d5c565b04928152600c6020522054611b59565b90565b50604090600c602052205490565b6001600160a01b03166000908152602081905260409020548015611e4e5764496cebb80091611313611e4a9260075490611d5c565b0490565b5050600090565b6001600160a01b0316600081815260208190526040812054909190611e84575b8152600d602052604042912055565b600d602052611e97604083205442611d8f565b80611ea3575b50611e75565b64496cebb800611ec8611eea9284865285602052611313604087205460075490611d5c565b04828452600c60205260408420611ee0828254611b59565b9055600854611b59565b60085538611e9d56fea26469706673582212201b7e17f74e49bbafde6da524480014871531ba8065010b05b7eaf7d21c87d0f864736f6c63430008140033",
  "linkReferences": {},
  "deployedLinkReferences": {}
}