{
  "_format": "hh-sol-artifact-1",
  "contractName": "TimeDecayMath",
  "sourceName": "contracts/core/libraries/TimeDecayMath.sol",
  "abi": [
    {
      "inputs": [],
      "name": "PRECISION",
      "outputs": [
        {
          "internalType": "uint256",
          "name": "",
          "type": "uint256"
        }
      ],
      "stateMutability": "view",
      "type": "function"
    },
    {
      "inputs": [],
      "name": "SECONDS_PER_YEAR",
      "outputs": [
        {
          "internalType": "uint256",
          "name": "",
          "type": "uint256"
        }
      ],
      "stateMutability": "view",
      "type": "function"
    },
    {
      "inputs": [
        {
          "internalType": "uint256",
          "name": "initialValue",
          "type": "uint256"
        },
        {
          "internalType": "uint256",
          "name": "currentValue",
          "type": "uint256"
        },
        {
          "internalType": "uint256",
          "name": "timeElapsed",
          "type": "uint256"
        },
        {
          "internalType": "uint256",
          "name": "totalDuration",
          "type": "uint256"
        }
      ],
      "name": "calculateImpermanentLoss",
      "outputs": [
        {
          "internalType": "uint256",
          "name": "ilPercentage",
          "type": "uint256"
        }
      ],
      "stateMutability": "pure",
      "type": "function"
    },
    {
      "inputs": [
        {
          "internalType": "uint256",
          "name": "volatility",
          "type": "uint256"
        },
        {
          "internalType": "uint256",
          "name": "transactionCost",
          "type": "uint256"
        }
      ],
      "name": "calculateOptimalRebalancing",
      "outputs": [
        {
          "internalType": "uint256",
          "name": "frequency",
          "type": "uint256"
        }
      ],
      "stateMutability": "pure",
      "type": "function"
    },
    {
      "inputs": [
        {
          "internalType": "uint256",
          "name": "currentTime",
          "type": "uint256"
        },
        {
          "internalType": "uint256",
          "name": "expiry",
          "type": "uint256"
        },
        {
          "internalType": "uint256",
          "name": "basePrice",
          "type": "uint256"
        },
        {
          "internalType": "uint256",
          "name": "yieldRate",
          "type": "uint256"
        }
      ],
      "name": "calculatePTPrice",
      "outputs": [
        {
          "internalType": "uint256",
          "name": "ptPrice",
          "type": "uint256"
        }
      ],
      "stateMutability": "pure",
      "type": "function"
    },
    {
      "inputs": [
        {
          "internalType": "uint256[]",
          "name": "returnValues",
          "type": "uint256[]"
        },
        {
          "internalType": "uint256",
          "name": "riskFreeRate",
          "type": "uint256"
        }
      ],
      "name": "calculateSharpeRatio",
      "outputs": [
        {
          "internalType": "uint256",
          "name": "sharpeRatio",
          "type": "uint256"
        }
      ],
      "stateMutability": "pure",
      "type": "function"
    },
    {
      "inputs": [
        {
          "internalType": "uint256",
          "name": "currentTime",
          "type": "uint256"
        },
        {
          "internalType": "uint256",
          "name": "expiry",
          "type": "uint256"
        },
        {
          "internalType": "uint256",
          "name": "baseYield",
          "type": "uint256"
        },
        {
          "internalType": "uint256",
          "name": "timeElapsed",
          "type": "uint256"
        }
      ],
      "name": "calculateYTYield",
      "outputs": [
        {
          "internalType": "uint256",
          "name": "ytYield",
          "type": "uint256"
        }
      ],
      "stateMutability": "pure",
      "type": "function"
    }
  ],
  "bytecode": "0x6080806040523461001a576106229081610020823930815050f35b600080fdfe6040608081526004908136101561001557600080fd5b600091823560e01c90816370c960091461033c57816373c712cc146102805781637f9ed65c14610246578163aaf5eb6814610228578163be77d5b01461015a578163d2ad2d1f1461008c575063e6a69ab81461007057600080fd5b8160031936011261008857602090516301e133808152f35b5080fd5b82846100af61009a36610354565b94929093916100aa818310610377565b6103b5565b92670de0b6b3a764000093848102908082048614901517156101475784820291808304861490151715610147578491612710836301e133806100f494040491046103d8565b0480840191828511610134576020868661012c8761012688671bc16d674ec8000061011f8a806103d8565b049061040b565b906103d8565b049051908152f35b634e487b7160e01b815260118752602490fd5b634e487b7160e01b835260118752602483fd5b9050816003193601126102245780359267ffffffffffffffff80851161008857366023860112156100885784830135818111610211578060051b91855194601f19603f850116860191868310908311176101fe575085528352602094602486850192820101923684116101fb5750906024869201905b8382106101ec5782866101e5602435886104ab565b9051908152f35b813581529082019082016101d0565b80fd5b634e487b7160e01b855260419052602484fd5b634e487b7160e01b835260418452602483fd5b8280fd5b5050816003193601126100885760209051670de0b6b3a76400008152f35b6020836101e561012661027b61027561025e36610354565b61026f838594989596939610610377565b866103b5565b946103b5565b6103eb565b8284816003193601126101fb5782356024359061016d808202918083048214901517156103295761271080920492818102918183041490151715610329570491601e820291808304601e14901517156103165760018301809311610316576020846102eb85856103eb565b906001821061030d575b605a8211610304575b51908152f35b605a91506102fe565b600191506102f5565b634e487b7160e01b815260118552602490fd5b634e487b7160e01b845260118652602484fd5b6020836101e561034b36610354565b92919091610418565b60809060031901126103725760043590602435906044359060643590565b600080fd5b1561037e57565b60405162461bcd60e51b815260206004820152600f60248201526e105b1c9958591e48195e1c1a5c9959608a1b6044820152606490fd5b919082039182116103c257565b634e487b7160e01b600052601160045260246000fd5b818102929181159184041417156103c257565b81156103f5570490565b634e487b7160e01b600052601260045260246000fd5b919082018092116103c257565b91928282101561047857670de0b6b3a764000093848102908082048614901517156103c2576104519161044a916103eb565b91836103b5565b838102908082048514901517156103c2576104749261046f916103eb565b6103d8565b0490565b50505050600090565b80518210156104955760209160051b010190565b634e487b7160e01b600052603260045260246000fd5b91909180511561059b576000918290835b8351851015610517576104dd610503916104d68787610481565b519061040b565b926104fd6104eb8787610481565b516104f68888610481565b51906103d8565b9061040b565b9360001981146103c25760010193916104bc565b61053492919593945061052c908551906103eb565b9351906103eb565b9161055c610557670de0b6b3a7640000948561055085806103d8565b04906103b5565b6105a2565b91821561047857600091818111156105945761057892506103b5565b8281029281840414901517156103c257610591916103eb565b90565b5050610578565b5060009150565b80156105e65760018082018083116103c257811c90825b8383106105c65750505090565b909192506105dd836105d881846103eb565b61040b565b821c91906105b9565b5060009056fea264697066735822122026bc5c1caa0e00519db834f6f4fcf93a480cb7c1c595f105bd14f952d551fa6264736f6c63430008140033",
  "linkReferences": {},
  "deployedLinkReferences": {}
}