{
  "_format": "hh-sol-artifact-1",
  "contractName": "YieldHarvester",
  "sourceName": "contracts/core/YieldHarvester.sol",
  "abi": [
    {
      "inputs": [],
      "stateMutability": "nonpayable",
      "type": "constructor"
    },
    {
      "inputs": [],
      "name": "EnforcedPause",
      "type": "error"
    },
    {
      "inputs": [],
      "name": "ExpectedPause",
      "type": "error"
    },
    {
      "inputs": [
        {
          "internalType": "address",
          "name": "owner",
          "type": "address"
        }
      ],
      "name": "OwnableInvalidOwner",
      "type": "error"
    },
    {
      "inputs": [
        {
          "internalType": "address",
          "name": "account",
          "type": "address"
        }
      ],
      "name": "OwnableUnauthorizedAccount",
      "type": "error"
    },
    {
      "inputs": [],
      "name": "ReentrancyGuardReentrantCall",
      "type": "error"
    },
    {
      "inputs": [
        {
          "internalType": "address",
          "name": "token",
          "type": "address"
        }
      ],
      "name": "SafeERC20FailedOperation",
      "type": "error"
    },
    {
      "anonymous": false,
      "inputs": [
        {
          "indexed": true,
          "internalType": "address",
          "name": "user",
          "type": "address"
        },
        {
          "indexed": true,
          "internalType": "address",
          "name": "asset",
          "type": "address"
        },
        {
          "indexed": false,
          "internalType": "uint256",
          "name": "amount",
          "type": "uint256"
        },
        {
          "indexed": false,
          "internalType": "uint256",
          "name": "timestamp",
          "type": "uint256"
        }
      ],
      "name": "AutoCompoundExecuted",
      "type": "event"
    },
    {
      "anonymous": false,
      "inputs": [
        {
          "indexed": true,
          "internalType": "address",
          "name": "previousOwner",
          "type": "address"
        },
        {
          "indexed": true,
          "internalType": "address",
          "name": "newOwner",
          "type": "address"
        }
      ],
      "name": "OwnershipTransferred",
      "type": "event"
    },
    {
      "anonymous": false,
      "inputs": [
        {
          "indexed": false,
          "internalType": "address",
          "name": "account",
          "type": "address"
        }
      ],
      "name": "Paused",
      "type": "event"
    },
    {
      "anonymous": false,
      "inputs": [
        {
          "indexed": true,
          "internalType": "address",
          "name": "user",
          "type": "address"
        },
        {
          "indexed": true,
          "internalType": "address",
          "name": "asset",
          "type": "address"
        },
        {
          "indexed": false,
          "internalType": "uint256",
          "name": "amount",
          "type": "uint256"
        },
        {
          "indexed": false,
          "internalType": "uint256",
          "name": "timestamp",
          "type": "uint256"
        }
      ],
      "name": "PendingYieldAdded",
      "type": "event"
    },
    {
      "anonymous": false,
      "inputs": [
        {
          "indexed": true,
          "internalType": "address",
          "name": "asset",
          "type": "address"
        },
        {
          "indexed": false,
          "internalType": "uint256",
          "name": "harvestThreshold",
          "type": "uint256"
        },
        {
          "indexed": false,
          "internalType": "uint256",
          "name": "autoCompoundThreshold",
          "type": "uint256"
        }
      ],
      "name": "StrategyCreated",
      "type": "event"
    },
    {
      "anonymous": false,
      "inputs": [
        {
          "indexed": true,
          "internalType": "address",
          "name": "asset",
          "type": "address"
        },
        {
          "indexed": false,
          "internalType": "uint256",
          "name": "newThreshold",
          "type": "uint256"
        },
        {
          "indexed": false,
          "internalType": "uint256",
          "name": "newFee",
          "type": "uint256"
        }
      ],
      "name": "StrategyUpdated",
      "type": "event"
    },
    {
      "anonymous": false,
      "inputs": [
        {
          "indexed": false,
          "internalType": "address",
          "name": "account",
          "type": "address"
        }
      ],
      "name": "Unpaused",
      "type": "event"
    },
    {
      "anonymous": false,
      "inputs": [
        {
          "indexed": true,
          "internalType": "address",
          "name": "user",
          "type": "address"
        },
        {
          "indexed": true,
          "internalType": "address",
          "name": "asset",
          "type": "address"
        },
        {
          "indexed": false,
          "internalType": "uint256",
          "name": "amount",
          "type": "uint256"
        },
        {
          "indexed": false,
          "internalType": "uint256",
          "name": "timestamp",
          "type": "uint256"
        }
      ],
      "name": "YieldHarvested",
      "type": "event"
    },
    {
      "inputs": [
        {
          "internalType": "address",
          "name": "user",
          "type": "address"
        },
        {
          "internalType": "address",
          "name": "asset",
          "type": "address"
        },
        {
          "internalType": "uint256",
          "name": "amount",
          "type": "uint256"
        }
      ],
      "name": "addPendingYieldForTesting",
      "outputs": [],
      "stateMutability": "nonpayable",
      "type": "function"
    },
    {
      "inputs": [
        {
          "internalType": "uint256",
          "name": "",
          "type": "uint256"
        }
      ],
      "name": "assetList",
      "outputs": [
        {
          "internalType": "address",
          "name": "",
          "type": "address"
        }
      ],
      "stateMutability": "view",
      "type": "function"
    },
    {
      "inputs": [
        {
          "internalType": "address",
          "name": "asset",
          "type": "address"
        }
      ],
      "name": "autoCompound",
      "outputs": [],
      "stateMutability": "nonpayable",
      "type": "function"
    },
    {
      "inputs": [
        {
          "internalType": "address[]",
          "name": "users",
          "type": "address[]"
        },
        {
          "internalType": "address[]",
          "name": "assets",
          "type": "address[]"
        },
        {
          "internalType": "uint256[]",
          "name": "amounts",
          "type": "uint256[]"
        }
      ],
      "name": "batchUpdateYields",
      "outputs": [],
      "stateMutability": "nonpayable",
      "type": "function"
    },
    {
      "inputs": [
        {
          "internalType": "address",
          "name": "asset",
          "type": "address"
        },
        {
          "internalType": "uint256",
          "name": "harvestThreshold",
          "type": "uint256"
        },
        {
          "internalType": "uint256",
          "name": "autoCompoundThreshold",
          "type": "uint256"
        }
      ],
      "name": "createYieldStrategy",
      "outputs": [],
      "stateMutability": "nonpayable",
      "type": "function"
    },
    {
      "inputs": [],
      "name": "defaultHarvestFee",
      "outputs": [
        {
          "internalType": "uint256",
          "name": "",
          "type": "uint256"
        }
      ],
      "stateMutability": "view",
      "type": "function"
    },
    {
      "inputs": [
        {
          "internalType": "address",
          "name": "asset",
          "type": "address"
        }
      ],
      "name": "disableAutoCompound",
      "outputs": [],
      "stateMutability": "nonpayable",
      "type": "function"
    },
    {
      "inputs": [
        {
          "internalType": "address",
          "name": "token",
          "type": "address"
        },
        {
          "internalType": "uint256",
          "name": "amount",
          "type": "uint256"
        }
      ],
      "name": "emergencyWithdraw",
      "outputs": [],
      "stateMutability": "nonpayable",
      "type": "function"
    },
    {
      "inputs": [
        {
          "internalType": "address",
          "name": "asset",
          "type": "address"
        }
      ],
      "name": "enableAutoCompound",
      "outputs": [],
      "stateMutability": "nonpayable",
      "type": "function"
    },
    {
      "inputs": [
        {
          "internalType": "address",
          "name": "user",
          "type": "address"
        },
        {
          "internalType": "address",
          "name": "asset",
          "type": "address"
        }
      ],
      "name": "getHarvestHistory",
      "outputs": [
        {
          "internalType": "uint256[]",
          "name": "amounts",
          "type": "uint256[]"
        },
        {
          "internalType": "uint256[]",
          "name": "timestamps",
          "type": "uint256[]"
        },
        {
          "internalType": "uint256[]",
          "name": "fees",
          "type": "uint256[]"
        }
      ],
      "stateMutability": "view",
      "type": "function"
    },
    {
      "inputs": [
        {
          "internalType": "address",
          "name": "user",
          "type": "address"
        },
        {
          "internalType": "address",
          "name": "asset",
          "type": "address"
        }
      ],
      "name": "getHarvestableYield",
      "outputs": [
        {
          "internalType": "uint256",
          "name": "",
          "type": "uint256"
        }
      ],
      "stateMutability": "view",
      "type": "function"
    },
    {
      "inputs": [
        {
          "internalType": "address",
          "name": "user",
          "type": "address"
        }
      ],
      "name": "getPendingYieldForAllAssets",
      "outputs": [
        {
          "internalType": "address[]",
          "name": "assets",
          "type": "address[]"
        },
        {
          "internalType": "uint256[]",
          "name": "amounts",
          "type": "uint256[]"
        }
      ],
      "stateMutability": "view",
      "type": "function"
    },
    {
      "inputs": [
        {
          "internalType": "address",
          "name": "asset",
          "type": "address"
        }
      ],
      "name": "getStrategyInfo",
      "outputs": [
        {
          "internalType": "bool",
          "name": "isActive",
          "type": "bool"
        },
        {
          "internalType": "uint256",
          "name": "harvestThreshold",
          "type": "uint256"
        },
        {
          "internalType": "uint256",
          "name": "autoCompoundThreshold",
          "type": "uint256"
        },
        {
          "internalType": "uint256",
          "name": "lastHarvestTime",
          "type": "uint256"
        },
        {
          "internalType": "uint256",
          "name": "totalHarvested",
          "type": "uint256"
        },
        {
          "internalType": "uint256",
          "name": "harvestFee",
          "type": "uint256"
        }
      ],
      "stateMutability": "view",
      "type": "function"
    },
    {
      "inputs": [],
      "name": "getSupportedAssets",
      "outputs": [
        {
          "internalType": "address[]",
          "name": "",
          "type": "address[]"
        }
      ],
      "stateMutability": "view",
      "type": "function"
    },
    {
      "inputs": [
        {
          "internalType": "address",
          "name": "user",
          "type": "address"
        },
        {
          "internalType": "address",
          "name": "asset",
          "type": "address"
        }
      ],
      "name": "getUserYieldInfo",
      "outputs": [
        {
          "internalType": "uint256",
          "name": "pendingYield",
          "type": "uint256"
        },
        {
          "internalType": "uint256",
          "name": "lastHarvestTime",
          "type": "uint256"
        },
        {
          "internalType": "uint256",
          "name": "totalHarvested",
          "type": "uint256"
        },
        {
          "internalType": "bool",
          "name": "autoCompoundEnabled",
          "type": "bool"
        }
      ],
      "stateMutability": "view",
      "type": "function"
    },
    {
      "inputs": [
        {
          "internalType": "address",
          "name": "asset",
          "type": "address"
        }
      ],
      "name": "getYieldAnalytics",
      "outputs": [
        {
          "internalType": "uint256",
          "name": "totalHarvested",
          "type": "uint256"
        },
        {
          "internalType": "uint256",
          "name": "totalUsers",
          "type": "uint256"
        },
        {
          "internalType": "uint256",
          "name": "averageHarvestSize",
          "type": "uint256"
        },
        {
          "internalType": "uint256",
          "name": "lastHarvestTime",
          "type": "uint256"
        }
      ],
      "stateMutability": "view",
      "type": "function"
    },
    {
      "inputs": [
        {
          "internalType": "address",
          "name": "asset",
          "type": "address"
        }
      ],
      "name": "getYieldLeaderboard",
      "outputs": [
        {
          "internalType": "address[]",
          "name": "topHarvesters",
          "type": "address[]"
        },
        {
          "internalType": "uint256[]",
          "name": "amounts",
          "type": "uint256[]"
        }
      ],
      "stateMutability": "view",
      "type": "function"
    },
    {
      "inputs": [
        {
          "internalType": "address",
          "name": "asset",
          "type": "address"
        }
      ],
      "name": "harvestYield",
      "outputs": [],
      "stateMutability": "nonpayable",
      "type": "function"
    },
    {
      "inputs": [],
      "name": "owner",
      "outputs": [
        {
          "internalType": "address",
          "name": "",
          "type": "address"
        }
      ],
      "stateMutability": "view",
      "type": "function"
    },
    {
      "inputs": [],
      "name": "pause",
      "outputs": [],
      "stateMutability": "nonpayable",
      "type": "function"
    },
    {
      "inputs": [
        {
          "internalType": "address",
          "name": "asset",
          "type": "address"
        }
      ],
      "name": "pauseStrategy",
      "outputs": [],
      "stateMutability": "nonpayable",
      "type": "function"
    },
    {
      "inputs": [],
      "name": "paused",
      "outputs": [
        {
          "internalType": "bool",
          "name": "",
          "type": "bool"
        }
      ],
      "stateMutability": "view",
      "type": "function"
    },
    {
      "inputs": [
        {
          "internalType": "address",
          "name": "asset",
          "type": "address"
        }
      ],
      "name": "removeStrategy",
      "outputs": [],
      "stateMutability": "nonpayable",
      "type": "function"
    },
    {
      "inputs": [],
      "name": "renounceOwnership",
      "outputs": [],
      "stateMutability": "nonpayable",
      "type": "function"
    },
    {
      "inputs": [
        {
          "internalType": "address",
          "name": "asset",
          "type": "address"
        }
      ],
      "name": "resumeStrategy",
      "outputs": [],
      "stateMutability": "nonpayable",
      "type": "function"
    },
    {
      "inputs": [
        {
          "internalType": "address",
          "name": "asset",
          "type": "address"
        },
        {
          "internalType": "uint256",
          "name": "frequency",
          "type": "uint256"
        }
      ],
      "name": "setAutoCompoundSchedule",
      "outputs": [],
      "stateMutability": "nonpayable",
      "type": "function"
    },
    {
      "inputs": [
        {
          "internalType": "uint256",
          "name": "newFee",
          "type": "uint256"
        }
      ],
      "name": "setDefaultHarvestFee",
      "outputs": [],
      "stateMutability": "nonpayable",
      "type": "function"
    },
    {
      "inputs": [
        {
          "internalType": "address",
          "name": "asset",
          "type": "address"
        },
        {
          "internalType": "uint256",
          "name": "strategyType",
          "type": "uint256"
        },
        {
          "internalType": "uint256",
          "name": "minInterval",
          "type": "uint256"
        },
        {
          "internalType": "uint256",
          "name": "maxInterval",
          "type": "uint256"
        }
      ],
      "name": "setHarvestStrategy",
      "outputs": [],
      "stateMutability": "nonpayable",
      "type": "function"
    },
    {
      "inputs": [
        {
          "internalType": "address",
          "name": "",
          "type": "address"
        }
      ],
      "name": "supportedAssets",
      "outputs": [
        {
          "internalType": "bool",
          "name": "",
          "type": "bool"
        }
      ],
      "stateMutability": "view",
      "type": "function"
    },
    {
      "inputs": [],
      "name": "totalAssets",
      "outputs": [
        {
          "internalType": "uint256",
          "name": "",
          "type": "uint256"
        }
      ],
      "stateMutability": "view",
      "type": "function"
    },
    {
      "inputs": [
        {
          "internalType": "address",
          "name": "newOwner",
          "type": "address"
        }
      ],
      "name": "transferOwnership",
      "outputs": [],
      "stateMutability": "nonpayable",
      "type": "function"
    },
    {
      "inputs": [],
      "name": "unpause",
      "outputs": [],
      "stateMutability": "nonpayable",
      "type": "function"
    },
    {
      "inputs": [
        {
          "internalType": "address",
          "name": "user",
          "type": "address"
        },
        {
          "internalType": "address",
          "name": "asset",
          "type": "address"
        },
        {
          "internalType": "uint256",
          "name": "newAmount",
          "type": "uint256"
        }
      ],
      "name": "updatePendingYield",
      "outputs": [],
      "stateMutability": "nonpayable",
      "type": "function"
    },
    {
      "inputs": [
        {
          "internalType": "address",
          "name": "asset",
          "type": "address"
        },
        {
          "internalType": "uint256",
          "name": "newHarvestThreshold",
          "type": "uint256"
        },
        {
          "internalType": "uint256",
          "name": "newAutoCompoundThreshold",
          "type": "uint256"
        },
        {
          "internalType": "uint256",
          "name": "newHarvestFee",
          "type": "uint256"
        }
      ],
      "name": "updateStrategy",
      "outputs": [],
      "stateMutability": "nonpayable",
      "type": "function"
    },
    {
      "inputs": [
        {
          "internalType": "address",
          "name": "",
          "type": "address"
        },
        {
          "internalType": "address",
          "name": "",
          "type": "address"
        }
      ],
      "name": "userYields",
      "outputs": [
        {
          "internalType": "address",
          "name": "user",
          "type": "address"
        },
        {
          "internalType": "address",
          "name": "asset",
          "type": "address"
        },
        {
          "internalType": "uint256",
          "name": "pendingYield",
          "type": "uint256"
        },
        {
          "internalType": "uint256",
          "name": "lastHarvestTime",
          "type": "uint256"
        },
        {
          "internalType": "uint256",
          "name": "totalHarvested",
          "type": "uint256"
        },
        {
          "internalType": "bool",
          "name": "autoCompoundEnabled",
          "type": "bool"
        }
      ],
      "stateMutability": "view",
      "type": "function"
    },
    {
      "inputs": [
        {
          "internalType": "address",
          "name": "",
          "type": "address"
        }
      ],
      "name": "yieldStrategies",
      "outputs": [
        {
          "internalType": "address",
          "name": "asset",
          "type": "address"
        },
        {
          "internalType": "bool",
          "name": "isActive",
          "type": "bool"
        },
        {
          "internalType": "uint256",
          "name": "harvestThreshold",
          "type": "uint256"
        },
        {
          "internalType": "uint256",
          "name": "autoCompoundThreshold",
          "type": "uint256"
        },
        {
          "internalType": "uint256",
          "name": "lastHarvestTime",
          "type": "uint256"
        },
        {
          "internalType": "uint256",
          "name": "totalHarvested",
          "type": "uint256"
        },
        {
          "internalType": "uint256",
          "name": "harvestFee",
          "type": "uint256"
        },
        {
          "internalType": "uint256",
          "name": "strategyType",
          "type": "uint256"
        },
        {
          "internalType": "uint256",
          "name": "minHarvestInterval",
          "type": "uint256"
        },
        {
          "internalType": "uint256",
          "name": "maxHarvestInterval",
          "type": "uint256"
        }
      ],
      "stateMutability": "view",
      "type": "function"
    }
  ],
  "bytecode": "0x6080806040523461008957600160005533156100735760018054336001600160a01b03198216811790925560405191906001600160a01b03167f8be0079c531659141344cd1fd0a4f28419497f9722a3daafe3b4186f6b6457e0600080a360646007556000600655611d6a908161008f8239f35b631e4fbdf760e01b815260006004820152602490fd5b600080fdfe608060408181526004908136101561001657600080fd5b600092833560e01c90816301e1d114146117fc5750806302a46dc11461170c578063175188e8146115be5780632a058cac1461155c5780633ee84f44146113c75780633f4ba83a1461135757806354192ad5146112cd5780635c975abb146112a65780635dac26e214611203578063611aa0b9146111e45780636cae667b1461110b5780636d55ebd7146110bc578063715018a61461105f578063726ed0fa1461101957806376be864e14610f975780637b6dd5e414610e7a5780637c5e85ed14610e1f5780638456cb5914610dbe5780638d875f8114610d4d5780638da5cb5b14610d24578063933f8de514610c9c57806395ccea6714610c5c5780639e83d6b714610c27578063a0b4b30114610be3578063a3562c1914610a0e578063b08c792a146107a3578063b4a2d79614610773578063bd81579e14610736578063bec8b2fc14610692578063c54175a3146104db578063d3f6b5981461047f578063e5406dbf146103e6578063eb7ad25914610358578063ee5c8821146102d6578063f2fde38b146102465763f387147a146101b057600080fd5b34610242577f82637292acd12f1caf620de45882033b9993bca23b1bda6ae2faf272d3e52d3d6101df3661198e565b93916101e96119c3565b6001600160a01b039182168088526020969096528287205461020d9060ff16611ab4565b16928386526003602052818620858752602052600282872001610231828254611b38565b90558151908152426020820152a380f35b8280fd5b50903461024257602036600319011261024257610261611818565b9061026a6119c3565b6001600160a01b039182169283156102c0575050600154826bffffffffffffffffffffffff60a01b821617600155167f8be0079c531659141344cd1fd0a4f28419497f9722a3daafe3b4186f6b6457e08380a380f35b51631e4fbdf760e01b8152908101849052602490fd5b5034610242576002906102e83661198e565b949060018060a01b0392838092169283895260205261030c60ff868a205416611ab4565b16928387526003602052808720828852602052862092835492831615610335575b505050015580f35b6001600160a01b031992831617835560018301805490921617905538808061032d565b508290346103e257806003193601126103e25760c09281610377611818565b93610380611833565b60018060a01b03809616825260036020528583832091168252602052209083825416936001830154169260028301549060ff600560038601549486015495015416948151968752602087015285015260608401526080830152151560a0820152f35b5080fd5b8382346103e257816003193601126103e25780519081809360055490818552602080950191600582527f036b6384b5eca791c62761152d0c79bb0604c104a5fb6f4eb0703f3154bb3db0915b8682821061045f57859061045b8861044c84890385611a6d565b51928284938452830190611877565b0390f35b83546001600160a01b031685528895509093019260019283019201610432565b5090346102425760203660031901126102425761049a611818565b6104a26119c3565b6001600160a01b0316808452602091909152818320546104c49060ff16611ab4565b825260026020528120805460ff60a01b1916905580f35b508290346103e25760209081600319360112610242576104f9611818565b90610502611c08565b61050a611be7565b6001600160a01b03828116808652868552828620549094919061052f9060ff16611ab4565b8486526002825282862061054960ff825460a01c16611af6565b3387526003835283872086885283526105658488209533611c2b565b906001810154821061064f57600581015480830290838204148315171561063c5761271090049182810396818811610629578a8a9b827f9b2ae181b62ccbc7d7452521c51ce9ee0fb03e52c897554442995cb8180200889a9b9c60026105e5950155426003820155016105d98b8254611b38565b90558301918254611b38565b90556003429101556105f8863389611b45565b80610614575b5050815193845242908401523392a36001815580f35b610622916001541687611b45565b86806105fe565b634e487b7160e01b8a5260118b5260248afd5b634e487b7160e01b895260118a52602489fd5b845162461bcd60e51b8152808a01859052601760248201527f42656c6f772068617276657374207468726573686f6c640000000000000000006044820152606490fd5b509190346103e25760203660031901126103e257610140926001600160a01b03928190846106be611818565b168152600260205220908154926001830154906002840154906003850154908501549160058601549360068701549560ff600860078a01549901549982519b81168c5260a01c16151560208b01528901526060880152608087015260a086015260c085015260e0840152610100830152610120820152f35b5090346102425760203660031901126102425760209260ff918391906001600160a01b03610762611818565b168252855220541690519015158152f35b5050346103e25760203660031901126103e2573561078f6119c3565b61079d6103e8821115611c77565b60075580f35b508290346103e25760603660031901126103e2576107bf611818565b906024356044356107ce6119c3565b6001600160a01b038481169485156109d35785875260209188835260ff8689205416610990576107ff8515156119ef565b600754865191610140830183811067ffffffffffffffff82111761097d5789928987938d938252858752848701600181528288018c815260608901918c835260808a019342855260a08b019588875260c08c0197885260e08c019860018a526101008d019a8d610e108d52610120019c620151808e52825260029052209a51168a549160ff60a01b9051151560a01b16916affffffffffffffffffffff60a81b1617178955516001890155516002880155516003870155518d86015551600585015551600684015551600783015551906008015587825284872060ff1981541660011790556005546801000000000000000081101561096a577fdfd855c2dbb3a3046977569f048ed5065865c2af4f8dd8f97896543dbba6149696979850906109318260016109509401600555611910565b90919082549060031b9160018060a01b03809116831b921b1916179055565b61095b600654611a8f565b6006558351928352820152a280f35b634e487b7160e01b885260418952602488fd5b634e487b7160e01b8b5260418c5260248bfd5b855162461bcd60e51b8152808a01849052601760248201527f537472617465677920616c7265616479206578697374730000000000000000006044820152606490fd5b845162461bcd60e51b81526020818a01526015602482015274496e76616c6964206173736574206164647265737360581b6044820152606490fd5b5090346102425760603660031901126102425767ffffffffffffffff908035828111610bdf57610a41903690830161195d565b9091602435848111610bdb57610a5a903690830161195d565b959094604435908111610bd757610a74903690840161195d565b9095610a7e6119c3565b87851480610bce575b15610b925788805b868110610a9a575080f35b8881898989898f978a8a610aed9a60018060a01b039687610ac4610abf8c8587611cb2565b611cc2565b168552602098878a5260ff91828888205416610af4575b50505050505050505050505050611a8f565b8990610a8f565b8b8a96610b1c610abf60029f610b3598610b16610abf83610b22998f9b611cb2565b9a611cb2565b9e611cb2565b359b169687865289528585205416611ab4565b16948582526003815282822090848352522092835492831615610b6f575b505050015588813880898f8f908a8f8f93868f95928e93610adb565b6001600160a01b0319928316178355600183018054909216179055388080610b53565b825162461bcd60e51b81526020818601526016602482015275082e4e4c2f240d8cadccee8d0e640dad2e6dac2e8c6d60531b6044820152606490fd5b50818814610a87565b8780fd5b8680fd5b8480fd5b509034610242576020366003190112610242573591600554831015610c245750610c0e602092611910565b905491519160018060a01b039160031b1c168152f35b80fd5b8382346103e257806003193601126103e257602090610c55610c47611818565b610c4f611833565b90611c2b565b9051908152f35b8382346103e257366003190112610c2457610c99610c78611818565b610c806119c3565b600154602435916001600160a01b039182169116611b45565b80f35b8382346103e257806003193601126103e2579061045b610d0992610cbe611818565b50610cc7611833565b50805192610cd484611a3b565b808452610d178251610ce581611a3b565b828152835192610cf484611a3b565b835283519687966060885260608801906118b4565b9086820360208801526118b4565b91848303908501526118b4565b8382346103e257816003193601126103e25760015490516001600160a01b039091168152602090f35b50903461024257816003193601126102425781608093610d6b611818565b610d73611833565b9060018060a01b0380911683526003602052838320911682526020522060028101549260ff600560038401549484015493015416928151948552602085015283015215156060820152f35b8382346103e257816003193601126103e25760207f62e78cea01bee320cd4e420270b5ea74000d11b0c9f74754ebdbfc544b05a25891610dfc6119c3565b610e04611be7565b6001805460ff60a01b1916600160a01b17905551338152a180f35b5034610242576020366003190112610242576005916001600160a01b03610e44611818565b1690818552602052610e5b60ff8386205416611ab4565b338452600360205281842090845260205282200160ff19815416905580f35b508234610c24576020366003190112610c2457610e95611818565b918180600554915b828110610f4b5750610eb7610eb185611cee565b94611cee565b94815b838110610ecf5784518061045b8989836118e8565b610ed881611910565b90546003916001600160a01b0391610ef591841b1c821685611c2b565b9182610f0d575b505050610f0890611a8f565b610eba565b91839591610f4293610f21610f0896611910565b9054911b1c16610f31838b611d20565b52610f3c828b611d20565b52611a8f565b92908880610efc565b610f6f610f5782611910565b905460039190911b1c6001600160a01b031687611c2b565b610f82575b610f7d90611a8f565b610e9d565b93610f8f610f7d91611a8f565b949050610f74565b5034610242576020366003190112610242576001600160a01b03610fb9611818565b1691828452602052610fd060ff8285205416611ab4565b338352600360205280832082845260205282209060058201600160ff1982541617905560016bffffffffffffffffffffffff60a01b923384825416178155019182541617905580f35b8382346103e25760203660031901126103e257611034611818565b5061045b81519161104483611a3b565b83835280519361105385611a3b565b845251928392836118e8565b8334610c245780600319360112610c24576110786119c3565b600180546001600160a01b0319811690915581906001600160a01b03167f8be0079c531659141344cd1fd0a4f28419497f9722a3daafe3b4186f6b6457e08280a380f35b5034610242576020366003190112610242576080926001600160a01b036110e1611818565b16815260026020526003828220938401549301549180519384528160208501528301526060820152f35b5034610242578060031936011261024257611124611818565b6001600160a01b0316808452602083905281842054602435939061114a9060ff16611ab4565b610e1084106111ad5762093a8084116111755750835260026020528220600781018290556008015580f35b606490602084519162461bcd60e51b8352820152601260248201527108ce4cae2eacadcc6f240e8dede40d0d2ced60731b6044820152fd5b606490602084519162461bcd60e51b835282015260116024820152704672657175656e637920746f6f206c6f7760781b6044820152fd5b8382346103e257816003193601126103e2576020906007549051908152f35b5034610242577f36535b0d6c4df3e3f4a1bd7a4c8214552b30ab0d1ad28d4d9fefe157a7777c0e90600561123636611849565b9290839294916112446119c3565b6001600160a01b0316808a52602098909852858920546112669060ff16611ab4565b6112718515156119ef565b61127f6103e8841115611c77565b8789526002602052858920908560018301556002820155015582519182526020820152a280f35b8382346103e257816003193601126103e25760209060ff60015460a01c1690519015158152f35b50346102425760203660031901126102425760c09281906001600160a01b036112f4611818565b168082528460205261130b60ff8484205416611ab4565b815260026020522080549260018201549260028301549060056003850154938501549401549460ff82519760a01c161515875260208701528501526060840152608083015260a0820152f35b5090346102425782600319360112610242576113716119c3565b6001549060ff8260a01c16156113b9575060ff60a01b1916600155513381527f5db9ee0a495bf2e6ff9c91a7834c1ba4fdd244a5e8aa4e537bd38aeae4b073aa90602090a180f35b8251638dfc202b60e01b8152fd5b50346102425760209081600319360112611558576113e3611818565b916113ec611c08565b6113f4611be7565b6001600160a01b038316808652848252828620549094906114179060ff16611ab4565b848652600282528286209361143260ff865460a01c16611af6565b3387526003835283872086885283528387209060ff600583015416156115155761145c9033611c2b565b94600281015486106114d257907f937e065b27201f762309b7d75e6b0828771d9089b6c10cb51c706e875e3b3f14949392918860028301554260038301558281016114a8888254611b38565b9055600342910155016114bc858254611b38565b9055815193845242908401523392a36001815580f35b845162461bcd60e51b8152808401859052601d60248201527f42656c6f77206175746f2d636f6d706f756e64207468726573686f6c640000006044820152606490fd5b845162461bcd60e51b8152808401859052601960248201527f4175746f2d636f6d706f756e64206e6f7420656e61626c6564000000000000006044820152606490fd5b8380fd5b50903461024257602036600319011261024257611577611818565b61157f6119c3565b6001600160a01b0316808452602091909152818320546115a19060ff16611ab4565b825260026020528120805460ff60a01b1916600160a01b17905580f35b509034610242576020366003190112610242576115d9611818565b6115e16119c3565b60018060a01b03809116928385528260205261160260ff8287205416611ab4565b8385526020838152818620805460ff19169055600290528420805460ff60a01b19169055835b6005805480831015611701579083918661164185611910565b949054600395861b1c16146116615750505061165c90611a8f565b611628565b919495509291600019918281019081116116ee57906109318461168661169394611910565b905490891b1c1691611910565b825480156116db5701926116a684611910565b81939154921b1b19169055555b6006549081156116c857506000190160065580f35b634e487b7160e01b835260119052602482fd5b634e487b7160e01b875260318652602487fd5b634e487b7160e01b885260118752602488fd5b5050505090506116b3565b509190346103e25761171d36611849565b939091926117296119c3565b60018060a01b0316908186528060205261174860ff8888205416611ab4565b6001841015806117f1575b156117b65784831161177f57509484956008949552600260205285209160068301556007820155015580f35b606490602088519162461bcd60e51b83528201526011602482015270496e76616c696420696e74657276616c7360781b6044820152fd5b606490602088519162461bcd60e51b83528201526015602482015274496e76616c6964207374726174656779207479706560581b6044820152fd5b506003841115611753565b8490346103e257816003193601126103e2576020906006548152f35b600435906001600160a01b038216820361182e57565b600080fd5b602435906001600160a01b038216820361182e57565b608090600319011261182e576004356001600160a01b038116810361182e5790602435906044359060643590565b90815180825260208080930193019160005b828110611897575050505090565b83516001600160a01b031685529381019392810192600101611889565b90815180825260208080930193019160005b8281106118d4575050505090565b8351855293810193928101926001016118c6565b90916118ff61190d93604084526040840190611877565b9160208184039101526118b4565b90565b6005548110156119475760056000527f036b6384b5eca791c62761152d0c79bb0604c104a5fb6f4eb0703f3154bb3db00190600090565b634e487b7160e01b600052603260045260246000fd5b9181601f8401121561182e5782359167ffffffffffffffff831161182e576020808501948460051b01011161182e57565b606090600319011261182e576001600160a01b0390600435828116810361182e5791602435908116810361182e579060443590565b6001546001600160a01b031633036119d757565b60405163118cdaa760e01b8152336004820152602490fd5b156119f657565b60405162461bcd60e51b815260206004820152601960248201527f496e76616c69642068617276657374207468726573686f6c64000000000000006044820152606490fd5b6020810190811067ffffffffffffffff821117611a5757604052565b634e487b7160e01b600052604160045260246000fd5b90601f8019910116810190811067ffffffffffffffff821117611a5757604052565b6000198114611a9e5760010190565b634e487b7160e01b600052601160045260246000fd5b15611abb57565b60405162461bcd60e51b8152602060048201526013602482015272105cdcd95d081b9bdd081cdd5c1c1bdc9d1959606a1b6044820152606490fd5b15611afd57565b60405162461bcd60e51b81526020600482015260136024820152725374726174656779206e6f742061637469766560681b6044820152606490fd5b91908201809211611a9e57565b60405163a9059cbb60e01b602082019081526001600160a01b0393841660248301526044808301959095529381529092608082019067ffffffffffffffff821183831017611a5757602092600092604052519082865af115611bdb576000513d611bd257508082163b155b611bb8575050565b604051635274afe760e01b81529116600482015260249150fd5b60011415611bb0565b6040513d6000823e3d90fd5b60ff60015460a01c16611bf657565b60405163d93c066560e01b8152600490fd5b600260005414611c19576002600055565b604051633ee5aeb560e01b8152600490fd5b6001600160a01b03918216600081815260046020526040812054909391929060ff1615611c71579160029391604093168252600360205282822090825260205220015490565b50505090565b15611c7e57565b60405162461bcd60e51b815260206004820152600c60248201526b08ccaca40e8dede40d0d2ced60a31b6044820152606490fd5b91908110156119475760051b0190565b356001600160a01b038116810361182e5790565b67ffffffffffffffff8111611a575760051b60200190565b90611cf882611cd6565b611d056040519182611a6d565b8281528092611d16601f1991611cd6565b0190602036910137565b80518210156119475760209160051b01019056fea26469706673582212207b85cabee88250a8fec489d1abebefcd7a3d92bf323f8871c30ca57911ca1a6764736f6c63430008140033",
  "linkReferences": {},
  "deployedLinkReferences": {}
}