{
  "_format": "hh-sol-artifact-1",
  "contractName": "YieldToken",
  "sourceName": "contracts/core/YieldToken.sol",
  "abi": [
    {
      "inputs": [
        {
          "internalType": "string",
          "name": "_name",
          "type": "string"
        },
        {
          "internalType": "string",
          "name": "_symbol",
          "type": "string"
        },
        {
          "internalType": "address",
          "name": "_underlying",
          "type": "address"
        },
        {
          "internalType": "uint256",
          "name": "_maturity",
          "type": "uint256"
        }
      ],
      "stateMutability": "nonpayable",
      "type": "constructor"
    },
    {
      "inputs": [
        {
          "internalType": "address",
          "name": "spender",
          "type": "address"
        },
        {
          "internalType": "uint256",
          "name": "allowance",
          "type": "uint256"
        },
        {
          "internalType": "uint256",
          "name": "needed",
          "type": "uint256"
        }
      ],
      "name": "ERC20InsufficientAllowance",
      "type": "error"
    },
    {
      "inputs": [
        {
          "internalType": "address",
          "name": "sender",
          "type": "address"
        },
        {
          "internalType": "uint256",
          "name": "balance",
          "type": "uint256"
        },
        {
          "internalType": "uint256",
          "name": "needed",
          "type": "uint256"
        }
      ],
      "name": "ERC20InsufficientBalance",
      "type": "error"
    },
    {
      "inputs": [
        {
          "internalType": "address",
          "name": "approver",
          "type": "address"
        }
      ],
      "name": "ERC20InvalidApprover",
      "type": "error"
    },
    {
      "inputs": [
        {
          "internalType": "address",
          "name": "receiver",
          "type": "address"
        }
      ],
      "name": "ERC20InvalidReceiver",
      "type": "error"
    },
    {
      "inputs": [
        {
          "internalType": "address",
          "name": "sender",
          "type": "address"
        }
      ],
      "name": "ERC20InvalidSender",
      "type": "error"
    },
    {
      "inputs": [
        {
          "internalType": "address",
          "name": "spender",
          "type": "address"
        }
      ],
      "name": "ERC20InvalidSpender",
      "type": "error"
    },
    {
      "inputs": [
        {
          "internalType": "address",
          "name": "owner",
          "type": "address"
        }
      ],
      "name": "OwnableInvalidOwner",
      "type": "error"
    },
    {
      "inputs": [
        {
          "internalType": "address",
          "name": "account",
          "type": "address"
        }
      ],
      "name": "OwnableUnauthorizedAccount",
      "type": "error"
    },
    {
      "inputs": [
        {
          "internalType": "address",
          "name": "token",
          "type": "address"
        }
      ],
      "name": "SafeERC20FailedOperation",
      "type": "error"
    },
    {
      "anonymous": false,
      "inputs": [
        {
          "indexed": true,
          "internalType": "address",
          "name": "owner",
          "type": "address"
        },
        {
          "indexed": true,
          "internalType": "address",
          "name": "spender",
          "type": "address"
        },
        {
          "indexed": false,
          "internalType": "uint256",
          "name": "value",
          "type": "uint256"
        }
      ],
      "name": "Approval",
      "type": "event"
    },
    {
      "anonymous": false,
      "inputs": [
        {
          "indexed": true,
          "internalType": "address",
          "name": "user",
          "type": "address"
        },
        {
          "indexed": false,
          "internalType": "uint256",
          "name": "amount",
          "type": "uint256"
        },
        {
          "indexed": false,
          "internalType": "string",
          "name": "operation",
          "type": "string"
        }
      ],
      "name": "FeesCollected",
      "type": "event"
    },
    {
      "anonymous": false,
      "inputs": [
        {
          "indexed": true,
          "internalType": "address",
          "name": "previousOwner",
          "type": "address"
        },
        {
          "indexed": true,
          "internalType": "address",
          "name": "newOwner",
          "type": "address"
        }
      ],
      "name": "OwnershipTransferred",
      "type": "event"
    },
    {
      "anonymous": false,
      "inputs": [
        {
          "indexed": true,
          "internalType": "address",
          "name": "from",
          "type": "address"
        },
        {
          "indexed": true,
          "internalType": "address",
          "name": "to",
          "type": "address"
        },
        {
          "indexed": false,
          "internalType": "uint256",
          "name": "value",
          "type": "uint256"
        }
      ],
      "name": "Transfer",
      "type": "event"
    },
    {
      "anonymous": false,
      "inputs": [
        {
          "indexed": true,
          "internalType": "address",
          "name": "user",
          "type": "address"
        },
        {
          "indexed": false,
          "internalType": "uint256",
          "name": "amount",
          "type": "uint256"
        },
        {
          "indexed": false,
          "internalType": "uint256",
          "name": "timestamp",
          "type": "uint256"
        }
      ],
      "name": "YieldAccrued",
      "type": "event"
    },
    {
      "anonymous": false,
      "inputs": [
        {
          "indexed": true,
          "internalType": "address",
          "name": "user",
          "type": "address"
        },
        {
          "indexed": false,
          "internalType": "uint256",
          "name": "amount",
          "type": "uint256"
        },
        {
          "indexed": false,
          "internalType": "uint256",
          "name": "fee",
          "type": "uint256"
        }
      ],
      "name": "YieldClaimed",
      "type": "event"
    },
    {
      "inputs": [],
      "name": "BASIS_POINTS",
      "outputs": [
        {
          "internalType": "uint256",
          "name": "",
          "type": "uint256"
        }
      ],
      "stateMutability": "view",
      "type": "function"
    },
    {
      "inputs": [
        {
          "internalType": "address",
          "name": "_user",
          "type": "address"
        }
      ],
      "name": "accrueYield",
      "outputs": [],
      "stateMutability": "nonpayable",
      "type": "function"
    },
    {
      "inputs": [
        {
          "internalType": "address",
          "name": "owner",
          "type": "address"
        },
        {
          "internalType": "address",
          "name": "spender",
          "type": "address"
        }
      ],
      "name": "allowance",
      "outputs": [
        {
          "internalType": "uint256",
          "name": "",
          "type": "uint256"
        }
      ],
      "stateMutability": "view",
      "type": "function"
    },
    {
      "inputs": [
        {
          "internalType": "address",
          "name": "spender",
          "type": "address"
        },
        {
          "internalType": "uint256",
          "name": "value",
          "type": "uint256"
        }
      ],
      "name": "approve",
      "outputs": [
        {
          "internalType": "bool",
          "name": "",
          "type": "bool"
        }
      ],
      "stateMutability": "nonpayable",
      "type": "function"
    },
    {
      "inputs": [
        {
          "internalType": "address",
          "name": "account",
          "type": "address"
        }
      ],
      "name": "balanceOf",
      "outputs": [
        {
          "internalType": "uint256",
          "name": "",
          "type": "uint256"
        }
      ],
      "stateMutability": "view",
      "type": "function"
    },
    {
      "inputs": [],
      "name": "claimYield",
      "outputs": [
        {
          "internalType": "uint256",
          "name": "claimedAmount",
          "type": "uint256"
        }
      ],
      "stateMutability": "nonpayable",
      "type": "function"
    },
    {
      "inputs": [],
      "name": "decimals",
      "outputs": [
        {
          "internalType": "uint8",
          "name": "",
          "type": "uint8"
        }
      ],
      "stateMutability": "view",
      "type": "function"
    },
    {
      "inputs": [
        {
          "internalType": "uint256",
          "name": "_amount",
          "type": "uint256"
        }
      ],
      "name": "emergencyBurn",
      "outputs": [],
      "stateMutability": "nonpayable",
      "type": "function"
    },
    {
      "inputs": [
        {
          "internalType": "address",
          "name": "_token",
          "type": "address"
        },
        {
          "internalType": "uint256",
          "name": "_amount",
          "type": "uint256"
        }
      ],
      "name": "emergencyWithdraw",
      "outputs": [],
      "stateMutability": "nonpayable",
      "type": "function"
    },
    {
      "inputs": [],
      "name": "feeConfig",
      "outputs": [
        {
          "internalType": "uint256",
          "name": "claimFee",
          "type": "uint256"
        },
        {
          "internalType": "uint256",
          "name": "transferFee",
          "type": "uint256"
        },
        {
          "internalType": "uint256",
          "name": "yieldFee",
          "type": "uint256"
        },
        {
          "internalType": "address",
          "name": "feeCollector",
          "type": "address"
        }
      ],
      "stateMutability": "view",
      "type": "function"
    },
    {
      "inputs": [
        {
          "internalType": "address",
          "name": "_user",
          "type": "address"
        }
      ],
      "name": "getClaimableYield",
      "outputs": [
        {
          "internalType": "uint256",
          "name": "",
          "type": "uint256"
        }
      ],
      "stateMutability": "view",
      "type": "function"
    },
    {
      "inputs": [],
      "name": "getCurrentAPY",
      "outputs": [
        {
          "internalType": "uint256",
          "name": "",
          "type": "uint256"
        }
      ],
      "stateMutability": "view",
      "type": "function"
    },
    {
      "inputs": [],
      "name": "getTimeToMaturity",
      "outputs": [
        {
          "internalType": "uint256",
          "name": "",
          "type": "uint256"
        }
      ],
      "stateMutability": "view",
      "type": "function"
    },
    {
      "inputs": [],
      "name": "getTotalYieldAccrued",
      "outputs": [
        {
          "internalType": "uint256",
          "name": "",
          "type": "uint256"
        }
      ],
      "stateMutability": "view",
      "type": "function"
    },
    {
      "inputs": [
        {
          "internalType": "address",
          "name": "_user",
          "type": "address"
        }
      ],
      "name": "getUserAPY",
      "outputs": [
        {
          "internalType": "uint256",
          "name": "",
          "type": "uint256"
        }
      ],
      "stateMutability": "view",
      "type": "function"
    },
    {
      "inputs": [
        {
          "internalType": "address",
          "name": "_user",
          "type": "address"
        }
      ],
      "name": "getYieldStats",
      "outputs": [
        {
          "internalType": "uint256",
          "name": "claimableYield",
          "type": "uint256"
        },
        {
          "internalType": "uint256",
          "name": "totalAccrued",
          "type": "uint256"
        },
        {
          "internalType": "uint256",
          "name": "lastUpdate",
          "type": "uint256"
        },
        {
          "internalType": "uint256",
          "name": "userRate",
          "type": "uint256"
        }
      ],
      "stateMutability": "view",
      "type": "function"
    },
    {
      "inputs": [],
      "name": "lastUpdateTime",
      "outputs": [
        {
          "internalType": "uint256",
          "name": "",
          "type": "uint256"
        }
      ],
      "stateMutability": "view",
      "type": "function"
    },
    {
      "inputs": [],
      "name": "marketManager",
      "outputs": [
        {
          "internalType": "address",
          "name": "",
          "type": "address"
        }
      ],
      "stateMutability": "view",
      "type": "function"
    },
    {
      "inputs": [],
      "name": "maturity",
      "outputs": [
        {
          "internalType": "uint256",
          "name": "",
          "type": "uint256"
        }
      ],
      "stateMutability": "view",
      "type": "function"
    },
    {
      "inputs": [
        {
          "internalType": "address",
          "name": "_to",
          "type": "address"
        },
        {
          "internalType": "uint256",
          "name": "_amount",
          "type": "uint256"
        }
      ],
      "name": "mint",
      "outputs": [],
      "stateMutability": "nonpayable",
      "type": "function"
    },
    {
      "inputs": [],
      "name": "name",
      "outputs": [
        {
          "internalType": "string",
          "name": "",
          "type": "string"
        }
      ],
      "stateMutability": "view",
      "type": "function"
    },
    {
      "inputs": [],
      "name": "owner",
      "outputs": [
        {
          "internalType": "address",
          "name": "",
          "type": "address"
        }
      ],
      "stateMutability": "view",
      "type": "function"
    },
    {
      "inputs": [],
      "name": "renounceOwnership",
      "outputs": [],
      "stateMutability": "nonpayable",
      "type": "function"
    },
    {
      "inputs": [
        {
          "internalType": "address",
          "name": "_syToken",
          "type": "address"
        },
        {
          "internalType": "address",
          "name": "_tokenOperations",
          "type": "address"
        }
      ],
      "name": "setSYTokenAndTokenOperations",
      "outputs": [],
      "stateMutability": "nonpayable",
      "type": "function"
    },
    {
      "inputs": [
        {
          "internalType": "address",
          "name": "_user",
          "type": "address"
        },
        {
          "internalType": "uint256",
          "name": "_newRate",
          "type": "uint256"
        }
      ],
      "name": "setUserYieldRate",
      "outputs": [],
      "stateMutability": "nonpayable",
      "type": "function"
    },
    {
      "inputs": [
        {
          "internalType": "uint256",
          "name": "_newRate",
          "type": "uint256"
        }
      ],
      "name": "setYieldRate",
      "outputs": [],
      "stateMutability": "nonpayable",
      "type": "function"
    },
    {
      "inputs": [],
      "name": "syToken",
      "outputs": [
        {
          "internalType": "address",
          "name": "",
          "type": "address"
        }
      ],
      "stateMutability": "view",
      "type": "function"
    },
    {
      "inputs": [],
      "name": "symbol",
      "outputs": [
        {
          "internalType": "string",
          "name": "",
          "type": "string"
        }
      ],
      "stateMutability": "view",
      "type": "function"
    },
    {
      "inputs": [],
      "name": "totalSupply",
      "outputs": [
        {
          "internalType": "uint256",
          "name": "",
          "type": "uint256"
        }
      ],
      "stateMutability": "view",
      "type": "function"
    },
    {
      "inputs": [],
      "name": "totalYieldAccrued",
      "outputs": [
        {
          "internalType": "uint256",
          "name": "",
          "type": "uint256"
        }
      ],
      "stateMutability": "view",
      "type": "function"
    },
    {
      "inputs": [
        {
          "internalType": "address",
          "name": "to",
          "type": "address"
        },
        {
          "internalType": "uint256",
          "name": "value",
          "type": "uint256"
        }
      ],
      "name": "transfer",
      "outputs": [
        {
          "internalType": "bool",
          "name": "",
          "type": "bool"
        }
      ],
      "stateMutability": "nonpayable",
      "type": "function"
    },
    {
      "inputs": [
        {
          "internalType": "address",
          "name": "from",
          "type": "address"
        },
        {
          "internalType": "address",
          "name": "to",
          "type": "address"
        },
        {
          "internalType": "uint256",
          "name": "value",
          "type": "uint256"
        }
      ],
      "name": "transferFrom",
      "outputs": [
        {
          "internalType": "bool",
          "name": "",
          "type": "bool"
        }
      ],
      "stateMutability": "nonpayable",
      "type": "function"
    },
    {
      "inputs": [
        {
          "internalType": "address",
          "name": "newOwner",
          "type": "address"
        }
      ],
      "name": "transferOwnership",
      "outputs": [],
      "stateMutability": "nonpayable",
      "type": "function"
    },
    {
      "inputs": [],
      "name": "underlying",
      "outputs": [
        {
          "internalType": "address",
          "name": "",
          "type": "address"
        }
      ],
      "stateMutability": "view",
      "type": "function"
    },
    {
      "inputs": [
        {
          "internalType": "uint256",
          "name": "_claimFee",
          "type": "uint256"
        },
        {
          "internalType": "uint256",
          "name": "_transferFee",
          "type": "uint256"
        },
        {
          "internalType": "uint256",
          "name": "_yieldFee",
          "type": "uint256"
        },
        {
          "internalType": "address",
          "name": "_feeCollector",
          "type": "address"
        }
      ],
      "name": "updateFeeConfig",
      "outputs": [],
      "stateMutability": "nonpayable",
      "type": "function"
    },
    {
      "inputs": [
        {
          "internalType": "address",
          "name": "",
          "type": "address"
        }
      ],
      "name": "userLastUpdateTime",
      "outputs": [
        {
          "internalType": "uint256",
          "name": "",
          "type": "uint256"
        }
      ],
      "stateMutability": "view",
      "type": "function"
    },
    {
      "inputs": [
        {
          "internalType": "address",
          "name": "",
          "type": "address"
        }
      ],
      "name": "userYieldAccrued",
      "outputs": [
        {
          "internalType": "uint256",
          "name": "",
          "type": "uint256"
        }
      ],
      "stateMutability": "view",
      "type": "function"
    },
    {
      "inputs": [
        {
          "internalType": "address",
          "name": "",
          "type": "address"
        }
      ],
      "name": "userYieldRate",
      "outputs": [
        {
          "internalType": "uint256",
          "name": "",
          "type": "uint256"
        }
      ],
      "stateMutability": "view",
      "type": "function"
    },
    {
      "inputs": [],
      "name": "yieldRate",
      "outputs": [
        {
          "internalType": "uint256",
          "name": "",
          "type": "uint256"
        }
      ],
      "stateMutability": "view",
      "type": "function"
    }
  ],
  "bytecode": "0x604060c08152346200042f5762001b2a803803806200001e8162000434565b92833981016080828203126200042f5781516001600160401b0391908281116200042f5781620000509185016200045a565b9160209182850151908282116200042f576200006e9186016200045a565b848601516001600160a01b039591949186821682036200042f57606001519180518481116200032f5760038054916001938484811c9416801562000424575b898510146200040e578190601f94858111620003b8575b508990858311600114620003515760009262000345575b505060001982841b1c191690841b1781555b8751918683116200032f5760049889548581811c9116801562000324575b8a8210146200030f57828111620002c4575b508891841160011462000259579383949184926000956200024d575b50501b92600019911b1c19161785555b33156200023657600580546001600160a01b03198082163390811790935597167f8be0079c531659141344cd1fd0a4f28419497f9722a3daafe3b4186f6b6457e0600080a360805260a052426009556101f4600a55845192608084019184831090831117620002215750906032918552606483528201526032838201526060339101526064600e556032600f556032601055339060115416176011555161165d9081620004cd82396080518181816108af0152610b09015260a051818181610a2a01528181610e4e0152818161132701526115ef0152f35b604190634e487b7160e01b6000525260246000fd5b8651631e4fbdf760e01b8152600081870152602490fd5b01519350388062000139565b9190601f198416928a600052848a6000209460005b8c89838310620002ac575050501062000291575b50505050811b01855562000149565b01519060f884600019921b161c191690553880808062000282565b8686015189559097019694850194889350016200026e565b8a600052896000208380870160051c8201928c881062000305575b0160051c019086905b828110620002f85750506200011d565b60008155018690620002e8565b92508192620002df565b60228b634e487b7160e01b6000525260246000fd5b90607f16906200010b565b634e487b7160e01b600052604160045260246000fd5b015190503880620000db565b90869350601f19831691856000528b6000209260005b8d828210620003a1575050841162000388575b505050811b018155620000ed565b015160001983861b60f8161c191690553880806200037a565b8385015186558a9790950194938401930162000367565b90915083600052896000208580850160051c8201928c861062000404575b918891869594930160051c01915b828110620003f4575050620000c4565b60008155859450889101620003e4565b92508192620003d6565b634e487b7160e01b600052602260045260246000fd5b93607f1693620000ad565b600080fd5b6040519190601f01601f191682016001600160401b038111838210176200032f57604052565b919080601f840112156200042f5782516001600160401b0381116200032f5760209062000490601f8201601f1916830162000434565b928184528282870101116200042f5760005b818110620004b857508260009394955001015290565b8581018301518482018401528201620004a256fe6080604081815260048036101561001557600080fd5b600092833560e01c90816302b56ba3146110dd5750806306fdde0314610fe9578063084fa74e14610fc7578063095ea7b314610f1e5780630cc0143614610f015780631411dab014610ed157806318160ddd14610eb25780631e5eb1d014610e71578063204f83f914610e3657806323b872dd14610d43578063287b448d14610d1a578063313ce56714610cfe5780633660106e14610cb5578063406cf22914610a1357806340c10f1914610952578063416a1c481461090757806341ed2c12146108de5780636999ac93146105eb5780636f307dc31461089a57806370a0823114610863578063715018a61461080657806379f87e53146107af5780638107368b146107775780638da5cb5b1461074e57806395ccea671461070e57806395d89b411461060a578063962ca496146105eb578063a9059cbb146105ba578063ab0fbc4714610520578063c8f33c9114610501578063ca61dab2146104c9578063d4b5966814610491578063d7f91f31146103d1578063dd62ed3e14610388578063dfff8568146102ca578063e1f1c4a7146102ad578063ec797fc214610280578063ee6c3bf21461025d5763f2fde38b146101d057600080fd5b34610259576020366003190112610259576101e9611142565b906101f2611173565b6001600160a01b03918216928315610243575050600554826001600160601b0360a01b821617600555167f8be0079c531659141344cd1fd0a4f28419497f9722a3daafe3b4186f6b6457e08380a380f35b51631e4fbdf760e01b8152908101849052602490fd5b8280fd5b50503461027c578160031936011261027c576020906008549051908152f35b5080fd5b50503461027c57602036600319011261027c576020906102a66102a1611142565b611589565b9051908152f35b50503461027c578160031936011261027c57602090516127108152f35b5091903461027c57602036600319011261027c578235906102e9611173565b33156103725733835282602052808320549382851061034757508183943385528460205203818420558160025403600255519081527fddf252ad1be2c89b69c2b068fc378daa952ba7f163c4a11628f55a4df523b3ef60203392a380f35b905163391434e360e21b81523391810191825260208201859052604082018390529081906060010390fd5b51634b637e8f60e11b8152808401839052602490fd5b50503461027c578060031936011261027c57806020926103a6611142565b6103ae61115d565b6001600160a01b0391821683526001865283832091168252845220549051908152f35b50823461048e576020908160031936011261048e576103ee611142565b845163763cbfe160e11b81526001600160a01b03909116938101849052938285602481305afa938415610483578294610453575b608095508252600b835280822054600c8452818084205493600d865220549382519586528501528301526060820152f35b93508285813d831161047c575b61046a818361119f565b8101031261027c576080945193610422565b503d610460565b5051903d90823e3d90fd5b80fd5b50503461027c57602036600319011261027c5760209181906001600160a01b036104b9611142565b168152600d845220549051908152f35b50503461027c57602036600319011261027c5760209181906001600160a01b036104f1611142565b168152600b845220549051908152f35b50503461027c578160031936011261027c576020906009549051908152f35b5082903461027c578260031936011261027c5761053b611142565b61054361115d565b9061054c611173565b6006546001600160a01b03939091908483166105895750839495506001600160601b0360a01b948591169116176006551690600754161760075580f35b606490602088519162461bcd60e51b8352820152600b60248201526a105b1c9958591e481cd95d60aa1b6044820152fd5b50503461027c578060031936011261027c576020906105e46105da611142565b60243590336111d7565b5160018152f35b50503461027c578160031936011261027c57602090600a549051908152f35b5091903461027c578160031936011261027c57805191809380549160019083821c92828516948515610704575b60209586861081146106f1578589529081156106cd5750600114610675575b6106718787610667828c038361119f565b51918291826110f9565b0390f35b81529295507f8a35acfbc15ff81a39ae7d344fd709f28e8600b4aa8c65c6b64bfe7fe36bd19b5b8284106106ba57505050826106719461066792820101943880610656565b805486850188015292860192810161069c565b60ff19168887015250505050151560051b8301019250610667826106713880610656565b634e487b7160e01b845260228352602484fd5b93607f1693610637565b50503461027c5736600319011261048e5761074b61072a611142565b610732611173565b600554602435916001600160a01b039182169116611456565b80f35b50503461027c578160031936011261027c5760055490516001600160a01b039091168152602090f35b50503461027c57602036600319011261027c5760209181906001600160a01b0361079f611142565b168152600c845220549051908152f35b83823461027c57608036600319011261027c576064356001600160a01b0381169190829003610259576107e0611173565b35600e55602435600f556044356010556001600160601b0360a01b601154161760115580f35b833461048e578060031936011261048e5761081f611173565b600580546001600160a01b0319811690915581906001600160a01b03167f8be0079c531659141344cd1fd0a4f28419497f9722a3daafe3b4186f6b6457e08280a380f35b50503461027c57602036600319011261027c5760209181906001600160a01b0361088b611142565b16815280845220549051908152f35b50503461027c578160031936011261027c57517f00000000000000000000000000000000000000000000000000000000000000006001600160a01b03168152602090f35b50503461027c578160031936011261027c5760075490516001600160a01b039091168152602090f35b50503461027c578060031936011261027c57610921611142565b906024359161092e611173565b61093c6107d084111561154d565b6001600160a01b03168352600d60205282205580f35b503461025957816003193601126102595761096b611142565b60243590610977611173565b6001600160a01b03169182156109fc5750837fddf252ad1be2c89b69c2b068fc378daa952ba7f163c4a11628f55a4df523b3ef6020836109ba86956002546112b5565b6002558484528382528684208181540190558651908152a38252600c6020528082208054156109e7578280f35b429055600a5490600d60205282205538808280f35b835163ec442f0560e01b8152908101859052602490fd5b509034610259578260031936011261025957610a507f000000000000000000000000000000000000000000000000000000000000000042106112d8565b6006546001600160a01b039390841615610c7f57836007541615610c4357610a7733611322565b338152602093600b855282822054938415610c0c57612710610a9b600e5487611443565b0492610aa78487611315565b91338252600b8852818681205583600754168460065416813b15610c0857839291606484928a519687938492631b8eb9dd60e21b8452878401523360248401528d60448401525af18015610bfe57908694939291610bc9575b505050610b31837f000000000000000000000000000000000000000000000000000000000000000016913383611456565b81610b6f575b505050815190838252848201527f10d8dedfc0745b8c25ba10b06e304138b251c18dcaadf2d71c7f3214719dc4d1823392a251908152f35b610b7d926011541690611456565b8151818152828582015260058382015264636c61696d60d81b60608201527fdb23cba216bfaed89070d2734596f2ee2a163099cfc4f5ef32036debc979222660803392a2388181610b37565b909192935067ffffffffffffffff8311610beb57505084528290388080610b00565b634e487b7160e01b825260419052602490fd5b87513d84823e3d90fd5b8380fd5b835162461bcd60e51b815290810186905260116024820152704e6f207969656c6420746f20636c61696d60781b6044820152606490fd5b815162461bcd60e51b8152602081850152601660248201527513585c9ad95d081b585b9859d95c881b9bdd081cd95d60521b6044820152606490fd5b815162461bcd60e51b8152602081850152601060248201526f14d6481d1bdad95b881b9bdd081cd95d60821b6044820152606490fd5b50503461027c57602036600319011261027c576020916001600160a01b03610cdb611142565b168152600d8352819020548015610cf457905b51908152f35b50600a5490610cee565b50503461027c578160031936011261027c576020905160128152f35b50503461027c578160031936011261027c5760065490516001600160a01b039091168152602090f35b50823461048e57606036600319011261048e57610d5e611142565b610d6661115d565b916044359360018060a01b038316808352600160205286832033845260205286832054916000198310610da2575b6020886105e48989896111d7565b868310610e0a578115610df3573315610ddc575082526001602090815286832033845281529186902090859003905582906105e487610d94565b8751634a1406b160e11b8152908101849052602490fd5b875163e602df0560e01b8152908101849052602490fd5b8751637dc7a0d960e11b8152339181019182526020820193909352604081018790528291506060010390fd5b50503461027c578160031936011261027c57602090517f00000000000000000000000000000000000000000000000000000000000000008152f35b50503461027c578160031936011261027c57608090600e5490600f54906010549060018060a01b036011541692815194855260208501528301526060820152f35b50503461027c578160031936011261027c576020906002549051908152f35b83823461027c57602036600319011261027c5735610eed611173565b610efb6107d082111561154d565b600a5580f35b50503461027c578160031936011261027c576020906102a66115ed565b5034610259578160031936011261025957610f37611142565b602435903315610fb0576001600160a01b0316918215610f9957508083602095338152600187528181208582528752205582519081527f8c5be1e5ebec7d5bd14f71427d1e84f3dd0314c0f7b2291e5b200ac8c7c3b925843392a35160018152f35b8351634a1406b160e11b8152908101859052602490fd5b835163e602df0560e01b8152808401869052602490fd5b833461048e57602036600319011261048e5761074b610fe4611142565b611322565b509034610259578260031936011261025957805191836003549060019082821c9282811680156110d3575b60209586861082146110c0575084885290811561109e5750600114611045575b6106718686610667828b038361119f565b929550600383527fc2575a0e9e593c00f959f8c92f12db2869c3395a3b0502d05e2516446f71f85b5b82841061108b575050508261067194610667928201019438611034565b805486850188015292860192810161106e565b60ff191687860152505050151560051b83010192506106678261067138611034565b634e487b7160e01b845260229052602483fd5b93607f1693611014565b84903461027c578160031936011261027c576020906008548152f35b6020808252825181830181905290939260005b82811061112e57505060409293506000838284010152601f8019910116010190565b81810186015184820160400152850161110c565b600435906001600160a01b038216820361115857565b600080fd5b602435906001600160a01b038216820361115857565b6005546001600160a01b0316330361118757565b60405163118cdaa760e01b8152336004820152602490fd5b90601f8019910116810190811067ffffffffffffffff8211176111c157604052565b634e487b7160e01b600052604160045260246000fd5b916001600160a01b0380841692831561129c57169283156112835760009083825281602052604082205490838210611251575091604082827fddf252ad1be2c89b69c2b068fc378daa952ba7f163c4a11628f55a4df523b3ef958760209652828652038282205586815220818154019055604051908152a3565b60405163391434e360e21b81526001600160a01b03919091166004820152602481019190915260448101839052606490fd5b60405163ec442f0560e01b815260006004820152602490fd5b604051634b637e8f60e11b815260006004820152602490fd5b919082018092116112c257565b634e487b7160e01b600052601160045260246000fd5b156112df57565b60405162461bcd60e51b815260206004820152600e60248201526d13585c9ad95d081b585d1d5c995960921b6044820152606490fd5b919082039182116112c257565b61134d7f000000000000000000000000000000000000000000000000000000000000000042106112d8565b60018060a01b038116906000908282526020828152604091828420541561141057848452600c82526113828385205442611315565b801561140857611391916114f8565b908161139f575b5050505050565b83857faced61c86c507aa3c2be43553434c6ff191ea7cbbd812491a6ae59abc99d29dc9552600b82528381206113d68482546112b5565b90556113e4836008546112b5565b600855858152600c8252834291205582519182524290820152a23880808080611398565b505050505050565b50606491519062461bcd60e51b82526004820152600d60248201526c4e6f2059542062616c616e636560981b6044820152fd5b818102929181159184041417156112c257565b60405163a9059cbb60e01b602082019081526001600160a01b0393841660248301526044808301959095529381529092608082019067ffffffffffffffff8211838310176111c157602092600092604052519082865af1156114ec576000513d6114e357508082163b155b6114c9575050565b604051635274afe760e01b81529116600482015260249150fd5b600114156114c1565b6040513d6000823e3d90fd5b6301e133809161153f9160018060a01b03166000526000602052612710611539604060002054600d6020526040600020548015156000146115435790611443565b04611443565b0490565b50600a5490611443565b1561155457565b60405162461bcd60e51b815260206004820152600d60248201526c0a4c2e8ca40e8dede40d0d2ced609b1b6044820152606490fd5b6001600160a01b038116600081815260208190526040812054909290156115de576115db926115cc604092600c6020526115c68484205442611315565b906114f8565b928152600b60205220546112b5565b90565b5050604090600b602052205490565b7f000000000000000000000000000000000000000000000000000000000000000080421015611621576115db904290611315565b5060009056fea2646970667358221220e9de65fcde930be3e2d88af0498c6a8de38175d59dcb29fe94f5414fa91f3a2564736f6c63430008140033",
  "linkReferences": {},
  "deployedLinkReferences": {}
}